{
  "contractName": "CommonModifier",
  "abi": [
    {
      "anonymous": false,
      "inputs": [],
      "name": "Finalized",
      "type": "event"
    },
    {
      "inputs": [],
      "name": "completed",
      "outputs": [
        {
          "internalType": "bool",
          "name": "",
          "type": "bool"
        }
      ],
      "stateMutability": "view",
      "type": "function"
    },
    {
      "inputs": [],
      "name": "end",
      "outputs": [
        {
          "internalType": "uint256",
          "name": "",
          "type": "uint256"
        }
      ],
      "stateMutability": "view",
      "type": "function"
    },
    {
      "inputs": [],
      "name": "start",
      "outputs": [
        {
          "internalType": "uint256",
          "name": "",
          "type": "uint256"
        }
      ],
      "stateMutability": "view",
      "type": "function"
    }
  ],
  "bytecode": "0x608060405234801561001057600080fd5b5061015d806100206000396000f3fe608060405234801561001057600080fd5b50600436106100415760003560e01c80639d9a7fe914610046578063be9a655514610064578063efbe1c1c14610082575b600080fd5b61004e6100a0565b60405161005b91906100db565b60405180910390f35b61006c6100b1565b60405161007991906100f6565b60405180910390f35b61008a6100b7565b60405161009791906100f6565b60405180910390f35b60008054906101000a900460ff1681565b60015481565b60025481565b6100c681610111565b82525050565b6100d58161011d565b82525050565b60006020820190506100f060008301846100bd565b92915050565b600060208201905061010b60008301846100cc565b92915050565b60008115159050919050565b600081905091905056fea2646970667358221220dcf4eba78922fec4c547e3f1ef81fc10fc41e6bd661c217f2f810daa1adf2ec564736f6c63430008010033",
  "immutableReferences": {},
  "source": "// SPDX-License-Identifier: MIT\npragma solidity ^0.8.0;\n\ncontract CommonModifier {\n\tbool public completed;\n    uint256 public start;\n    uint256 public end;\n\n    event Finalized();\n\n\tmodifier whenCompleted() virtual {\n        require(completed, \"Contract not yet completed\");\n        _;\n    }\n\n    modifier whenNotCompleted() virtual {\n        require(!completed, \"Contract already completed\");\n        _;\n    }\n\n    modifier whenClosed() virtual {\n        require(\n            block.timestamp >= end, \n            \"Contract not yet closed\"\n        );\n        _;\n    }\n\n    modifier whenRunning() virtual {\n        require(\n            block.timestamp >= start && block.timestamp < end, \n            \"Contract not running\"\n        );\n        _;\n    }\n\n    function _finalize() internal virtual {\n        completed = true;\n        emit Finalized();\n    }\n}\n",
  "sourcePath": "/home/ebalo/Desktop/Projects/blockchain/block-chain/contracts/CommonModifier.sol",
  "compiler": {
    "name": "solc",
    "version": "0.8.1+commit.df193b15.Emscripten.clang"
  },
  "schemaVersion": "3.4.1",
  "updatedAt": "2021-05-15T16:29:59.517Z",
  "devdoc": {
    "kind": "dev",
    "methods": {},
    "version": 1
  },
  "userdoc": {
    "kind": "user",
    "methods": {},
    "version": 1
  }
}