{
  "contractName": "Crowdsale",
  "abi": [
    {
      "inputs": [
        {
          "internalType": "uint256",
          "name": "_start",
          "type": "uint256"
        },
        {
          "internalType": "uint256",
          "name": "_end",
          "type": "uint256"
        },
        {
          "internalType": "contract Melody",
          "name": "_token",
          "type": "address"
        },
        {
          "internalType": "uint256",
          "name": "_goal",
          "type": "uint256"
        },
        {
          "components": [
            {
              "internalType": "uint256",
              "name": "rate",
              "type": "uint256"
            },
            {
              "internalType": "uint256",
              "name": "lower_limit",
              "type": "uint256"
            },
            {
              "internalType": "uint256",
              "name": "upper_limit",
              "type": "uint256"
            }
          ],
          "internalType": "struct Crowdsale.PaymentTier[]",
          "name": "_payment_tier",
          "type": "tuple[]"
        }
      ],
      "stateMutability": "nonpayable",
      "type": "constructor"
    },
    {
      "anonymous": false,
      "inputs": [
        {
          "indexed": true,
          "internalType": "address",
          "name": "from",
          "type": "address"
        },
        {
          "indexed": false,
          "internalType": "uint256",
          "name": "amount",
          "type": "uint256"
        }
      ],
      "name": "Buy",
      "type": "event"
    },
    {
      "anonymous": false,
      "inputs": [],
      "name": "Finalize",
      "type": "event"
    },
    {
      "anonymous": false,
      "inputs": [],
      "name": "Finalized",
      "type": "event"
    },
    {
      "anonymous": false,
      "inputs": [
        {
          "indexed": true,
          "internalType": "address",
          "name": "previousOwner",
          "type": "address"
        },
        {
          "indexed": true,
          "internalType": "address",
          "name": "newOwner",
          "type": "address"
        }
      ],
      "name": "OwnershipTransferred",
      "type": "event"
    },
    {
      "anonymous": false,
      "inputs": [
        {
          "indexed": false,
          "internalType": "uint256",
          "name": "amount",
          "type": "uint256"
        }
      ],
      "name": "Redeemed",
      "type": "event"
    },
    {
      "inputs": [],
      "name": "completed",
      "outputs": [
        {
          "internalType": "bool",
          "name": "",
          "type": "bool"
        }
      ],
      "stateMutability": "view",
      "type": "function"
    },
    {
      "inputs": [],
      "name": "end",
      "outputs": [
        {
          "internalType": "uint256",
          "name": "",
          "type": "uint256"
        }
      ],
      "stateMutability": "view",
      "type": "function"
    },
    {
      "inputs": [],
      "name": "owner",
      "outputs": [
        {
          "internalType": "address",
          "name": "",
          "type": "address"
        }
      ],
      "stateMutability": "view",
      "type": "function"
    },
    {
      "inputs": [],
      "name": "renounceOwnership",
      "outputs": [],
      "stateMutability": "nonpayable",
      "type": "function"
    },
    {
      "inputs": [],
      "name": "start",
      "outputs": [
        {
          "internalType": "uint256",
          "name": "",
          "type": "uint256"
        }
      ],
      "stateMutability": "view",
      "type": "function"
    },
    {
      "inputs": [
        {
          "internalType": "address",
          "name": "newOwner",
          "type": "address"
        }
      ],
      "name": "transferOwnership",
      "outputs": [],
      "stateMutability": "nonpayable",
      "type": "function"
    },
    {
      "stateMutability": "payable",
      "type": "receive"
    },
    {
      "inputs": [],
      "name": "buy",
      "outputs": [],
      "stateMutability": "payable",
      "type": "function"
    },
    {
      "inputs": [],
      "name": "finalize",
      "outputs": [],
      "stateMutability": "nonpayable",
      "type": "function"
    },
    {
      "inputs": [],
      "name": "redeem",
      "outputs": [],
      "stateMutability": "payable",
      "type": "function"
    },
    {
      "inputs": [],
      "name": "getBalance",
      "outputs": [
        {
          "internalType": "uint256",
          "name": "",
          "type": "uint256"
        }
      ],
      "stateMutability": "view",
      "type": "function"
    },
    {
      "inputs": [],
      "name": "getMinted",
      "outputs": [
        {
          "internalType": "uint256",
          "name": "",
          "type": "uint256"
        }
      ],
      "stateMutability": "view",
      "type": "function"
    },
    {
      "inputs": [],
      "name": "getStartingTime",
      "outputs": [
        {
          "internalType": "uint256",
          "name": "",
          "type": "uint256"
        }
      ],
      "stateMutability": "view",
      "type": "function"
    },
    {
      "inputs": [],
      "name": "getEndingTime",
      "outputs": [
        {
          "internalType": "uint256",
          "name": "",
          "type": "uint256"
        }
      ],
      "stateMutability": "view",
      "type": "function"
    },
    {
      "inputs": [],
      "name": "getGoal",
      "outputs": [
        {
          "internalType": "uint256",
          "name": "",
          "type": "uint256"
        }
      ],
      "stateMutability": "view",
      "type": "function"
    },
    {
      "inputs": [],
      "name": "getTiers",
      "outputs": [
        {
          "components": [
            {
              "internalType": "uint256",
              "name": "rate",
              "type": "uint256"
            },
            {
              "internalType": "uint256",
              "name": "lower_limit",
              "type": "uint256"
            },
            {
              "internalType": "uint256",
              "name": "upper_limit",
              "type": "uint256"
            }
          ],
          "internalType": "struct Crowdsale.PaymentTier[]",
          "name": "",
          "type": "tuple[]"
        }
      ],
      "stateMutability": "view",
      "type": "function"
    },
    {
      "inputs": [],
      "name": "isCompleted",
      "outputs": [
        {
          "internalType": "bool",
          "name": "",
          "type": "bool"
        }
      ],
      "stateMutability": "view",
      "type": "function"
    },
    {
      "inputs": [],
      "name": "isStarted",
      "outputs": [
        {
          "internalType": "bool",
          "name": "",
          "type": "bool"
        }
      ],
      "stateMutability": "view",
      "type": "function"
    }
  ],
  "bytecode": "0x60806040523480156200001157600080fd5b50604051620022f2380380620022f28339818101604052810190620000379190620004e1565b600062000049620003a060201b60201c565b9050806000806101000a81548173ffffffffffffffffffffffffffffffffffffffff021916908373ffffffffffffffffffffffffffffffffffffffff1602179055508073ffffffffffffffffffffffffffffffffffffffff16600073ffffffffffffffffffffffffffffffffffffffff167f8be0079c531659141344cd1fd0a4f28419497f9722a3daafe3b4186f6b6457e060405160405180910390a35060008514158015620000f857508442105b6200013a576040517f08c379a0000000000000000000000000000000000000000000000000000000008152600401620001319062000683565b60405180910390fd5b600084141580156200014b57508342105b6200018d576040517f08c379a00000000000000000000000000000000000000000000000000000000081526004016200018490620006a5565b60405180910390fd5b6000821415620001d4576040517f08c379a0000000000000000000000000000000000000000000000000000000008152600401620001cb90620006c7565b60405180910390fd5b60008151116200021b576040517f08c379a000000000000000000000000000000000000000000000000000000000815260040162000212906200063f565b60405180910390fd5b600073ffffffffffffffffffffffffffffffffffffffff168373ffffffffffffffffffffffffffffffffffffffff1614156200028e576040517f08c379a0000000000000000000000000000000000000000000000000000000008152600401620002859062000661565b60405180910390fd5b84600181905550836002819055508160038190555082600560006101000a81548173ffffffffffffffffffffffffffffffffffffffff021916908373ffffffffffffffffffffffffffffffffffffffff16021790555060005b8151811015620003945760068282815181106200032d577f4e487b7100000000000000000000000000000000000000000000000000000000600052603260045260246000fd5b60200260200101519080600181540180825580915050600190039060005260206000209060030201600090919091909150600082015181600001556020820151816001015560408201518160020155505080806200038b90620007da565b915050620002e7565b50505050505062000a0a565b600033905090565b6000620003bf620003b98462000712565b620006e9565b90508083825260208201905082856060860282011115620003df57600080fd5b60005b85811015620004135781620003f8888262000461565b845260208401935060608301925050600181019050620003e2565b5050509392505050565b600082601f8301126200042f57600080fd5b815162000441848260208601620003a8565b91505092915050565b6000815190506200045b81620009d6565b92915050565b6000606082840312156200047457600080fd5b620004806060620006e9565b905060006200049284828501620004ca565b6000830152506020620004a884828501620004ca565b6020830152506040620004be84828501620004ca565b60408301525092915050565b600081519050620004db81620009f0565b92915050565b600080600080600060a08688031215620004fa57600080fd5b60006200050a88828901620004ca565b95505060206200051d88828901620004ca565b945050604062000530888289016200044a565b93505060606200054388828901620004ca565b925050608086015167ffffffffffffffff8111156200056157600080fd5b6200056f888289016200041d565b9150509295509295909350565b60006200058b60298362000741565b9150620005988262000897565b604082019050919050565b6000620005b2601c8362000741565b9150620005bf82620008e6565b602082019050919050565b6000620005d9602b8362000741565b9150620005e6826200090f565b604082019050919050565b60006200060060298362000741565b91506200060d826200095e565b604082019050919050565b60006200062760138362000741565b91506200063482620009ad565b602082019050919050565b600060208201905081810360008301526200065a816200057c565b9050919050565b600060208201905081810360008301526200067c81620005a3565b9050919050565b600060208201905081810360008301526200069e81620005ca565b9050919050565b60006020820190508181036000830152620006c081620005f1565b9050919050565b60006020820190508181036000830152620006e28162000618565b9050919050565b6000620006f562000708565b9050620007038282620007a4565b919050565b6000604051905090565b600067ffffffffffffffff82111562000730576200072f62000857565b5b602082029050602081019050919050565b600082825260208201905092915050565b60006200075f826200077a565b9050919050565b6000620007738262000752565b9050919050565b600073ffffffffffffffffffffffffffffffffffffffff82169050919050565b6000819050919050565b620007af8262000886565b810181811067ffffffffffffffff82111715620007d157620007d062000857565b5b80604052505050565b6000620007e7826200079a565b91507fffffffffffffffffffffffffffffffffffffffffffffffffffffffffffffffff8214156200081d576200081c62000828565b5b600182019050919050565b7f4e487b7100000000000000000000000000000000000000000000000000000000600052601160045260246000fd5b7f4e487b7100000000000000000000000000000000000000000000000000000000600052604160045260246000fd5b6000601f19601f8301169050919050565b7f4174206c65617374206f6e65207061796d656e742074696572206d757374206260008201527f6520646566696e65640000000000000000000000000000000000000000000000602082015250565b7f546f6b656e20616464726573732063616e6e6f74206265206e756c6c00000000600082015250565b7f5374617274696e672074696d652063616e6e6f74206265206e756c6c206f722060008201527f696e207468652070617374000000000000000000000000000000000000000000602082015250565b7f456e64696e672074696d652063616e6e6f74206265206e756c6c206f7220696e60008201527f2074686520706173740000000000000000000000000000000000000000000000602082015250565b7f476f616c2063616e6e6f74206265206e756c6c00000000000000000000000000600082015250565b620009e18162000766565b8114620009ed57600080fd5b50565b620009fb816200079a565b811462000a0757600080fd5b50565b6118d88062000a1a6000396000f3fe6080604052600436106101025760003560e01c8063ac72200d11610095578063c1da7e9b11610064578063c1da7e9b146102b0578063de170570146102db578063efbe1c1c14610306578063f2fde38b14610331578063fa391c641461035a57610111565b8063ac72200d14610225578063b97a7d2414610250578063be040fb01461027b578063be9a65551461028557610111565b8063715018a6116100d1578063715018a6146101ae5780638da5cb5b146101c55780639d9a7fe9146101f0578063a6f2ae3a1461021b57610111565b80630dc0c9711461011657806312065fe0146101415780634bb278f31461016c578063544736e61461018357610111565b366101115761010f610385565b005b600080fd5b34801561012257600080fd5b5061012b6105ca565b6040516101389190611506565b60405180910390f35b34801561014d57600080fd5b506101566105d4565b6040516101639190611506565b60405180910390f35b34801561017857600080fd5b506101816105dc565b005b34801561018f57600080fd5b50610198610745565b6040516101a5919061142b565b60405180910390f35b3480156101ba57600080fd5b506101c3610752565b005b3480156101d157600080fd5b506101da61088c565b6040516101e791906113c5565b60405180910390f35b3480156101fc57600080fd5b506102056108b5565b604051610212919061142b565b60405180910390f35b610223610385565b005b34801561023157600080fd5b5061023a6108c8565b6040516102479190611506565b60405180910390f35b34801561025c57600080fd5b506102656108d2565b6040516102729190611506565b60405180910390f35b6102836108dc565b005b34801561029157600080fd5b5061029a610a88565b6040516102a79190611506565b60405180910390f35b3480156102bc57600080fd5b506102c5610a8e565b6040516102d29190611506565b60405180910390f35b3480156102e757600080fd5b506102f0610a98565b6040516102fd9190611409565b60405180910390f35b34801561031257600080fd5b5061031b610b15565b6040516103289190611506565b60405180910390f35b34801561033d57600080fd5b50610358600480360381019061035391906111d6565b610b1b565b005b34801561036657600080fd5b5061036f610cc4565b60405161037c919061142b565b60405180910390f35b6001544210158015610398575060025442105b80156103a75750600354600454105b6103e6576040517f08c379a00000000000000000000000000000000000000000000000000000000081526004016103dd906114c6565b60405180910390fd5b600060149054906101000a900460ff1615610436576040517f08c379a000000000000000000000000000000000000000000000000000000000815260040161042d906114e6565b60405180910390fd5b6000610440610d57565b9050600560009054906101000a900473ffffffffffffffffffffffffffffffffffffffff1673ffffffffffffffffffffffffffffffffffffffff166340c10f1930836040518363ffffffff1660e01b815260040161049f9291906113e0565b600060405180830381600087803b1580156104b957600080fd5b505af11580156104cd573d6000803e3d6000fd5b5050505080600460008282546104e3919061156b565b92505081905550600560009054906101000a900473ffffffffffffffffffffffffffffffffffffffff1673ffffffffffffffffffffffffffffffffffffffff16630752881a33836040518363ffffffff1660e01b81526004016105479291906113e0565b600060405180830381600087803b15801561056157600080fd5b505af1158015610575573d6000803e3d6000fd5b505050503373ffffffffffffffffffffffffffffffffffffffff167fe3d4187f6ca4248660cc0ac8b8056515bac4a8132be2eca31d6d0cc170722a7e826040516105bf9190611506565b60405180910390a250565b6000600154905090565b600047905090565b6105e46111b9565b73ffffffffffffffffffffffffffffffffffffffff1661060261088c565b73ffffffffffffffffffffffffffffffffffffffff1614610658576040517f08c379a000000000000000000000000000000000000000000000000000000000815260040161064f90611486565b60405180910390fd5b6002544210158061066d575060035460045410155b6106ac576040517f08c379a00000000000000000000000000000000000000000000000000000000081526004016106a3906114a6565b60405180910390fd5b600060149054906101000a900460ff16156106fc576040517f08c379a00000000000000000000000000000000000000000000000000000000081526004016106f3906114e6565b60405180910390fd5b6001600060146101000a81548160ff0219169083151502179055507fc5454d111913d0c92fa9088b73be5c3fc91d1eb84db52a8a8485154f05d73f2e60405160405180910390a1565b6000600154421015905090565b61075a6111b9565b73ffffffffffffffffffffffffffffffffffffffff1661077861088c565b73ffffffffffffffffffffffffffffffffffffffff16146107ce576040517f08c379a00000000000000000000000000000000000000000000000000000000081526004016107c590611486565b60405180910390fd5b600073ffffffffffffffffffffffffffffffffffffffff1660008054906101000a900473ffffffffffffffffffffffffffffffffffffffff1673ffffffffffffffffffffffffffffffffffffffff167f8be0079c531659141344cd1fd0a4f28419497f9722a3daafe3b4186f6b6457e060405160405180910390a360008060006101000a81548173ffffffffffffffffffffffffffffffffffffffff021916908373ffffffffffffffffffffffffffffffffffffffff160217905550565b60008060009054906101000a900473ffffffffffffffffffffffffffffffffffffffff16905090565b600060149054906101000a900460ff1681565b6000600454905090565b6000600354905090565b6108e46111b9565b73ffffffffffffffffffffffffffffffffffffffff1661090261088c565b73ffffffffffffffffffffffffffffffffffffffff1614610958576040517f08c379a000000000000000000000000000000000000000000000000000000000815260040161094f90611486565b60405180910390fd5b600060149054906101000a900460ff166109a7576040517f08c379a000000000000000000000000000000000000000000000000000000000815260040161099e90611446565b60405180910390fd5b600254421015806109bc575060035460045410155b6109fb576040517f08c379a00000000000000000000000000000000000000000000000000000000081526004016109f2906114a6565b60405180910390fd5b6000479050610a0861088c565b73ffffffffffffffffffffffffffffffffffffffff166108fc479081150290604051600060405180830381858888f19350505050158015610a4d573d6000803e3d6000fd5b507f82498456531a1065f689ba348ce20bda781238c424cf36748dd40bc282831e0381604051610a7d9190611506565b60405180910390a150565b60015481565b6000600254905090565b60606006805480602002602001604051908101604052809291908181526020016000905b82821015610b0c5783829060005260206000209060030201604051806060016040529081600082015481526020016001820154815260200160028201548152505081526020019060010190610abc565b50505050905090565b60025481565b610b236111b9565b73ffffffffffffffffffffffffffffffffffffffff16610b4161088c565b73ffffffffffffffffffffffffffffffffffffffff1614610b97576040517f08c379a0000000000000000000000000000000000000000000000000000000008152600401610b8e90611486565b60405180910390fd5b600073ffffffffffffffffffffffffffffffffffffffff168173ffffffffffffffffffffffffffffffffffffffff161415610c07576040517f08c379a0000000000000000000000000000000000000000000000000000000008152600401610bfe90611466565b60405180910390fd5b8073ffffffffffffffffffffffffffffffffffffffff1660008054906101000a900473ffffffffffffffffffffffffffffffffffffffff1673ffffffffffffffffffffffffffffffffffffffff167f8be0079c531659141344cd1fd0a4f28419497f9722a3daafe3b4186f6b6457e060405160405180910390a3806000806101000a81548173ffffffffffffffffffffffffffffffffffffffff021916908373ffffffffffffffffffffffffffffffffffffffff16021790555050565b6000610cce6111b9565b73ffffffffffffffffffffffffffffffffffffffff16610cec61088c565b73ffffffffffffffffffffffffffffffffffffffff1614610d42576040517f08c379a0000000000000000000000000000000000000000000000000000000008152600401610d3990611486565b60405180910390fd5b600060149054906101000a900460ff16905090565b60006001544210158015610d6c575060025442105b8015610d7b5750600354600454105b610dba576040517f08c379a0000000000000000000000000000000000000000000000000000000008152600401610db1906114c6565b60405180910390fd5b60006004549050600080600034905060005b60068054905081101561108e57600082118015610e34575060068181548110610e1e577f4e487b7100000000000000000000000000000000000000000000000000000000600052603260045260246000fd5b9060005260206000209060030201600101548510155b8015610e8a575060068181548110610e75577f4e487b7100000000000000000000000000000000000000000000000000000000600052603260045260246000fd5b90600052602060002090600302016002015485105b1561107b5760068181548110610ec9577f4e487b7100000000000000000000000000000000000000000000000000000000600052603260045260246000fd5b906000526020600020906003020160000154670de0b6b3a76400008084610ef091906115f2565b610efa91906115c1565b610f0491906115f2565b925060068181548110610f40577f4e487b7100000000000000000000000000000000000000000000000000000000600052603260045260246000fd5b9060005260206000209060030201600201548386610f5e919061156b565b1115610fd45760068181548110610f9e577f4e487b7100000000000000000000000000000000000000000000000000000000600052603260045260246000fd5b9060005260206000209060030201600201548386610fbc919061156b565b610fc6919061164c565b83610fd1919061164c565b92505b8285610fe0919061156b565b9450670de0b6b3a764000060068281548110611025577f4e487b7100000000000000000000000000000000000000000000000000000000600052603260045260246000fd5b906000526020600020906003020160000154670de0b6b3a76400008561104b91906115f2565b61105591906115c1565b61105f91906115c1565b8261106a919061164c565b91508284611078919061156b565b93505b8080611086906116c8565b915050610dcc565b50600354836004546110a0919061156b565b11156111af576000600354846004546110b9919061156b565b6110c3919061164c565b90506000670de0b6b3a7640000600660016006805490506110e4919061164c565b8154811061111b577f4e487b7100000000000000000000000000000000000000000000000000000000600052603260045260246000fd5b906000526020600020906003020160000154670de0b6b3a76400008461114191906115f2565b61114b91906115c1565b61115591906115c1565b90503373ffffffffffffffffffffffffffffffffffffffff166108fc829081150290604051600060405180830381858888f1935050505015801561119d573d6000803e3d6000fd5b5081856111aa919061164c565b945050505b8294505050505090565b600033905090565b6000813590506111d08161188b565b92915050565b6000602082840312156111e857600080fd5b60006111f6848285016111c1565b91505092915050565b600061120b8383611365565b60608301905092915050565b61122081611680565b82525050565b600061123182611531565b61123b8185611549565b935061124683611521565b8060005b8381101561127757815161125e88826111ff565b97506112698361153c565b92505060018101905061124a565b5085935050505092915050565b61128d81611692565b82525050565b60006112a0601a8361155a565b91506112ab8261176f565b602082019050919050565b60006112c360268361155a565b91506112ce82611798565b604082019050919050565b60006112e660208361155a565b91506112f1826117e7565b602082019050919050565b600061130960188361155a565b915061131482611810565b602082019050919050565b600061132c60158361155a565b915061133782611839565b602082019050919050565b600061134f601a8361155a565b915061135a82611862565b602082019050919050565b60608201600082015161137b60008501826113a7565b50602082015161138e60208501826113a7565b5060408201516113a160408501826113a7565b50505050565b6113b0816116be565b82525050565b6113bf816116be565b82525050565b60006020820190506113da6000830184611217565b92915050565b60006040820190506113f56000830185611217565b61140260208301846113b6565b9392505050565b600060208201905081810360008301526114238184611226565b905092915050565b60006020820190506114406000830184611284565b92915050565b6000602082019050818103600083015261145f81611293565b9050919050565b6000602082019050818103600083015261147f816112b6565b9050919050565b6000602082019050818103600083015261149f816112d9565b9050919050565b600060208201905081810360008301526114bf816112fc565b9050919050565b600060208201905081810360008301526114df8161131f565b9050919050565b600060208201905081810360008301526114ff81611342565b9050919050565b600060208201905061151b60008301846113b6565b92915050565b6000819050602082019050919050565b600081519050919050565b6000602082019050919050565b600082825260208201905092915050565b600082825260208201905092915050565b6000611576826116be565b9150611581836116be565b9250827fffffffffffffffffffffffffffffffffffffffffffffffffffffffffffffffff038211156115b6576115b5611711565b5b828201905092915050565b60006115cc826116be565b91506115d7836116be565b9250826115e7576115e6611740565b5b828204905092915050565b60006115fd826116be565b9150611608836116be565b9250817fffffffffffffffffffffffffffffffffffffffffffffffffffffffffffffffff048311821515161561164157611640611711565b5b828202905092915050565b6000611657826116be565b9150611662836116be565b92508282101561167557611674611711565b5b828203905092915050565b600061168b8261169e565b9050919050565b60008115159050919050565b600073ffffffffffffffffffffffffffffffffffffffff82169050919050565b6000819050919050565b60006116d3826116be565b91507fffffffffffffffffffffffffffffffffffffffffffffffffffffffffffffffff82141561170657611705611711565b5b600182019050919050565b7f4e487b7100000000000000000000000000000000000000000000000000000000600052601160045260246000fd5b7f4e487b7100000000000000000000000000000000000000000000000000000000600052601260045260246000fd5b7f436f6e7472616374206e6f742079657420636f6d706c65746564000000000000600082015250565b7f4f776e61626c653a206e6577206f776e657220697320746865207a65726f206160008201527f6464726573730000000000000000000000000000000000000000000000000000602082015250565b7f4f776e61626c653a2063616c6c6572206973206e6f7420746865206f776e6572600082015250565b7f43726f776473616c65206e6f742079657420636c6f7365640000000000000000600082015250565b7f43726f776473616c65206e6f742072756e6e696e670000000000000000000000600082015250565b7f436f6e747261637420616c726561647920636f6d706c65746564000000000000600082015250565b61189481611680565b811461189f57600080fd5b5056fea26469706673582212204174c9a466994ea788fd13454509d75d745797bdf9534a85b9144a01c27ec7ad64736f6c63430008010033",
  "immutableReferences": {},
  "source": "// SPDX-License-Identifier: MIT\npragma solidity ^0.8.0;\n\nimport \"./Melody.sol\";\nimport \"./CommonModifier.sol\";\nimport \"@openzeppelin/contracts/utils/math/SafeMath.sol\";\nimport \"@openzeppelin/contracts/access/Ownable.sol\";\n\ncontract Crowdsale is Ownable, CommonModifier {\n    using SafeMath for uint256;\n\n    uint256 goal;\n    uint256 minted;\n    Melody token;\n    PaymentTier[] payment_tier;\n\n    event Buy(address indexed from, uint256 amount);\n    event Finalize();\n    event Redeemed(uint256 amount);\n\n    struct PaymentTier {\n        uint256 rate;\n        uint256 lower_limit;\n        uint256 upper_limit;\n    }\n\n    receive() payable external {\n        buy();\n    }\n\n    modifier whenClosed() override {\n        require(\n            block.timestamp >= end || minted >= goal, \n            \"Crowdsale not yet closed\"\n        );\n        _;\n    }\n\n    modifier whenRunning() override {\n        require(\n            block.timestamp >= start && block.timestamp < end && minted < goal, \n            \"Crowdsale not running\"\n        );\n        _;\n    }\n\n    /**\n    @param _start Ico starting time\n    @param _end Ico ending time, if goal is not reached first\n    @param _token Melody token instance\n    @param _goal Amount of funds to raise\n    @param _payment_tier Array of crowdsale price tier\n     */\n    constructor(uint256 _start, uint256 _end, Melody _token, uint256 _goal, PaymentTier[] memory _payment_tier) {\n        require(_start != 0 && block.timestamp < _start, \"Starting time cannot be null or in the past\");\n        require(_end != 0 && block.timestamp < _end, \"Ending time cannot be null or in the past\");\n        require(_goal != 0, \"Goal cannot be null\");\n        require(_payment_tier.length > 0, \"At least one payment tier must be defined\");\n        require(_token != Melody(address(0)), \"Token address cannot be null\");\n\n        start = _start;\n        end = _end;\n        goal = _goal;\n        token = _token;\n\n        for(uint256 i = 0; i < _payment_tier.length; i++) {\n            payment_tier.push(_payment_tier[i]);\n        }\n    }\n\n    function buy() public whenRunning whenNotCompleted payable {\n        // If a fixed rate is provided compute the amount of token to buy based on the rate\n        uint256 tokens_to_buy = computeTokensAmount();\n\n        // Mint new tokens for each submission\n        token.mint(address(this), tokens_to_buy);\n        minted += tokens_to_buy;\n\n        token.buyTokens(msg.sender, tokens_to_buy);\n\n        emit Buy(msg.sender, tokens_to_buy);\n    }\n\n    function computeTokensAmount() internal whenRunning returns(uint256) {\n        uint256 future_minted = minted;\n        uint256 tokens_to_buy;\n        uint256 current_round_tokens;      \n        uint256 ether_used = msg.value;  \n\n        for(uint256 i = 0; i < payment_tier.length; i++) {\n            if(\n                ether_used > 0 &&                                   // Check if there are still some funds in the request\n                future_minted >= payment_tier[i].lower_limit &&     // Check if the current rate can be applied with the lower_limit\n                future_minted < payment_tier[i].upper_limit         // Check if the current rate can be applied with the upper_limit\n                ) {\n                \n                // Keep a static counter and reset it in each round\n                // NOTE: Order is important in value calculation\n                current_round_tokens = ether_used * 1e18 / 1 ether * payment_tier[i].rate;\n\n                // If the tokens to mint exceed the upper limit of the tier reduce the number of token bounght in this round\n                if(future_minted + current_round_tokens > payment_tier[i].upper_limit) {\n                    current_round_tokens -= future_minted + current_round_tokens - payment_tier[i].upper_limit;\n                }\n\n                // Update the future_minted counter with the current_round_tokens\n                future_minted += current_round_tokens;\n\n                // Recomputhe the available funds\n                ether_used -= current_round_tokens * 1 ether / payment_tier[i].rate / 1e18;\n\n                // And add the funds to the total calculation\n                tokens_to_buy += current_round_tokens;\n            }\n        }\n\n        // Check if we have reached and exceeded the funding goal to refund the exceeding tokens and ether\n        if(minted + tokens_to_buy > goal) {\n            uint256 exceedingTokens = minted + tokens_to_buy - goal;\n            uint256 exceedingEther;\n            \n            // Convert the exceedingTokens to ether and refund that ether\n            exceedingEther = exceedingTokens * 1 ether / payment_tier[payment_tier.length -1].rate / 1e18;\n            payable(msg.sender).transfer(exceedingEther);\n\n            // Change the tokens to buy to the new number\n            tokens_to_buy -= exceedingTokens;\n        }\n\n        return tokens_to_buy;\n    }\n\n    function finalize() public onlyOwner whenClosed whenNotCompleted {\n        completed = true;\n        emit Finalize();\n    }\n\n    function redeem() public onlyOwner whenCompleted whenClosed payable {\n        uint256 balance = address(this).balance;\n        payable(owner()).transfer(address(this).balance);\n        emit Redeemed(balance);\n    }\n\n    function getBalance() public view returns(uint256) { return address(this).balance; }\n    function getMinted() public view returns(uint256) { return minted; }\n    function getStartingTime() public view returns(uint256) { return start; }\n    function getEndingTime() public view returns(uint256) { return end; }\n    function getGoal() public view returns(uint256) { return goal; }\n    function getTiers() public view returns(PaymentTier[] memory) { return payment_tier; }\n    function isCompleted() public onlyOwner view returns(bool) { return completed; }\n    function isStarted() public view returns(bool) { return block.timestamp >= start; }\n}\n",
  "sourcePath": "/home/ebalo/Desktop/Projects/blockchain/block-chain/contracts/Crowdsale.sol",
  "compiler": {
    "name": "solc",
    "version": "0.8.1+commit.df193b15.Emscripten.clang"
  },
  "schemaVersion": "3.4.1",
  "updatedAt": "2021-05-16T04:38:06.967Z",
  "networkType": "ethereum",
  "devdoc": {
    "kind": "dev",
    "methods": {
      "constructor": {
        "params": {
          "_end": "Ico ending time, if goal is not reached first",
          "_goal": "Amount of funds to raise",
          "_payment_tier": "Array of crowdsale price tier",
          "_start": "Ico starting time",
          "_token": "Melody token instance"
        }
      },
      "owner()": {
        "details": "Returns the address of the current owner."
      },
      "renounceOwnership()": {
        "details": "Leaves the contract without owner. It will not be possible to call `onlyOwner` functions anymore. Can only be called by the current owner. NOTE: Renouncing ownership will leave the contract without an owner, thereby removing any functionality that is only available to the owner."
      },
      "transferOwnership(address)": {
        "details": "Transfers ownership of the contract to a new account (`newOwner`). Can only be called by the current owner."
      }
    },
    "version": 1
  },
  "userdoc": {
    "kind": "user",
    "methods": {},
    "version": 1
  }
}