{
  "contractName": "Crowdsale",
  "abi": [
    {
      "inputs": [
        {
          "internalType": "uint256",
          "name": "_start",
          "type": "uint256"
        },
        {
          "internalType": "uint256",
          "name": "_end",
          "type": "uint256"
        },
        {
          "internalType": "uint256",
          "name": "_tokenRate",
          "type": "uint256"
        },
        {
          "internalType": "contract MyToken",
          "name": "_token",
          "type": "address"
        },
        {
          "internalType": "uint256",
          "name": "_goal",
          "type": "uint256"
        }
      ],
      "stateMutability": "nonpayable",
      "type": "constructor"
    },
    {
      "anonymous": false,
      "inputs": [
        {
          "indexed": true,
          "internalType": "address",
          "name": "previousOwner",
          "type": "address"
        },
        {
          "indexed": true,
          "internalType": "address",
          "name": "newOwner",
          "type": "address"
        }
      ],
      "name": "OwnershipTransferred",
      "type": "event"
    },
    {
      "inputs": [],
      "name": "owner",
      "outputs": [
        {
          "internalType": "address",
          "name": "",
          "type": "address"
        }
      ],
      "stateMutability": "view",
      "type": "function",
      "constant": true
    },
    {
      "inputs": [],
      "name": "renounceOwnership",
      "outputs": [],
      "stateMutability": "nonpayable",
      "type": "function"
    },
    {
      "inputs": [
        {
          "internalType": "address",
          "name": "newOwner",
          "type": "address"
        }
      ],
      "name": "transferOwnership",
      "outputs": [],
      "stateMutability": "nonpayable",
      "type": "function"
    },
    {
      "stateMutability": "payable",
      "type": "receive",
      "payable": true
    },
    {
      "inputs": [],
      "name": "buy",
      "outputs": [],
      "stateMutability": "payable",
      "type": "function",
      "payable": true
    },
    {
      "inputs": [],
      "name": "finalize",
      "outputs": [
        {
          "internalType": "bool",
          "name": "",
          "type": "bool"
        }
      ],
      "stateMutability": "nonpayable",
      "type": "function"
    },
    {
      "inputs": [],
      "name": "isCompleted",
      "outputs": [
        {
          "internalType": "bool",
          "name": "",
          "type": "bool"
        }
      ],
      "stateMutability": "view",
      "type": "function",
      "constant": true
    },
    {
      "inputs": [],
      "name": "isStarted",
      "outputs": [
        {
          "internalType": "bool",
          "name": "",
          "type": "bool"
        }
      ],
      "stateMutability": "view",
      "type": "function",
      "constant": true
    },
    {
      "inputs": [],
      "name": "redeem",
      "outputs": [],
      "stateMutability": "payable",
      "type": "function",
      "payable": true
    },
    {
      "inputs": [],
      "name": "currentBalance",
      "outputs": [
        {
          "internalType": "uint256",
          "name": "",
          "type": "uint256"
        }
      ],
      "stateMutability": "view",
      "type": "function",
      "constant": true
    }
  ],
  "bytecode": "0x60806040523480156200001157600080fd5b50604051620017ec380380620017ec8339818101604052810190620000379190620002b9565b6000620000496200028360201b60201c565b9050806000806101000a81548173ffffffffffffffffffffffffffffffffffffffff021916908373ffffffffffffffffffffffffffffffffffffffff1602179055508073ffffffffffffffffffffffffffffffffffffffff16600073ffffffffffffffffffffffffffffffffffffffff167f8be0079c531659141344cd1fd0a4f28419497f9722a3daafe3b4186f6b6457e060405160405180910390a35060008514158015620000f857508442105b6200013a576040517f08c379a00000000000000000000000000000000000000000000000000000000081526004016200013190620003d7565b60405180910390fd5b600084141580156200014b57508342105b6200018d576040517f08c379a000000000000000000000000000000000000000000000000000000000815260040162000184906200041b565b60405180910390fd5b6000831415620001d4576040517f08c379a0000000000000000000000000000000000000000000000000000000008152600401620001cb90620003f9565b60405180910390fd5b60008114156200021b576040517f08c379a000000000000000000000000000000000000000000000000000000000815260040162000212906200043d565b60405180910390fd5b8460018190555083600281905550826003819055508060048190555081600560006101000a81548173ffffffffffffffffffffffffffffffffffffffff021916908373ffffffffffffffffffffffffffffffffffffffff1602179055505050505050620005e6565b600033905090565b6000815190506200029c81620005b2565b92915050565b600081519050620002b381620005cc565b92915050565b600080600080600060a08688031215620002d257600080fd5b6000620002e288828901620002a2565b9550506020620002f588828901620002a2565b94505060406200030888828901620002a2565b93505060606200031b888289016200028b565b92505060806200032e88828901620002a2565b9150509295509295909350565b60006200034a602b836200045f565b91506200035782620004c2565b604082019050919050565b6000620003716019836200045f565b91506200037e8262000511565b602082019050919050565b6000620003986029836200045f565b9150620003a5826200053a565b604082019050919050565b6000620003bf6013836200045f565b9150620003cc8262000589565b602082019050919050565b60006020820190508181036000830152620003f2816200033b565b9050919050565b60006020820190508181036000830152620004148162000362565b9050919050565b60006020820190508181036000830152620004368162000389565b9050919050565b600060208201905081810360008301526200045881620003b0565b9050919050565b600082825260208201905092915050565b60006200047d8262000498565b9050919050565b6000620004918262000470565b9050919050565b600073ffffffffffffffffffffffffffffffffffffffff82169050919050565b6000819050919050565b7f5374617274696e672074696d652063616e6e6f74206265206e756c6c206f722060008201527f696e207468652070617374000000000000000000000000000000000000000000602082015250565b7f546f6b656e20726174652063616e6e6f74206265206e756c6c00000000000000600082015250565b7f456e64696e672074696d652063616e6e6f74206265206e756c6c206f7220696e60008201527f2074686520706173740000000000000000000000000000000000000000000000602082015250565b7f476f616c2063616e6e6f74206265206e756c6c00000000000000000000000000600082015250565b620005bd8162000484565b8114620005c957600080fd5b50565b620005d781620004b8565b8114620005e357600080fd5b50565b6111f680620005f66000396000f3fe60806040526004361061008a5760003560e01c8063a6f2ae3a11610059578063a6f2ae3a14610136578063be040fb014610140578063ce845d1d1461014a578063f2fde38b14610175578063fa391c641461019e57610099565b80634bb278f31461009e578063544736e6146100c9578063715018a6146100f45780638da5cb5b1461010b57610099565b36610099576100976101c9565b005b600080fd5b3480156100aa57600080fd5b506100b3610463565b6040516100c09190610c8d565b60405180910390f35b3480156100d557600080fd5b506100de6105a5565b6040516100eb9190610c8d565b60405180910390f35b34801561010057600080fd5b506101096105b2565b005b34801561011757600080fd5b506101206106ec565b60405161012d9190610c49565b60405180910390f35b61013e6101c9565b005b610148610715565b005b34801561015657600080fd5b5061015f610882565b60405161016c9190610d68565b60405180910390f35b34801561018157600080fd5b5061019c60048036038101906101979190610af8565b61088a565b005b3480156101aa57600080fd5b506101b3610a33565b6040516101c09190610c8d565b60405180910390f35b60015442101580156101dd57506002544211155b80156101eb57506004544711155b61022a576040517f08c379a000000000000000000000000000000000000000000000000000000000815260040161022190610d28565b60405180910390fd5b600060149054906101000a900460ff161561027a576040517f08c379a000000000000000000000000000000000000000000000000000000000815260040161027190610cc8565b60405180910390fd5b6000600354600560009054906101000a900473ffffffffffffffffffffffffffffffffffffffff1673ffffffffffffffffffffffffffffffffffffffff1663313ce5676040518163ffffffff1660e01b815260040160206040518083038186803b1580156102e757600080fd5b505afa1580156102fb573d6000803e3d6000fd5b505050506040513d601f19601f8201168201806040525081019061031f9190610b21565b600a61032b9190610e18565b346103369190610f36565b6103409190610d94565b9050600560009054906101000a900473ffffffffffffffffffffffffffffffffffffffff1673ffffffffffffffffffffffffffffffffffffffff166340c10f1930836040518363ffffffff1660e01b815260040161039f929190610c64565b600060405180830381600087803b1580156103b957600080fd5b505af11580156103cd573d6000803e3d6000fd5b50505050600560009054906101000a900473ffffffffffffffffffffffffffffffffffffffff1673ffffffffffffffffffffffffffffffffffffffff16630752881a33836040518363ffffffff1660e01b815260040161042e929190610c64565b600060405180830381600087803b15801561044857600080fd5b505af115801561045c573d6000803e3d6000fd5b5050505050565b600061046d610ac6565b73ffffffffffffffffffffffffffffffffffffffff1661048b6106ec565b73ffffffffffffffffffffffffffffffffffffffff16146104e1576040517f08c379a00000000000000000000000000000000000000000000000000000000081526004016104d890610d08565b60405180910390fd5b600254421015806104f457506004544710155b610533576040517f08c379a000000000000000000000000000000000000000000000000000000000815260040161052a90610ce8565b60405180910390fd5b600060149054906101000a900460ff1615610583576040517f08c379a000000000000000000000000000000000000000000000000000000000815260040161057a90610cc8565b60405180910390fd5b6001600060146101000a81548160ff0219169083151502179055506001905090565b6000600154421015905090565b6105ba610ac6565b73ffffffffffffffffffffffffffffffffffffffff166105d86106ec565b73ffffffffffffffffffffffffffffffffffffffff161461062e576040517f08c379a000000000000000000000000000000000000000000000000000000000815260040161062590610d08565b60405180910390fd5b600073ffffffffffffffffffffffffffffffffffffffff1660008054906101000a900473ffffffffffffffffffffffffffffffffffffffff1673ffffffffffffffffffffffffffffffffffffffff167f8be0079c531659141344cd1fd0a4f28419497f9722a3daafe3b4186f6b6457e060405160405180910390a360008060006101000a81548173ffffffffffffffffffffffffffffffffffffffff021916908373ffffffffffffffffffffffffffffffffffffffff160217905550565b60008060009054906101000a900473ffffffffffffffffffffffffffffffffffffffff16905090565b61071d610ac6565b73ffffffffffffffffffffffffffffffffffffffff1661073b6106ec565b73ffffffffffffffffffffffffffffffffffffffff1614610791576040517f08c379a000000000000000000000000000000000000000000000000000000000815260040161078890610d08565b60405180910390fd5b600060149054906101000a900460ff166107e0576040517f08c379a00000000000000000000000000000000000000000000000000000000081526004016107d790610d48565b60405180910390fd5b600254421015806107f357506004544710155b610832576040517f08c379a000000000000000000000000000000000000000000000000000000000815260040161082990610ce8565b60405180910390fd5b61083a6106ec565b73ffffffffffffffffffffffffffffffffffffffff166108fc479081150290604051600060405180830381858888f1935050505015801561087f573d6000803e3d6000fd5b50565b600047905090565b610892610ac6565b73ffffffffffffffffffffffffffffffffffffffff166108b06106ec565b73ffffffffffffffffffffffffffffffffffffffff1614610906576040517f08c379a00000000000000000000000000000000000000000000000000000000081526004016108fd90610d08565b60405180910390fd5b600073ffffffffffffffffffffffffffffffffffffffff168173ffffffffffffffffffffffffffffffffffffffff161415610976576040517f08c379a000000000000000000000000000000000000000000000000000000000815260040161096d90610ca8565b60405180910390fd5b8073ffffffffffffffffffffffffffffffffffffffff1660008054906101000a900473ffffffffffffffffffffffffffffffffffffffff1673ffffffffffffffffffffffffffffffffffffffff167f8be0079c531659141344cd1fd0a4f28419497f9722a3daafe3b4186f6b6457e060405160405180910390a3806000806101000a81548173ffffffffffffffffffffffffffffffffffffffff021916908373ffffffffffffffffffffffffffffffffffffffff16021790555050565b6000610a3d610ac6565b73ffffffffffffffffffffffffffffffffffffffff16610a5b6106ec565b73ffffffffffffffffffffffffffffffffffffffff1614610ab1576040517f08c379a0000000000000000000000000000000000000000000000000000000008152600401610aa890610d08565b60405180910390fd5b600060149054906101000a900460ff16905090565b600033905090565b600081359050610add81611192565b92915050565b600081519050610af2816111a9565b92915050565b600060208284031215610b0a57600080fd5b6000610b1884828501610ace565b91505092915050565b600060208284031215610b3357600080fd5b6000610b4184828501610ae3565b91505092915050565b610b5381610f90565b82525050565b610b6281610fa2565b82525050565b6000610b75602683610d83565b9150610b8082611050565b604082019050919050565b6000610b98601b83610d83565b9150610ba38261109f565b602082019050919050565b6000610bbb603b83610d83565b9150610bc6826110c8565b604082019050919050565b6000610bde602083610d83565b9150610be982611117565b602082019050919050565b6000610c01601583610d83565b9150610c0c82611140565b602082019050919050565b6000610c24601b83610d83565b9150610c2f82611169565b602082019050919050565b610c4381610fce565b82525050565b6000602082019050610c5e6000830184610b4a565b92915050565b6000604082019050610c796000830185610b4a565b610c866020830184610c3a565b9392505050565b6000602082019050610ca26000830184610b59565b92915050565b60006020820190508181036000830152610cc181610b68565b9050919050565b60006020820190508181036000830152610ce181610b8b565b9050919050565b60006020820190508181036000830152610d0181610bae565b9050919050565b60006020820190508181036000830152610d2181610bd1565b9050919050565b60006020820190508181036000830152610d4181610bf4565b9050919050565b60006020820190508181036000830152610d6181610c17565b9050919050565b6000602082019050610d7d6000830184610c3a565b92915050565b600082825260208201905092915050565b6000610d9f82610fce565b9150610daa83610fce565b925082610dba57610db9611014565b5b828204905092915050565b6000808291508390505b6001851115610e0f57808604811115610deb57610dea610fe5565b5b6001851615610dfa5780820291505b8081029050610e0885611043565b9450610dcf565b94509492505050565b6000610e2382610fce565b9150610e2e83610fd8565b9250610e5b7fffffffffffffffffffffffffffffffffffffffffffffffffffffffffffffffff8484610e63565b905092915050565b600082610e735760019050610f2f565b81610e815760009050610f2f565b8160018114610e975760028114610ea157610ed0565b6001915050610f2f565b60ff841115610eb357610eb2610fe5565b5b8360020a915084821115610eca57610ec9610fe5565b5b50610f2f565b5060208310610133831016604e8410600b8410161715610f055782820a905083811115610f0057610eff610fe5565b5b610f2f565b610f128484846001610dc5565b92509050818404811115610f2957610f28610fe5565b5b81810290505b9392505050565b6000610f4182610fce565b9150610f4c83610fce565b9250817fffffffffffffffffffffffffffffffffffffffffffffffffffffffffffffffff0483118215151615610f8557610f84610fe5565b5b828202905092915050565b6000610f9b82610fae565b9050919050565b60008115159050919050565b600073ffffffffffffffffffffffffffffffffffffffff82169050919050565b6000819050919050565b600060ff82169050919050565b7f4e487b7100000000000000000000000000000000000000000000000000000000600052601160045260246000fd5b7f4e487b7100000000000000000000000000000000000000000000000000000000600052601260045260246000fd5b60008160011c9050919050565b7f4f776e61626c653a206e6577206f776e657220697320746865207a65726f206160008201527f6464726573730000000000000000000000000000000000000000000000000000602082015250565b7f43726f776473616c6520616c726561647920636f6d706c657465640000000000600082015250565b7f556e61626c6520746f20636c6f7365207468652063726f776473616c652c206360008201527f6c6f73696e6720726571756972656d656e7473206e6f74206d65740000000000602082015250565b7f4f776e61626c653a2063616c6c6572206973206e6f7420746865206f776e6572600082015250565b7f43726f776473616c65206e6f742072756e6e696e670000000000000000000000600082015250565b7f43726f776473616c65206e6f742079657420636f6d706c657465640000000000600082015250565b61119b81610f90565b81146111a657600080fd5b50565b6111b281610fd8565b81146111bd57600080fd5b5056fea2646970667358221220b949cf636355940ab46af70a4e8714208c08013a4e36ca74a34f135386bd873064736f6c63430008010033",
  "immutableReferences": {},
  "source": "// SPDX-License-Identifier: MIT\npragma solidity ^0.8.0;\n\nimport \"./BEP20.sol\";\nimport \"./PriceConsumer.sol\";\nimport \"@openzeppelin/contracts/utils/math/SafeMath.sol\";\nimport \"@openzeppelin/contracts/access/Ownable.sol\";\n\ncontract Crowdsale is Ownable {\n    using SafeMath for uint256;\n\n    bool completed;\n    uint256 start;\n    uint256 end;\n    uint256 rate;\n    uint256 goal;\n    MyToken token;\n\n    modifier whenCompleted() {\n        require(completed, \"Crowdsale not yet completed\");\n        _;\n    }\n\n    modifier notCompleted() {\n        require(!completed, \"Crowdsale already completed\");\n        _;\n    }\n\n    modifier isClosed() {\n        require(\n            block.timestamp >= end || address(this).balance >= goal, \n            \"Unable to close the crowdsale, closing requirements not met\"\n        );\n        _;\n    }\n\n    modifier running() {\n        require(\n            block.timestamp >= start && block.timestamp <= end && address(this).balance <= goal, \n            \"Crowdsale not running\"\n        );\n        _;\n    }\n\n    receive() payable external {\n        buy();\n    }\n\n    constructor(uint256 _start, uint256 _end, uint256 _tokenRate, MyToken _token, uint256 _goal) {\n        require(_start != 0 && block.timestamp < _start, \"Starting time cannot be null or in the past\");\n        require(_end != 0 && block.timestamp < _end, \"Ending time cannot be null or in the past\");\n        require(_tokenRate != 0, \"Token rate cannot be null\");\n        require(_goal != 0, \"Goal cannot be null\");\n\n        start = _start;\n        end = _end;\n        rate = _tokenRate;\n        goal = _goal;\n        token = _token;\n    }\n\n    function buy() public running notCompleted payable {\n        uint256 tokensToBuy = msg.value * (10 ** token.decimals()) / rate;\n        token.mint(address(this), tokensToBuy);\n        token.buyTokens(msg.sender, tokensToBuy);\n    }\n\n    function finalize() public onlyOwner isClosed notCompleted returns(bool) {\n        completed = true;\n        return true;\n    }\n\n    function isCompleted() public onlyOwner view returns(bool) {\n        return completed;\n    }\n\n    function isStarted() public view returns(bool) {\n        return block.timestamp >= start;\n    }\n\n    function redeem() public onlyOwner whenCompleted isClosed payable {\n        payable(owner()).transfer(address(this).balance);\n    }\n\n    function currentBalance() public view returns(uint256) {\n        return address(this).balance;\n    }\n}\n",
  "sourcePath": "/home/ebalo/Desktop/Projects/blockchain/block-chain/contracts/ico.sol",
  "compiler": {
    "name": "solc",
    "version": "0.8.1+commit.df193b15.Emscripten.clang"
  },
  "schemaVersion": "3.4.1",
  "updatedAt": "2021-05-13T17:04:51.511Z",
  "networkType": "ethereum",
  "devdoc": {
    "kind": "dev",
    "methods": {
      "owner()": {
        "details": "Returns the address of the current owner."
      },
      "renounceOwnership()": {
        "details": "Leaves the contract without owner. It will not be possible to call `onlyOwner` functions anymore. Can only be called by the current owner. NOTE: Renouncing ownership will leave the contract without an owner, thereby removing any functionality that is only available to the owner."
      },
      "transferOwnership(address)": {
        "details": "Transfers ownership of the contract to a new account (`newOwner`). Can only be called by the current owner."
      }
    },
    "version": 1
  },
  "userdoc": {
    "kind": "user",
    "methods": {},
    "version": 1
  }
}