{
  "contractName": "Crowdsale",
  "abi": [
    {
      "inputs": [
        {
          "internalType": "uint256",
          "name": "_start",
          "type": "uint256"
        },
        {
          "internalType": "uint256",
          "name": "_end",
          "type": "uint256"
        },
        {
          "internalType": "contract Melody",
          "name": "_token",
          "type": "address"
        },
        {
          "internalType": "uint256",
          "name": "_goal",
          "type": "uint256"
        },
        {
          "components": [
            {
              "internalType": "uint256",
              "name": "rate",
              "type": "uint256"
            },
            {
              "internalType": "uint256",
              "name": "lower_limit",
              "type": "uint256"
            },
            {
              "internalType": "uint256",
              "name": "upper_limit",
              "type": "uint256"
            }
          ],
          "internalType": "struct Crowdsale.PaymentTier[]",
          "name": "_payment_tier",
          "type": "tuple[]"
        }
      ],
      "stateMutability": "nonpayable",
      "type": "constructor"
    },
    {
      "anonymous": false,
      "inputs": [
        {
          "indexed": true,
          "internalType": "address",
          "name": "from",
          "type": "address"
        },
        {
          "indexed": false,
          "internalType": "uint256",
          "name": "amount",
          "type": "uint256"
        }
      ],
      "name": "Buy",
      "type": "event"
    },
    {
      "anonymous": false,
      "inputs": [],
      "name": "Finalize",
      "type": "event"
    },
    {
      "anonymous": false,
      "inputs": [],
      "name": "Finalized",
      "type": "event"
    },
    {
      "anonymous": false,
      "inputs": [
        {
          "indexed": true,
          "internalType": "address",
          "name": "previousOwner",
          "type": "address"
        },
        {
          "indexed": true,
          "internalType": "address",
          "name": "newOwner",
          "type": "address"
        }
      ],
      "name": "OwnershipTransferred",
      "type": "event"
    },
    {
      "anonymous": false,
      "inputs": [
        {
          "indexed": false,
          "internalType": "uint256",
          "name": "amount",
          "type": "uint256"
        }
      ],
      "name": "Redeemed",
      "type": "event"
    },
    {
      "inputs": [],
      "name": "completed",
      "outputs": [
        {
          "internalType": "bool",
          "name": "",
          "type": "bool"
        }
      ],
      "stateMutability": "view",
      "type": "function"
    },
    {
      "inputs": [],
      "name": "end",
      "outputs": [
        {
          "internalType": "uint256",
          "name": "",
          "type": "uint256"
        }
      ],
      "stateMutability": "view",
      "type": "function"
    },
    {
      "inputs": [],
      "name": "owner",
      "outputs": [
        {
          "internalType": "address",
          "name": "",
          "type": "address"
        }
      ],
      "stateMutability": "view",
      "type": "function"
    },
    {
      "inputs": [],
      "name": "renounceOwnership",
      "outputs": [],
      "stateMutability": "nonpayable",
      "type": "function"
    },
    {
      "inputs": [],
      "name": "start",
      "outputs": [
        {
          "internalType": "uint256",
          "name": "",
          "type": "uint256"
        }
      ],
      "stateMutability": "view",
      "type": "function"
    },
    {
      "inputs": [
        {
          "internalType": "address",
          "name": "newOwner",
          "type": "address"
        }
      ],
      "name": "transferOwnership",
      "outputs": [],
      "stateMutability": "nonpayable",
      "type": "function"
    },
    {
      "stateMutability": "payable",
      "type": "receive"
    },
    {
      "inputs": [],
      "name": "buy",
      "outputs": [],
      "stateMutability": "payable",
      "type": "function"
    },
    {
      "inputs": [],
      "name": "finalize",
      "outputs": [],
      "stateMutability": "nonpayable",
      "type": "function"
    },
    {
      "inputs": [],
      "name": "redeem",
      "outputs": [],
      "stateMutability": "payable",
      "type": "function"
    },
    {
      "inputs": [],
      "name": "getBalance",
      "outputs": [
        {
          "internalType": "uint256",
          "name": "",
          "type": "uint256"
        }
      ],
      "stateMutability": "view",
      "type": "function"
    },
    {
      "inputs": [],
      "name": "getMinted",
      "outputs": [
        {
          "internalType": "uint256",
          "name": "",
          "type": "uint256"
        }
      ],
      "stateMutability": "view",
      "type": "function"
    },
    {
      "inputs": [],
      "name": "getStartingTime",
      "outputs": [
        {
          "internalType": "uint256",
          "name": "",
          "type": "uint256"
        }
      ],
      "stateMutability": "view",
      "type": "function"
    },
    {
      "inputs": [],
      "name": "getEndingTime",
      "outputs": [
        {
          "internalType": "uint256",
          "name": "",
          "type": "uint256"
        }
      ],
      "stateMutability": "view",
      "type": "function"
    },
    {
      "inputs": [],
      "name": "getGoal",
      "outputs": [
        {
          "internalType": "uint256",
          "name": "",
          "type": "uint256"
        }
      ],
      "stateMutability": "view",
      "type": "function"
    },
    {
      "inputs": [],
      "name": "getTiers",
      "outputs": [
        {
          "components": [
            {
              "internalType": "uint256",
              "name": "rate",
              "type": "uint256"
            },
            {
              "internalType": "uint256",
              "name": "lower_limit",
              "type": "uint256"
            },
            {
              "internalType": "uint256",
              "name": "upper_limit",
              "type": "uint256"
            }
          ],
          "internalType": "struct Crowdsale.PaymentTier[]",
          "name": "",
          "type": "tuple[]"
        }
      ],
      "stateMutability": "view",
      "type": "function"
    },
    {
      "inputs": [],
      "name": "isCompleted",
      "outputs": [
        {
          "internalType": "bool",
          "name": "",
          "type": "bool"
        }
      ],
      "stateMutability": "view",
      "type": "function"
    },
    {
      "inputs": [],
      "name": "isStarted",
      "outputs": [
        {
          "internalType": "bool",
          "name": "",
          "type": "bool"
        }
      ],
      "stateMutability": "view",
      "type": "function"
    }
  ],
  "bytecode": "0x60806040523480156200001157600080fd5b5060405162002184380380620021848339818101604052810190620000379190620004e1565b600062000049620003a060201b60201c565b9050806000806101000a81548173ffffffffffffffffffffffffffffffffffffffff021916908373ffffffffffffffffffffffffffffffffffffffff1602179055508073ffffffffffffffffffffffffffffffffffffffff16600073ffffffffffffffffffffffffffffffffffffffff167f8be0079c531659141344cd1fd0a4f28419497f9722a3daafe3b4186f6b6457e060405160405180910390a35060008514158015620000f857508442105b6200013a576040517f08c379a0000000000000000000000000000000000000000000000000000000008152600401620001319062000683565b60405180910390fd5b600084141580156200014b57508342105b6200018d576040517f08c379a00000000000000000000000000000000000000000000000000000000081526004016200018490620006a5565b60405180910390fd5b6000821415620001d4576040517f08c379a0000000000000000000000000000000000000000000000000000000008152600401620001cb90620006c7565b60405180910390fd5b60008151116200021b576040517f08c379a000000000000000000000000000000000000000000000000000000000815260040162000212906200063f565b60405180910390fd5b600073ffffffffffffffffffffffffffffffffffffffff168373ffffffffffffffffffffffffffffffffffffffff1614156200028e576040517f08c379a0000000000000000000000000000000000000000000000000000000008152600401620002859062000661565b60405180910390fd5b84600181905550836002819055508160038190555082600560006101000a81548173ffffffffffffffffffffffffffffffffffffffff021916908373ffffffffffffffffffffffffffffffffffffffff16021790555060005b8151811015620003945760068282815181106200032d577f4e487b7100000000000000000000000000000000000000000000000000000000600052603260045260246000fd5b60200260200101519080600181540180825580915050600190039060005260206000209060030201600090919091909150600082015181600001556020820151816001015560408201518160020155505080806200038b90620007da565b915050620002e7565b50505050505062000a0a565b600033905090565b6000620003bf620003b98462000712565b620006e9565b90508083825260208201905082856060860282011115620003df57600080fd5b60005b85811015620004135781620003f8888262000461565b845260208401935060608301925050600181019050620003e2565b5050509392505050565b600082601f8301126200042f57600080fd5b815162000441848260208601620003a8565b91505092915050565b6000815190506200045b81620009d6565b92915050565b6000606082840312156200047457600080fd5b620004806060620006e9565b905060006200049284828501620004ca565b6000830152506020620004a884828501620004ca565b6020830152506040620004be84828501620004ca565b60408301525092915050565b600081519050620004db81620009f0565b92915050565b600080600080600060a08688031215620004fa57600080fd5b60006200050a88828901620004ca565b95505060206200051d88828901620004ca565b945050604062000530888289016200044a565b93505060606200054388828901620004ca565b925050608086015167ffffffffffffffff8111156200056157600080fd5b6200056f888289016200041d565b9150509295509295909350565b60006200058b60298362000741565b9150620005988262000897565b604082019050919050565b6000620005b2601c8362000741565b9150620005bf82620008e6565b602082019050919050565b6000620005d9602b8362000741565b9150620005e6826200090f565b604082019050919050565b60006200060060298362000741565b91506200060d826200095e565b604082019050919050565b60006200062760138362000741565b91506200063482620009ad565b602082019050919050565b600060208201905081810360008301526200065a816200057c565b9050919050565b600060208201905081810360008301526200067c81620005a3565b9050919050565b600060208201905081810360008301526200069e81620005ca565b9050919050565b60006020820190508181036000830152620006c081620005f1565b9050919050565b60006020820190508181036000830152620006e28162000618565b9050919050565b6000620006f562000708565b9050620007038282620007a4565b919050565b6000604051905090565b600067ffffffffffffffff82111562000730576200072f62000857565b5b602082029050602081019050919050565b600082825260208201905092915050565b60006200075f826200077a565b9050919050565b6000620007738262000752565b9050919050565b600073ffffffffffffffffffffffffffffffffffffffff82169050919050565b6000819050919050565b620007af8262000886565b810181811067ffffffffffffffff82111715620007d157620007d062000857565b5b80604052505050565b6000620007e7826200079a565b91507fffffffffffffffffffffffffffffffffffffffffffffffffffffffffffffffff8214156200081d576200081c62000828565b5b600182019050919050565b7f4e487b7100000000000000000000000000000000000000000000000000000000600052601160045260246000fd5b7f4e487b7100000000000000000000000000000000000000000000000000000000600052604160045260246000fd5b6000601f19601f8301169050919050565b7f4174206c65617374206f6e65207061796d656e742074696572206d757374206260008201527f6520646566696e65640000000000000000000000000000000000000000000000602082015250565b7f546f6b656e20616464726573732063616e6e6f74206265206e756c6c00000000600082015250565b7f5374617274696e672074696d652063616e6e6f74206265206e756c6c206f722060008201527f696e207468652070617374000000000000000000000000000000000000000000602082015250565b7f456e64696e672074696d652063616e6e6f74206265206e756c6c206f7220696e60008201527f2074686520706173740000000000000000000000000000000000000000000000602082015250565b7f476f616c2063616e6e6f74206265206e756c6c00000000000000000000000000600082015250565b620009e18162000766565b8114620009ed57600080fd5b50565b620009fb816200079a565b811462000a0757600080fd5b50565b61176a8062000a1a6000396000f3fe6080604052600436106101025760003560e01c8063ac72200d11610095578063c1da7e9b11610064578063c1da7e9b146102b0578063de170570146102db578063efbe1c1c14610306578063f2fde38b14610331578063fa391c641461035a57610111565b8063ac72200d14610225578063b97a7d2414610250578063be040fb01461027b578063be9a65551461028557610111565b8063715018a6116100d1578063715018a6146101ae5780638da5cb5b146101c55780639d9a7fe9146101f0578063a6f2ae3a1461021b57610111565b80630dc0c9711461011657806312065fe0146101415780634bb278f31461016c578063544736e61461018357610111565b366101115761010f610385565b005b600080fd5b34801561012257600080fd5b5061012b61053b565b6040516101389190611398565b60405180910390f35b34801561014d57600080fd5b50610156610545565b6040516101639190611398565b60405180910390f35b34801561017857600080fd5b5061018161054d565b005b34801561018f57600080fd5b506101986106b6565b6040516101a591906112bd565b60405180910390f35b3480156101ba57600080fd5b506101c36106c3565b005b3480156101d157600080fd5b506101da6107fd565b6040516101e79190611257565b60405180910390f35b3480156101fc57600080fd5b50610205610826565b60405161021291906112bd565b60405180910390f35b610223610385565b005b34801561023157600080fd5b5061023a610839565b6040516102479190611398565b60405180910390f35b34801561025c57600080fd5b50610265610843565b6040516102729190611398565b60405180910390f35b61028361084d565b005b34801561029157600080fd5b5061029a6109f9565b6040516102a79190611398565b60405180910390f35b3480156102bc57600080fd5b506102c56109ff565b6040516102d29190611398565b60405180910390f35b3480156102e757600080fd5b506102f0610a09565b6040516102fd919061129b565b60405180910390f35b34801561031257600080fd5b5061031b610a86565b6040516103289190611398565b60405180910390f35b34801561033d57600080fd5b5061035860048036038101906103539190611068565b610a8c565b005b34801561036657600080fd5b5061036f610c35565b60405161037c91906112bd565b60405180910390f35b6001544210158015610398575060025442105b80156103a75750600354600454105b6103e6576040517f08c379a00000000000000000000000000000000000000000000000000000000081526004016103dd90611358565b60405180910390fd5b600060149054906101000a900460ff1615610436576040517f08c379a000000000000000000000000000000000000000000000000000000000815260040161042d90611378565b60405180910390fd5b6000610440610cc8565b9050600560009054906101000a900473ffffffffffffffffffffffffffffffffffffffff1673ffffffffffffffffffffffffffffffffffffffff166340c10f1933836040518363ffffffff1660e01b815260040161049f929190611272565b600060405180830381600087803b1580156104b957600080fd5b505af11580156104cd573d6000803e3d6000fd5b5050505080600460008282546104e391906113fd565b925050819055503373ffffffffffffffffffffffffffffffffffffffff167fe3d4187f6ca4248660cc0ac8b8056515bac4a8132be2eca31d6d0cc170722a7e826040516105309190611398565b60405180910390a250565b6000600154905090565b600047905090565b61055561104b565b73ffffffffffffffffffffffffffffffffffffffff166105736107fd565b73ffffffffffffffffffffffffffffffffffffffff16146105c9576040517f08c379a00000000000000000000000000000000000000000000000000000000081526004016105c090611318565b60405180910390fd5b600254421015806105de575060035460045410155b61061d576040517f08c379a000000000000000000000000000000000000000000000000000000000815260040161061490611338565b60405180910390fd5b600060149054906101000a900460ff161561066d576040517f08c379a000000000000000000000000000000000000000000000000000000000815260040161066490611378565b60405180910390fd5b6001600060146101000a81548160ff0219169083151502179055507fc5454d111913d0c92fa9088b73be5c3fc91d1eb84db52a8a8485154f05d73f2e60405160405180910390a1565b6000600154421015905090565b6106cb61104b565b73ffffffffffffffffffffffffffffffffffffffff166106e96107fd565b73ffffffffffffffffffffffffffffffffffffffff161461073f576040517f08c379a000000000000000000000000000000000000000000000000000000000815260040161073690611318565b60405180910390fd5b600073ffffffffffffffffffffffffffffffffffffffff1660008054906101000a900473ffffffffffffffffffffffffffffffffffffffff1673ffffffffffffffffffffffffffffffffffffffff167f8be0079c531659141344cd1fd0a4f28419497f9722a3daafe3b4186f6b6457e060405160405180910390a360008060006101000a81548173ffffffffffffffffffffffffffffffffffffffff021916908373ffffffffffffffffffffffffffffffffffffffff160217905550565b60008060009054906101000a900473ffffffffffffffffffffffffffffffffffffffff16905090565b600060149054906101000a900460ff1681565b6000600454905090565b6000600354905090565b61085561104b565b73ffffffffffffffffffffffffffffffffffffffff166108736107fd565b73ffffffffffffffffffffffffffffffffffffffff16146108c9576040517f08c379a00000000000000000000000000000000000000000000000000000000081526004016108c090611318565b60405180910390fd5b600060149054906101000a900460ff16610918576040517f08c379a000000000000000000000000000000000000000000000000000000000815260040161090f906112d8565b60405180910390fd5b6002544210158061092d575060035460045410155b61096c576040517f08c379a000000000000000000000000000000000000000000000000000000000815260040161096390611338565b60405180910390fd5b60004790506109796107fd565b73ffffffffffffffffffffffffffffffffffffffff166108fc479081150290604051600060405180830381858888f193505050501580156109be573d6000803e3d6000fd5b507f82498456531a1065f689ba348ce20bda781238c424cf36748dd40bc282831e03816040516109ee9190611398565b60405180910390a150565b60015481565b6000600254905090565b60606006805480602002602001604051908101604052809291908181526020016000905b82821015610a7d5783829060005260206000209060030201604051806060016040529081600082015481526020016001820154815260200160028201548152505081526020019060010190610a2d565b50505050905090565b60025481565b610a9461104b565b73ffffffffffffffffffffffffffffffffffffffff16610ab26107fd565b73ffffffffffffffffffffffffffffffffffffffff1614610b08576040517f08c379a0000000000000000000000000000000000000000000000000000000008152600401610aff90611318565b60405180910390fd5b600073ffffffffffffffffffffffffffffffffffffffff168173ffffffffffffffffffffffffffffffffffffffff161415610b78576040517f08c379a0000000000000000000000000000000000000000000000000000000008152600401610b6f906112f8565b60405180910390fd5b8073ffffffffffffffffffffffffffffffffffffffff1660008054906101000a900473ffffffffffffffffffffffffffffffffffffffff1673ffffffffffffffffffffffffffffffffffffffff167f8be0079c531659141344cd1fd0a4f28419497f9722a3daafe3b4186f6b6457e060405160405180910390a3806000806101000a81548173ffffffffffffffffffffffffffffffffffffffff021916908373ffffffffffffffffffffffffffffffffffffffff16021790555050565b6000610c3f61104b565b73ffffffffffffffffffffffffffffffffffffffff16610c5d6107fd565b73ffffffffffffffffffffffffffffffffffffffff1614610cb3576040517f08c379a0000000000000000000000000000000000000000000000000000000008152600401610caa90611318565b60405180910390fd5b600060149054906101000a900460ff16905090565b60006001544210158015610cdd575060025442105b8015610cec5750600354600454105b610d2b576040517f08c379a0000000000000000000000000000000000000000000000000000000008152600401610d2290611358565b60405180910390fd5b600060045490506000806000349050600080600080600090505b600680549050811015610f245760068181548110610d8c577f4e487b7100000000000000000000000000000000000000000000000000000000600052603260045260246000fd5b9060005260206000209060030201600201549150600085118015610dfb575060068181548110610de5577f4e487b7100000000000000000000000000000000000000000000000000000000600052603260045260246000fd5b9060005260206000209060030201600101548810155b8015610e0657508188105b15610f115760068181548110610e45577f4e487b7100000000000000000000000000000000000000000000000000000000600052603260045260246000fd5b906000526020600020906003020160000154925082670de0b6b3a76400008087610e6f9190611484565b610e799190611453565b610e839190611484565b95508588610e9191906113fd565b935081841115610eb5578184610ea791906114de565b86610eb291906114de565b95505b8588610ec191906113fd565b9750670de0b6b3a764000083670de0b6b3a764000088610ee19190611484565b610eeb9190611453565b610ef59190611453565b85610f0091906114de565b94508587610f0e91906113fd565b96505b8080610f1c9061155a565b915050610d45565b50600086600454610f3591906113fd565b905060035481111561103d57600060035482610f5191906114de565b90506000670de0b6b3a764000060066001600680549050610f7291906114de565b81548110610fa9577f4e487b7100000000000000000000000000000000000000000000000000000000600052603260045260246000fd5b906000526020600020906003020160000154670de0b6b3a764000084610fcf9190611484565b610fd99190611453565b610fe39190611453565b90503373ffffffffffffffffffffffffffffffffffffffff166108fc829081150290604051600060405180830381858888f1935050505015801561102b573d6000803e3d6000fd5b50818961103891906114de565b985050505b869850505050505050505090565b600033905090565b6000813590506110628161171d565b92915050565b60006020828403121561107a57600080fd5b600061108884828501611053565b91505092915050565b600061109d83836111f7565b60608301905092915050565b6110b281611512565b82525050565b60006110c3826113c3565b6110cd81856113db565b93506110d8836113b3565b8060005b838110156111095781516110f08882611091565b97506110fb836113ce565b9250506001810190506110dc565b5085935050505092915050565b61111f81611524565b82525050565b6000611132601a836113ec565b915061113d82611601565b602082019050919050565b60006111556026836113ec565b91506111608261162a565b604082019050919050565b60006111786020836113ec565b915061118382611679565b602082019050919050565b600061119b6018836113ec565b91506111a6826116a2565b602082019050919050565b60006111be6015836113ec565b91506111c9826116cb565b602082019050919050565b60006111e1601a836113ec565b91506111ec826116f4565b602082019050919050565b60608201600082015161120d6000850182611239565b5060208201516112206020850182611239565b5060408201516112336040850182611239565b50505050565b61124281611550565b82525050565b61125181611550565b82525050565b600060208201905061126c60008301846110a9565b92915050565b600060408201905061128760008301856110a9565b6112946020830184611248565b9392505050565b600060208201905081810360008301526112b581846110b8565b905092915050565b60006020820190506112d26000830184611116565b92915050565b600060208201905081810360008301526112f181611125565b9050919050565b6000602082019050818103600083015261131181611148565b9050919050565b600060208201905081810360008301526113318161116b565b9050919050565b600060208201905081810360008301526113518161118e565b9050919050565b60006020820190508181036000830152611371816111b1565b9050919050565b60006020820190508181036000830152611391816111d4565b9050919050565b60006020820190506113ad6000830184611248565b92915050565b6000819050602082019050919050565b600081519050919050565b6000602082019050919050565b600082825260208201905092915050565b600082825260208201905092915050565b600061140882611550565b915061141383611550565b9250827fffffffffffffffffffffffffffffffffffffffffffffffffffffffffffffffff03821115611448576114476115a3565b5b828201905092915050565b600061145e82611550565b915061146983611550565b925082611479576114786115d2565b5b828204905092915050565b600061148f82611550565b915061149a83611550565b9250817fffffffffffffffffffffffffffffffffffffffffffffffffffffffffffffffff04831182151516156114d3576114d26115a3565b5b828202905092915050565b60006114e982611550565b91506114f483611550565b925082821015611507576115066115a3565b5b828203905092915050565b600061151d82611530565b9050919050565b60008115159050919050565b600073ffffffffffffffffffffffffffffffffffffffff82169050919050565b6000819050919050565b600061156582611550565b91507fffffffffffffffffffffffffffffffffffffffffffffffffffffffffffffffff821415611598576115976115a3565b5b600182019050919050565b7f4e487b7100000000000000000000000000000000000000000000000000000000600052601160045260246000fd5b7f4e487b7100000000000000000000000000000000000000000000000000000000600052601260045260246000fd5b7f436f6e7472616374206e6f742079657420636f6d706c65746564000000000000600082015250565b7f4f776e61626c653a206e6577206f776e657220697320746865207a65726f206160008201527f6464726573730000000000000000000000000000000000000000000000000000602082015250565b7f4f776e61626c653a2063616c6c6572206973206e6f7420746865206f776e6572600082015250565b7f43726f776473616c65206e6f742079657420636c6f7365640000000000000000600082015250565b7f43726f776473616c65206e6f742072756e6e696e670000000000000000000000600082015250565b7f436f6e747261637420616c726561647920636f6d706c65746564000000000000600082015250565b61172681611512565b811461173157600080fd5b5056fea26469706673582212205fade0776b5ac894cbf714c6e79fc4313aaad80debdf122f2bcf28cb0fc2855c64736f6c63430008010033",
  "immutableReferences": {},
  "source": "// SPDX-License-Identifier: MIT\npragma solidity ^0.8.0;\n\nimport \"./Melody.sol\";\nimport \"./CommonModifier.sol\";\nimport \"@openzeppelin/contracts/utils/math/SafeMath.sol\";\nimport \"@openzeppelin/contracts/access/Ownable.sol\";\n\ncontract Crowdsale is Ownable, CommonModifier {\n    using SafeMath for uint256;\n\n    uint256 goal;\n    uint256 minted;\n    Melody token;\n    PaymentTier[] payment_tier;\n\n    event Buy(address indexed from, uint256 amount);\n    event Finalize();\n    event Redeemed(uint256 amount);\n\n    struct PaymentTier {\n        uint256 rate;\n        uint256 lower_limit;\n        uint256 upper_limit;\n    }\n\n    receive() payable external {\n        buy();\n    }\n\n    modifier whenClosed() override {\n        require(\n            block.timestamp >= end || minted >= goal, \n            \"Crowdsale not yet closed\"\n        );\n        _;\n    }\n\n    modifier whenRunning() override {\n        require(\n            block.timestamp >= start && block.timestamp < end && minted < goal, \n            \"Crowdsale not running\"\n        );\n        _;\n    }\n\n    /**\n    @param _start Ico starting time\n    @param _end Ico ending time, if goal is not reached first\n    @param _token Melody token instance\n    @param _goal Amount of funds to raise\n    @param _payment_tier Array of crowdsale price tier\n     */\n    constructor(uint256 _start, uint256 _end, Melody _token, uint256 _goal, PaymentTier[] memory _payment_tier) {\n        require(_start != 0 && block.timestamp < _start, \"Starting time cannot be null or in the past\");\n        require(_end != 0 && block.timestamp < _end, \"Ending time cannot be null or in the past\");\n        require(_goal != 0, \"Goal cannot be null\");\n        require(_payment_tier.length > 0, \"At least one payment tier must be defined\");\n        require(_token != Melody(payable(address(0))), \"Token address cannot be null\");\n\n        start = _start;\n        end = _end;\n        goal = _goal;\n        token = _token;\n\n        for(uint256 i = 0; i < _payment_tier.length; i++) {\n            payment_tier.push(_payment_tier[i]);\n        }\n    }\n\n    function buy() public whenRunning whenNotCompleted payable {\n        // If a fixed rate is provided compute the amount of token to buy based on the rate\n        uint256 tokens_to_buy = computeTokensAmount();\n\n        // Mint new tokens for each submission\n        token.mint(msg.sender, tokens_to_buy);\n        minted += tokens_to_buy;\n\n        emit Buy(msg.sender, tokens_to_buy);\n    }\n\n    function computeTokensAmount() internal whenRunning returns(uint256) {\n        uint256 future_minted = minted;\n        uint256 tokens_to_buy;\n        uint256 current_round_tokens;      \n        uint256 ether_used = msg.value; \n        uint256 future_round; \n        uint256 rate;\n        uint256 upper_limit;\n\n        for(uint256 i = 0; i < payment_tier.length; i++) {\n            // minor performance improvement, caches the value\n            upper_limit = payment_tier[i].upper_limit;\n\n            if(\n                ether_used > 0 &&                                   // Check if there are still some funds in the request\n                future_minted >= payment_tier[i].lower_limit &&     // Check if the current rate can be applied with the lower_limit\n                future_minted < upper_limit                         // Check if the current rate can be applied with the upper_limit\n                ) {\n                // minor performance improvement, caches the value\n                rate = payment_tier[i].rate;\n                \n                // Keep a static counter and reset it in each round\n                // NOTE: Order is important in value calculation\n                current_round_tokens = ether_used * 1e18 / 1 ether * rate;\n\n                // minor performance optimization, caches the value\n                future_round = future_minted + current_round_tokens;\n                // If the tokens to mint exceed the upper limit of the tier reduce the number of token bounght in this round\n                if(future_round > upper_limit) {\n                    current_round_tokens -= future_round - upper_limit;\n                }\n\n                // Update the future_minted counter with the current_round_tokens\n                future_minted += current_round_tokens;\n\n                // Recomputhe the available funds\n                ether_used -= current_round_tokens * 1 ether / rate / 1e18;\n\n                // And add the funds to the total calculation\n                tokens_to_buy += current_round_tokens;\n            }\n        }\n\n        // minor performance optimization, caches the value\n        uint256 new_minted = minted + tokens_to_buy;\n        // Check if we have reached and exceeded the funding goal to refund the exceeding tokens and ether\n        if(new_minted > goal) {\n            uint256 exceedingTokens = new_minted - goal;\n            \n            // Convert the exceedingTokens to ether and refund that ether\n            uint256 exceedingEther = exceedingTokens * 1 ether / payment_tier[payment_tier.length -1].rate / 1e18;\n            payable(msg.sender).transfer(exceedingEther);\n\n            // Change the tokens to buy to the new number\n            tokens_to_buy -= exceedingTokens;\n        }\n\n        return tokens_to_buy;\n    }\n\n    function finalize() public onlyOwner whenClosed whenNotCompleted {\n        completed = true;\n        emit Finalize();\n    }\n\n    function redeem() public onlyOwner whenCompleted whenClosed payable {\n        uint256 balance = address(this).balance;\n        payable(owner()).transfer(address(this).balance);\n        emit Redeemed(balance);\n    }\n\n    function getBalance() public view returns(uint256) { return address(this).balance; }\n    function getMinted() public view returns(uint256) { return minted; }\n    function getStartingTime() public view returns(uint256) { return start; }\n    function getEndingTime() public view returns(uint256) { return end; }\n    function getGoal() public view returns(uint256) { return goal; }\n    function getTiers() public view returns(PaymentTier[] memory) { return payment_tier; }\n    function isCompleted() public onlyOwner view returns(bool) { return completed; }\n    function isStarted() public view returns(bool) { return block.timestamp >= start; }\n}\n",
  "sourcePath": "/home/ebalo/Desktop/Projects/blockchain/block-chain/contracts/Crowdsale.sol",
  "compiler": {
    "name": "solc",
    "version": "0.8.1+commit.df193b15.Emscripten.clang"
  },
  "schemaVersion": "3.4.1",
  "updatedAt": "2021-05-18T07:50:25.523Z",
  "networkType": "ethereum",
  "devdoc": {
    "kind": "dev",
    "methods": {
      "constructor": {
        "params": {
          "_end": "Ico ending time, if goal is not reached first",
          "_goal": "Amount of funds to raise",
          "_payment_tier": "Array of crowdsale price tier",
          "_start": "Ico starting time",
          "_token": "Melody token instance"
        }
      },
      "owner()": {
        "details": "Returns the address of the current owner."
      },
      "renounceOwnership()": {
        "details": "Leaves the contract without owner. It will not be possible to call `onlyOwner` functions anymore. Can only be called by the current owner. NOTE: Renouncing ownership will leave the contract without an owner, thereby removing any functionality that is only available to the owner."
      },
      "transferOwnership(address)": {
        "details": "Transfers ownership of the contract to a new account (`newOwner`). Can only be called by the current owner."
      }
    },
    "version": 1
  },
  "userdoc": {
    "kind": "user",
    "methods": {},
    "version": 1
  }
}