{
  "contractName": "Melody",
  "abi": [
    {
      "inputs": [],
      "stateMutability": "nonpayable",
      "type": "constructor"
    },
    {
      "anonymous": false,
      "inputs": [
        {
          "indexed": true,
          "internalType": "address",
          "name": "owner",
          "type": "address"
        },
        {
          "indexed": true,
          "internalType": "address",
          "name": "spender",
          "type": "address"
        },
        {
          "indexed": false,
          "internalType": "uint256",
          "name": "value",
          "type": "uint256"
        }
      ],
      "name": "Approval",
      "type": "event"
    },
    {
      "anonymous": false,
      "inputs": [
        {
          "indexed": true,
          "internalType": "address",
          "name": "previousOwner",
          "type": "address"
        },
        {
          "indexed": true,
          "internalType": "address",
          "name": "newOwner",
          "type": "address"
        }
      ],
      "name": "OwnershipTransferred",
      "type": "event"
    },
    {
      "anonymous": false,
      "inputs": [
        {
          "indexed": false,
          "internalType": "address",
          "name": "account",
          "type": "address"
        }
      ],
      "name": "Paused",
      "type": "event"
    },
    {
      "anonymous": false,
      "inputs": [
        {
          "indexed": true,
          "internalType": "address",
          "name": "from",
          "type": "address"
        },
        {
          "indexed": true,
          "internalType": "address",
          "name": "to",
          "type": "address"
        },
        {
          "indexed": false,
          "internalType": "uint256",
          "name": "value",
          "type": "uint256"
        }
      ],
      "name": "Transfer",
      "type": "event"
    },
    {
      "anonymous": false,
      "inputs": [
        {
          "indexed": false,
          "internalType": "address",
          "name": "account",
          "type": "address"
        }
      ],
      "name": "Unpaused",
      "type": "event"
    },
    {
      "inputs": [],
      "name": "DOMAIN_SEPARATOR",
      "outputs": [
        {
          "internalType": "bytes32",
          "name": "",
          "type": "bytes32"
        }
      ],
      "stateMutability": "view",
      "type": "function",
      "constant": true
    },
    {
      "inputs": [],
      "name": "ICOEndTime",
      "outputs": [
        {
          "internalType": "uint256",
          "name": "",
          "type": "uint256"
        }
      ],
      "stateMutability": "view",
      "type": "function",
      "constant": true
    },
    {
      "inputs": [
        {
          "internalType": "address",
          "name": "owner",
          "type": "address"
        },
        {
          "internalType": "address",
          "name": "spender",
          "type": "address"
        }
      ],
      "name": "allowance",
      "outputs": [
        {
          "internalType": "uint256",
          "name": "",
          "type": "uint256"
        }
      ],
      "stateMutability": "view",
      "type": "function",
      "constant": true
    },
    {
      "inputs": [
        {
          "internalType": "address",
          "name": "account",
          "type": "address"
        }
      ],
      "name": "balanceOf",
      "outputs": [
        {
          "internalType": "uint256",
          "name": "",
          "type": "uint256"
        }
      ],
      "stateMutability": "view",
      "type": "function",
      "constant": true
    },
    {
      "inputs": [
        {
          "internalType": "uint256",
          "name": "amount",
          "type": "uint256"
        }
      ],
      "name": "burn",
      "outputs": [],
      "stateMutability": "nonpayable",
      "type": "function"
    },
    {
      "inputs": [
        {
          "internalType": "address",
          "name": "account",
          "type": "address"
        },
        {
          "internalType": "uint256",
          "name": "amount",
          "type": "uint256"
        }
      ],
      "name": "burnFrom",
      "outputs": [],
      "stateMutability": "nonpayable",
      "type": "function"
    },
    {
      "inputs": [],
      "name": "crowdsaleAddress",
      "outputs": [
        {
          "internalType": "address",
          "name": "",
          "type": "address"
        }
      ],
      "stateMutability": "view",
      "type": "function",
      "constant": true
    },
    {
      "inputs": [],
      "name": "decimals",
      "outputs": [
        {
          "internalType": "uint8",
          "name": "",
          "type": "uint8"
        }
      ],
      "stateMutability": "view",
      "type": "function",
      "constant": true
    },
    {
      "inputs": [],
      "name": "name",
      "outputs": [
        {
          "internalType": "string",
          "name": "",
          "type": "string"
        }
      ],
      "stateMutability": "view",
      "type": "function",
      "constant": true
    },
    {
      "inputs": [
        {
          "internalType": "address",
          "name": "owner",
          "type": "address"
        }
      ],
      "name": "nonces",
      "outputs": [
        {
          "internalType": "uint256",
          "name": "",
          "type": "uint256"
        }
      ],
      "stateMutability": "view",
      "type": "function",
      "constant": true
    },
    {
      "inputs": [],
      "name": "owner",
      "outputs": [
        {
          "internalType": "address",
          "name": "",
          "type": "address"
        }
      ],
      "stateMutability": "view",
      "type": "function",
      "constant": true
    },
    {
      "inputs": [],
      "name": "paused",
      "outputs": [
        {
          "internalType": "bool",
          "name": "",
          "type": "bool"
        }
      ],
      "stateMutability": "view",
      "type": "function",
      "constant": true
    },
    {
      "inputs": [
        {
          "internalType": "address",
          "name": "owner",
          "type": "address"
        },
        {
          "internalType": "address",
          "name": "spender",
          "type": "address"
        },
        {
          "internalType": "uint256",
          "name": "value",
          "type": "uint256"
        },
        {
          "internalType": "uint256",
          "name": "deadline",
          "type": "uint256"
        },
        {
          "internalType": "uint8",
          "name": "v",
          "type": "uint8"
        },
        {
          "internalType": "bytes32",
          "name": "r",
          "type": "bytes32"
        },
        {
          "internalType": "bytes32",
          "name": "s",
          "type": "bytes32"
        }
      ],
      "name": "permit",
      "outputs": [],
      "stateMutability": "nonpayable",
      "type": "function"
    },
    {
      "inputs": [],
      "name": "renounceOwnership",
      "outputs": [],
      "stateMutability": "nonpayable",
      "type": "function"
    },
    {
      "inputs": [],
      "name": "symbol",
      "outputs": [
        {
          "internalType": "string",
          "name": "",
          "type": "string"
        }
      ],
      "stateMutability": "view",
      "type": "function",
      "constant": true
    },
    {
      "inputs": [],
      "name": "totalSupply",
      "outputs": [
        {
          "internalType": "uint256",
          "name": "",
          "type": "uint256"
        }
      ],
      "stateMutability": "view",
      "type": "function",
      "constant": true
    },
    {
      "inputs": [
        {
          "internalType": "address",
          "name": "newOwner",
          "type": "address"
        }
      ],
      "name": "transferOwnership",
      "outputs": [],
      "stateMutability": "nonpayable",
      "type": "function"
    },
    {
      "inputs": [],
      "name": "pause",
      "outputs": [],
      "stateMutability": "nonpayable",
      "type": "function"
    },
    {
      "inputs": [],
      "name": "unpause",
      "outputs": [],
      "stateMutability": "nonpayable",
      "type": "function"
    },
    {
      "inputs": [
        {
          "internalType": "address",
          "name": "to",
          "type": "address"
        },
        {
          "internalType": "uint256",
          "name": "amount",
          "type": "uint256"
        }
      ],
      "name": "mint",
      "outputs": [],
      "stateMutability": "nonpayable",
      "type": "function"
    },
    {
      "inputs": [
        {
          "internalType": "address",
          "name": "_crowdsaleAddress",
          "type": "address"
        }
      ],
      "name": "setCrowdsale",
      "outputs": [],
      "stateMutability": "nonpayable",
      "type": "function"
    },
    {
      "inputs": [
        {
          "internalType": "address",
          "name": "_receiver",
          "type": "address"
        },
        {
          "internalType": "uint256",
          "name": "_amount",
          "type": "uint256"
        }
      ],
      "name": "buyTokens",
      "outputs": [],
      "stateMutability": "nonpayable",
      "type": "function"
    },
    {
      "inputs": [
        {
          "internalType": "uint256",
          "name": "_time",
          "type": "uint256"
        }
      ],
      "name": "setIcoEndTime",
      "outputs": [],
      "stateMutability": "nonpayable",
      "type": "function"
    },
    {
      "inputs": [],
      "name": "getBlockTime",
      "outputs": [
        {
          "internalType": "uint256",
          "name": "timestamp",
          "type": "uint256"
        }
      ],
      "stateMutability": "view",
      "type": "function",
      "constant": true
    },
    {
      "inputs": [
        {
          "internalType": "address",
          "name": "_to",
          "type": "address"
        },
        {
          "internalType": "uint256",
          "name": "_value",
          "type": "uint256"
        }
      ],
      "name": "transfer",
      "outputs": [
        {
          "internalType": "bool",
          "name": "",
          "type": "bool"
        }
      ],
      "stateMutability": "nonpayable",
      "type": "function"
    },
    {
      "inputs": [
        {
          "internalType": "address",
          "name": "_from",
          "type": "address"
        },
        {
          "internalType": "address",
          "name": "_to",
          "type": "address"
        },
        {
          "internalType": "uint256",
          "name": "_value",
          "type": "uint256"
        }
      ],
      "name": "transferFrom",
      "outputs": [
        {
          "internalType": "bool",
          "name": "",
          "type": "bool"
        }
      ],
      "stateMutability": "nonpayable",
      "type": "function"
    },
    {
      "inputs": [
        {
          "internalType": "address",
          "name": "_spender",
          "type": "address"
        },
        {
          "internalType": "uint256",
          "name": "_value",
          "type": "uint256"
        }
      ],
      "name": "approve",
      "outputs": [
        {
          "internalType": "bool",
          "name": "",
          "type": "bool"
        }
      ],
      "stateMutability": "nonpayable",
      "type": "function"
    },
    {
      "inputs": [
        {
          "internalType": "address",
          "name": "_spender",
          "type": "address"
        },
        {
          "internalType": "uint256",
          "name": "_addedValue",
          "type": "uint256"
        }
      ],
      "name": "increaseAllowance",
      "outputs": [
        {
          "internalType": "bool",
          "name": "success",
          "type": "bool"
        }
      ],
      "stateMutability": "nonpayable",
      "type": "function"
    },
    {
      "inputs": [
        {
          "internalType": "address",
          "name": "_spender",
          "type": "address"
        },
        {
          "internalType": "uint256",
          "name": "_subtractedValue",
          "type": "uint256"
        }
      ],
      "name": "decreaseAllowance",
      "outputs": [
        {
          "internalType": "bool",
          "name": "success",
          "type": "bool"
        }
      ],
      "stateMutability": "nonpayable",
      "type": "function"
    },
    {
      "inputs": [],
      "name": "emergencyExtract",
      "outputs": [],
      "stateMutability": "nonpayable",
      "type": "function"
    }
  ],
  "bytecode": "0x6101406040527f6e71edae12b1b97f4d1f60370fef10105fa2faae0126114a169c64845d6126c9610120908152503480156200003a57600080fd5b506040518060400160405280600681526020017f4d656c6f64790000000000000000000000000000000000000000000000000000815250806040518060400160405280600181526020017f31000000000000000000000000000000000000000000000000000000000000008152506040518060400160405280600681526020017f4d656c6f647900000000000000000000000000000000000000000000000000008152506040518060400160405280600481526020017f4d454c440000000000000000000000000000000000000000000000000000000081525081600390805190602001906200012c9291906200051b565b508060049080519060200190620001459291906200051b565b5050506000600560006101000a81548160ff021916908315150217905550600062000175620002dd60201b60201c565b905080600560016101000a81548173ffffffffffffffffffffffffffffffffffffffff021916908373ffffffffffffffffffffffffffffffffffffffff1602179055508073ffffffffffffffffffffffffffffffffffffffff16600073ffffffffffffffffffffffffffffffffffffffff167f8be0079c531659141344cd1fd0a4f28419497f9722a3daafe3b4186f6b6457e060405160405180910390a35060008280519060200120905060008280519060200120905060007f8b73c3c69bb8fe3d512ecc4cf759cc79239f7b179b0ffacaa9a75d522b39400f90508260c081815250508160e081815250504660a081815250506200027c818484620002e560201b60201c565b60808181525050806101008181525050505050505050620002d733620002ac6200032160201b620007d51760201c565b600a620002ba9190620007d3565b6377359400620002cb919062000910565b6200032a60201b60201c565b62000ab9565b600033905090565b60008383834630604051602001620003029594939291906200064c565b6040516020818303038152906040528051906020012090509392505050565b60006012905090565b600073ffffffffffffffffffffffffffffffffffffffff168273ffffffffffffffffffffffffffffffffffffffff1614156200039d576040517f08c379a00000000000000000000000000000000000000000000000000000000081526004016200039490620006cb565b60405180910390fd5b620003b1600083836200048f60201b60201c565b8060026000828254620003c591906200071b565b92505081905550806000808473ffffffffffffffffffffffffffffffffffffffff1673ffffffffffffffffffffffffffffffffffffffff16815260200190815260200160002060008282546200041c91906200071b565b925050819055508173ffffffffffffffffffffffffffffffffffffffff16600073ffffffffffffffffffffffffffffffffffffffff167fddf252ad1be2c89b69c2b068fc378daa952ba7f163c4a11628f55a4df523b3ef83604051620004839190620006ed565b60405180910390a35050565b6200049f620004ff60201b60201c565b15620004e2576040517f08c379a0000000000000000000000000000000000000000000000000000000008152600401620004d990620006a9565b60405180910390fd5b620004fa8383836200051660201b620014bf1760201c565b505050565b6000600560009054906101000a900460ff16905090565b505050565b8280546200052990620009c6565b90600052602060002090601f0160209004810192826200054d576000855562000599565b82601f106200056857805160ff191683800117855562000599565b8280016001018555821562000599579182015b82811115620005985782518255916020019190600101906200057b565b5b509050620005a89190620005ac565b5090565b5b80821115620005c7576000816000905550600101620005ad565b5090565b620005d68162000971565b82525050565b620005e78162000985565b82525050565b6000620005fc6010836200070a565b9150620006098262000a67565b602082019050919050565b600062000623601f836200070a565b9150620006308262000a90565b602082019050919050565b6200064681620009af565b82525050565b600060a082019050620006636000830188620005dc565b620006726020830187620005dc565b620006816040830186620005dc565b6200069060608301856200063b565b6200069f6080830184620005cb565b9695505050505050565b60006020820190508181036000830152620006c481620005ed565b9050919050565b60006020820190508181036000830152620006e68162000614565b9050919050565b60006020820190506200070460008301846200063b565b92915050565b600082825260208201905092915050565b60006200072882620009af565b91506200073583620009af565b9250827fffffffffffffffffffffffffffffffffffffffffffffffffffffffffffffffff038211156200076d576200076c620009fc565b5b828201905092915050565b6000808291508390505b6001851115620007ca57808604811115620007a257620007a1620009fc565b5b6001851615620007b25780820291505b8081029050620007c28562000a5a565b945062000782565b94509492505050565b6000620007e082620009af565b9150620007ed83620009b9565b92506200081c7fffffffffffffffffffffffffffffffffffffffffffffffffffffffffffffffff848462000824565b905092915050565b60008262000836576001905062000909565b8162000846576000905062000909565b81600181146200085f57600281146200086a57620008a0565b600191505062000909565b60ff8411156200087f576200087e620009fc565b5b8360020a915084821115620008995762000898620009fc565b5b5062000909565b5060208310610133831016604e8410600b8410161715620008da5782820a905083811115620008d457620008d3620009fc565b5b62000909565b620008e9848484600162000778565b92509050818404811115620009035762000902620009fc565b5b81810290505b9392505050565b60006200091d82620009af565b91506200092a83620009af565b9250817fffffffffffffffffffffffffffffffffffffffffffffffffffffffffffffffff0483118215151615620009665762000965620009fc565b5b828202905092915050565b60006200097e826200098f565b9050919050565b6000819050919050565b600073ffffffffffffffffffffffffffffffffffffffff82169050919050565b6000819050919050565b600060ff82169050919050565b60006002820490506001821680620009df57607f821691505b60208210811415620009f657620009f562000a2b565b5b50919050565b7f4e487b7100000000000000000000000000000000000000000000000000000000600052601160045260246000fd5b7f4e487b7100000000000000000000000000000000000000000000000000000000600052602260045260246000fd5b60008160011c9050919050565b7f5061757361626c653a2070617573656400000000000000000000000000000000600082015250565b7f45524332303a206d696e7420746f20746865207a65726f206164647265737300600082015250565b60805160a05160c05160e05161010051610120516136b662000b0960003960006110c90152600061163a0152600061167c0152600061165b015260006115e70152600061160f01526136b66000f3fe608060405234801561001057600080fd5b50600436106101da5760003560e01c806370a082311161010457806395d89b41116100a2578063d505accf11610071578063d505accf1461050f578063dd62ed3e1461052b578063f2fde38b1461055b578063fe3c9b6b14610577576101da565b806395d89b4114610473578063a242f04914610491578063a457c2d7146104af578063a9059cbb146104df576101da565b80637ecebe00116100de5780637ecebe00146103fd5780638456cb591461042d57806387ceff09146104375780638da5cb5b14610455576101da565b806370a08231146103a7578063715018a6146103d757806379cc6790146103e1576101da565b80633644e5151161017c57806342966c681161014b57806342966c6814610347578063483a20b2146103635780635c975abb1461037f5780635fa512771461039d576101da565b80633644e515146102d357806339509351146102f15780633f4ba83a1461032157806340c10f191461032b576101da565b806318160ddd116101b857806318160ddd1461024957806323b872dd14610267578063313ce5671461029757806331d2f891146102b5576101da565b806306fdde03146101df5780630752881a146101fd578063095ea7b314610219575b600080fd5b6101e7610593565b6040516101f49190612b5b565b60405180910390f35b610217600480360381019061021291906125b5565b610625565b005b610233600480360381019061022e91906125b5565b6106d5565b6040516102409190612a2c565b60405180910390f35b61025161074f565b60405161025e9190612e3d565b60405180910390f35b610281600480360381019061027c91906124c8565b610759565b60405161028e9190612a2c565b60405180910390f35b61029f6107d5565b6040516102ac9190612e58565b60405180910390f35b6102bd6107de565b6040516102ca9190612a11565b60405180910390f35b6102db610804565b6040516102e89190612a47565b60405180910390f35b61030b600480360381019061030691906125b5565b610813565b6040516103189190612a2c565b60405180910390f35b61032961088d565b005b610345600480360381019061034091906125b5565b610913565b005b610361600480360381019061035c91906125f1565b6109ee565b005b61037d60048036038101906103789190612463565b610a02565b005b610387610afc565b6040516103949190612a2c565b60405180910390f35b6103a5610b13565b005b6103c160048036038101906103bc9190612463565b610be5565b6040516103ce9190612e3d565b60405180910390f35b6103df610c2d565b005b6103fb60048036038101906103f691906125b5565b610d6a565b005b61041760048036038101906104129190612463565b610dee565b6040516104249190612e3d565b60405180910390f35b610435610e3e565b005b61043f610ec4565b60405161044c9190612e3d565b60405180910390f35b61045d610ecc565b60405161046a9190612a11565b60405180910390f35b61047b610ef6565b6040516104889190612b5b565b60405180910390f35b610499610f88565b6040516104a69190612e3d565b60405180910390f35b6104c960048036038101906104c491906125b5565b610f8e565b6040516104d69190612a2c565b60405180910390f35b6104f960048036038101906104f491906125b5565b611008565b6040516105069190612a2c565b60405180910390f35b61052960048036038101906105249190612517565b611082565b005b6105456004803603810190610540919061248c565b6111c4565b6040516105529190612e3d565b60405180910390f35b61057560048036038101906105709190612463565b61124b565b005b610591600480360381019061058c91906125f1565b6113f7565b005b6060600380546105a290612fb6565b80601f01602080910402602001604051908101604052809291908181526020018280546105ce90612fb6565b801561061b5780601f106105f05761010080835404028352916020019161061b565b820191906000526020600020905b8154815290600101906020018083116105fe57829003601f168201915b5050505050905090565b600760009054906101000a900473ffffffffffffffffffffffffffffffffffffffff1673ffffffffffffffffffffffffffffffffffffffff163373ffffffffffffffffffffffffffffffffffffffff161461067f57600080fd5b600073ffffffffffffffffffffffffffffffffffffffff168273ffffffffffffffffffffffffffffffffffffffff1614156106b957600080fd5b600081116106c657600080fd5b6106d08282611008565b505050565b60006008544211806107345750600760009054906101000a900473ffffffffffffffffffffffffffffffffffffffff1673ffffffffffffffffffffffffffffffffffffffff163373ffffffffffffffffffffffffffffffffffffffff16145b61073d57600080fd5b61074783836114c4565b905092915050565b6000600254905090565b60006008544211806107b85750600760009054906101000a900473ffffffffffffffffffffffffffffffffffffffff1673ffffffffffffffffffffffffffffffffffffffff163373ffffffffffffffffffffffffffffffffffffffff16145b6107c157600080fd5b6107cc8484846114e2565b90509392505050565b60006012905090565b600760009054906101000a900473ffffffffffffffffffffffffffffffffffffffff1681565b600061080e6115e3565b905090565b60006008544211806108725750600760009054906101000a900473ffffffffffffffffffffffffffffffffffffffff1673ffffffffffffffffffffffffffffffffffffffff163373ffffffffffffffffffffffffffffffffffffffff16145b61087b57600080fd5b61088583836116a6565b905092915050565b610895611752565b73ffffffffffffffffffffffffffffffffffffffff166108b3610ecc565b73ffffffffffffffffffffffffffffffffffffffff1614610909576040517f08c379a000000000000000000000000000000000000000000000000000000000815260040161090090612d3d565b60405180910390fd5b61091161175a565b565b600760009054906101000a900473ffffffffffffffffffffffffffffffffffffffff1673ffffffffffffffffffffffffffffffffffffffff163373ffffffffffffffffffffffffffffffffffffffff1614806109a15750610972610ecc565b73ffffffffffffffffffffffffffffffffffffffff163373ffffffffffffffffffffffffffffffffffffffff16145b6109e0576040517f08c379a00000000000000000000000000000000000000000000000000000000081526004016109d790612dfd565b60405180910390fd5b6109ea82826117fc565b5050565b6109ff6109f9611752565b82611950565b50565b610a0a611752565b73ffffffffffffffffffffffffffffffffffffffff16610a28610ecc565b73ffffffffffffffffffffffffffffffffffffffff1614610a7e576040517f08c379a0000000000000000000000000000000000000000000000000000000008152600401610a7590612d3d565b60405180910390fd5b600073ffffffffffffffffffffffffffffffffffffffff168173ffffffffffffffffffffffffffffffffffffffff161415610ab857600080fd5b80600760006101000a81548173ffffffffffffffffffffffffffffffffffffffff021916908373ffffffffffffffffffffffffffffffffffffffff16021790555050565b6000600560009054906101000a900460ff16905090565b610b1b611752565b73ffffffffffffffffffffffffffffffffffffffff16610b39610ecc565b73ffffffffffffffffffffffffffffffffffffffff1614610b8f576040517f08c379a0000000000000000000000000000000000000000000000000000000008152600401610b8690612d3d565b60405180910390fd5b6000610b99610ecc565b90508073ffffffffffffffffffffffffffffffffffffffff166108fc479081150290604051600060405180830381858888f19350505050158015610be1573d6000803e3d6000fd5b5050565b60008060008373ffffffffffffffffffffffffffffffffffffffff1673ffffffffffffffffffffffffffffffffffffffff168152602001908152602001600020549050919050565b610c35611752565b73ffffffffffffffffffffffffffffffffffffffff16610c53610ecc565b73ffffffffffffffffffffffffffffffffffffffff1614610ca9576040517f08c379a0000000000000000000000000000000000000000000000000000000008152600401610ca090612d3d565b60405180910390fd5b600073ffffffffffffffffffffffffffffffffffffffff16600560019054906101000a900473ffffffffffffffffffffffffffffffffffffffff1673ffffffffffffffffffffffffffffffffffffffff167f8be0079c531659141344cd1fd0a4f28419497f9722a3daafe3b4186f6b6457e060405160405180910390a36000600560016101000a81548173ffffffffffffffffffffffffffffffffffffffff021916908373ffffffffffffffffffffffffffffffffffffffff160217905550565b6000610d7d83610d78611752565b6111c4565b905081811015610dc2576040517f08c379a0000000000000000000000000000000000000000000000000000000008152600401610db990612d5d565b60405180910390fd5b610ddf83610dce611752565b8484610dda9190612ef0565b611b24565b610de98383611950565b505050565b6000610e37600660008473ffffffffffffffffffffffffffffffffffffffff1673ffffffffffffffffffffffffffffffffffffffff168152602001908152602001600020611cef565b9050919050565b610e46611752565b73ffffffffffffffffffffffffffffffffffffffff16610e64610ecc565b73ffffffffffffffffffffffffffffffffffffffff1614610eba576040517f08c379a0000000000000000000000000000000000000000000000000000000008152600401610eb190612d3d565b60405180910390fd5b610ec2611cfd565b565b600042905090565b6000600560019054906101000a900473ffffffffffffffffffffffffffffffffffffffff16905090565b606060048054610f0590612fb6565b80601f0160208091040260200160405190810160405280929190818152602001828054610f3190612fb6565b8015610f7e5780601f10610f5357610100808354040283529160200191610f7e565b820191906000526020600020905b815481529060010190602001808311610f6157829003601f168201915b5050505050905090565b60085481565b6000600854421180610fed5750600760009054906101000a900473ffffffffffffffffffffffffffffffffffffffff1673ffffffffffffffffffffffffffffffffffffffff163373ffffffffffffffffffffffffffffffffffffffff16145b610ff657600080fd5b6110008383611da0565b905092915050565b60006008544211806110675750600760009054906101000a900473ffffffffffffffffffffffffffffffffffffffff1673ffffffffffffffffffffffffffffffffffffffff163373ffffffffffffffffffffffffffffffffffffffff16145b61107057600080fd5b61107a8383611e94565b905092915050565b834211156110c5576040517f08c379a00000000000000000000000000000000000000000000000000000000081526004016110bc90612c5d565b60405180910390fd5b60007f00000000000000000000000000000000000000000000000000000000000000008888886110f48c611eb2565b8960405160200161110a96959493929190612a62565b604051602081830303815290604052805190602001209050600061112d82611f10565b9050600061113d82878787611f2a565b90508973ffffffffffffffffffffffffffffffffffffffff168173ffffffffffffffffffffffffffffffffffffffff16146111ad576040517f08c379a00000000000000000000000000000000000000000000000000000000081526004016111a490612cfd565b60405180910390fd5b6111b88a8a8a611b24565b50505050505050505050565b6000600160008473ffffffffffffffffffffffffffffffffffffffff1673ffffffffffffffffffffffffffffffffffffffff16815260200190815260200160002060008373ffffffffffffffffffffffffffffffffffffffff1673ffffffffffffffffffffffffffffffffffffffff16815260200190815260200160002054905092915050565b611253611752565b73ffffffffffffffffffffffffffffffffffffffff16611271610ecc565b73ffffffffffffffffffffffffffffffffffffffff16146112c7576040517f08c379a00000000000000000000000000000000000000000000000000000000081526004016112be90612d3d565b60405180910390fd5b600073ffffffffffffffffffffffffffffffffffffffff168173ffffffffffffffffffffffffffffffffffffffff161415611337576040517f08c379a000000000000000000000000000000000000000000000000000000000815260040161132e90612bfd565b60405180910390fd5b8073ffffffffffffffffffffffffffffffffffffffff16600560019054906101000a900473ffffffffffffffffffffffffffffffffffffffff1673ffffffffffffffffffffffffffffffffffffffff167f8be0079c531659141344cd1fd0a4f28419497f9722a3daafe3b4186f6b6457e060405160405180910390a380600560016101000a81548173ffffffffffffffffffffffffffffffffffffffff021916908373ffffffffffffffffffffffffffffffffffffffff16021790555050565b6113ff611752565b73ffffffffffffffffffffffffffffffffffffffff1661141d610ecc565b73ffffffffffffffffffffffffffffffffffffffff1614611473576040517f08c379a000000000000000000000000000000000000000000000000000000000815260040161146a90612d3d565b60405180910390fd5b8042106114b5576040517f08c379a00000000000000000000000000000000000000000000000000000000081526004016114ac90612c3d565b60405180910390fd5b8060088190555050565b505050565b60006114d86114d1611752565b8484611b24565b6001905092915050565b60006114ef8484846120b5565b6000600160008673ffffffffffffffffffffffffffffffffffffffff1673ffffffffffffffffffffffffffffffffffffffff168152602001908152602001600020600061153a611752565b73ffffffffffffffffffffffffffffffffffffffff1673ffffffffffffffffffffffffffffffffffffffff168152602001908152602001600020549050828110156115ba576040517f08c379a00000000000000000000000000000000000000000000000000000000081526004016115b190612d1d565b60405180910390fd5b6115d7856115c6611752565b85846115d29190612ef0565b611b24565b60019150509392505050565b60007f0000000000000000000000000000000000000000000000000000000000000000461415611635577f000000000000000000000000000000000000000000000000000000000000000090506116a3565b6116a07f00000000000000000000000000000000000000000000000000000000000000007f00000000000000000000000000000000000000000000000000000000000000007f0000000000000000000000000000000000000000000000000000000000000000612334565b90505b90565b60006117486116b3611752565b8484600160006116c1611752565b73ffffffffffffffffffffffffffffffffffffffff1673ffffffffffffffffffffffffffffffffffffffff16815260200190815260200160002060008873ffffffffffffffffffffffffffffffffffffffff1673ffffffffffffffffffffffffffffffffffffffff168152602001908152602001600020546117439190612e9a565b611b24565b6001905092915050565b600033905090565b611762610afc565b6117a1576040517f08c379a000000000000000000000000000000000000000000000000000000000815260040161179890612bbd565b60405180910390fd5b6000600560006101000a81548160ff0219169083151502179055507f5db9ee0a495bf2e6ff9c91a7834c1ba4fdd244a5e8aa4e537bd38aeae4b073aa6117e5611752565b6040516117f29190612a11565b60405180910390a1565b600073ffffffffffffffffffffffffffffffffffffffff168273ffffffffffffffffffffffffffffffffffffffff16141561186c576040517f08c379a000000000000000000000000000000000000000000000000000000000815260040161186390612e1d565b60405180910390fd5b6118786000838361236e565b806002600082825461188a9190612e9a565b92505081905550806000808473ffffffffffffffffffffffffffffffffffffffff1673ffffffffffffffffffffffffffffffffffffffff16815260200190815260200160002060008282546118df9190612e9a565b925050819055508173ffffffffffffffffffffffffffffffffffffffff16600073ffffffffffffffffffffffffffffffffffffffff167fddf252ad1be2c89b69c2b068fc378daa952ba7f163c4a11628f55a4df523b3ef836040516119449190612e3d565b60405180910390a35050565b600073ffffffffffffffffffffffffffffffffffffffff168273ffffffffffffffffffffffffffffffffffffffff1614156119c0576040517f08c379a00000000000000000000000000000000000000000000000000000000081526004016119b790612d7d565b60405180910390fd5b6119cc8260008361236e565b60008060008473ffffffffffffffffffffffffffffffffffffffff1673ffffffffffffffffffffffffffffffffffffffff16815260200190815260200160002054905081811015611a52576040517f08c379a0000000000000000000000000000000000000000000000000000000008152600401611a4990612bdd565b60405180910390fd5b8181611a5e9190612ef0565b6000808573ffffffffffffffffffffffffffffffffffffffff1673ffffffffffffffffffffffffffffffffffffffff168152602001908152602001600020819055508160026000828254611ab29190612ef0565b92505081905550600073ffffffffffffffffffffffffffffffffffffffff168373ffffffffffffffffffffffffffffffffffffffff167fddf252ad1be2c89b69c2b068fc378daa952ba7f163c4a11628f55a4df523b3ef84604051611b179190612e3d565b60405180910390a3505050565b600073ffffffffffffffffffffffffffffffffffffffff168373ffffffffffffffffffffffffffffffffffffffff161415611b94576040517f08c379a0000000000000000000000000000000000000000000000000000000008152600401611b8b90612dbd565b60405180910390fd5b600073ffffffffffffffffffffffffffffffffffffffff168273ffffffffffffffffffffffffffffffffffffffff161415611c04576040517f08c379a0000000000000000000000000000000000000000000000000000000008152600401611bfb90612c1d565b60405180910390fd5b80600160008573ffffffffffffffffffffffffffffffffffffffff1673ffffffffffffffffffffffffffffffffffffffff16815260200190815260200160002060008473ffffffffffffffffffffffffffffffffffffffff1673ffffffffffffffffffffffffffffffffffffffff168152602001908152602001600020819055508173ffffffffffffffffffffffffffffffffffffffff168373ffffffffffffffffffffffffffffffffffffffff167f8c5be1e5ebec7d5bd14f71427d1e84f3dd0314c0f7b2291e5b200ac8c7c3b92583604051611ce29190612e3d565b60405180910390a3505050565b600081600001549050919050565b611d05610afc565b15611d45576040517f08c379a0000000000000000000000000000000000000000000000000000000008152600401611d3c90612cbd565b60405180910390fd5b6001600560006101000a81548160ff0219169083151502179055507f62e78cea01bee320cd4e420270b5ea74000d11b0c9f74754ebdbfc544b05a258611d89611752565b604051611d969190612a11565b60405180910390a1565b60008060016000611daf611752565b73ffffffffffffffffffffffffffffffffffffffff1673ffffffffffffffffffffffffffffffffffffffff16815260200190815260200160002060008573ffffffffffffffffffffffffffffffffffffffff1673ffffffffffffffffffffffffffffffffffffffff16815260200190815260200160002054905082811015611e6c576040517f08c379a0000000000000000000000000000000000000000000000000000000008152600401611e6390612ddd565b60405180910390fd5b611e89611e77611752565b858584611e849190612ef0565b611b24565b600191505092915050565b6000611ea8611ea1611752565b84846120b5565b6001905092915050565b600080600660008473ffffffffffffffffffffffffffffffffffffffff1673ffffffffffffffffffffffffffffffffffffffff1681526020019081526020016000209050611eff81611cef565b9150611f0a816123c6565b50919050565b6000611f23611f1d6115e3565b836123dc565b9050919050565b60007f7fffffffffffffffffffffffffffffff5d576e7357a4501ddfe92f46681b20a08260001c1115611f92576040517f08c379a0000000000000000000000000000000000000000000000000000000008152600401611f8990612c9d565b60405180910390fd5b601b8460ff161480611fa75750601c8460ff16145b611fe6576040517f08c379a0000000000000000000000000000000000000000000000000000000008152600401611fdd90612cdd565b60405180910390fd5b60006001868686866040516000815260200160405260405161200b9493929190612b16565b6020604051602081039080840390855afa15801561202d573d6000803e3d6000fd5b505050602060405103519050600073ffffffffffffffffffffffffffffffffffffffff168173ffffffffffffffffffffffffffffffffffffffff1614156120a9576040517f08c379a00000000000000000000000000000000000000000000000000000000081526004016120a090612b7d565b60405180910390fd5b80915050949350505050565b600073ffffffffffffffffffffffffffffffffffffffff168373ffffffffffffffffffffffffffffffffffffffff161415612125576040517f08c379a000000000000000000000000000000000000000000000000000000000815260040161211c90612d9d565b60405180910390fd5b600073ffffffffffffffffffffffffffffffffffffffff168273ffffffffffffffffffffffffffffffffffffffff161415612195576040517f08c379a000000000000000000000000000000000000000000000000000000000815260040161218c90612b9d565b60405180910390fd5b6121a083838361236e565b60008060008573ffffffffffffffffffffffffffffffffffffffff1673ffffffffffffffffffffffffffffffffffffffff16815260200190815260200160002054905081811015612226576040517f08c379a000000000000000000000000000000000000000000000000000000000815260040161221d90612c7d565b60405180910390fd5b81816122329190612ef0565b6000808673ffffffffffffffffffffffffffffffffffffffff1673ffffffffffffffffffffffffffffffffffffffff16815260200190815260200160002081905550816000808573ffffffffffffffffffffffffffffffffffffffff1673ffffffffffffffffffffffffffffffffffffffff16815260200190815260200160002060008282546122c29190612e9a565b925050819055508273ffffffffffffffffffffffffffffffffffffffff168473ffffffffffffffffffffffffffffffffffffffff167fddf252ad1be2c89b69c2b068fc378daa952ba7f163c4a11628f55a4df523b3ef846040516123269190612e3d565b60405180910390a350505050565b6000838383463060405160200161234f959493929190612ac3565b6040516020818303038152906040528051906020012090509392505050565b612376610afc565b156123b6576040517f08c379a00000000000000000000000000000000000000000000000000000000081526004016123ad90612cbd565b60405180910390fd5b6123c18383836114bf565b505050565b6001816000016000828254019250508190555050565b600082826040516020016123f19291906129da565b60405160208183030381529060405280519060200120905092915050565b60008135905061241e81613624565b92915050565b6000813590506124338161363b565b92915050565b60008135905061244881613652565b92915050565b60008135905061245d81613669565b92915050565b60006020828403121561247557600080fd5b60006124838482850161240f565b91505092915050565b6000806040838503121561249f57600080fd5b60006124ad8582860161240f565b92505060206124be8582860161240f565b9150509250929050565b6000806000606084860312156124dd57600080fd5b60006124eb8682870161240f565b93505060206124fc8682870161240f565b925050604061250d86828701612439565b9150509250925092565b600080600080600080600060e0888a03121561253257600080fd5b60006125408a828b0161240f565b97505060206125518a828b0161240f565b96505060406125628a828b01612439565b95505060606125738a828b01612439565b94505060806125848a828b0161244e565b93505060a06125958a828b01612424565b92505060c06125a68a828b01612424565b91505092959891949750929550565b600080604083850312156125c857600080fd5b60006125d68582860161240f565b92505060206125e785828601612439565b9150509250929050565b60006020828403121561260357600080fd5b600061261184828501612439565b91505092915050565b61262381612f24565b82525050565b61263281612f36565b82525050565b61264181612f42565b82525050565b61265861265382612f42565b612fe8565b82525050565b600061266982612e73565b6126738185612e7e565b9350612683818560208601612f83565b61268c81613050565b840191505092915050565b60006126a4601883612e7e565b91506126af82613061565b602082019050919050565b60006126c7602383612e7e565b91506126d28261308a565b604082019050919050565b60006126ea601483612e7e565b91506126f5826130d9565b602082019050919050565b600061270d602283612e7e565b915061271882613102565b604082019050919050565b6000612730602683612e7e565b915061273b82613151565b604082019050919050565b6000612753602283612e7e565b915061275e826131a0565b604082019050919050565b6000612776600283612e8f565b9150612781826131ef565b600282019050919050565b6000612799601a83612e7e565b91506127a482613218565b602082019050919050565b60006127bc601d83612e7e565b91506127c782613241565b602082019050919050565b60006127df602683612e7e565b91506127ea8261326a565b604082019050919050565b6000612802602283612e7e565b915061280d826132b9565b604082019050919050565b6000612825601083612e7e565b915061283082613308565b602082019050919050565b6000612848602283612e7e565b915061285382613331565b604082019050919050565b600061286b601e83612e7e565b915061287682613380565b602082019050919050565b600061288e602883612e7e565b9150612899826133a9565b604082019050919050565b60006128b1602083612e7e565b91506128bc826133f8565b602082019050919050565b60006128d4602483612e7e565b91506128df82613421565b604082019050919050565b60006128f7602183612e7e565b915061290282613470565b604082019050919050565b600061291a602583612e7e565b9150612925826134bf565b604082019050919050565b600061293d602483612e7e565b91506129488261350e565b604082019050919050565b6000612960602583612e7e565b915061296b8261355d565b604082019050919050565b6000612983602c83612e7e565b915061298e826135ac565b604082019050919050565b60006129a6601f83612e7e565b91506129b1826135fb565b602082019050919050565b6129c581612f6c565b82525050565b6129d481612f76565b82525050565b60006129e582612769565b91506129f18285612647565b602082019150612a018284612647565b6020820191508190509392505050565b6000602082019050612a26600083018461261a565b92915050565b6000602082019050612a416000830184612629565b92915050565b6000602082019050612a5c6000830184612638565b92915050565b600060c082019050612a776000830189612638565b612a84602083018861261a565b612a91604083018761261a565b612a9e60608301866129bc565b612aab60808301856129bc565b612ab860a08301846129bc565b979650505050505050565b600060a082019050612ad86000830188612638565b612ae56020830187612638565b612af26040830186612638565b612aff60608301856129bc565b612b0c608083018461261a565b9695505050505050565b6000608082019050612b2b6000830187612638565b612b3860208301866129cb565b612b456040830185612638565b612b526060830184612638565b95945050505050565b60006020820190508181036000830152612b75818461265e565b905092915050565b60006020820190508181036000830152612b9681612697565b9050919050565b60006020820190508181036000830152612bb6816126ba565b9050919050565b60006020820190508181036000830152612bd6816126dd565b9050919050565b60006020820190508181036000830152612bf681612700565b9050919050565b60006020820190508181036000830152612c1681612723565b9050919050565b60006020820190508181036000830152612c3681612746565b9050919050565b60006020820190508181036000830152612c568161278c565b9050919050565b60006020820190508181036000830152612c76816127af565b9050919050565b60006020820190508181036000830152612c96816127d2565b9050919050565b60006020820190508181036000830152612cb6816127f5565b9050919050565b60006020820190508181036000830152612cd681612818565b9050919050565b60006020820190508181036000830152612cf68161283b565b9050919050565b60006020820190508181036000830152612d168161285e565b9050919050565b60006020820190508181036000830152612d3681612881565b9050919050565b60006020820190508181036000830152612d56816128a4565b9050919050565b60006020820190508181036000830152612d76816128c7565b9050919050565b60006020820190508181036000830152612d96816128ea565b9050919050565b60006020820190508181036000830152612db68161290d565b9050919050565b60006020820190508181036000830152612dd681612930565b9050919050565b60006020820190508181036000830152612df681612953565b9050919050565b60006020820190508181036000830152612e1681612976565b9050919050565b60006020820190508181036000830152612e3681612999565b9050919050565b6000602082019050612e5260008301846129bc565b92915050565b6000602082019050612e6d60008301846129cb565b92915050565b600081519050919050565b600082825260208201905092915050565b600081905092915050565b6000612ea582612f6c565b9150612eb083612f6c565b9250827fffffffffffffffffffffffffffffffffffffffffffffffffffffffffffffffff03821115612ee557612ee4612ff2565b5b828201905092915050565b6000612efb82612f6c565b9150612f0683612f6c565b925082821015612f1957612f18612ff2565b5b828203905092915050565b6000612f2f82612f4c565b9050919050565b60008115159050919050565b6000819050919050565b600073ffffffffffffffffffffffffffffffffffffffff82169050919050565b6000819050919050565b600060ff82169050919050565b60005b83811015612fa1578082015181840152602081019050612f86565b83811115612fb0576000848401525b50505050565b60006002820490506001821680612fce57607f821691505b60208210811415612fe257612fe1613021565b5b50919050565b6000819050919050565b7f4e487b7100000000000000000000000000000000000000000000000000000000600052601160045260246000fd5b7f4e487b7100000000000000000000000000000000000000000000000000000000600052602260045260246000fd5b6000601f19601f8301169050919050565b7f45434453413a20696e76616c6964207369676e61747572650000000000000000600082015250565b7f45524332303a207472616e7366657220746f20746865207a65726f206164647260008201527f6573730000000000000000000000000000000000000000000000000000000000602082015250565b7f5061757361626c653a206e6f7420706175736564000000000000000000000000600082015250565b7f45524332303a206275726e20616d6f756e7420657863656564732062616c616e60008201527f6365000000000000000000000000000000000000000000000000000000000000602082015250565b7f4f776e61626c653a206e6577206f776e657220697320746865207a65726f206160008201527f6464726573730000000000000000000000000000000000000000000000000000602082015250565b7f45524332303a20617070726f766520746f20746865207a65726f20616464726560008201527f7373000000000000000000000000000000000000000000000000000000000000602082015250565b7f1901000000000000000000000000000000000000000000000000000000000000600082015250565b7f49636f2063616e6e6f7420656e6420696e207468652070617374000000000000600082015250565b7f45524332305065726d69743a206578706972656420646561646c696e65000000600082015250565b7f45524332303a207472616e7366657220616d6f756e742065786365656473206260008201527f616c616e63650000000000000000000000000000000000000000000000000000602082015250565b7f45434453413a20696e76616c6964207369676e6174757265202773272076616c60008201527f7565000000000000000000000000000000000000000000000000000000000000602082015250565b7f5061757361626c653a2070617573656400000000000000000000000000000000600082015250565b7f45434453413a20696e76616c6964207369676e6174757265202776272076616c60008201527f7565000000000000000000000000000000000000000000000000000000000000602082015250565b7f45524332305065726d69743a20696e76616c6964207369676e61747572650000600082015250565b7f45524332303a207472616e7366657220616d6f756e742065786365656473206160008201527f6c6c6f77616e6365000000000000000000000000000000000000000000000000602082015250565b7f4f776e61626c653a2063616c6c6572206973206e6f7420746865206f776e6572600082015250565b7f45524332303a206275726e20616d6f756e74206578636565647320616c6c6f7760008201527f616e636500000000000000000000000000000000000000000000000000000000602082015250565b7f45524332303a206275726e2066726f6d20746865207a65726f2061646472657360008201527f7300000000000000000000000000000000000000000000000000000000000000602082015250565b7f45524332303a207472616e736665722066726f6d20746865207a65726f20616460008201527f6472657373000000000000000000000000000000000000000000000000000000602082015250565b7f45524332303a20617070726f76652066726f6d20746865207a65726f2061646460008201527f7265737300000000000000000000000000000000000000000000000000000000602082015250565b7f45524332303a2064656372656173656420616c6c6f77616e63652062656c6f7760008201527f207a65726f000000000000000000000000000000000000000000000000000000602082015250565b7f46756e6374696f6e20616c6c6f776564206f6e6c7920746f206f776e6572206160008201527f6e642063726f776473616c650000000000000000000000000000000000000000602082015250565b7f45524332303a206d696e7420746f20746865207a65726f206164647265737300600082015250565b61362d81612f24565b811461363857600080fd5b50565b61364481612f42565b811461364f57600080fd5b50565b61365b81612f6c565b811461366657600080fd5b50565b61367281612f76565b811461367d57600080fd5b5056fea2646970667358221220332e1919c9ee80bbdf048b69c8c82237a176208b55e3d9ec83f85c83360c4bfd64736f6c63430008010033",
  "immutableReferences": {
    "2977": [
      {
        "length": 32,
        "start": 4297
      }
    ],
    "4994": [
      {
        "length": 32,
        "start": 5647
      }
    ],
    "4996": [
      {
        "length": 32,
        "start": 5607
      }
    ],
    "4998": [
      {
        "length": 32,
        "start": 5723
      }
    ],
    "5000": [
      {
        "length": 32,
        "start": 5756
      }
    ],
    "5002": [
      {
        "length": 32,
        "start": 5690
      }
    ]
  },
  "source": "// SPDX-License-Identifier: MIT\npragma solidity ^0.8.0;\n\nimport \"@openzeppelin/contracts/token/ERC20/ERC20.sol\";\nimport \"@openzeppelin/contracts/token/ERC20/extensions/ERC20Burnable.sol\";\nimport \"@openzeppelin/contracts/security/Pausable.sol\";\nimport \"@openzeppelin/contracts/access/Ownable.sol\";\nimport \"@openzeppelin/contracts/token/ERC20/extensions/draft-ERC20Permit.sol\";\n\ncontract Melody is ERC20, ERC20Burnable, Pausable, Ownable, ERC20Permit {\n    address public crowdsaleAddress;\n\tuint256 public ICOEndTime;\n\n\tmodifier onlyCrowdsale {\n\t\trequire(msg.sender == crowdsaleAddress);\n\t\t_;\n\t}\n\n\tmodifier afterCrowdsale {\n\t\trequire(block.timestamp > ICOEndTime || msg.sender == crowdsaleAddress);\n\t\t_;\n\t}\n\n    modifier onlyOwnerOrCrowdsale {\n        require(msg.sender == crowdsaleAddress || msg.sender == owner(), \"Function allowed only to owner and crowdsale\");\n        _;\n    }\n\n    constructor() ERC20(\"Melody\", \"MELD\") ERC20Permit(\"Melody\") {\n        _mint(msg.sender, 2e9 * 10 ** super.decimals());\n    }\n\n    function pause() public onlyOwner {\n        _pause();\n    }\n\n    function unpause() public onlyOwner {\n        _unpause();\n    }\n\n    function mint(address to, uint256 amount) public onlyOwnerOrCrowdsale {\n        _mint(to, amount);\n    }\n\n    function _beforeTokenTransfer(address from, address to, uint256 amount)\n        internal\n        whenNotPaused\n        override\n    {\n        super._beforeTokenTransfer(from, to, amount);\n    }\n\n    function setCrowdsale(address _crowdsaleAddress) public onlyOwner {\n\t\trequire(_crowdsaleAddress != address(0));\n\t\tcrowdsaleAddress = _crowdsaleAddress;\n\t}\n\n\tfunction buyTokens(address _receiver, uint256 _amount) public onlyCrowdsale {\n\t\trequire(_receiver != address(0));\n\t\trequire(_amount > 0);\n\t\ttransfer(_receiver, _amount);\n\t}\n\n    function setIcoEndTime(uint256 _time) public onlyOwner {\n        require(block.timestamp < _time, \"Ico cannot end in the past\");\n        ICOEndTime = _time;\n    }\n\n    function getBlockTime() public view returns(uint256 timestamp) {\n        return block.timestamp;\n    }\n\n    /// @notice Override the functions to not allow token transfers until the end of the ICO\n    function transfer(address _to, uint256 _value) override public afterCrowdsale returns(bool) {\n        return super.transfer(_to, _value);\n    }\n\n    /// @notice Override the functions to not allow token transfers until the end of the ICO\n    function transferFrom(address _from, address _to, uint256 _value) override public afterCrowdsale returns(bool) {\n        return super.transferFrom(_from, _to, _value);\n    }\n\n    /// @notice Override the functions to not allow token transfers until the end of the ICO\n    function approve(address _spender, uint256 _value) override public afterCrowdsale returns(bool) {\n        return super.approve(_spender, _value);\n    }\n\n    /// @notice Override the functions to not allow token transfers until the end of the ICO\n    function increaseAllowance(address _spender, uint _addedValue) override public afterCrowdsale returns(bool success) {\n        return super.increaseAllowance(_spender, _addedValue);\n    }\n\n    /// @notice Override the functions to not allow token transfers until the end of the ICO\n    function decreaseAllowance(address _spender, uint _subtractedValue) override public afterCrowdsale returns(bool success) {\n        return super.decreaseAllowance(_spender, _subtractedValue);\n    }\n\n    function emergencyExtract() external onlyOwner {\n        address payable _owner = payable(super.owner());\n        _owner.transfer(address(this).balance);\n    }\n}\n",
  "sourcePath": "/home/ebalo/Desktop/Projects/blockchain/block-chain/contracts/Melody.sol",
  "compiler": {
    "name": "solc",
    "version": "0.8.1+commit.df193b15.Emscripten.clang"
  },
  "schemaVersion": "3.4.1",
  "updatedAt": "2021-05-16T06:51:03.870Z",
  "networkType": "ethereum",
  "devdoc": {
    "kind": "dev",
    "methods": {
      "DOMAIN_SEPARATOR()": {
        "details": "See {IERC20Permit-DOMAIN_SEPARATOR}."
      },
      "allowance(address,address)": {
        "details": "See {IERC20-allowance}."
      },
      "balanceOf(address)": {
        "details": "See {IERC20-balanceOf}."
      },
      "burn(uint256)": {
        "details": "Destroys `amount` tokens from the caller. See {ERC20-_burn}."
      },
      "burnFrom(address,uint256)": {
        "details": "Destroys `amount` tokens from `account`, deducting from the caller's allowance. See {ERC20-_burn} and {ERC20-allowance}. Requirements: - the caller must have allowance for ``accounts``'s tokens of at least `amount`."
      },
      "decimals()": {
        "details": "Returns the number of decimals used to get its user representation. For example, if `decimals` equals `2`, a balance of `505` tokens should be displayed to a user as `5,05` (`505 / 10 ** 2`). Tokens usually opt for a value of 18, imitating the relationship between Ether and Wei. This is the value {ERC20} uses, unless this function is overridden; NOTE: This information is only used for _display_ purposes: it in no way affects any of the arithmetic of the contract, including {IERC20-balanceOf} and {IERC20-transfer}."
      },
      "name()": {
        "details": "Returns the name of the token."
      },
      "nonces(address)": {
        "details": "See {IERC20Permit-nonces}."
      },
      "owner()": {
        "details": "Returns the address of the current owner."
      },
      "paused()": {
        "details": "Returns true if the contract is paused, and false otherwise."
      },
      "permit(address,address,uint256,uint256,uint8,bytes32,bytes32)": {
        "details": "See {IERC20Permit-permit}."
      },
      "renounceOwnership()": {
        "details": "Leaves the contract without owner. It will not be possible to call `onlyOwner` functions anymore. Can only be called by the current owner. NOTE: Renouncing ownership will leave the contract without an owner, thereby removing any functionality that is only available to the owner."
      },
      "symbol()": {
        "details": "Returns the symbol of the token, usually a shorter version of the name."
      },
      "totalSupply()": {
        "details": "See {IERC20-totalSupply}."
      },
      "transferOwnership(address)": {
        "details": "Transfers ownership of the contract to a new account (`newOwner`). Can only be called by the current owner."
      }
    },
    "version": 1
  },
  "userdoc": {
    "kind": "user",
    "methods": {
      "approve(address,uint256)": {
        "notice": "Override the functions to not allow token transfers until the end of the ICO"
      },
      "decreaseAllowance(address,uint256)": {
        "notice": "Override the functions to not allow token transfers until the end of the ICO"
      },
      "increaseAllowance(address,uint256)": {
        "notice": "Override the functions to not allow token transfers until the end of the ICO"
      },
      "transfer(address,uint256)": {
        "notice": "Override the functions to not allow token transfers until the end of the ICO"
      },
      "transferFrom(address,address,uint256)": {
        "notice": "Override the functions to not allow token transfers until the end of the ICO"
      }
    },
    "version": 1
  }
}