{
  "contractName": "MelodityCrowdsale",
  "abi": [
    {
      "inputs": [
        {
          "internalType": "uint256",
          "name": "_start",
          "type": "uint256"
        },
        {
          "internalType": "uint256",
          "name": "_end",
          "type": "uint256"
        },
        {
          "internalType": "contract Melodity",
          "name": "_token",
          "type": "address"
        },
        {
          "components": [
            {
              "internalType": "uint256",
              "name": "rate",
              "type": "uint256"
            },
            {
              "internalType": "uint256",
              "name": "lower_limit",
              "type": "uint256"
            },
            {
              "internalType": "uint256",
              "name": "upper_limit",
              "type": "uint256"
            }
          ],
          "internalType": "struct MelodityCrowdsale.PaymentTier[]",
          "name": "_payment_tier",
          "type": "tuple[]"
        }
      ],
      "stateMutability": "nonpayable",
      "type": "constructor"
    },
    {
      "anonymous": false,
      "inputs": [
        {
          "indexed": true,
          "internalType": "address",
          "name": "from",
          "type": "address"
        },
        {
          "indexed": false,
          "internalType": "uint256",
          "name": "amount",
          "type": "uint256"
        }
      ],
      "name": "Buy",
      "type": "event"
    },
    {
      "anonymous": false,
      "inputs": [],
      "name": "Finalize",
      "type": "event"
    },
    {
      "anonymous": false,
      "inputs": [
        {
          "indexed": true,
          "internalType": "address",
          "name": "previousOwner",
          "type": "address"
        },
        {
          "indexed": true,
          "internalType": "address",
          "name": "newOwner",
          "type": "address"
        }
      ],
      "name": "OwnershipTransferred",
      "type": "event"
    },
    {
      "anonymous": false,
      "inputs": [
        {
          "indexed": false,
          "internalType": "uint256",
          "name": "amount",
          "type": "uint256"
        }
      ],
      "name": "Redeemed",
      "type": "event"
    },
    {
      "anonymous": false,
      "inputs": [],
      "name": "SalePaused",
      "type": "event"
    },
    {
      "anonymous": false,
      "inputs": [],
      "name": "SaleResumed",
      "type": "event"
    },
    {
      "anonymous": false,
      "inputs": [
        {
          "indexed": false,
          "internalType": "uint256",
          "name": "_supply",
          "type": "uint256"
        }
      ],
      "name": "SupplyInitialized",
      "type": "event"
    },
    {
      "inputs": [],
      "name": "owner",
      "outputs": [
        {
          "internalType": "address",
          "name": "",
          "type": "address"
        }
      ],
      "stateMutability": "view",
      "type": "function",
      "constant": true
    },
    {
      "inputs": [],
      "name": "renounceOwnership",
      "outputs": [],
      "stateMutability": "nonpayable",
      "type": "function"
    },
    {
      "inputs": [
        {
          "internalType": "address",
          "name": "newOwner",
          "type": "address"
        }
      ],
      "name": "transferOwnership",
      "outputs": [],
      "stateMutability": "nonpayable",
      "type": "function"
    },
    {
      "stateMutability": "payable",
      "type": "receive",
      "payable": true
    },
    {
      "inputs": [],
      "name": "initSupply",
      "outputs": [],
      "stateMutability": "nonpayable",
      "type": "function"
    },
    {
      "inputs": [],
      "name": "pause",
      "outputs": [],
      "stateMutability": "nonpayable",
      "type": "function"
    },
    {
      "inputs": [],
      "name": "resume",
      "outputs": [],
      "stateMutability": "nonpayable",
      "type": "function"
    },
    {
      "inputs": [
        {
          "internalType": "uint256",
          "name": "_start",
          "type": "uint256"
        }
      ],
      "name": "setStartTime",
      "outputs": [],
      "stateMutability": "nonpayable",
      "type": "function"
    },
    {
      "inputs": [
        {
          "internalType": "uint256",
          "name": "_end",
          "type": "uint256"
        }
      ],
      "name": "setEndTime",
      "outputs": [],
      "stateMutability": "nonpayable",
      "type": "function"
    },
    {
      "inputs": [
        {
          "components": [
            {
              "internalType": "uint256",
              "name": "rate",
              "type": "uint256"
            },
            {
              "internalType": "uint256",
              "name": "lower_limit",
              "type": "uint256"
            },
            {
              "internalType": "uint256",
              "name": "upper_limit",
              "type": "uint256"
            }
          ],
          "internalType": "struct MelodityCrowdsale.PaymentTier[]",
          "name": "_payment_tier",
          "type": "tuple[]"
        }
      ],
      "name": "setPaymentTiers",
      "outputs": [],
      "stateMutability": "nonpayable",
      "type": "function"
    },
    {
      "inputs": [],
      "name": "buy",
      "outputs": [],
      "stateMutability": "payable",
      "type": "function",
      "payable": true
    },
    {
      "inputs": [
        {
          "internalType": "uint256",
          "name": "funds",
          "type": "uint256"
        }
      ],
      "name": "computeTokensAmount",
      "outputs": [
        {
          "internalType": "uint256",
          "name": "",
          "type": "uint256"
        },
        {
          "internalType": "uint256",
          "name": "",
          "type": "uint256"
        }
      ],
      "stateMutability": "nonpayable",
      "type": "function"
    },
    {
      "inputs": [],
      "name": "redeem",
      "outputs": [],
      "stateMutability": "payable",
      "type": "function",
      "payable": true
    },
    {
      "inputs": [],
      "name": "emergencyRedeem",
      "outputs": [],
      "stateMutability": "payable",
      "type": "function",
      "payable": true
    },
    {
      "inputs": [],
      "name": "getBalance",
      "outputs": [
        {
          "internalType": "uint256",
          "name": "",
          "type": "uint256"
        }
      ],
      "stateMutability": "view",
      "type": "function",
      "constant": true
    },
    {
      "inputs": [],
      "name": "getDistributed",
      "outputs": [
        {
          "internalType": "uint256",
          "name": "",
          "type": "uint256"
        }
      ],
      "stateMutability": "view",
      "type": "function",
      "constant": true
    },
    {
      "inputs": [],
      "name": "getStartingTime",
      "outputs": [
        {
          "internalType": "uint256",
          "name": "",
          "type": "uint256"
        }
      ],
      "stateMutability": "view",
      "type": "function",
      "constant": true
    },
    {
      "inputs": [],
      "name": "getEndingTime",
      "outputs": [
        {
          "internalType": "uint256",
          "name": "",
          "type": "uint256"
        }
      ],
      "stateMutability": "view",
      "type": "function",
      "constant": true
    },
    {
      "inputs": [],
      "name": "getSupply",
      "outputs": [
        {
          "internalType": "uint256",
          "name": "",
          "type": "uint256"
        }
      ],
      "stateMutability": "view",
      "type": "function",
      "constant": true
    },
    {
      "inputs": [],
      "name": "getTiers",
      "outputs": [
        {
          "components": [
            {
              "internalType": "uint256",
              "name": "rate",
              "type": "uint256"
            },
            {
              "internalType": "uint256",
              "name": "lower_limit",
              "type": "uint256"
            },
            {
              "internalType": "uint256",
              "name": "upper_limit",
              "type": "uint256"
            }
          ],
          "internalType": "struct MelodityCrowdsale.PaymentTier[]",
          "name": "",
          "type": "tuple[]"
        }
      ],
      "stateMutability": "view",
      "type": "function",
      "constant": true
    },
    {
      "inputs": [],
      "name": "isPaused",
      "outputs": [
        {
          "internalType": "bool",
          "name": "",
          "type": "bool"
        }
      ],
      "stateMutability": "view",
      "type": "function",
      "constant": true
    },
    {
      "inputs": [],
      "name": "isStarted",
      "outputs": [
        {
          "internalType": "bool",
          "name": "",
          "type": "bool"
        }
      ],
      "stateMutability": "view",
      "type": "function",
      "constant": true
    }
  ],
  "bytecode": "0x60806040523480156200001157600080fd5b506040516200323c3803806200323c833981810160405281019062000037919062000477565b620000576200004b6200027260201b60201c565b6200027a60201b60201c565b60008414620000a657834210620000a5576040517f08c379a00000000000000000000000000000000000000000000000000000000081526004016200009c9062000571565b60405180910390fd5b5b60008314620000f557824210620000f4576040517f08c379a0000000000000000000000000000000000000000000000000000000008152600401620000eb90620005b5565b60405180910390fd5b5b600073ffffffffffffffffffffffffffffffffffffffff168273ffffffffffffffffffffffffffffffffffffffff16141562000168576040517f08c379a00000000000000000000000000000000000000000000000000000000081526004016200015f9062000593565b60405180910390fd5b836003819055508260048190555081600160006101000a81548173ffffffffffffffffffffffffffffffffffffffff021916908373ffffffffffffffffffffffffffffffffffffffff16021790555060005b81518110156200026757600282828151811062000200577f4e487b7100000000000000000000000000000000000000000000000000000000600052603260045260246000fd5b60200260200101519080600181540180825580915050600190039060005260206000209060030201600090919091909150600082015181600001556020820151816001015560408201518160020155505080806200025e90620006c8565b915050620001ba565b505050505062000880565b600033905090565b60008060009054906101000a900473ffffffffffffffffffffffffffffffffffffffff169050816000806101000a81548173ffffffffffffffffffffffffffffffffffffffff021916908373ffffffffffffffffffffffffffffffffffffffff1602179055508173ffffffffffffffffffffffffffffffffffffffff168173ffffffffffffffffffffffffffffffffffffffff167f8be0079c531659141344cd1fd0a4f28419497f9722a3daafe3b4186f6b6457e060405160405180910390a35050565b6000620003556200034f8462000600565b620005d7565b905080838252602082019050828560608602820111156200037557600080fd5b60005b85811015620003a957816200038e8882620003f7565b84526020840193506060830192505060018101905062000378565b5050509392505050565b600082601f830112620003c557600080fd5b8151620003d78482602086016200033e565b91505092915050565b600081519050620003f1816200084c565b92915050565b6000606082840312156200040a57600080fd5b620004166060620005d7565b90506000620004288482850162000460565b60008301525060206200043e8482850162000460565b6020830152506040620004548482850162000460565b60408301525092915050565b600081519050620004718162000866565b92915050565b600080600080608085870312156200048e57600080fd5b60006200049e8782880162000460565b9450506020620004b18782880162000460565b9350506040620004c487828801620003e0565b925050606085015167ffffffffffffffff811115620004e257600080fd5b620004f087828801620003b3565b91505092959194509250565b60006200050b6028836200062f565b9150620005188262000785565b604082019050919050565b600062000532601c836200062f565b91506200053f82620007d4565b602082019050919050565b6000620005596021836200062f565b91506200056682620007fd565b604082019050919050565b600060208201905081810360008301526200058c81620004fc565b9050919050565b60006020820190508181036000830152620005ae8162000523565b9050919050565b60006020820190508181036000830152620005d0816200054a565b9050919050565b6000620005e3620005f6565b9050620005f1828262000692565b919050565b6000604051905090565b600067ffffffffffffffff8211156200061e576200061d62000745565b5b602082029050602081019050919050565b600082825260208201905092915050565b60006200064d8262000668565b9050919050565b6000620006618262000640565b9050919050565b600073ffffffffffffffffffffffffffffffffffffffff82169050919050565b6000819050919050565b6200069d8262000774565b810181811067ffffffffffffffff82111715620006bf57620006be62000745565b5b80604052505050565b6000620006d58262000688565b91507fffffffffffffffffffffffffffffffffffffffffffffffffffffffffffffffff8214156200070b576200070a62000716565b5b600182019050919050565b7f4e487b7100000000000000000000000000000000000000000000000000000000600052601160045260246000fd5b7f4e487b7100000000000000000000000000000000000000000000000000000000600052604160045260246000fd5b6000601f19601f8301169050919050565b7f53616c65207374617274696e672074696d652063616e6e6f7420626520696e2060008201527f7468652070617374000000000000000000000000000000000000000000000000602082015250565b7f546f6b656e20616464726573732063616e6e6f74206265206e756c6c00000000600082015250565b7f456e64696e672074696d652063616e6e6f7420626520696e207468652070617360008201527f7400000000000000000000000000000000000000000000000000000000000000602082015250565b620008578162000654565b81146200086357600080fd5b50565b620008718162000688565b81146200087d57600080fd5b50565b6129ac80620008906000396000f3fe60806040526004361061012e5760003560e01c806388763263116100ab578063b187bd261161006f578063b187bd2614610344578063be040fb01461036f578063c1da7e9b14610379578063ccb98ffc146103a4578063de170570146103cd578063f2fde38b146103f85761013d565b806388763263146102c55780638954b3e0146102ee5780638da5cb5b146102f857806397d63f9314610323578063a6f2ae3a1461033a5761013d565b80633e0a322d116100f25780633e0a322d14610218578063544736e6146102415780636c9c2faf1461026c578063715018a6146102975780638456cb59146102ae5761013d565b8063046f7da2146101425780630dc0c9711461015957806312065fe0146101845780631e4049a1146101af5780631ea334e7146101ed5761013d565b3661013d5761013b610421565b005b600080fd5b34801561014e57600080fd5b506101576106de565b005b34801561016557600080fd5b5061016e6107a3565b60405161017b919061232c565b60405180910390f35b34801561019057600080fd5b506101996107ad565b6040516101a6919061232c565b60405180910390f35b3480156101bb57600080fd5b506101d660048036038101906101d19190611ed2565b6107b5565b6040516101e4929190612347565b60405180910390f35b3480156101f957600080fd5b50610202610924565b60405161020f919061232c565b60405180910390f35b34801561022457600080fd5b5061023f600480360381019061023a9190611ed2565b61092e565b005b34801561024d57600080fd5b506102566109f6565b60405161026391906121f1565b60405180910390f35b34801561027857600080fd5b50610281610a03565b60405161028e919061232c565b60405180910390f35b3480156102a357600080fd5b506102ac610a0d565b005b3480156102ba57600080fd5b506102c3610a95565b005b3480156102d157600080fd5b506102ec60048036038101906102e79190611e68565b610baa565b005b6102f6610d27565b005b34801561030457600080fd5b5061030d610ff3565b60405161031a9190612162565b60405180910390f35b34801561032f57600080fd5b5061033861101c565b005b610342610421565b005b34801561035057600080fd5b50610359611108565b60405161036691906121f1565b60405180910390f35b61037761119b565b005b34801561038557600080fd5b5061038e611512565b60405161039b919061232c565b60405180910390f35b3480156103b057600080fd5b506103cb60048036038101906103c69190611ed2565b61151c565b005b3480156103d957600080fd5b506103e26115e4565b6040516103ef91906121cf565b60405180910390f35b34801561040457600080fd5b5061041f600480360381019061041a9190611e3f565b611661565b005b6003544210158015610434575060045442105b80156104ea57506000600160009054906101000a900473ffffffffffffffffffffffffffffffffffffffff1673ffffffffffffffffffffffffffffffffffffffff166370a08231306040518263ffffffff1660e01b81526004016104989190612162565b60206040518083038186803b1580156104b057600080fd5b505afa1580156104c4573d6000803e3d6000fd5b505050506040513d601f19601f820116820180604052508101906104e89190611efb565b115b610529576040517f08c379a0000000000000000000000000000000000000000000000000000000008152600401610520906122ac565b60405180910390fd5b600560009054906101000a900460ff1615610579576040517f08c379a0000000000000000000000000000000000000000000000000000000008152600401610570906122ec565b60405180910390fd5b600080610587346001611759565b9150915060008111156105dc573373ffffffffffffffffffffffffffffffffffffffff166108fc829081150290604051600060405180830381858888f193505050501580156105da573d6000803e3d6000fd5b505b600160009054906101000a900473ffffffffffffffffffffffffffffffffffffffff1673ffffffffffffffffffffffffffffffffffffffff1663a9059cbb33846040518363ffffffff1660e01b81526004016106399291906121a6565b602060405180830381600087803b15801561065357600080fd5b505af1158015610667573d6000803e3d6000fd5b505050506040513d601f19601f8201168201806040525081019061068b9190611ea9565b503373ffffffffffffffffffffffffffffffffffffffff167fe3d4187f6ca4248660cc0ac8b8056515bac4a8132be2eca31d6d0cc170722a7e836040516106d2919061232c565b60405180910390a25050565b6106e6611bd6565b73ffffffffffffffffffffffffffffffffffffffff16610704610ff3565b73ffffffffffffffffffffffffffffffffffffffff161461075a576040517f08c379a00000000000000000000000000000000000000000000000000000000081526004016107519061226c565b60405180910390fd5b6000600560006101000a81548160ff0219169083151502179055507fbcbdbf400d5c713d9679ffa947f717848591ab5a7d1608c49119db603c4942cb60405160405180910390a1565b6000600354905090565b600047905090565b60008060035442101580156107cb575060045442105b801561088157506000600160009054906101000a900473ffffffffffffffffffffffffffffffffffffffff1673ffffffffffffffffffffffffffffffffffffffff166370a08231306040518263ffffffff1660e01b815260040161082f9190612162565b60206040518083038186803b15801561084757600080fd5b505afa15801561085b573d6000803e3d6000fd5b505050506040513d601f19601f8201168201806040525081019061087f9190611efb565b115b6108c0576040517f08c379a00000000000000000000000000000000000000000000000000000000081526004016108b7906122ac565b60405180910390fd5b600560009054906101000a900460ff1615610910576040517f08c379a0000000000000000000000000000000000000000000000000000000008152600401610907906122ec565b60405180910390fd5b61091b836000611759565b91509150915091565b6000600754905090565b610936611bd6565b73ffffffffffffffffffffffffffffffffffffffff16610954610ff3565b73ffffffffffffffffffffffffffffffffffffffff16146109aa576040517f08c379a00000000000000000000000000000000000000000000000000000000081526004016109a19061226c565b60405180910390fd5b8042106109ec576040517f08c379a00000000000000000000000000000000000000000000000000000000081526004016109e39061220c565b60405180910390fd5b8060038190555050565b6000600354421015905090565b6000600654905090565b610a15611bd6565b73ffffffffffffffffffffffffffffffffffffffff16610a33610ff3565b73ffffffffffffffffffffffffffffffffffffffff1614610a89576040517f08c379a0000000000000000000000000000000000000000000000000000000008152600401610a809061226c565b60405180910390fd5b610a936000611bde565b565b600560009054906101000a900460ff1615610ae5576040517f08c379a0000000000000000000000000000000000000000000000000000000008152600401610adc906122ec565b60405180910390fd5b610aed611bd6565b73ffffffffffffffffffffffffffffffffffffffff16610b0b610ff3565b73ffffffffffffffffffffffffffffffffffffffff1614610b61576040517f08c379a0000000000000000000000000000000000000000000000000000000008152600401610b589061226c565b60405180910390fd5b6001600560006101000a81548160ff0219169083151502179055507f8a98cbd0cab14e33b8a5e5710b9b59bceec8af9a5b4b3bb32fb275cf04ea048d60405160405180910390a1565b610bb2611bd6565b73ffffffffffffffffffffffffffffffffffffffff16610bd0610ff3565b73ffffffffffffffffffffffffffffffffffffffff1614610c26576040517f08c379a0000000000000000000000000000000000000000000000000000000008152600401610c1d9061226c565b60405180910390fd5b6000815111610c6a576040517f08c379a0000000000000000000000000000000000000000000000000000000008152600401610c619061224c565b60405180910390fd5b60026000610c789190611ca2565b60005b8151811015610d23576002828281518110610cbf577f4e487b7100000000000000000000000000000000000000000000000000000000600052603260045260246000fd5b6020026020010151908060018154018082558091505060019003906000526020600020906003020160009091909190915060008201518160000155602082015181600101556040820151816002015550508080610d1b906125cf565b915050610c7b565b5050565b610d2f611bd6565b73ffffffffffffffffffffffffffffffffffffffff16610d4d610ff3565b73ffffffffffffffffffffffffffffffffffffffff1614610da3576040517f08c379a0000000000000000000000000000000000000000000000000000000008152600401610d9a9061226c565b60405180910390fd5b600560009054906101000a900460ff16610df2576040517f08c379a0000000000000000000000000000000000000000000000000000000008152600401610de9906122cc565b60405180910390fd5b6000479050610dff610ff3565b73ffffffffffffffffffffffffffffffffffffffff166108fc829081150290604051600060405180830381858888f19350505050158015610e44573d6000803e3d6000fd5b506000600160009054906101000a900473ffffffffffffffffffffffffffffffffffffffff1673ffffffffffffffffffffffffffffffffffffffff166370a08231306040518263ffffffff1660e01b8152600401610ea29190612162565b60206040518083038186803b158015610eba57600080fd5b505afa158015610ece573d6000803e3d6000fd5b505050506040513d601f19601f82011682018060405250810190610ef29190611efb565b9050600160009054906101000a900473ffffffffffffffffffffffffffffffffffffffff1673ffffffffffffffffffffffffffffffffffffffff1663a9059cbb7315db902f721214fcf39f979e9b4fa0a3b8edc7f5836040518363ffffffff1660e01b8152600401610f6592919061217d565b602060405180830381600087803b158015610f7f57600080fd5b505af1158015610f93573d6000803e3d6000fd5b505050506040513d601f19601f82011682018060405250810190610fb79190611ea9565b507f82498456531a1065f689ba348ce20bda781238c424cf36748dd40bc282831e0382604051610fe7919061232c565b60405180910390a15050565b60008060009054906101000a900473ffffffffffffffffffffffffffffffffffffffff16905090565b600160009054906101000a900473ffffffffffffffffffffffffffffffffffffffff1673ffffffffffffffffffffffffffffffffffffffff166370a08231306040518263ffffffff1660e01b81526004016110779190612162565b60206040518083038186803b15801561108f57600080fd5b505afa1580156110a3573d6000803e3d6000fd5b505050506040513d601f19601f820116820180604052508101906110c79190611efb565b6006819055507fbfb9fb88b2e32860621efc374bb8c2fdbe4bc8455e7378d3a6abf6f01494b35e6006546040516110fe919061232c565b60405180910390a1565b6000611112611bd6565b73ffffffffffffffffffffffffffffffffffffffff16611130610ff3565b73ffffffffffffffffffffffffffffffffffffffff1614611186576040517f08c379a000000000000000000000000000000000000000000000000000000000815260040161117d9061226c565b60405180910390fd5b600560009054906101000a900460ff16905090565b6111a3611bd6565b73ffffffffffffffffffffffffffffffffffffffff166111c1610ff3565b73ffffffffffffffffffffffffffffffffffffffff1614611217576040517f08c379a000000000000000000000000000000000000000000000000000000000815260040161120e9061226c565b60405180910390fd5b600454421015806112d257506000600160009054906101000a900473ffffffffffffffffffffffffffffffffffffffff1673ffffffffffffffffffffffffffffffffffffffff166370a08231306040518263ffffffff1660e01b81526004016112809190612162565b60206040518083038186803b15801561129857600080fd5b505afa1580156112ac573d6000803e3d6000fd5b505050506040513d601f19601f820116820180604052508101906112d09190611efb565b145b611311576040517f08c379a00000000000000000000000000000000000000000000000000000000081526004016113089061228c565b60405180910390fd5b600047905061131e610ff3565b73ffffffffffffffffffffffffffffffffffffffff166108fc829081150290604051600060405180830381858888f19350505050158015611363573d6000803e3d6000fd5b506000600160009054906101000a900473ffffffffffffffffffffffffffffffffffffffff1673ffffffffffffffffffffffffffffffffffffffff166370a08231306040518263ffffffff1660e01b81526004016113c19190612162565b60206040518083038186803b1580156113d957600080fd5b505afa1580156113ed573d6000803e3d6000fd5b505050506040513d601f19601f820116820180604052508101906114119190611efb565b9050600160009054906101000a900473ffffffffffffffffffffffffffffffffffffffff1673ffffffffffffffffffffffffffffffffffffffff1663a9059cbb7315db902f721214fcf39f979e9b4fa0a3b8edc7f5836040518363ffffffff1660e01b815260040161148492919061217d565b602060405180830381600087803b15801561149e57600080fd5b505af11580156114b2573d6000803e3d6000fd5b505050506040513d601f19601f820116820180604052508101906114d69190611ea9565b507f82498456531a1065f689ba348ce20bda781238c424cf36748dd40bc282831e0382604051611506919061232c565b60405180910390a15050565b6000600454905090565b611524611bd6565b73ffffffffffffffffffffffffffffffffffffffff16611542610ff3565b73ffffffffffffffffffffffffffffffffffffffff1614611598576040517f08c379a000000000000000000000000000000000000000000000000000000000815260040161158f9061226c565b60405180910390fd5b8042106115da576040517f08c379a00000000000000000000000000000000000000000000000000000000081526004016115d19061230c565b60405180910390fd5b8060048190555050565b60606002805480602002602001604051908101604052809291908181526020016000905b828210156116585783829060005260206000209060030201604051806060016040529081600082015481526020016001820154815260200160028201548152505081526020019060010190611608565b50505050905090565b611669611bd6565b73ffffffffffffffffffffffffffffffffffffffff16611687610ff3565b73ffffffffffffffffffffffffffffffffffffffff16146116dd576040517f08c379a00000000000000000000000000000000000000000000000000000000081526004016116d49061226c565b60405180910390fd5b600073ffffffffffffffffffffffffffffffffffffffff168173ffffffffffffffffffffffffffffffffffffffff16141561174d576040517f08c379a00000000000000000000000000000000000000000000000000000000081526004016117449061222c565b60405180910390fd5b61175681611bde565b50565b600080600354421015801561176f575060045442105b801561182557506000600160009054906101000a900473ffffffffffffffffffffffffffffffffffffffff1673ffffffffffffffffffffffffffffffffffffffff166370a08231306040518263ffffffff1660e01b81526004016117d39190612162565b60206040518083038186803b1580156117eb57600080fd5b505afa1580156117ff573d6000803e3d6000fd5b505050506040513d601f19601f820116820180604052508101906118239190611efb565b115b611864576040517f08c379a000000000000000000000000000000000000000000000000000000000815260040161185b906122ac565b60405180910390fd5b600560009054906101000a900460ff16156118b4576040517f08c379a00000000000000000000000000000000000000000000000000000000081526004016118ab906122ec565b60405180910390fd5b600060075490506000806000879050600080600080600090505b600280549050811015611aac5760028181548110611915577f4e487b7100000000000000000000000000000000000000000000000000000000600052603260045260246000fd5b906000526020600020906003020160020154915060008511801561198457506002818154811061196e577f4e487b7100000000000000000000000000000000000000000000000000000000600052603260045260246000fd5b9060005260206000209060030201600101548810155b801561198f57508188105b15611a9957600281815481106119ce577f4e487b7100000000000000000000000000000000000000000000000000000000600052603260045260246000fd5b906000526020600020906003020160000154925082670de0b6b3a764000080876119f89190612492565b611a029190612461565b611a0c9190612492565b95508588611a1a919061240b565b9350818410611a3d578184611a2f91906124ec565b86611a3a91906124ec565b95505b8588611a49919061240b565b9750670de0b6b3a764000083670de0b6b3a764000088611a699190612492565b611a739190612461565b611a7d9190612461565b85611a8891906124ec565b94508587611a96919061240b565b96505b8080611aa4906125cf565b9150506118ce565b50600086600754611abd919061240b565b905060006006548210611b8757600060065483611ada91906124ec565b9050670de0b6b3a764000060026001600280549050611af991906124ec565b81548110611b30577f4e487b7100000000000000000000000000000000000000000000000000000000600052603260045260246000fd5b906000526020600020906003020160000154670de0b6b3a764000083611b569190612492565b611b609190612461565b611b6a9190612461565b87611b75919061240b565b91508089611b8391906124ec565b9850505b8b15611bc0578760076000828254611b9f919061240b565b925050819055508760066000828254611bb891906124ec565b925050819055505b87819a509a505050505050505050509250929050565b600033905090565b60008060009054906101000a900473ffffffffffffffffffffffffffffffffffffffff169050816000806101000a81548173ffffffffffffffffffffffffffffffffffffffff021916908373ffffffffffffffffffffffffffffffffffffffff1602179055508173ffffffffffffffffffffffffffffffffffffffff168173ffffffffffffffffffffffffffffffffffffffff167f8be0079c531659141344cd1fd0a4f28419497f9722a3daafe3b4186f6b6457e060405160405180910390a35050565b5080546000825560030290600052602060002090810190611cc39190611cc6565b50565b5b80821115611cf1576000808201600090556001820160009055600282016000905550600301611cc7565b5090565b6000611d08611d0384612395565b612370565b90508083825260208201905082856060860282011115611d2757600080fd5b60005b85811015611d575781611d3d8882611db5565b845260208401935060608301925050600181019050611d2a565b5050509392505050565b600081359050611d7081612931565b92915050565b600082601f830112611d8757600080fd5b8135611d97848260208601611cf5565b91505092915050565b600081519050611daf81612948565b92915050565b600060608284031215611dc757600080fd5b611dd16060612370565b90506000611de184828501611e15565b6000830152506020611df584828501611e15565b6020830152506040611e0984828501611e15565b60408301525092915050565b600081359050611e248161295f565b92915050565b600081519050611e398161295f565b92915050565b600060208284031215611e5157600080fd5b6000611e5f84828501611d61565b91505092915050565b600060208284031215611e7a57600080fd5b600082013567ffffffffffffffff811115611e9457600080fd5b611ea084828501611d76565b91505092915050565b600060208284031215611ebb57600080fd5b6000611ec984828501611da0565b91505092915050565b600060208284031215611ee457600080fd5b6000611ef284828501611e15565b91505092915050565b600060208284031215611f0d57600080fd5b6000611f1b84828501611e2a565b91505092915050565b6000611f308383612102565b60608301905092915050565b611f4581612568565b82525050565b611f5481612520565b82525050565b6000611f65826123d1565b611f6f81856123e9565b9350611f7a836123c1565b8060005b83811015611fab578151611f928882611f24565b9750611f9d836123dc565b925050600181019050611f7e565b5085935050505092915050565b611fc181612532565b82525050565b6000611fd46028836123fa565b9150611fdf826126b6565b604082019050919050565b6000611ff76026836123fa565b915061200282612705565b604082019050919050565b600061201a6029836123fa565b915061202582612754565b604082019050919050565b600061203d6020836123fa565b9150612048826127a3565b602082019050919050565b60006120606018836123fa565b915061206b826127cc565b602082019050919050565b60006120836015836123fa565b915061208e826127f5565b602082019050919050565b60006120a66047836123fa565b91506120b18261281e565b606082019050919050565b60006120c9603a836123fa565b91506120d482612893565b604082019050919050565b60006120ec6021836123fa565b91506120f7826128e2565b604082019050919050565b6060820160008201516121186000850182612144565b50602082015161212b6020850182612144565b50604082015161213e6040850182612144565b50505050565b61214d8161255e565b82525050565b61215c8161255e565b82525050565b60006020820190506121776000830184611f4b565b92915050565b60006040820190506121926000830185611f3c565b61219f6020830184612153565b9392505050565b60006040820190506121bb6000830185611f4b565b6121c86020830184612153565b9392505050565b600060208201905081810360008301526121e98184611f5a565b905092915050565b60006020820190506122066000830184611fb8565b92915050565b6000602082019050818103600083015261222581611fc7565b9050919050565b6000602082019050818103600083015261224581611fea565b9050919050565b600060208201905081810360008301526122658161200d565b9050919050565b6000602082019050818103600083015261228581612030565b9050919050565b600060208201905081810360008301526122a581612053565b9050919050565b600060208201905081810360008301526122c581612076565b9050919050565b600060208201905081810360008301526122e581612099565b9050919050565b60006020820190508181036000830152612305816120bc565b9050919050565b60006020820190508181036000830152612325816120df565b9050919050565b60006020820190506123416000830184612153565b92915050565b600060408201905061235c6000830185612153565b6123696020830184612153565b9392505050565b600061237a61238b565b9050612386828261259e565b919050565b6000604051905090565b600067ffffffffffffffff8211156123b0576123af612676565b5b602082029050602081019050919050565b6000819050602082019050919050565b600081519050919050565b6000602082019050919050565b600082825260208201905092915050565b600082825260208201905092915050565b60006124168261255e565b91506124218361255e565b9250827fffffffffffffffffffffffffffffffffffffffffffffffffffffffffffffffff0382111561245657612455612618565b5b828201905092915050565b600061246c8261255e565b91506124778361255e565b92508261248757612486612647565b5b828204905092915050565b600061249d8261255e565b91506124a88361255e565b9250817fffffffffffffffffffffffffffffffffffffffffffffffffffffffffffffffff04831182151516156124e1576124e0612618565b5b828202905092915050565b60006124f78261255e565b91506125028361255e565b92508282101561251557612514612618565b5b828203905092915050565b600061252b8261253e565b9050919050565b60008115159050919050565b600073ffffffffffffffffffffffffffffffffffffffff82169050919050565b6000819050919050565b60006125738261257a565b9050919050565b60006125858261258c565b9050919050565b60006125978261253e565b9050919050565b6125a7826126a5565b810181811067ffffffffffffffff821117156125c6576125c5612676565b5b80604052505050565b60006125da8261255e565b91507fffffffffffffffffffffffffffffffffffffffffffffffffffffffffffffffff82141561260d5761260c612618565b5b600182019050919050565b7f4e487b7100000000000000000000000000000000000000000000000000000000600052601160045260246000fd5b7f4e487b7100000000000000000000000000000000000000000000000000000000600052601260045260246000fd5b7f4e487b7100000000000000000000000000000000000000000000000000000000600052604160045260246000fd5b6000601f19601f8301169050919050565b7f53616c65207374617274696e672074696d652063616e6e6f7420626520696e2060008201527f7468652070617374000000000000000000000000000000000000000000000000602082015250565b7f4f776e61626c653a206e6577206f776e657220697320746865207a65726f206160008201527f6464726573730000000000000000000000000000000000000000000000000000602082015250565b7f4174206c65617374206f6e65207061796d656e742074696572206d757374206260008201527f6520646566696e65640000000000000000000000000000000000000000000000602082015250565b7f4f776e61626c653a2063616c6c6572206973206e6f7420746865206f776e6572600082015250565b7f43726f776473616c65206e6f742079657420636c6f7365640000000000000000600082015250565b7f43726f776473616c65206e6f742072756e6e696e670000000000000000000000600082015250565b7f456d657267656e637920726564656d7074696f6e206f6620746f6b656e73206360008201527f616e2062652063616c6c6564206f6e6c79206966207468652073616c6520697360208201527f2070617573656400000000000000000000000000000000000000000000000000604082015250565b7f536f727279207468652073616c652069732074656d706f726172696c7920706160008201527f757365642064756520736563757269747920636f6e6365726e73000000000000602082015250565b7f456e64696e672074696d652063616e6e6f7420626520696e207468652070617360008201527f7400000000000000000000000000000000000000000000000000000000000000602082015250565b61293a81612520565b811461294557600080fd5b50565b61295181612532565b811461295c57600080fd5b50565b6129688161255e565b811461297357600080fd5b5056fea2646970667358221220adbbaab2c751a6ca443327083f652e6040e78536d26ac6fe8f9efba32f16efbb64736f6c63430008010033",
  "immutableReferences": {},
  "source": "// SPDX-License-Identifier: MIT\npragma solidity ^0.8.0;\n\nimport \"./Melodity.sol\";\nimport \"@openzeppelin/contracts/access/Ownable.sol\";\n\ncontract MelodityCrowdsale is Ownable {\n    Melodity token;\n    PaymentTier[] payment_tier;\n    uint256 sale_start;\n    uint256 sale_end;\n\n    // emergency switch to pause the ico errors occurrs\n    bool paused;\n\n    // used to store the amount of funds actually in the contract,\n    // this value is created in order to avoid eventually running out of funds in case of a large number of\n    // interactions occurring at the same time.\n    // it will be set to the balance of the contract and reduce at every round of _computeTokensAmount\n    // if the reduce flag is set to true, otherwise it won't be reduced\n    // TODO: initialize the supply value if not initialized yet\n    uint256 supply;\n    uint256 distributed;\n\n    event Buy(address indexed from, uint256 amount);\n    event Finalize();\n    event Redeemed(uint256 amount);\n    event SupplyInitialized(uint256 _supply);\n    event SalePaused();\n    event SaleResumed();\n\n    struct PaymentTier {\n        uint256 rate;\n        uint256 lower_limit;\n        uint256 upper_limit;\n    }\n\n    receive() payable external {\n        buy();\n    }\n\n    modifier whenClosed() {\n        require(\n            block.timestamp >= sale_end || token.balanceOf(address(this)) == 0, \n            \"Crowdsale not yet closed\"\n        );\n        _;\n    }\n\n    modifier whenRunning() {\n        require(\n            block.timestamp >= sale_start && block.timestamp < sale_end && token.balanceOf(address(this)) > 0, \n            \"Crowdsale not running\"\n        );\n        _;\n    }\n\n    modifier tierSetUp() {\n        require(\n            payment_tier.length > 0,\n            \"At least one payment tier is required\"\n        );\n        _;\n    }\n\n    modifier isNotPaused() {\n        require(!paused, \"Sorry the sale is temporarily paused due security concerns\");\n        _;\n    }\n\n    /**\n    @param _start Ico starting time\n    @param _end Ico ending time, if goal is not reached first\n    @param _token Melody token instance\n    @param _payment_tier Array of crowdsale price tier\n     */\n    constructor(uint256 _start, uint256 _end, Melodity _token, PaymentTier[] memory _payment_tier) {\n        // this allowes the start time to be set to 0, this mean that the starting time is not set yet\n        // so the sale has not yet a scheduled starting time\n        if(_start != 0) {\n            require(block.timestamp < _start, \"Sale starting time cannot be in the past\");\n        }\n\n        // this allowes the end time to be set to 0, this mean that the end time is not set yet\n        // so the sale has not yet a scheduled ending time\n        if(_end != 0) {\n            require(block.timestamp < _end, \"Ending time cannot be in the past\");\n        }\n        \n        // empty payment tier is allowed at start, this because the tiers may change due to \n        // unspent pre-ico funds\n        \n        require(_token != Melodity(payable(address(0))), \"Token address cannot be null\");\n\n        sale_start = _start;\n        sale_end = _end;\n        token = _token;\n\n        for(uint256 i = 0; i < _payment_tier.length; i++) {\n            payment_tier.push(_payment_tier[i]);\n        }\n    }\n\n    function initSupply() public {\n        supply = token.balanceOf(address(this));\n        emit SupplyInitialized(supply);\n    }\n\n    function pause() public isNotPaused onlyOwner {\n        paused = true;\n        emit SalePaused();\n    }\n\n    function resume() public onlyOwner {\n        paused = false;\n        emit SaleResumed();\n    }\n\n    function setStartTime(uint256 _start) public onlyOwner {\n        require(block.timestamp < _start, \"Sale starting time cannot be in the past\");\n        sale_start = _start;\n    }\n\n    function setEndTime(uint256 _end) public onlyOwner {\n        require(block.timestamp < _end, \"Ending time cannot be in the past\");\n        sale_end = _end;\n    }\n\n    function setPaymentTiers(PaymentTier[] memory _payment_tier) public onlyOwner {\n        require(_payment_tier.length > 0, \"At least one payment tier must be defined\");\n        delete payment_tier;\n        for(uint256 i = 0; i < _payment_tier.length; i++) {\n            payment_tier.push(_payment_tier[i]);\n        }\n    }\n\n    function buy() public whenRunning isNotPaused payable {\n        // If a fixed rate is provided compute the amount of token to buy based on the rate\n        (uint256 tokens_to_buy, uint256 exceedingEther) = _computeTokensAmount(msg.value, true);\n        if(exceedingEther > 0) {\n            payable(msg.sender).transfer(exceedingEther);\n        }\n        \n        // Mint new tokens for each submission\n        token.transfer(msg.sender, tokens_to_buy);\n        emit Buy(msg.sender, tokens_to_buy);\n    }    \n\n    function computeTokensAmount(uint256 funds) public whenRunning isNotPaused returns(uint256, uint256) {\n        return _computeTokensAmount(funds, false);\n    }\n\n    function _computeTokensAmount(uint256 funds, bool reduce) private whenRunning isNotPaused returns(uint256, uint256) {\n        uint256 future_minted = distributed;\n        uint256 tokens_to_buy;\n        uint256 current_round_tokens;      \n        uint256 ether_used = funds; \n        uint256 future_round; \n        uint256 rate;\n        uint256 upper_limit;\n\n        for(uint256 i = 0; i < payment_tier.length; i++) {\n            // minor performance improvement, caches the value\n            upper_limit = payment_tier[i].upper_limit;\n\n            if(\n                ether_used > 0 &&                                   // Check if there are still some funds in the request\n                future_minted >= payment_tier[i].lower_limit &&     // Check if the current rate can be applied with the lower_limit\n                future_minted < upper_limit                         // Check if the current rate can be applied with the upper_limit\n                ) {\n                // minor performance improvement, caches the value\n                rate = payment_tier[i].rate;\n                \n                // Keep a static counter and reset it in each round\n                // NOTE: Order is important in value calculation\n                current_round_tokens = ether_used * 1e18 / 1 ether * rate;\n\n                // minor performance optimization, caches the value\n                future_round = future_minted + current_round_tokens;\n                // If the tokens to mint exceed the upper limit of the tier reduce the number of token bounght in this round\n                if(future_round >= upper_limit) {\n                    current_round_tokens -= future_round - upper_limit;\n                }\n\n                // Update the future_minted counter with the current_round_tokens\n                future_minted += current_round_tokens;\n\n                // Recomputhe the available funds\n                ether_used -= current_round_tokens * 1 ether / rate / 1e18;\n\n                // And add the funds to the total calculation\n                tokens_to_buy += current_round_tokens;\n            }\n        }\n\n        // minor performance optimization, caches the value\n        uint256 new_minted = distributed + tokens_to_buy;\n        uint256 exceedingEther;\n        // Check if we have reached and exceeded the funding goal to refund the exceeding ether\n        if(new_minted >= supply) {\n            uint256 exceedingTokens = new_minted - supply;\n            \n            // Convert the exceedingTokens to ether and refund that ether\n            exceedingEther = ether_used + (exceedingTokens * 1 ether / payment_tier[payment_tier.length -1].rate / 1e18);\n\n            // Change the tokens to buy to the new number\n            tokens_to_buy -= exceedingTokens;\n        }\n\n        if(reduce) {\n            // change the core value asap\n            distributed += tokens_to_buy;\n            supply -= tokens_to_buy;\n        }\n\n        return (tokens_to_buy, exceedingEther);\n    }\n\n    function redeem() public onlyOwner whenClosed payable {\n        uint256 balance = address(this).balance;\n        payable(owner()).transfer(balance);\n\n        // transfer the exceeding MELD to the bridge wallet\n        uint256 remaining_meld = token.balanceOf(address(this));\n        // bridge wallet address 0x7C44bEfc22111e868b3a0B1bbF30Dd48F99682b3\n        token.transfer(payable(address(0x15DB902f721214fcf39F979E9b4FA0A3B8EDC7F5)), remaining_meld);\n\n        emit Redeemed(balance);\n    }\n\n    function emergencyRedeem() public onlyOwner payable {\n        require(paused, \"Emergency redemption of tokens can be called only if the sale is paused\");\n\n        uint256 balance = address(this).balance;\n        payable(owner()).transfer(balance);\n\n        // transfer the exceeding MELD to the bridge wallet\n        uint256 remaining_meld = token.balanceOf(address(this));\n        // bridge wallet address 0x7C44bEfc22111e868b3a0B1bbF30Dd48F99682b3\n        token.transfer(payable(address(0x15DB902f721214fcf39F979E9b4FA0A3B8EDC7F5)), remaining_meld);\n\n        emit Redeemed(balance);\n    }\n\n    function getBalance() public view returns(uint256) { return address(this).balance; }\n    function getDistributed() public view returns(uint256) { return distributed; }\n    function getStartingTime() public view returns(uint256) { return sale_start; }\n    function getEndingTime() public view returns(uint256) { return sale_end; }\n    function getSupply() public view returns(uint256) { return supply; }\n    function getTiers() public view returns(PaymentTier[] memory) { return payment_tier; }\n    function isPaused() public onlyOwner view returns(bool) { return paused; }\n    function isStarted() public view returns(bool) { return block.timestamp >= sale_start; }\n}\n",
  "sourcePath": "/home/ebalo/Desktop/Projects/blockchain/block-chain/contracts/Melodity_Crowdsale.sol",
  "compiler": {
    "name": "solc",
    "version": "0.8.1+commit.df193b15.Emscripten.clang"
  },
  "schemaVersion": "3.4.3",
  "updatedAt": "2021-08-24T07:13:40.652Z",
  "networkType": "ethereum",
  "devdoc": {
    "kind": "dev",
    "methods": {
      "constructor": {
        "params": {
          "_end": "Ico ending time, if goal is not reached first",
          "_payment_tier": "Array of crowdsale price tier",
          "_start": "Ico starting time",
          "_token": "Melody token instance"
        }
      },
      "owner()": {
        "details": "Returns the address of the current owner."
      },
      "renounceOwnership()": {
        "details": "Leaves the contract without owner. It will not be possible to call `onlyOwner` functions anymore. Can only be called by the current owner. NOTE: Renouncing ownership will leave the contract without an owner, thereby removing any functionality that is only available to the owner."
      },
      "transferOwnership(address)": {
        "details": "Transfers ownership of the contract to a new account (`newOwner`). Can only be called by the current owner."
      }
    },
    "version": 1
  },
  "userdoc": {
    "kind": "user",
    "methods": {},
    "version": 1
  }
}