{
  "contractName": "Melody",
  "abi": [
    {
      "inputs": [
        {
          "internalType": "uint256",
          "name": "_preminted",
          "type": "uint256"
        }
      ],
      "stateMutability": "nonpayable",
      "type": "constructor"
    },
    {
      "anonymous": false,
      "inputs": [
        {
          "indexed": true,
          "internalType": "address",
          "name": "owner",
          "type": "address"
        },
        {
          "indexed": true,
          "internalType": "address",
          "name": "spender",
          "type": "address"
        },
        {
          "indexed": false,
          "internalType": "uint256",
          "name": "value",
          "type": "uint256"
        }
      ],
      "name": "Approval",
      "type": "event"
    },
    {
      "anonymous": false,
      "inputs": [
        {
          "indexed": true,
          "internalType": "address",
          "name": "previousOwner",
          "type": "address"
        },
        {
          "indexed": true,
          "internalType": "address",
          "name": "newOwner",
          "type": "address"
        }
      ],
      "name": "OwnershipTransferred",
      "type": "event"
    },
    {
      "anonymous": false,
      "inputs": [
        {
          "indexed": false,
          "internalType": "address",
          "name": "account",
          "type": "address"
        }
      ],
      "name": "Paused",
      "type": "event"
    },
    {
      "anonymous": false,
      "inputs": [
        {
          "indexed": true,
          "internalType": "address",
          "name": "from",
          "type": "address"
        },
        {
          "indexed": true,
          "internalType": "address",
          "name": "to",
          "type": "address"
        },
        {
          "indexed": false,
          "internalType": "uint256",
          "name": "value",
          "type": "uint256"
        }
      ],
      "name": "Transfer",
      "type": "event"
    },
    {
      "anonymous": false,
      "inputs": [
        {
          "indexed": false,
          "internalType": "address",
          "name": "account",
          "type": "address"
        }
      ],
      "name": "Unpaused",
      "type": "event"
    },
    {
      "inputs": [],
      "name": "DOMAIN_SEPARATOR",
      "outputs": [
        {
          "internalType": "bytes32",
          "name": "",
          "type": "bytes32"
        }
      ],
      "stateMutability": "view",
      "type": "function"
    },
    {
      "inputs": [],
      "name": "ICOEndTime",
      "outputs": [
        {
          "internalType": "uint256",
          "name": "",
          "type": "uint256"
        }
      ],
      "stateMutability": "view",
      "type": "function"
    },
    {
      "inputs": [
        {
          "internalType": "address",
          "name": "owner",
          "type": "address"
        },
        {
          "internalType": "address",
          "name": "spender",
          "type": "address"
        }
      ],
      "name": "allowance",
      "outputs": [
        {
          "internalType": "uint256",
          "name": "",
          "type": "uint256"
        }
      ],
      "stateMutability": "view",
      "type": "function"
    },
    {
      "inputs": [
        {
          "internalType": "address",
          "name": "account",
          "type": "address"
        }
      ],
      "name": "balanceOf",
      "outputs": [
        {
          "internalType": "uint256",
          "name": "",
          "type": "uint256"
        }
      ],
      "stateMutability": "view",
      "type": "function"
    },
    {
      "inputs": [
        {
          "internalType": "uint256",
          "name": "amount",
          "type": "uint256"
        }
      ],
      "name": "burn",
      "outputs": [],
      "stateMutability": "nonpayable",
      "type": "function"
    },
    {
      "inputs": [
        {
          "internalType": "address",
          "name": "account",
          "type": "address"
        },
        {
          "internalType": "uint256",
          "name": "amount",
          "type": "uint256"
        }
      ],
      "name": "burnFrom",
      "outputs": [],
      "stateMutability": "nonpayable",
      "type": "function"
    },
    {
      "inputs": [],
      "name": "crowdsaleAddress",
      "outputs": [
        {
          "internalType": "address",
          "name": "",
          "type": "address"
        }
      ],
      "stateMutability": "view",
      "type": "function"
    },
    {
      "inputs": [],
      "name": "decimals",
      "outputs": [
        {
          "internalType": "uint8",
          "name": "",
          "type": "uint8"
        }
      ],
      "stateMutability": "view",
      "type": "function"
    },
    {
      "inputs": [],
      "name": "name",
      "outputs": [
        {
          "internalType": "string",
          "name": "",
          "type": "string"
        }
      ],
      "stateMutability": "view",
      "type": "function"
    },
    {
      "inputs": [
        {
          "internalType": "address",
          "name": "owner",
          "type": "address"
        }
      ],
      "name": "nonces",
      "outputs": [
        {
          "internalType": "uint256",
          "name": "",
          "type": "uint256"
        }
      ],
      "stateMutability": "view",
      "type": "function"
    },
    {
      "inputs": [],
      "name": "owner",
      "outputs": [
        {
          "internalType": "address",
          "name": "",
          "type": "address"
        }
      ],
      "stateMutability": "view",
      "type": "function"
    },
    {
      "inputs": [],
      "name": "paused",
      "outputs": [
        {
          "internalType": "bool",
          "name": "",
          "type": "bool"
        }
      ],
      "stateMutability": "view",
      "type": "function"
    },
    {
      "inputs": [
        {
          "internalType": "address",
          "name": "owner",
          "type": "address"
        },
        {
          "internalType": "address",
          "name": "spender",
          "type": "address"
        },
        {
          "internalType": "uint256",
          "name": "value",
          "type": "uint256"
        },
        {
          "internalType": "uint256",
          "name": "deadline",
          "type": "uint256"
        },
        {
          "internalType": "uint8",
          "name": "v",
          "type": "uint8"
        },
        {
          "internalType": "bytes32",
          "name": "r",
          "type": "bytes32"
        },
        {
          "internalType": "bytes32",
          "name": "s",
          "type": "bytes32"
        }
      ],
      "name": "permit",
      "outputs": [],
      "stateMutability": "nonpayable",
      "type": "function"
    },
    {
      "inputs": [],
      "name": "renounceOwnership",
      "outputs": [],
      "stateMutability": "nonpayable",
      "type": "function"
    },
    {
      "inputs": [],
      "name": "symbol",
      "outputs": [
        {
          "internalType": "string",
          "name": "",
          "type": "string"
        }
      ],
      "stateMutability": "view",
      "type": "function"
    },
    {
      "inputs": [],
      "name": "totalSupply",
      "outputs": [
        {
          "internalType": "uint256",
          "name": "",
          "type": "uint256"
        }
      ],
      "stateMutability": "view",
      "type": "function"
    },
    {
      "inputs": [
        {
          "internalType": "address",
          "name": "newOwner",
          "type": "address"
        }
      ],
      "name": "transferOwnership",
      "outputs": [],
      "stateMutability": "nonpayable",
      "type": "function"
    },
    {
      "inputs": [],
      "name": "pause",
      "outputs": [],
      "stateMutability": "nonpayable",
      "type": "function"
    },
    {
      "inputs": [],
      "name": "unpause",
      "outputs": [],
      "stateMutability": "nonpayable",
      "type": "function"
    },
    {
      "inputs": [
        {
          "internalType": "address",
          "name": "to",
          "type": "address"
        },
        {
          "internalType": "uint256",
          "name": "amount",
          "type": "uint256"
        }
      ],
      "name": "mint",
      "outputs": [],
      "stateMutability": "nonpayable",
      "type": "function"
    },
    {
      "inputs": [
        {
          "internalType": "address",
          "name": "_crowdsaleAddress",
          "type": "address"
        }
      ],
      "name": "setCrowdsale",
      "outputs": [],
      "stateMutability": "nonpayable",
      "type": "function"
    },
    {
      "inputs": [
        {
          "internalType": "uint256",
          "name": "_time",
          "type": "uint256"
        }
      ],
      "name": "setIcoEndTime",
      "outputs": [],
      "stateMutability": "nonpayable",
      "type": "function"
    },
    {
      "inputs": [
        {
          "internalType": "address",
          "name": "_to",
          "type": "address"
        },
        {
          "internalType": "uint256",
          "name": "_value",
          "type": "uint256"
        }
      ],
      "name": "transfer",
      "outputs": [
        {
          "internalType": "bool",
          "name": "",
          "type": "bool"
        }
      ],
      "stateMutability": "nonpayable",
      "type": "function"
    },
    {
      "inputs": [
        {
          "internalType": "address",
          "name": "_from",
          "type": "address"
        },
        {
          "internalType": "address",
          "name": "_to",
          "type": "address"
        },
        {
          "internalType": "uint256",
          "name": "_value",
          "type": "uint256"
        }
      ],
      "name": "transferFrom",
      "outputs": [
        {
          "internalType": "bool",
          "name": "",
          "type": "bool"
        }
      ],
      "stateMutability": "nonpayable",
      "type": "function"
    },
    {
      "inputs": [
        {
          "internalType": "address",
          "name": "_spender",
          "type": "address"
        },
        {
          "internalType": "uint256",
          "name": "_value",
          "type": "uint256"
        }
      ],
      "name": "approve",
      "outputs": [
        {
          "internalType": "bool",
          "name": "",
          "type": "bool"
        }
      ],
      "stateMutability": "nonpayable",
      "type": "function"
    },
    {
      "inputs": [
        {
          "internalType": "address",
          "name": "_spender",
          "type": "address"
        },
        {
          "internalType": "uint256",
          "name": "_addedValue",
          "type": "uint256"
        }
      ],
      "name": "increaseAllowance",
      "outputs": [
        {
          "internalType": "bool",
          "name": "success",
          "type": "bool"
        }
      ],
      "stateMutability": "nonpayable",
      "type": "function"
    },
    {
      "inputs": [
        {
          "internalType": "address",
          "name": "_spender",
          "type": "address"
        },
        {
          "internalType": "uint256",
          "name": "_subtractedValue",
          "type": "uint256"
        }
      ],
      "name": "decreaseAllowance",
      "outputs": [
        {
          "internalType": "bool",
          "name": "success",
          "type": "bool"
        }
      ],
      "stateMutability": "nonpayable",
      "type": "function"
    },
    {
      "inputs": [],
      "name": "redeem",
      "outputs": [],
      "stateMutability": "nonpayable",
      "type": "function"
    }
  ],
  "bytecode": "0x6101406040527f6e71edae12b1b97f4d1f60370fef10105fa2faae0126114a169c64845d6126c9610120908152503480156200003a57600080fd5b5060405162003ee538038062003ee58339818101604052810190620000609190620005cc565b6040518060400160405280600681526020017f4d656c6f64790000000000000000000000000000000000000000000000000000815250806040518060400160405280600181526020017f31000000000000000000000000000000000000000000000000000000000000008152506040518060400160405280600681526020017f4d656c6f647900000000000000000000000000000000000000000000000000008152506040518060400160405280600481526020017f4d454c440000000000000000000000000000000000000000000000000000000081525081600390805190602001906200015192919062000505565b5080600490805190602001906200016a92919062000505565b5050506000600560006101000a81548160ff02191690831515021790555060006200019a620002d060201b60201c565b905080600560016101000a81548173ffffffffffffffffffffffffffffffffffffffff021916908373ffffffffffffffffffffffffffffffffffffffff1602179055508073ffffffffffffffffffffffffffffffffffffffff16600073ffffffffffffffffffffffffffffffffffffffff167f8be0079c531659141344cd1fd0a4f28419497f9722a3daafe3b4186f6b6457e060405160405180910390a35060008280519060200120905060008280519060200120905060007f8b73c3c69bb8fe3d512ecc4cf759cc79239f7b179b0ffacaa9a75d522b39400f90508260c081815250508160e081815250504660a08181525050620002a1818484620002d860201b60201c565b60808181525050806101008181525050505050505050620002c933826200031460201b60201c565b50620008ed565b600033905090565b60008383834630604051602001620002f595949392919062000679565b6040516020818303038152906040528051906020012090509392505050565b600073ffffffffffffffffffffffffffffffffffffffff168273ffffffffffffffffffffffffffffffffffffffff16141562000387576040517f08c379a00000000000000000000000000000000000000000000000000000000081526004016200037e90620006f8565b60405180910390fd5b6200039b600083836200047960201b60201c565b8060026000828254620003af919062000748565b92505081905550806000808473ffffffffffffffffffffffffffffffffffffffff1673ffffffffffffffffffffffffffffffffffffffff168152602001908152602001600020600082825462000406919062000748565b925050819055508173ffffffffffffffffffffffffffffffffffffffff16600073ffffffffffffffffffffffffffffffffffffffff167fddf252ad1be2c89b69c2b068fc378daa952ba7f163c4a11628f55a4df523b3ef836040516200046d91906200071a565b60405180910390a35050565b62000489620004e960201b60201c565b15620004cc576040517f08c379a0000000000000000000000000000000000000000000000000000000008152600401620004c390620006d6565b60405180910390fd5b620004e48383836200050060201b620013b11760201c565b505050565b6000600560009054906101000a900460ff16905090565b505050565b8280546200051390620007ed565b90600052602060002090601f01602090048101928262000537576000855562000583565b82601f106200055257805160ff191683800117855562000583565b8280016001018555821562000583579182015b828111156200058257825182559160200191906001019062000565565b5b50905062000592919062000596565b5090565b5b80821115620005b157600081600090555060010162000597565b5090565b600081519050620005c681620008d3565b92915050565b600060208284031215620005df57600080fd5b6000620005ef84828501620005b5565b91505092915050565b6200060381620007a5565b82525050565b6200061481620007b9565b82525050565b60006200062960108362000737565b9150620006368262000881565b602082019050919050565b600062000650601f8362000737565b91506200065d82620008aa565b602082019050919050565b6200067381620007e3565b82525050565b600060a08201905062000690600083018862000609565b6200069f602083018762000609565b620006ae604083018662000609565b620006bd606083018562000668565b620006cc6080830184620005f8565b9695505050505050565b60006020820190508181036000830152620006f1816200061a565b9050919050565b60006020820190508181036000830152620007138162000641565b9050919050565b600060208201905062000731600083018462000668565b92915050565b600082825260208201905092915050565b60006200075582620007e3565b91506200076283620007e3565b9250827fffffffffffffffffffffffffffffffffffffffffffffffffffffffffffffffff038211156200079a576200079962000823565b5b828201905092915050565b6000620007b282620007c3565b9050919050565b6000819050919050565b600073ffffffffffffffffffffffffffffffffffffffff82169050919050565b6000819050919050565b600060028204905060018216806200080657607f821691505b602082108114156200081d576200081c62000852565b5b50919050565b7f4e487b7100000000000000000000000000000000000000000000000000000000600052601160045260246000fd5b7f4e487b7100000000000000000000000000000000000000000000000000000000600052602260045260246000fd5b7f5061757361626c653a2070617573656400000000000000000000000000000000600082015250565b7f45524332303a206d696e7420746f20746865207a65726f206164647265737300600082015250565b620008de81620007e3565b8114620008ea57600080fd5b50565b60805160a05160c05160e05161010051610120516135a86200093d6000396000610fbb0152600061152c0152600061156e0152600061154d015260006114d90152600061150101526135a86000f3fe608060405234801561001057600080fd5b50600436106101c45760003560e01c8063715018a6116100f9578063a457c2d711610097578063d505accf11610071578063d505accf146104bf578063dd62ed3e146104db578063f2fde38b1461050b578063fe3c9b6b14610527576101c4565b8063a457c2d714610455578063a9059cbb14610485578063be040fb0146104b5576101c4565b80638456cb59116100d35780638456cb59146103f15780638da5cb5b146103fb57806395d89b4114610419578063a242f04914610437576101c4565b8063715018a61461039b57806379cc6790146103a55780637ecebe00146103c1576101c4565b8063395093511161016657806342966c681161014057806342966c6814610315578063483a20b2146103315780635c975abb1461034d57806370a082311461036b576101c4565b806339509351146102bf5780633f4ba83a146102ef57806340c10f19146102f9576101c4565b806323b872dd116101a257806323b872dd14610235578063313ce5671461026557806331d2f891146102835780633644e515146102a1576101c4565b806306fdde03146101c9578063095ea7b3146101e757806318160ddd14610217575b600080fd5b6101d1610543565b6040516101de9190612a4d565b60405180910390f35b61020160048036038101906101fc91906124a7565b6105d5565b60405161020e919061291e565b60405180910390f35b61021f61064f565b60405161022c9190612d2f565b60405180910390f35b61024f600480360381019061024a91906123ba565b610659565b60405161025c919061291e565b60405180910390f35b61026d6106d5565b60405161027a9190612d4a565b60405180910390f35b61028b6106de565b6040516102989190612903565b60405180910390f35b6102a9610704565b6040516102b69190612939565b60405180910390f35b6102d960048036038101906102d491906124a7565b610713565b6040516102e6919061291e565b60405180910390f35b6102f761078d565b005b610313600480360381019061030e91906124a7565b610813565b005b61032f600480360381019061032a91906124e3565b6108ee565b005b61034b60048036038101906103469190612355565b610902565b005b6103556109fc565b604051610362919061291e565b60405180910390f35b61038560048036038101906103809190612355565b610a13565b6040516103929190612d2f565b60405180910390f35b6103a3610a5b565b005b6103bf60048036038101906103ba91906124a7565b610b98565b005b6103db60048036038101906103d69190612355565b610c1c565b6040516103e89190612d2f565b60405180910390f35b6103f9610c6c565b005b610403610cf2565b6040516104109190612903565b60405180910390f35b610421610d1c565b60405161042e9190612a4d565b60405180910390f35b61043f610dae565b60405161044c9190612d2f565b60405180910390f35b61046f600480360381019061046a91906124a7565b610db4565b60405161047c919061291e565b60405180910390f35b61049f600480360381019061049a91906124a7565b610e2e565b6040516104ac919061291e565b60405180910390f35b6104bd610ea8565b005b6104d960048036038101906104d49190612409565b610f74565b005b6104f560048036038101906104f0919061237e565b6110b6565b6040516105029190612d2f565b60405180910390f35b61052560048036038101906105209190612355565b61113d565b005b610541600480360381019061053c91906124e3565b6112e9565b005b60606003805461055290612ea8565b80601f016020809104026020016040519081016040528092919081815260200182805461057e90612ea8565b80156105cb5780601f106105a0576101008083540402835291602001916105cb565b820191906000526020600020905b8154815290600101906020018083116105ae57829003601f168201915b5050505050905090565b60006008544211806106345750600760009054906101000a900473ffffffffffffffffffffffffffffffffffffffff1673ffffffffffffffffffffffffffffffffffffffff163373ffffffffffffffffffffffffffffffffffffffff16145b61063d57600080fd5b61064783836113b6565b905092915050565b6000600254905090565b60006008544211806106b85750600760009054906101000a900473ffffffffffffffffffffffffffffffffffffffff1673ffffffffffffffffffffffffffffffffffffffff163373ffffffffffffffffffffffffffffffffffffffff16145b6106c157600080fd5b6106cc8484846113d4565b90509392505050565b60006012905090565b600760009054906101000a900473ffffffffffffffffffffffffffffffffffffffff1681565b600061070e6114d5565b905090565b60006008544211806107725750600760009054906101000a900473ffffffffffffffffffffffffffffffffffffffff1673ffffffffffffffffffffffffffffffffffffffff163373ffffffffffffffffffffffffffffffffffffffff16145b61077b57600080fd5b6107858383611598565b905092915050565b610795611644565b73ffffffffffffffffffffffffffffffffffffffff166107b3610cf2565b73ffffffffffffffffffffffffffffffffffffffff1614610809576040517f08c379a000000000000000000000000000000000000000000000000000000000815260040161080090612c2f565b60405180910390fd5b61081161164c565b565b600760009054906101000a900473ffffffffffffffffffffffffffffffffffffffff1673ffffffffffffffffffffffffffffffffffffffff163373ffffffffffffffffffffffffffffffffffffffff1614806108a15750610872610cf2565b73ffffffffffffffffffffffffffffffffffffffff163373ffffffffffffffffffffffffffffffffffffffff16145b6108e0576040517f08c379a00000000000000000000000000000000000000000000000000000000081526004016108d790612cef565b60405180910390fd5b6108ea82826116ee565b5050565b6108ff6108f9611644565b82611842565b50565b61090a611644565b73ffffffffffffffffffffffffffffffffffffffff16610928610cf2565b73ffffffffffffffffffffffffffffffffffffffff161461097e576040517f08c379a000000000000000000000000000000000000000000000000000000000815260040161097590612c2f565b60405180910390fd5b600073ffffffffffffffffffffffffffffffffffffffff168173ffffffffffffffffffffffffffffffffffffffff1614156109b857600080fd5b80600760006101000a81548173ffffffffffffffffffffffffffffffffffffffff021916908373ffffffffffffffffffffffffffffffffffffffff16021790555050565b6000600560009054906101000a900460ff16905090565b60008060008373ffffffffffffffffffffffffffffffffffffffff1673ffffffffffffffffffffffffffffffffffffffff168152602001908152602001600020549050919050565b610a63611644565b73ffffffffffffffffffffffffffffffffffffffff16610a81610cf2565b73ffffffffffffffffffffffffffffffffffffffff1614610ad7576040517f08c379a0000000000000000000000000000000000000000000000000000000008152600401610ace90612c2f565b60405180910390fd5b600073ffffffffffffffffffffffffffffffffffffffff16600560019054906101000a900473ffffffffffffffffffffffffffffffffffffffff1673ffffffffffffffffffffffffffffffffffffffff167f8be0079c531659141344cd1fd0a4f28419497f9722a3daafe3b4186f6b6457e060405160405180910390a36000600560016101000a81548173ffffffffffffffffffffffffffffffffffffffff021916908373ffffffffffffffffffffffffffffffffffffffff160217905550565b6000610bab83610ba6611644565b6110b6565b905081811015610bf0576040517f08c379a0000000000000000000000000000000000000000000000000000000008152600401610be790612c4f565b60405180910390fd5b610c0d83610bfc611644565b8484610c089190612de2565b611a16565b610c178383611842565b505050565b6000610c65600660008473ffffffffffffffffffffffffffffffffffffffff1673ffffffffffffffffffffffffffffffffffffffff168152602001908152602001600020611be1565b9050919050565b610c74611644565b73ffffffffffffffffffffffffffffffffffffffff16610c92610cf2565b73ffffffffffffffffffffffffffffffffffffffff1614610ce8576040517f08c379a0000000000000000000000000000000000000000000000000000000008152600401610cdf90612c2f565b60405180910390fd5b610cf0611bef565b565b6000600560019054906101000a900473ffffffffffffffffffffffffffffffffffffffff16905090565b606060048054610d2b90612ea8565b80601f0160208091040260200160405190810160405280929190818152602001828054610d5790612ea8565b8015610da45780601f10610d7957610100808354040283529160200191610da4565b820191906000526020600020905b815481529060010190602001808311610d8757829003601f168201915b5050505050905090565b60085481565b6000600854421180610e135750600760009054906101000a900473ffffffffffffffffffffffffffffffffffffffff1673ffffffffffffffffffffffffffffffffffffffff163373ffffffffffffffffffffffffffffffffffffffff16145b610e1c57600080fd5b610e268383611c92565b905092915050565b6000600854421180610e8d5750600760009054906101000a900473ffffffffffffffffffffffffffffffffffffffff1673ffffffffffffffffffffffffffffffffffffffff163373ffffffffffffffffffffffffffffffffffffffff16145b610e9657600080fd5b610ea08383611d86565b905092915050565b610eb0611644565b73ffffffffffffffffffffffffffffffffffffffff16610ece610cf2565b73ffffffffffffffffffffffffffffffffffffffff1614610f24576040517f08c379a0000000000000000000000000000000000000000000000000000000008152600401610f1b90612c2f565b60405180910390fd5b610f2c610cf2565b73ffffffffffffffffffffffffffffffffffffffff166108fc479081150290604051600060405180830381858888f19350505050158015610f71573d6000803e3d6000fd5b50565b83421115610fb7576040517f08c379a0000000000000000000000000000000000000000000000000000000008152600401610fae90612b4f565b60405180910390fd5b60007f0000000000000000000000000000000000000000000000000000000000000000888888610fe68c611da4565b89604051602001610ffc96959493929190612954565b604051602081830303815290604052805190602001209050600061101f82611e02565b9050600061102f82878787611e1c565b90508973ffffffffffffffffffffffffffffffffffffffff168173ffffffffffffffffffffffffffffffffffffffff161461109f576040517f08c379a000000000000000000000000000000000000000000000000000000000815260040161109690612bef565b60405180910390fd5b6110aa8a8a8a611a16565b50505050505050505050565b6000600160008473ffffffffffffffffffffffffffffffffffffffff1673ffffffffffffffffffffffffffffffffffffffff16815260200190815260200160002060008373ffffffffffffffffffffffffffffffffffffffff1673ffffffffffffffffffffffffffffffffffffffff16815260200190815260200160002054905092915050565b611145611644565b73ffffffffffffffffffffffffffffffffffffffff16611163610cf2565b73ffffffffffffffffffffffffffffffffffffffff16146111b9576040517f08c379a00000000000000000000000000000000000000000000000000000000081526004016111b090612c2f565b60405180910390fd5b600073ffffffffffffffffffffffffffffffffffffffff168173ffffffffffffffffffffffffffffffffffffffff161415611229576040517f08c379a000000000000000000000000000000000000000000000000000000000815260040161122090612aef565b60405180910390fd5b8073ffffffffffffffffffffffffffffffffffffffff16600560019054906101000a900473ffffffffffffffffffffffffffffffffffffffff1673ffffffffffffffffffffffffffffffffffffffff167f8be0079c531659141344cd1fd0a4f28419497f9722a3daafe3b4186f6b6457e060405160405180910390a380600560016101000a81548173ffffffffffffffffffffffffffffffffffffffff021916908373ffffffffffffffffffffffffffffffffffffffff16021790555050565b6112f1611644565b73ffffffffffffffffffffffffffffffffffffffff1661130f610cf2565b73ffffffffffffffffffffffffffffffffffffffff1614611365576040517f08c379a000000000000000000000000000000000000000000000000000000000815260040161135c90612c2f565b60405180910390fd5b8042106113a7576040517f08c379a000000000000000000000000000000000000000000000000000000000815260040161139e90612b2f565b60405180910390fd5b8060088190555050565b505050565b60006113ca6113c3611644565b8484611a16565b6001905092915050565b60006113e1848484611fa7565b6000600160008673ffffffffffffffffffffffffffffffffffffffff1673ffffffffffffffffffffffffffffffffffffffff168152602001908152602001600020600061142c611644565b73ffffffffffffffffffffffffffffffffffffffff1673ffffffffffffffffffffffffffffffffffffffff168152602001908152602001600020549050828110156114ac576040517f08c379a00000000000000000000000000000000000000000000000000000000081526004016114a390612c0f565b60405180910390fd5b6114c9856114b8611644565b85846114c49190612de2565b611a16565b60019150509392505050565b60007f0000000000000000000000000000000000000000000000000000000000000000461415611527577f00000000000000000000000000000000000000000000000000000000000000009050611595565b6115927f00000000000000000000000000000000000000000000000000000000000000007f00000000000000000000000000000000000000000000000000000000000000007f0000000000000000000000000000000000000000000000000000000000000000612226565b90505b90565b600061163a6115a5611644565b8484600160006115b3611644565b73ffffffffffffffffffffffffffffffffffffffff1673ffffffffffffffffffffffffffffffffffffffff16815260200190815260200160002060008873ffffffffffffffffffffffffffffffffffffffff1673ffffffffffffffffffffffffffffffffffffffff168152602001908152602001600020546116359190612d8c565b611a16565b6001905092915050565b600033905090565b6116546109fc565b611693576040517f08c379a000000000000000000000000000000000000000000000000000000000815260040161168a90612aaf565b60405180910390fd5b6000600560006101000a81548160ff0219169083151502179055507f5db9ee0a495bf2e6ff9c91a7834c1ba4fdd244a5e8aa4e537bd38aeae4b073aa6116d7611644565b6040516116e49190612903565b60405180910390a1565b600073ffffffffffffffffffffffffffffffffffffffff168273ffffffffffffffffffffffffffffffffffffffff16141561175e576040517f08c379a000000000000000000000000000000000000000000000000000000000815260040161175590612d0f565b60405180910390fd5b61176a60008383612260565b806002600082825461177c9190612d8c565b92505081905550806000808473ffffffffffffffffffffffffffffffffffffffff1673ffffffffffffffffffffffffffffffffffffffff16815260200190815260200160002060008282546117d19190612d8c565b925050819055508173ffffffffffffffffffffffffffffffffffffffff16600073ffffffffffffffffffffffffffffffffffffffff167fddf252ad1be2c89b69c2b068fc378daa952ba7f163c4a11628f55a4df523b3ef836040516118369190612d2f565b60405180910390a35050565b600073ffffffffffffffffffffffffffffffffffffffff168273ffffffffffffffffffffffffffffffffffffffff1614156118b2576040517f08c379a00000000000000000000000000000000000000000000000000000000081526004016118a990612c6f565b60405180910390fd5b6118be82600083612260565b60008060008473ffffffffffffffffffffffffffffffffffffffff1673ffffffffffffffffffffffffffffffffffffffff16815260200190815260200160002054905081811015611944576040517f08c379a000000000000000000000000000000000000000000000000000000000815260040161193b90612acf565b60405180910390fd5b81816119509190612de2565b6000808573ffffffffffffffffffffffffffffffffffffffff1673ffffffffffffffffffffffffffffffffffffffff1681526020019081526020016000208190555081600260008282546119a49190612de2565b92505081905550600073ffffffffffffffffffffffffffffffffffffffff168373ffffffffffffffffffffffffffffffffffffffff167fddf252ad1be2c89b69c2b068fc378daa952ba7f163c4a11628f55a4df523b3ef84604051611a099190612d2f565b60405180910390a3505050565b600073ffffffffffffffffffffffffffffffffffffffff168373ffffffffffffffffffffffffffffffffffffffff161415611a86576040517f08c379a0000000000000000000000000000000000000000000000000000000008152600401611a7d90612caf565b60405180910390fd5b600073ffffffffffffffffffffffffffffffffffffffff168273ffffffffffffffffffffffffffffffffffffffff161415611af6576040517f08c379a0000000000000000000000000000000000000000000000000000000008152600401611aed90612b0f565b60405180910390fd5b80600160008573ffffffffffffffffffffffffffffffffffffffff1673ffffffffffffffffffffffffffffffffffffffff16815260200190815260200160002060008473ffffffffffffffffffffffffffffffffffffffff1673ffffffffffffffffffffffffffffffffffffffff168152602001908152602001600020819055508173ffffffffffffffffffffffffffffffffffffffff168373ffffffffffffffffffffffffffffffffffffffff167f8c5be1e5ebec7d5bd14f71427d1e84f3dd0314c0f7b2291e5b200ac8c7c3b92583604051611bd49190612d2f565b60405180910390a3505050565b600081600001549050919050565b611bf76109fc565b15611c37576040517f08c379a0000000000000000000000000000000000000000000000000000000008152600401611c2e90612baf565b60405180910390fd5b6001600560006101000a81548160ff0219169083151502179055507f62e78cea01bee320cd4e420270b5ea74000d11b0c9f74754ebdbfc544b05a258611c7b611644565b604051611c889190612903565b60405180910390a1565b60008060016000611ca1611644565b73ffffffffffffffffffffffffffffffffffffffff1673ffffffffffffffffffffffffffffffffffffffff16815260200190815260200160002060008573ffffffffffffffffffffffffffffffffffffffff1673ffffffffffffffffffffffffffffffffffffffff16815260200190815260200160002054905082811015611d5e576040517f08c379a0000000000000000000000000000000000000000000000000000000008152600401611d5590612ccf565b60405180910390fd5b611d7b611d69611644565b858584611d769190612de2565b611a16565b600191505092915050565b6000611d9a611d93611644565b8484611fa7565b6001905092915050565b600080600660008473ffffffffffffffffffffffffffffffffffffffff1673ffffffffffffffffffffffffffffffffffffffff1681526020019081526020016000209050611df181611be1565b9150611dfc816122b8565b50919050565b6000611e15611e0f6114d5565b836122ce565b9050919050565b60007f7fffffffffffffffffffffffffffffff5d576e7357a4501ddfe92f46681b20a08260001c1115611e84576040517f08c379a0000000000000000000000000000000000000000000000000000000008152600401611e7b90612b8f565b60405180910390fd5b601b8460ff161480611e995750601c8460ff16145b611ed8576040517f08c379a0000000000000000000000000000000000000000000000000000000008152600401611ecf90612bcf565b60405180910390fd5b600060018686868660405160008152602001604052604051611efd9493929190612a08565b6020604051602081039080840390855afa158015611f1f573d6000803e3d6000fd5b505050602060405103519050600073ffffffffffffffffffffffffffffffffffffffff168173ffffffffffffffffffffffffffffffffffffffff161415611f9b576040517f08c379a0000000000000000000000000000000000000000000000000000000008152600401611f9290612a6f565b60405180910390fd5b80915050949350505050565b600073ffffffffffffffffffffffffffffffffffffffff168373ffffffffffffffffffffffffffffffffffffffff161415612017576040517f08c379a000000000000000000000000000000000000000000000000000000000815260040161200e90612c8f565b60405180910390fd5b600073ffffffffffffffffffffffffffffffffffffffff168273ffffffffffffffffffffffffffffffffffffffff161415612087576040517f08c379a000000000000000000000000000000000000000000000000000000000815260040161207e90612a8f565b60405180910390fd5b612092838383612260565b60008060008573ffffffffffffffffffffffffffffffffffffffff1673ffffffffffffffffffffffffffffffffffffffff16815260200190815260200160002054905081811015612118576040517f08c379a000000000000000000000000000000000000000000000000000000000815260040161210f90612b6f565b60405180910390fd5b81816121249190612de2565b6000808673ffffffffffffffffffffffffffffffffffffffff1673ffffffffffffffffffffffffffffffffffffffff16815260200190815260200160002081905550816000808573ffffffffffffffffffffffffffffffffffffffff1673ffffffffffffffffffffffffffffffffffffffff16815260200190815260200160002060008282546121b49190612d8c565b925050819055508273ffffffffffffffffffffffffffffffffffffffff168473ffffffffffffffffffffffffffffffffffffffff167fddf252ad1be2c89b69c2b068fc378daa952ba7f163c4a11628f55a4df523b3ef846040516122189190612d2f565b60405180910390a350505050565b600083838346306040516020016122419594939291906129b5565b6040516020818303038152906040528051906020012090509392505050565b6122686109fc565b156122a8576040517f08c379a000000000000000000000000000000000000000000000000000000000815260040161229f90612baf565b60405180910390fd5b6122b38383836113b1565b505050565b6001816000016000828254019250508190555050565b600082826040516020016122e39291906128cc565b60405160208183030381529060405280519060200120905092915050565b60008135905061231081613516565b92915050565b6000813590506123258161352d565b92915050565b60008135905061233a81613544565b92915050565b60008135905061234f8161355b565b92915050565b60006020828403121561236757600080fd5b600061237584828501612301565b91505092915050565b6000806040838503121561239157600080fd5b600061239f85828601612301565b92505060206123b085828601612301565b9150509250929050565b6000806000606084860312156123cf57600080fd5b60006123dd86828701612301565b93505060206123ee86828701612301565b92505060406123ff8682870161232b565b9150509250925092565b600080600080600080600060e0888a03121561242457600080fd5b60006124328a828b01612301565b97505060206124438a828b01612301565b96505060406124548a828b0161232b565b95505060606124658a828b0161232b565b94505060806124768a828b01612340565b93505060a06124878a828b01612316565b92505060c06124988a828b01612316565b91505092959891949750929550565b600080604083850312156124ba57600080fd5b60006124c885828601612301565b92505060206124d98582860161232b565b9150509250929050565b6000602082840312156124f557600080fd5b60006125038482850161232b565b91505092915050565b61251581612e16565b82525050565b61252481612e28565b82525050565b61253381612e34565b82525050565b61254a61254582612e34565b612eda565b82525050565b600061255b82612d65565b6125658185612d70565b9350612575818560208601612e75565b61257e81612f42565b840191505092915050565b6000612596601883612d70565b91506125a182612f53565b602082019050919050565b60006125b9602383612d70565b91506125c482612f7c565b604082019050919050565b60006125dc601483612d70565b91506125e782612fcb565b602082019050919050565b60006125ff602283612d70565b915061260a82612ff4565b604082019050919050565b6000612622602683612d70565b915061262d82613043565b604082019050919050565b6000612645602283612d70565b915061265082613092565b604082019050919050565b6000612668600283612d81565b9150612673826130e1565b600282019050919050565b600061268b601a83612d70565b91506126968261310a565b602082019050919050565b60006126ae601d83612d70565b91506126b982613133565b602082019050919050565b60006126d1602683612d70565b91506126dc8261315c565b604082019050919050565b60006126f4602283612d70565b91506126ff826131ab565b604082019050919050565b6000612717601083612d70565b9150612722826131fa565b602082019050919050565b600061273a602283612d70565b915061274582613223565b604082019050919050565b600061275d601e83612d70565b915061276882613272565b602082019050919050565b6000612780602883612d70565b915061278b8261329b565b604082019050919050565b60006127a3602083612d70565b91506127ae826132ea565b602082019050919050565b60006127c6602483612d70565b91506127d182613313565b604082019050919050565b60006127e9602183612d70565b91506127f482613362565b604082019050919050565b600061280c602583612d70565b9150612817826133b1565b604082019050919050565b600061282f602483612d70565b915061283a82613400565b604082019050919050565b6000612852602583612d70565b915061285d8261344f565b604082019050919050565b6000612875602c83612d70565b91506128808261349e565b604082019050919050565b6000612898601f83612d70565b91506128a3826134ed565b602082019050919050565b6128b781612e5e565b82525050565b6128c681612e68565b82525050565b60006128d78261265b565b91506128e38285612539565b6020820191506128f38284612539565b6020820191508190509392505050565b6000602082019050612918600083018461250c565b92915050565b6000602082019050612933600083018461251b565b92915050565b600060208201905061294e600083018461252a565b92915050565b600060c082019050612969600083018961252a565b612976602083018861250c565b612983604083018761250c565b61299060608301866128ae565b61299d60808301856128ae565b6129aa60a08301846128ae565b979650505050505050565b600060a0820190506129ca600083018861252a565b6129d7602083018761252a565b6129e4604083018661252a565b6129f160608301856128ae565b6129fe608083018461250c565b9695505050505050565b6000608082019050612a1d600083018761252a565b612a2a60208301866128bd565b612a37604083018561252a565b612a44606083018461252a565b95945050505050565b60006020820190508181036000830152612a678184612550565b905092915050565b60006020820190508181036000830152612a8881612589565b9050919050565b60006020820190508181036000830152612aa8816125ac565b9050919050565b60006020820190508181036000830152612ac8816125cf565b9050919050565b60006020820190508181036000830152612ae8816125f2565b9050919050565b60006020820190508181036000830152612b0881612615565b9050919050565b60006020820190508181036000830152612b2881612638565b9050919050565b60006020820190508181036000830152612b488161267e565b9050919050565b60006020820190508181036000830152612b68816126a1565b9050919050565b60006020820190508181036000830152612b88816126c4565b9050919050565b60006020820190508181036000830152612ba8816126e7565b9050919050565b60006020820190508181036000830152612bc88161270a565b9050919050565b60006020820190508181036000830152612be88161272d565b9050919050565b60006020820190508181036000830152612c0881612750565b9050919050565b60006020820190508181036000830152612c2881612773565b9050919050565b60006020820190508181036000830152612c4881612796565b9050919050565b60006020820190508181036000830152612c68816127b9565b9050919050565b60006020820190508181036000830152612c88816127dc565b9050919050565b60006020820190508181036000830152612ca8816127ff565b9050919050565b60006020820190508181036000830152612cc881612822565b9050919050565b60006020820190508181036000830152612ce881612845565b9050919050565b60006020820190508181036000830152612d0881612868565b9050919050565b60006020820190508181036000830152612d288161288b565b9050919050565b6000602082019050612d4460008301846128ae565b92915050565b6000602082019050612d5f60008301846128bd565b92915050565b600081519050919050565b600082825260208201905092915050565b600081905092915050565b6000612d9782612e5e565b9150612da283612e5e565b9250827fffffffffffffffffffffffffffffffffffffffffffffffffffffffffffffffff03821115612dd757612dd6612ee4565b5b828201905092915050565b6000612ded82612e5e565b9150612df883612e5e565b925082821015612e0b57612e0a612ee4565b5b828203905092915050565b6000612e2182612e3e565b9050919050565b60008115159050919050565b6000819050919050565b600073ffffffffffffffffffffffffffffffffffffffff82169050919050565b6000819050919050565b600060ff82169050919050565b60005b83811015612e93578082015181840152602081019050612e78565b83811115612ea2576000848401525b50505050565b60006002820490506001821680612ec057607f821691505b60208210811415612ed457612ed3612f13565b5b50919050565b6000819050919050565b7f4e487b7100000000000000000000000000000000000000000000000000000000600052601160045260246000fd5b7f4e487b7100000000000000000000000000000000000000000000000000000000600052602260045260246000fd5b6000601f19601f8301169050919050565b7f45434453413a20696e76616c6964207369676e61747572650000000000000000600082015250565b7f45524332303a207472616e7366657220746f20746865207a65726f206164647260008201527f6573730000000000000000000000000000000000000000000000000000000000602082015250565b7f5061757361626c653a206e6f7420706175736564000000000000000000000000600082015250565b7f45524332303a206275726e20616d6f756e7420657863656564732062616c616e60008201527f6365000000000000000000000000000000000000000000000000000000000000602082015250565b7f4f776e61626c653a206e6577206f776e657220697320746865207a65726f206160008201527f6464726573730000000000000000000000000000000000000000000000000000602082015250565b7f45524332303a20617070726f766520746f20746865207a65726f20616464726560008201527f7373000000000000000000000000000000000000000000000000000000000000602082015250565b7f1901000000000000000000000000000000000000000000000000000000000000600082015250565b7f49636f2063616e6e6f7420656e6420696e207468652070617374000000000000600082015250565b7f45524332305065726d69743a206578706972656420646561646c696e65000000600082015250565b7f45524332303a207472616e7366657220616d6f756e742065786365656473206260008201527f616c616e63650000000000000000000000000000000000000000000000000000602082015250565b7f45434453413a20696e76616c6964207369676e6174757265202773272076616c60008201527f7565000000000000000000000000000000000000000000000000000000000000602082015250565b7f5061757361626c653a2070617573656400000000000000000000000000000000600082015250565b7f45434453413a20696e76616c6964207369676e6174757265202776272076616c60008201527f7565000000000000000000000000000000000000000000000000000000000000602082015250565b7f45524332305065726d69743a20696e76616c6964207369676e61747572650000600082015250565b7f45524332303a207472616e7366657220616d6f756e742065786365656473206160008201527f6c6c6f77616e6365000000000000000000000000000000000000000000000000602082015250565b7f4f776e61626c653a2063616c6c6572206973206e6f7420746865206f776e6572600082015250565b7f45524332303a206275726e20616d6f756e74206578636565647320616c6c6f7760008201527f616e636500000000000000000000000000000000000000000000000000000000602082015250565b7f45524332303a206275726e2066726f6d20746865207a65726f2061646472657360008201527f7300000000000000000000000000000000000000000000000000000000000000602082015250565b7f45524332303a207472616e736665722066726f6d20746865207a65726f20616460008201527f6472657373000000000000000000000000000000000000000000000000000000602082015250565b7f45524332303a20617070726f76652066726f6d20746865207a65726f2061646460008201527f7265737300000000000000000000000000000000000000000000000000000000602082015250565b7f45524332303a2064656372656173656420616c6c6f77616e63652062656c6f7760008201527f207a65726f000000000000000000000000000000000000000000000000000000602082015250565b7f46756e6374696f6e20616c6c6f776564206f6e6c7920746f206f776e6572206160008201527f6e642063726f776473616c650000000000000000000000000000000000000000602082015250565b7f45524332303a206d696e7420746f20746865207a65726f206164647265737300600082015250565b61351f81612e16565b811461352a57600080fd5b50565b61353681612e34565b811461354157600080fd5b50565b61354d81612e5e565b811461355857600080fd5b50565b61356481612e68565b811461356f57600080fd5b5056fea2646970667358221220ba1da0561a68dd2858b417418381a200d9671c18b9ee2f072c46a1fe711b24af64736f6c63430008010033",
  "immutableReferences": {
    "2769": [
      {
        "length": 32,
        "start": 4027
      }
    ],
    "4786": [
      {
        "length": 32,
        "start": 5377
      }
    ],
    "4788": [
      {
        "length": 32,
        "start": 5337
      }
    ],
    "4790": [
      {
        "length": 32,
        "start": 5453
      }
    ],
    "4792": [
      {
        "length": 32,
        "start": 5486
      }
    ],
    "4794": [
      {
        "length": 32,
        "start": 5420
      }
    ]
  },
  "source": "// SPDX-License-Identifier: MIT\npragma solidity ^0.8.0;\n\nimport \"@openzeppelin/contracts/token/ERC20/ERC20.sol\";\nimport \"@openzeppelin/contracts/token/ERC20/extensions/ERC20Burnable.sol\";\nimport \"@openzeppelin/contracts/security/Pausable.sol\";\nimport \"@openzeppelin/contracts/access/Ownable.sol\";\nimport \"@openzeppelin/contracts/token/ERC20/extensions/draft-ERC20Permit.sol\";\n\ncontract Melody is ERC20, ERC20Burnable, Pausable, Ownable, ERC20Permit {\n    address public crowdsaleAddress;\n\tuint256 public ICOEndTime;\n\n\tmodifier onlyCrowdsale {\n\t\trequire(msg.sender == crowdsaleAddress);\n\t\t_;\n\t}\n\n\tmodifier afterCrowdsale {\n\t\trequire(block.timestamp > ICOEndTime || msg.sender == crowdsaleAddress);\n\t\t_;\n\t}\n\n    modifier onlyOwnerOrCrowdsale {\n        require(msg.sender == crowdsaleAddress || msg.sender == owner(), \"Function allowed only to owner and crowdsale\");\n        _;\n    }\n\n    constructor(uint256 _preminted) ERC20(\"Melody\", \"MELD\") ERC20Permit(\"Melody\") {\n        _mint(msg.sender, _preminted);\n    }\n\n    function pause() public onlyOwner {\n        _pause();\n    }\n\n    function unpause() public onlyOwner {\n        _unpause();\n    }\n\n    function mint(address to, uint256 amount) public onlyOwnerOrCrowdsale {\n        _mint(to, amount);\n    }\n\n    function _beforeTokenTransfer(address from, address to, uint256 amount) internal whenNotPaused override {\n        super._beforeTokenTransfer(from, to, amount);\n    }\n\n    function setCrowdsale(address _crowdsaleAddress) public onlyOwner {\n\t\trequire(_crowdsaleAddress != address(0));\n\t\tcrowdsaleAddress = _crowdsaleAddress;\n\t}\n\n    function setIcoEndTime(uint256 _time) public onlyOwner {\n        require(block.timestamp < _time, \"Ico cannot end in the past\");\n        ICOEndTime = _time;\n    }\n\n    /// @notice Override the functions to not allow token transfers until the end of the ICO\n    function transfer(address _to, uint256 _value) override public afterCrowdsale returns(bool) {\n        return super.transfer(_to, _value);\n    }\n\n    /// @notice Override the functions to not allow token transfers until the end of the ICO\n    function transferFrom(address _from, address _to, uint256 _value) override public afterCrowdsale returns(bool) {\n        return super.transferFrom(_from, _to, _value);\n    }\n\n    /// @notice Override the functions to not allow token transfers until the end of the ICO\n    function approve(address _spender, uint256 _value) override public afterCrowdsale returns(bool) {\n        return super.approve(_spender, _value);\n    }\n\n    /// @notice Override the functions to not allow token transfers until the end of the ICO\n    function increaseAllowance(address _spender, uint _addedValue) override public afterCrowdsale returns(bool success) {\n        return super.increaseAllowance(_spender, _addedValue);\n    }\n\n    /// @notice Override the functions to not allow token transfers until the end of the ICO\n    function decreaseAllowance(address _spender, uint _subtractedValue) override public afterCrowdsale returns(bool success) {\n        return super.decreaseAllowance(_spender, _subtractedValue);\n    }\n\n    function redeem() public onlyOwner {\n        payable(owner()).transfer(address(this).balance);\n    }\n}\n",
  "sourcePath": "/home/ebalo/Desktop/Projects/blockchain/block-chain/contracts/Melody.sol",
  "compiler": {
    "name": "solc",
    "version": "0.8.1+commit.df193b15.Emscripten.clang"
  },
  "schemaVersion": "3.4.1",
  "updatedAt": "2021-05-16T08:39:00.927Z",
  "devdoc": {
    "kind": "dev",
    "methods": {
      "DOMAIN_SEPARATOR()": {
        "details": "See {IERC20Permit-DOMAIN_SEPARATOR}."
      },
      "allowance(address,address)": {
        "details": "See {IERC20-allowance}."
      },
      "balanceOf(address)": {
        "details": "See {IERC20-balanceOf}."
      },
      "burn(uint256)": {
        "details": "Destroys `amount` tokens from the caller. See {ERC20-_burn}."
      },
      "burnFrom(address,uint256)": {
        "details": "Destroys `amount` tokens from `account`, deducting from the caller's allowance. See {ERC20-_burn} and {ERC20-allowance}. Requirements: - the caller must have allowance for ``accounts``'s tokens of at least `amount`."
      },
      "decimals()": {
        "details": "Returns the number of decimals used to get its user representation. For example, if `decimals` equals `2`, a balance of `505` tokens should be displayed to a user as `5,05` (`505 / 10 ** 2`). Tokens usually opt for a value of 18, imitating the relationship between Ether and Wei. This is the value {ERC20} uses, unless this function is overridden; NOTE: This information is only used for _display_ purposes: it in no way affects any of the arithmetic of the contract, including {IERC20-balanceOf} and {IERC20-transfer}."
      },
      "name()": {
        "details": "Returns the name of the token."
      },
      "nonces(address)": {
        "details": "See {IERC20Permit-nonces}."
      },
      "owner()": {
        "details": "Returns the address of the current owner."
      },
      "paused()": {
        "details": "Returns true if the contract is paused, and false otherwise."
      },
      "permit(address,address,uint256,uint256,uint8,bytes32,bytes32)": {
        "details": "See {IERC20Permit-permit}."
      },
      "renounceOwnership()": {
        "details": "Leaves the contract without owner. It will not be possible to call `onlyOwner` functions anymore. Can only be called by the current owner. NOTE: Renouncing ownership will leave the contract without an owner, thereby removing any functionality that is only available to the owner."
      },
      "symbol()": {
        "details": "Returns the symbol of the token, usually a shorter version of the name."
      },
      "totalSupply()": {
        "details": "See {IERC20-totalSupply}."
      },
      "transferOwnership(address)": {
        "details": "Transfers ownership of the contract to a new account (`newOwner`). Can only be called by the current owner."
      }
    },
    "version": 1
  },
  "userdoc": {
    "kind": "user",
    "methods": {
      "approve(address,uint256)": {
        "notice": "Override the functions to not allow token transfers until the end of the ICO"
      },
      "decreaseAllowance(address,uint256)": {
        "notice": "Override the functions to not allow token transfers until the end of the ICO"
      },
      "increaseAllowance(address,uint256)": {
        "notice": "Override the functions to not allow token transfers until the end of the ICO"
      },
      "transfer(address,uint256)": {
        "notice": "Override the functions to not allow token transfers until the end of the ICO"
      },
      "transferFrom(address,address,uint256)": {
        "notice": "Override the functions to not allow token transfers until the end of the ICO"
      }
    },
    "version": 1
  }
}