{
  "contractName": "MyToken",
  "abi": [
    {
      "inputs": [],
      "stateMutability": "nonpayable",
      "type": "constructor"
    },
    {
      "anonymous": false,
      "inputs": [
        {
          "indexed": true,
          "internalType": "address",
          "name": "owner",
          "type": "address"
        },
        {
          "indexed": true,
          "internalType": "address",
          "name": "spender",
          "type": "address"
        },
        {
          "indexed": false,
          "internalType": "uint256",
          "name": "value",
          "type": "uint256"
        }
      ],
      "name": "Approval",
      "type": "event"
    },
    {
      "anonymous": false,
      "inputs": [
        {
          "indexed": true,
          "internalType": "address",
          "name": "previousOwner",
          "type": "address"
        },
        {
          "indexed": true,
          "internalType": "address",
          "name": "newOwner",
          "type": "address"
        }
      ],
      "name": "OwnershipTransferred",
      "type": "event"
    },
    {
      "anonymous": false,
      "inputs": [
        {
          "indexed": false,
          "internalType": "address",
          "name": "account",
          "type": "address"
        }
      ],
      "name": "Paused",
      "type": "event"
    },
    {
      "anonymous": false,
      "inputs": [
        {
          "indexed": true,
          "internalType": "address",
          "name": "from",
          "type": "address"
        },
        {
          "indexed": true,
          "internalType": "address",
          "name": "to",
          "type": "address"
        },
        {
          "indexed": false,
          "internalType": "uint256",
          "name": "value",
          "type": "uint256"
        }
      ],
      "name": "Transfer",
      "type": "event"
    },
    {
      "anonymous": false,
      "inputs": [
        {
          "indexed": false,
          "internalType": "address",
          "name": "account",
          "type": "address"
        }
      ],
      "name": "Unpaused",
      "type": "event"
    },
    {
      "inputs": [],
      "name": "DOMAIN_SEPARATOR",
      "outputs": [
        {
          "internalType": "bytes32",
          "name": "",
          "type": "bytes32"
        }
      ],
      "stateMutability": "view",
      "type": "function",
      "constant": true
    },
    {
      "inputs": [],
      "name": "ICOEndTime",
      "outputs": [
        {
          "internalType": "uint256",
          "name": "",
          "type": "uint256"
        }
      ],
      "stateMutability": "view",
      "type": "function",
      "constant": true
    },
    {
      "inputs": [
        {
          "internalType": "address",
          "name": "owner",
          "type": "address"
        },
        {
          "internalType": "address",
          "name": "spender",
          "type": "address"
        }
      ],
      "name": "allowance",
      "outputs": [
        {
          "internalType": "uint256",
          "name": "",
          "type": "uint256"
        }
      ],
      "stateMutability": "view",
      "type": "function",
      "constant": true
    },
    {
      "inputs": [
        {
          "internalType": "address",
          "name": "account",
          "type": "address"
        }
      ],
      "name": "balanceOf",
      "outputs": [
        {
          "internalType": "uint256",
          "name": "",
          "type": "uint256"
        }
      ],
      "stateMutability": "view",
      "type": "function",
      "constant": true
    },
    {
      "inputs": [
        {
          "internalType": "uint256",
          "name": "amount",
          "type": "uint256"
        }
      ],
      "name": "burn",
      "outputs": [],
      "stateMutability": "nonpayable",
      "type": "function"
    },
    {
      "inputs": [
        {
          "internalType": "address",
          "name": "account",
          "type": "address"
        },
        {
          "internalType": "uint256",
          "name": "amount",
          "type": "uint256"
        }
      ],
      "name": "burnFrom",
      "outputs": [],
      "stateMutability": "nonpayable",
      "type": "function"
    },
    {
      "inputs": [],
      "name": "crowdsaleAddress",
      "outputs": [
        {
          "internalType": "address",
          "name": "",
          "type": "address"
        }
      ],
      "stateMutability": "view",
      "type": "function",
      "constant": true
    },
    {
      "inputs": [],
      "name": "decimals",
      "outputs": [
        {
          "internalType": "uint8",
          "name": "",
          "type": "uint8"
        }
      ],
      "stateMutability": "view",
      "type": "function",
      "constant": true
    },
    {
      "inputs": [
        {
          "internalType": "address",
          "name": "spender",
          "type": "address"
        },
        {
          "internalType": "uint256",
          "name": "subtractedValue",
          "type": "uint256"
        }
      ],
      "name": "decreaseAllowance",
      "outputs": [
        {
          "internalType": "bool",
          "name": "",
          "type": "bool"
        }
      ],
      "stateMutability": "nonpayable",
      "type": "function"
    },
    {
      "inputs": [
        {
          "internalType": "address",
          "name": "spender",
          "type": "address"
        },
        {
          "internalType": "uint256",
          "name": "addedValue",
          "type": "uint256"
        }
      ],
      "name": "increaseAllowance",
      "outputs": [
        {
          "internalType": "bool",
          "name": "",
          "type": "bool"
        }
      ],
      "stateMutability": "nonpayable",
      "type": "function"
    },
    {
      "inputs": [],
      "name": "name",
      "outputs": [
        {
          "internalType": "string",
          "name": "",
          "type": "string"
        }
      ],
      "stateMutability": "view",
      "type": "function",
      "constant": true
    },
    {
      "inputs": [
        {
          "internalType": "address",
          "name": "owner",
          "type": "address"
        }
      ],
      "name": "nonces",
      "outputs": [
        {
          "internalType": "uint256",
          "name": "",
          "type": "uint256"
        }
      ],
      "stateMutability": "view",
      "type": "function",
      "constant": true
    },
    {
      "inputs": [],
      "name": "owner",
      "outputs": [
        {
          "internalType": "address",
          "name": "",
          "type": "address"
        }
      ],
      "stateMutability": "view",
      "type": "function",
      "constant": true
    },
    {
      "inputs": [],
      "name": "paused",
      "outputs": [
        {
          "internalType": "bool",
          "name": "",
          "type": "bool"
        }
      ],
      "stateMutability": "view",
      "type": "function",
      "constant": true
    },
    {
      "inputs": [
        {
          "internalType": "address",
          "name": "owner",
          "type": "address"
        },
        {
          "internalType": "address",
          "name": "spender",
          "type": "address"
        },
        {
          "internalType": "uint256",
          "name": "value",
          "type": "uint256"
        },
        {
          "internalType": "uint256",
          "name": "deadline",
          "type": "uint256"
        },
        {
          "internalType": "uint8",
          "name": "v",
          "type": "uint8"
        },
        {
          "internalType": "bytes32",
          "name": "r",
          "type": "bytes32"
        },
        {
          "internalType": "bytes32",
          "name": "s",
          "type": "bytes32"
        }
      ],
      "name": "permit",
      "outputs": [],
      "stateMutability": "nonpayable",
      "type": "function"
    },
    {
      "inputs": [],
      "name": "renounceOwnership",
      "outputs": [],
      "stateMutability": "nonpayable",
      "type": "function"
    },
    {
      "inputs": [],
      "name": "symbol",
      "outputs": [
        {
          "internalType": "string",
          "name": "",
          "type": "string"
        }
      ],
      "stateMutability": "view",
      "type": "function",
      "constant": true
    },
    {
      "inputs": [],
      "name": "totalSupply",
      "outputs": [
        {
          "internalType": "uint256",
          "name": "",
          "type": "uint256"
        }
      ],
      "stateMutability": "view",
      "type": "function",
      "constant": true
    },
    {
      "inputs": [
        {
          "internalType": "address",
          "name": "newOwner",
          "type": "address"
        }
      ],
      "name": "transferOwnership",
      "outputs": [],
      "stateMutability": "nonpayable",
      "type": "function"
    },
    {
      "inputs": [],
      "name": "pause",
      "outputs": [],
      "stateMutability": "nonpayable",
      "type": "function"
    },
    {
      "inputs": [],
      "name": "unpause",
      "outputs": [],
      "stateMutability": "nonpayable",
      "type": "function"
    },
    {
      "inputs": [
        {
          "internalType": "address",
          "name": "to",
          "type": "address"
        },
        {
          "internalType": "uint256",
          "name": "amount",
          "type": "uint256"
        }
      ],
      "name": "mint",
      "outputs": [],
      "stateMutability": "nonpayable",
      "type": "function"
    },
    {
      "inputs": [
        {
          "internalType": "address",
          "name": "_crowdsaleAddress",
          "type": "address"
        }
      ],
      "name": "setCrowdsale",
      "outputs": [],
      "stateMutability": "nonpayable",
      "type": "function"
    },
    {
      "inputs": [
        {
          "internalType": "address",
          "name": "_receiver",
          "type": "address"
        },
        {
          "internalType": "uint256",
          "name": "_amount",
          "type": "uint256"
        }
      ],
      "name": "buyTokens",
      "outputs": [],
      "stateMutability": "nonpayable",
      "type": "function"
    },
    {
      "inputs": [
        {
          "internalType": "uint256",
          "name": "_time",
          "type": "uint256"
        }
      ],
      "name": "setIcoEndTime",
      "outputs": [],
      "stateMutability": "nonpayable",
      "type": "function"
    },
    {
      "inputs": [],
      "name": "getBlockTime",
      "outputs": [
        {
          "internalType": "uint256",
          "name": "timestamp",
          "type": "uint256"
        }
      ],
      "stateMutability": "view",
      "type": "function",
      "constant": true
    },
    {
      "inputs": [
        {
          "internalType": "address",
          "name": "_to",
          "type": "address"
        },
        {
          "internalType": "uint256",
          "name": "_value",
          "type": "uint256"
        }
      ],
      "name": "transfer",
      "outputs": [
        {
          "internalType": "bool",
          "name": "",
          "type": "bool"
        }
      ],
      "stateMutability": "nonpayable",
      "type": "function"
    },
    {
      "inputs": [
        {
          "internalType": "address",
          "name": "_from",
          "type": "address"
        },
        {
          "internalType": "address",
          "name": "_to",
          "type": "address"
        },
        {
          "internalType": "uint256",
          "name": "_value",
          "type": "uint256"
        }
      ],
      "name": "transferFrom",
      "outputs": [
        {
          "internalType": "bool",
          "name": "",
          "type": "bool"
        }
      ],
      "stateMutability": "nonpayable",
      "type": "function"
    },
    {
      "inputs": [
        {
          "internalType": "address",
          "name": "_spender",
          "type": "address"
        },
        {
          "internalType": "uint256",
          "name": "_value",
          "type": "uint256"
        }
      ],
      "name": "approve",
      "outputs": [
        {
          "internalType": "bool",
          "name": "",
          "type": "bool"
        }
      ],
      "stateMutability": "nonpayable",
      "type": "function"
    },
    {
      "inputs": [
        {
          "internalType": "address",
          "name": "_spender",
          "type": "address"
        },
        {
          "internalType": "uint256",
          "name": "_addedValue",
          "type": "uint256"
        }
      ],
      "name": "increaseApproval",
      "outputs": [
        {
          "internalType": "bool",
          "name": "success",
          "type": "bool"
        }
      ],
      "stateMutability": "nonpayable",
      "type": "function"
    },
    {
      "inputs": [
        {
          "internalType": "address",
          "name": "_spender",
          "type": "address"
        },
        {
          "internalType": "uint256",
          "name": "_subtractedValue",
          "type": "uint256"
        }
      ],
      "name": "decreaseApproval",
      "outputs": [
        {
          "internalType": "bool",
          "name": "success",
          "type": "bool"
        }
      ],
      "stateMutability": "nonpayable",
      "type": "function"
    },
    {
      "inputs": [],
      "name": "emergencyExtract",
      "outputs": [],
      "stateMutability": "nonpayable",
      "type": "function"
    }
  ],
  "bytecode": "0x6101406040527f6e71edae12b1b97f4d1f60370fef10105fa2faae0126114a169c64845d6126c9610120908152503480156200003a57600080fd5b506040518060400160405280600781526020017f4d79546f6b656e00000000000000000000000000000000000000000000000000815250806040518060400160405280600181526020017f31000000000000000000000000000000000000000000000000000000000000008152506040518060400160405280600781526020017f4d79546f6b656e000000000000000000000000000000000000000000000000008152506040518060400160405280600381526020017f4d544b000000000000000000000000000000000000000000000000000000000081525081600390805190602001906200012c9291906200051b565b508060049080519060200190620001459291906200051b565b5050506000600560006101000a81548160ff021916908315150217905550600062000175620002dd60201b60201c565b905080600560016101000a81548173ffffffffffffffffffffffffffffffffffffffff021916908373ffffffffffffffffffffffffffffffffffffffff1602179055508073ffffffffffffffffffffffffffffffffffffffff16600073ffffffffffffffffffffffffffffffffffffffff167f8be0079c531659141344cd1fd0a4f28419497f9722a3daafe3b4186f6b6457e060405160405180910390a35060008280519060200120905060008280519060200120905060007f8b73c3c69bb8fe3d512ecc4cf759cc79239f7b179b0ffacaa9a75d522b39400f90508260c081815250508160e081815250504660a081815250506200027c818484620002e560201b60201c565b60808181525050806101008181525050505050505050620002d733620002ac6200032160201b6200084b1760201c565b600a620002ba9190620007d3565b6377359400620002cb919062000910565b6200032a60201b60201c565b62000ab9565b600033905090565b60008383834630604051602001620003029594939291906200064c565b6040516020818303038152906040528051906020012090509392505050565b60006012905090565b600073ffffffffffffffffffffffffffffffffffffffff168273ffffffffffffffffffffffffffffffffffffffff1614156200039d576040517f08c379a00000000000000000000000000000000000000000000000000000000081526004016200039490620006cb565b60405180910390fd5b620003b1600083836200048f60201b60201c565b8060026000828254620003c591906200071b565b92505081905550806000808473ffffffffffffffffffffffffffffffffffffffff1673ffffffffffffffffffffffffffffffffffffffff16815260200190815260200160002060008282546200041c91906200071b565b925050819055508173ffffffffffffffffffffffffffffffffffffffff16600073ffffffffffffffffffffffffffffffffffffffff167fddf252ad1be2c89b69c2b068fc378daa952ba7f163c4a11628f55a4df523b3ef83604051620004839190620006ed565b60405180910390a35050565b6200049f620004ff60201b60201c565b15620004e2576040517f08c379a0000000000000000000000000000000000000000000000000000000008152600401620004d990620006a9565b60405180910390fd5b620004fa8383836200051660201b620016d51760201c565b505050565b6000600560009054906101000a900460ff16905090565b505050565b8280546200052990620009c6565b90600052602060002090601f0160209004810192826200054d576000855562000599565b82601f106200056857805160ff191683800117855562000599565b8280016001018555821562000599579182015b82811115620005985782518255916020019190600101906200057b565b5b509050620005a89190620005ac565b5090565b5b80821115620005c7576000816000905550600101620005ad565b5090565b620005d68162000971565b82525050565b620005e78162000985565b82525050565b6000620005fc6010836200070a565b9150620006098262000a67565b602082019050919050565b600062000623601f836200070a565b9150620006308262000a90565b602082019050919050565b6200064681620009af565b82525050565b600060a082019050620006636000830188620005dc565b620006726020830187620005dc565b620006816040830186620005dc565b6200069060608301856200063b565b6200069f6080830184620005cb565b9695505050505050565b60006020820190508181036000830152620006c481620005ed565b9050919050565b60006020820190508181036000830152620006e68162000614565b9050919050565b60006020820190506200070460008301846200063b565b92915050565b600082825260208201905092915050565b60006200072882620009af565b91506200073583620009af565b9250827fffffffffffffffffffffffffffffffffffffffffffffffffffffffffffffffff038211156200076d576200076c620009fc565b5b828201905092915050565b6000808291508390505b6001851115620007ca57808604811115620007a257620007a1620009fc565b5b6001851615620007b25780820291505b8081029050620007c28562000a5a565b945062000782565b94509492505050565b6000620007e082620009af565b9150620007ed83620009b9565b92506200081c7fffffffffffffffffffffffffffffffffffffffffffffffffffffffffffffffff848462000824565b905092915050565b60008262000836576001905062000909565b8162000846576000905062000909565b81600181146200085f57600281146200086a57620008a0565b600191505062000909565b60ff8411156200087f576200087e620009fc565b5b8360020a915084821115620008995762000898620009fc565b5b5062000909565b5060208310610133831016604e8410600b8410161715620008da5782820a905083811115620008d457620008d3620009fc565b5b62000909565b620008e9848484600162000778565b92509050818404811115620009035762000902620009fc565b5b81810290505b9392505050565b60006200091d82620009af565b91506200092a83620009af565b9250817fffffffffffffffffffffffffffffffffffffffffffffffffffffffffffffffff0483118215151615620009665762000965620009fc565b5b828202905092915050565b60006200097e826200098f565b9050919050565b6000819050919050565b600073ffffffffffffffffffffffffffffffffffffffff82169050919050565b6000819050919050565b600060ff82169050919050565b60006002820490506001821680620009df57607f821691505b60208210811415620009f657620009f562000a2b565b5b50919050565b7f4e487b7100000000000000000000000000000000000000000000000000000000600052601160045260246000fd5b7f4e487b7100000000000000000000000000000000000000000000000000000000600052602260045260246000fd5b60008160011c9050919050565b7f5061757361626c653a2070617573656400000000000000000000000000000000600082015250565b7f45524332303a206d696e7420746f20746865207a65726f206164647265737300600082015250565b60805160a05160c05160e051610100516101205161372c62000b096000396000611265015260006118500152600061189201526000611871015260006117fd01526000611825015261372c6000f3fe608060405234801561001057600080fd5b50600436106101f05760003560e01c806370a082311161010f578063a242f049116100a2578063d73dd62311610071578063d73dd62314610571578063dd62ed3e146105a1578063f2fde38b146105d1578063fe3c9b6b146105ed576101f0565b8063a242f049146104d7578063a457c2d7146104f5578063a9059cbb14610525578063d505accf14610555576101f0565b80638456cb59116100de5780638456cb591461047357806387ceff091461047d5780638da5cb5b1461049b57806395d89b41146104b9576101f0565b806370a08231146103ed578063715018a61461041d57806379cc6790146104275780637ecebe0014610443576101f0565b80633950935111610187578063483a20b211610156578063483a20b2146103795780635c975abb146103955780635fa51277146103b357806366188463146103bd576101f0565b806339509351146103075780633f4ba83a1461033757806340c10f191461034157806342966c681461035d576101f0565b806323b872dd116101c357806323b872dd1461027d578063313ce567146102ad57806331d2f891146102cb5780633644e515146102e9576101f0565b806306fdde03146101f55780630752881a14610213578063095ea7b31461022f57806318160ddd1461025f575b600080fd5b6101fd610609565b60405161020a9190612bd1565b60405180910390f35b61022d6004803603810190610228919061262b565b61069b565b005b6102496004803603810190610244919061262b565b61074b565b6040516102569190612aa2565b60405180910390f35b6102676107c5565b6040516102749190612eb3565b60405180910390f35b6102976004803603810190610292919061253e565b6107cf565b6040516102a49190612aa2565b60405180910390f35b6102b561084b565b6040516102c29190612ece565b60405180910390f35b6102d3610854565b6040516102e09190612a87565b60405180910390f35b6102f161087a565b6040516102fe9190612abd565b60405180910390f35b610321600480360381019061031c919061262b565b610889565b60405161032e9190612aa2565b60405180910390f35b61033f610935565b005b61035b6004803603810190610356919061262b565b6109bb565b005b61037760048036038101906103729190612667565b610a96565b005b610393600480360381019061038e91906124d9565b610aaa565b005b61039d610ba4565b6040516103aa9190612aa2565b60405180910390f35b6103bb610bbb565b005b6103d760048036038101906103d2919061262b565b610c8d565b6040516103e49190612aa2565b60405180910390f35b610407600480360381019061040291906124d9565b610d07565b6040516104149190612eb3565b60405180910390f35b610425610d4f565b005b610441600480360381019061043c919061262b565b610e8c565b005b61045d600480360381019061045891906124d9565b610f10565b60405161046a9190612eb3565b60405180910390f35b61047b610f60565b005b610485610fe6565b6040516104929190612eb3565b60405180910390f35b6104a3610fee565b6040516104b09190612a87565b60405180910390f35b6104c1611018565b6040516104ce9190612bd1565b60405180910390f35b6104df6110aa565b6040516104ec9190612eb3565b60405180910390f35b61050f600480360381019061050a919061262b565b6110b0565b60405161051c9190612aa2565b60405180910390f35b61053f600480360381019061053a919061262b565b6111a4565b60405161054c9190612aa2565b60405180910390f35b61056f600480360381019061056a919061258d565b61121e565b005b61058b6004803603810190610586919061262b565b611360565b6040516105989190612aa2565b60405180910390f35b6105bb60048036038101906105b69190612502565b6113da565b6040516105c89190612eb3565b60405180910390f35b6105eb60048036038101906105e691906124d9565b611461565b005b61060760048036038101906106029190612667565b61160d565b005b6060600380546106189061302c565b80601f01602080910402602001604051908101604052809291908181526020018280546106449061302c565b80156106915780601f1061066657610100808354040283529160200191610691565b820191906000526020600020905b81548152906001019060200180831161067457829003601f168201915b5050505050905090565b600760009054906101000a900473ffffffffffffffffffffffffffffffffffffffff1673ffffffffffffffffffffffffffffffffffffffff163373ffffffffffffffffffffffffffffffffffffffff16146106f557600080fd5b600073ffffffffffffffffffffffffffffffffffffffff168273ffffffffffffffffffffffffffffffffffffffff16141561072f57600080fd5b6000811161073c57600080fd5b61074682826111a4565b505050565b60006008544211806107aa5750600760009054906101000a900473ffffffffffffffffffffffffffffffffffffffff1673ffffffffffffffffffffffffffffffffffffffff163373ffffffffffffffffffffffffffffffffffffffff16145b6107b357600080fd5b6107bd83836116da565b905092915050565b6000600254905090565b600060085442118061082e5750600760009054906101000a900473ffffffffffffffffffffffffffffffffffffffff1673ffffffffffffffffffffffffffffffffffffffff163373ffffffffffffffffffffffffffffffffffffffff16145b61083757600080fd5b6108428484846116f8565b90509392505050565b60006012905090565b600760009054906101000a900473ffffffffffffffffffffffffffffffffffffffff1681565b60006108846117f9565b905090565b600061092b6108966118bc565b8484600160006108a46118bc565b73ffffffffffffffffffffffffffffffffffffffff1673ffffffffffffffffffffffffffffffffffffffff16815260200190815260200160002060008873ffffffffffffffffffffffffffffffffffffffff1673ffffffffffffffffffffffffffffffffffffffff168152602001908152602001600020546109269190612f10565b6118c4565b6001905092915050565b61093d6118bc565b73ffffffffffffffffffffffffffffffffffffffff1661095b610fee565b73ffffffffffffffffffffffffffffffffffffffff16146109b1576040517f08c379a00000000000000000000000000000000000000000000000000000000081526004016109a890612db3565b60405180910390fd5b6109b9611a8f565b565b600760009054906101000a900473ffffffffffffffffffffffffffffffffffffffff1673ffffffffffffffffffffffffffffffffffffffff163373ffffffffffffffffffffffffffffffffffffffff161480610a495750610a1a610fee565b73ffffffffffffffffffffffffffffffffffffffff163373ffffffffffffffffffffffffffffffffffffffff16145b610a88576040517f08c379a0000000000000000000000000000000000000000000000000000000008152600401610a7f90612e73565b60405180910390fd5b610a928282611b31565b5050565b610aa7610aa16118bc565b82611c85565b50565b610ab26118bc565b73ffffffffffffffffffffffffffffffffffffffff16610ad0610fee565b73ffffffffffffffffffffffffffffffffffffffff1614610b26576040517f08c379a0000000000000000000000000000000000000000000000000000000008152600401610b1d90612db3565b60405180910390fd5b600073ffffffffffffffffffffffffffffffffffffffff168173ffffffffffffffffffffffffffffffffffffffff161415610b6057600080fd5b80600760006101000a81548173ffffffffffffffffffffffffffffffffffffffff021916908373ffffffffffffffffffffffffffffffffffffffff16021790555050565b6000600560009054906101000a900460ff16905090565b610bc36118bc565b73ffffffffffffffffffffffffffffffffffffffff16610be1610fee565b73ffffffffffffffffffffffffffffffffffffffff1614610c37576040517f08c379a0000000000000000000000000000000000000000000000000000000008152600401610c2e90612db3565b60405180910390fd5b6000610c41610fee565b90508073ffffffffffffffffffffffffffffffffffffffff166108fc479081150290604051600060405180830381858888f19350505050158015610c89573d6000803e3d6000fd5b5050565b6000600854421180610cec5750600760009054906101000a900473ffffffffffffffffffffffffffffffffffffffff1673ffffffffffffffffffffffffffffffffffffffff163373ffffffffffffffffffffffffffffffffffffffff16145b610cf557600080fd5b610cff83836110b0565b905092915050565b60008060008373ffffffffffffffffffffffffffffffffffffffff1673ffffffffffffffffffffffffffffffffffffffff168152602001908152602001600020549050919050565b610d576118bc565b73ffffffffffffffffffffffffffffffffffffffff16610d75610fee565b73ffffffffffffffffffffffffffffffffffffffff1614610dcb576040517f08c379a0000000000000000000000000000000000000000000000000000000008152600401610dc290612db3565b60405180910390fd5b600073ffffffffffffffffffffffffffffffffffffffff16600560019054906101000a900473ffffffffffffffffffffffffffffffffffffffff1673ffffffffffffffffffffffffffffffffffffffff167f8be0079c531659141344cd1fd0a4f28419497f9722a3daafe3b4186f6b6457e060405160405180910390a36000600560016101000a81548173ffffffffffffffffffffffffffffffffffffffff021916908373ffffffffffffffffffffffffffffffffffffffff160217905550565b6000610e9f83610e9a6118bc565b6113da565b905081811015610ee4576040517f08c379a0000000000000000000000000000000000000000000000000000000008152600401610edb90612dd3565b60405180910390fd5b610f0183610ef06118bc565b8484610efc9190612f66565b6118c4565b610f0b8383611c85565b505050565b6000610f59600660008473ffffffffffffffffffffffffffffffffffffffff1673ffffffffffffffffffffffffffffffffffffffff168152602001908152602001600020611e59565b9050919050565b610f686118bc565b73ffffffffffffffffffffffffffffffffffffffff16610f86610fee565b73ffffffffffffffffffffffffffffffffffffffff1614610fdc576040517f08c379a0000000000000000000000000000000000000000000000000000000008152600401610fd390612db3565b60405180910390fd5b610fe4611e67565b565b600042905090565b6000600560019054906101000a900473ffffffffffffffffffffffffffffffffffffffff16905090565b6060600480546110279061302c565b80601f01602080910402602001604051908101604052809291908181526020018280546110539061302c565b80156110a05780601f10611075576101008083540402835291602001916110a0565b820191906000526020600020905b81548152906001019060200180831161108357829003601f168201915b5050505050905090565b60085481565b600080600160006110bf6118bc565b73ffffffffffffffffffffffffffffffffffffffff1673ffffffffffffffffffffffffffffffffffffffff16815260200190815260200160002060008573ffffffffffffffffffffffffffffffffffffffff1673ffffffffffffffffffffffffffffffffffffffff1681526020019081526020016000205490508281101561117c576040517f08c379a000000000000000000000000000000000000000000000000000000000815260040161117390612e53565b60405180910390fd5b6111996111876118bc565b8585846111949190612f66565b6118c4565b600191505092915050565b60006008544211806112035750600760009054906101000a900473ffffffffffffffffffffffffffffffffffffffff1673ffffffffffffffffffffffffffffffffffffffff163373ffffffffffffffffffffffffffffffffffffffff16145b61120c57600080fd5b6112168383611f0a565b905092915050565b83421115611261576040517f08c379a000000000000000000000000000000000000000000000000000000000815260040161125890612cd3565b60405180910390fd5b60007f00000000000000000000000000000000000000000000000000000000000000008888886112908c611f28565b896040516020016112a696959493929190612ad8565b60405160208183030381529060405280519060200120905060006112c982611f86565b905060006112d982878787611fa0565b90508973ffffffffffffffffffffffffffffffffffffffff168173ffffffffffffffffffffffffffffffffffffffff1614611349576040517f08c379a000000000000000000000000000000000000000000000000000000000815260040161134090612d73565b60405180910390fd5b6113548a8a8a6118c4565b50505050505050505050565b60006008544211806113bf5750600760009054906101000a900473ffffffffffffffffffffffffffffffffffffffff1673ffffffffffffffffffffffffffffffffffffffff163373ffffffffffffffffffffffffffffffffffffffff16145b6113c857600080fd5b6113d28383610889565b905092915050565b6000600160008473ffffffffffffffffffffffffffffffffffffffff1673ffffffffffffffffffffffffffffffffffffffff16815260200190815260200160002060008373ffffffffffffffffffffffffffffffffffffffff1673ffffffffffffffffffffffffffffffffffffffff16815260200190815260200160002054905092915050565b6114696118bc565b73ffffffffffffffffffffffffffffffffffffffff16611487610fee565b73ffffffffffffffffffffffffffffffffffffffff16146114dd576040517f08c379a00000000000000000000000000000000000000000000000000000000081526004016114d490612db3565b60405180910390fd5b600073ffffffffffffffffffffffffffffffffffffffff168173ffffffffffffffffffffffffffffffffffffffff16141561154d576040517f08c379a000000000000000000000000000000000000000000000000000000000815260040161154490612c73565b60405180910390fd5b8073ffffffffffffffffffffffffffffffffffffffff16600560019054906101000a900473ffffffffffffffffffffffffffffffffffffffff1673ffffffffffffffffffffffffffffffffffffffff167f8be0079c531659141344cd1fd0a4f28419497f9722a3daafe3b4186f6b6457e060405160405180910390a380600560016101000a81548173ffffffffffffffffffffffffffffffffffffffff021916908373ffffffffffffffffffffffffffffffffffffffff16021790555050565b6116156118bc565b73ffffffffffffffffffffffffffffffffffffffff16611633610fee565b73ffffffffffffffffffffffffffffffffffffffff1614611689576040517f08c379a000000000000000000000000000000000000000000000000000000000815260040161168090612db3565b60405180910390fd5b8042106116cb576040517f08c379a00000000000000000000000000000000000000000000000000000000081526004016116c290612cb3565b60405180910390fd5b8060088190555050565b505050565b60006116ee6116e76118bc565b84846118c4565b6001905092915050565b600061170584848461212b565b6000600160008673ffffffffffffffffffffffffffffffffffffffff1673ffffffffffffffffffffffffffffffffffffffff16815260200190815260200160002060006117506118bc565b73ffffffffffffffffffffffffffffffffffffffff1673ffffffffffffffffffffffffffffffffffffffff168152602001908152602001600020549050828110156117d0576040517f08c379a00000000000000000000000000000000000000000000000000000000081526004016117c790612d93565b60405180910390fd5b6117ed856117dc6118bc565b85846117e89190612f66565b6118c4565b60019150509392505050565b60007f000000000000000000000000000000000000000000000000000000000000000046141561184b577f000000000000000000000000000000000000000000000000000000000000000090506118b9565b6118b67f00000000000000000000000000000000000000000000000000000000000000007f00000000000000000000000000000000000000000000000000000000000000007f00000000000000000000000000000000000000000000000000000000000000006123aa565b90505b90565b600033905090565b600073ffffffffffffffffffffffffffffffffffffffff168373ffffffffffffffffffffffffffffffffffffffff161415611934576040517f08c379a000000000000000000000000000000000000000000000000000000000815260040161192b90612e33565b60405180910390fd5b600073ffffffffffffffffffffffffffffffffffffffff168273ffffffffffffffffffffffffffffffffffffffff1614156119a4576040517f08c379a000000000000000000000000000000000000000000000000000000000815260040161199b90612c93565b60405180910390fd5b80600160008573ffffffffffffffffffffffffffffffffffffffff1673ffffffffffffffffffffffffffffffffffffffff16815260200190815260200160002060008473ffffffffffffffffffffffffffffffffffffffff1673ffffffffffffffffffffffffffffffffffffffff168152602001908152602001600020819055508173ffffffffffffffffffffffffffffffffffffffff168373ffffffffffffffffffffffffffffffffffffffff167f8c5be1e5ebec7d5bd14f71427d1e84f3dd0314c0f7b2291e5b200ac8c7c3b92583604051611a829190612eb3565b60405180910390a3505050565b611a97610ba4565b611ad6576040517f08c379a0000000000000000000000000000000000000000000000000000000008152600401611acd90612c33565b60405180910390fd5b6000600560006101000a81548160ff0219169083151502179055507f5db9ee0a495bf2e6ff9c91a7834c1ba4fdd244a5e8aa4e537bd38aeae4b073aa611b1a6118bc565b604051611b279190612a87565b60405180910390a1565b600073ffffffffffffffffffffffffffffffffffffffff168273ffffffffffffffffffffffffffffffffffffffff161415611ba1576040517f08c379a0000000000000000000000000000000000000000000000000000000008152600401611b9890612e93565b60405180910390fd5b611bad600083836123e4565b8060026000828254611bbf9190612f10565b92505081905550806000808473ffffffffffffffffffffffffffffffffffffffff1673ffffffffffffffffffffffffffffffffffffffff1681526020019081526020016000206000828254611c149190612f10565b925050819055508173ffffffffffffffffffffffffffffffffffffffff16600073ffffffffffffffffffffffffffffffffffffffff167fddf252ad1be2c89b69c2b068fc378daa952ba7f163c4a11628f55a4df523b3ef83604051611c799190612eb3565b60405180910390a35050565b600073ffffffffffffffffffffffffffffffffffffffff168273ffffffffffffffffffffffffffffffffffffffff161415611cf5576040517f08c379a0000000000000000000000000000000000000000000000000000000008152600401611cec90612df3565b60405180910390fd5b611d01826000836123e4565b60008060008473ffffffffffffffffffffffffffffffffffffffff1673ffffffffffffffffffffffffffffffffffffffff16815260200190815260200160002054905081811015611d87576040517f08c379a0000000000000000000000000000000000000000000000000000000008152600401611d7e90612c53565b60405180910390fd5b8181611d939190612f66565b6000808573ffffffffffffffffffffffffffffffffffffffff1673ffffffffffffffffffffffffffffffffffffffff168152602001908152602001600020819055508160026000828254611de79190612f66565b92505081905550600073ffffffffffffffffffffffffffffffffffffffff168373ffffffffffffffffffffffffffffffffffffffff167fddf252ad1be2c89b69c2b068fc378daa952ba7f163c4a11628f55a4df523b3ef84604051611e4c9190612eb3565b60405180910390a3505050565b600081600001549050919050565b611e6f610ba4565b15611eaf576040517f08c379a0000000000000000000000000000000000000000000000000000000008152600401611ea690612d33565b60405180910390fd5b6001600560006101000a81548160ff0219169083151502179055507f62e78cea01bee320cd4e420270b5ea74000d11b0c9f74754ebdbfc544b05a258611ef36118bc565b604051611f009190612a87565b60405180910390a1565b6000611f1e611f176118bc565b848461212b565b6001905092915050565b600080600660008473ffffffffffffffffffffffffffffffffffffffff1673ffffffffffffffffffffffffffffffffffffffff1681526020019081526020016000209050611f7581611e59565b9150611f808161243c565b50919050565b6000611f99611f936117f9565b83612452565b9050919050565b60007f7fffffffffffffffffffffffffffffff5d576e7357a4501ddfe92f46681b20a08260001c1115612008576040517f08c379a0000000000000000000000000000000000000000000000000000000008152600401611fff90612d13565b60405180910390fd5b601b8460ff16148061201d5750601c8460ff16145b61205c576040517f08c379a000000000000000000000000000000000000000000000000000000000815260040161205390612d53565b60405180910390fd5b6000600186868686604051600081526020016040526040516120819493929190612b8c565b6020604051602081039080840390855afa1580156120a3573d6000803e3d6000fd5b505050602060405103519050600073ffffffffffffffffffffffffffffffffffffffff168173ffffffffffffffffffffffffffffffffffffffff16141561211f576040517f08c379a000000000000000000000000000000000000000000000000000000000815260040161211690612bf3565b60405180910390fd5b80915050949350505050565b600073ffffffffffffffffffffffffffffffffffffffff168373ffffffffffffffffffffffffffffffffffffffff16141561219b576040517f08c379a000000000000000000000000000000000000000000000000000000000815260040161219290612e13565b60405180910390fd5b600073ffffffffffffffffffffffffffffffffffffffff168273ffffffffffffffffffffffffffffffffffffffff16141561220b576040517f08c379a000000000000000000000000000000000000000000000000000000000815260040161220290612c13565b60405180910390fd5b6122168383836123e4565b60008060008573ffffffffffffffffffffffffffffffffffffffff1673ffffffffffffffffffffffffffffffffffffffff1681526020019081526020016000205490508181101561229c576040517f08c379a000000000000000000000000000000000000000000000000000000000815260040161229390612cf3565b60405180910390fd5b81816122a89190612f66565b6000808673ffffffffffffffffffffffffffffffffffffffff1673ffffffffffffffffffffffffffffffffffffffff16815260200190815260200160002081905550816000808573ffffffffffffffffffffffffffffffffffffffff1673ffffffffffffffffffffffffffffffffffffffff16815260200190815260200160002060008282546123389190612f10565b925050819055508273ffffffffffffffffffffffffffffffffffffffff168473ffffffffffffffffffffffffffffffffffffffff167fddf252ad1be2c89b69c2b068fc378daa952ba7f163c4a11628f55a4df523b3ef8460405161239c9190612eb3565b60405180910390a350505050565b600083838346306040516020016123c5959493929190612b39565b6040516020818303038152906040528051906020012090509392505050565b6123ec610ba4565b1561242c576040517f08c379a000000000000000000000000000000000000000000000000000000000815260040161242390612d33565b60405180910390fd5b6124378383836116d5565b505050565b6001816000016000828254019250508190555050565b60008282604051602001612467929190612a50565b60405160208183030381529060405280519060200120905092915050565b6000813590506124948161369a565b92915050565b6000813590506124a9816136b1565b92915050565b6000813590506124be816136c8565b92915050565b6000813590506124d3816136df565b92915050565b6000602082840312156124eb57600080fd5b60006124f984828501612485565b91505092915050565b6000806040838503121561251557600080fd5b600061252385828601612485565b925050602061253485828601612485565b9150509250929050565b60008060006060848603121561255357600080fd5b600061256186828701612485565b935050602061257286828701612485565b9250506040612583868287016124af565b9150509250925092565b600080600080600080600060e0888a0312156125a857600080fd5b60006125b68a828b01612485565b97505060206125c78a828b01612485565b96505060406125d88a828b016124af565b95505060606125e98a828b016124af565b94505060806125fa8a828b016124c4565b93505060a061260b8a828b0161249a565b92505060c061261c8a828b0161249a565b91505092959891949750929550565b6000806040838503121561263e57600080fd5b600061264c85828601612485565b925050602061265d858286016124af565b9150509250929050565b60006020828403121561267957600080fd5b6000612687848285016124af565b91505092915050565b61269981612f9a565b82525050565b6126a881612fac565b82525050565b6126b781612fb8565b82525050565b6126ce6126c982612fb8565b61305e565b82525050565b60006126df82612ee9565b6126e98185612ef4565b93506126f9818560208601612ff9565b612702816130c6565b840191505092915050565b600061271a601883612ef4565b9150612725826130d7565b602082019050919050565b600061273d602383612ef4565b915061274882613100565b604082019050919050565b6000612760601483612ef4565b915061276b8261314f565b602082019050919050565b6000612783602283612ef4565b915061278e82613178565b604082019050919050565b60006127a6602683612ef4565b91506127b1826131c7565b604082019050919050565b60006127c9602283612ef4565b91506127d482613216565b604082019050919050565b60006127ec600283612f05565b91506127f782613265565b600282019050919050565b600061280f601a83612ef4565b915061281a8261328e565b602082019050919050565b6000612832601d83612ef4565b915061283d826132b7565b602082019050919050565b6000612855602683612ef4565b9150612860826132e0565b604082019050919050565b6000612878602283612ef4565b91506128838261332f565b604082019050919050565b600061289b601083612ef4565b91506128a68261337e565b602082019050919050565b60006128be602283612ef4565b91506128c9826133a7565b604082019050919050565b60006128e1601e83612ef4565b91506128ec826133f6565b602082019050919050565b6000612904602883612ef4565b915061290f8261341f565b604082019050919050565b6000612927602083612ef4565b91506129328261346e565b602082019050919050565b600061294a602483612ef4565b915061295582613497565b604082019050919050565b600061296d602183612ef4565b9150612978826134e6565b604082019050919050565b6000612990602583612ef4565b915061299b82613535565b604082019050919050565b60006129b3602483612ef4565b91506129be82613584565b604082019050919050565b60006129d6602583612ef4565b91506129e1826135d3565b604082019050919050565b60006129f9602c83612ef4565b9150612a0482613622565b604082019050919050565b6000612a1c601f83612ef4565b9150612a2782613671565b602082019050919050565b612a3b81612fe2565b82525050565b612a4a81612fec565b82525050565b6000612a5b826127df565b9150612a6782856126bd565b602082019150612a7782846126bd565b6020820191508190509392505050565b6000602082019050612a9c6000830184612690565b92915050565b6000602082019050612ab7600083018461269f565b92915050565b6000602082019050612ad260008301846126ae565b92915050565b600060c082019050612aed60008301896126ae565b612afa6020830188612690565b612b076040830187612690565b612b146060830186612a32565b612b216080830185612a32565b612b2e60a0830184612a32565b979650505050505050565b600060a082019050612b4e60008301886126ae565b612b5b60208301876126ae565b612b6860408301866126ae565b612b756060830185612a32565b612b826080830184612690565b9695505050505050565b6000608082019050612ba160008301876126ae565b612bae6020830186612a41565b612bbb60408301856126ae565b612bc860608301846126ae565b95945050505050565b60006020820190508181036000830152612beb81846126d4565b905092915050565b60006020820190508181036000830152612c0c8161270d565b9050919050565b60006020820190508181036000830152612c2c81612730565b9050919050565b60006020820190508181036000830152612c4c81612753565b9050919050565b60006020820190508181036000830152612c6c81612776565b9050919050565b60006020820190508181036000830152612c8c81612799565b9050919050565b60006020820190508181036000830152612cac816127bc565b9050919050565b60006020820190508181036000830152612ccc81612802565b9050919050565b60006020820190508181036000830152612cec81612825565b9050919050565b60006020820190508181036000830152612d0c81612848565b9050919050565b60006020820190508181036000830152612d2c8161286b565b9050919050565b60006020820190508181036000830152612d4c8161288e565b9050919050565b60006020820190508181036000830152612d6c816128b1565b9050919050565b60006020820190508181036000830152612d8c816128d4565b9050919050565b60006020820190508181036000830152612dac816128f7565b9050919050565b60006020820190508181036000830152612dcc8161291a565b9050919050565b60006020820190508181036000830152612dec8161293d565b9050919050565b60006020820190508181036000830152612e0c81612960565b9050919050565b60006020820190508181036000830152612e2c81612983565b9050919050565b60006020820190508181036000830152612e4c816129a6565b9050919050565b60006020820190508181036000830152612e6c816129c9565b9050919050565b60006020820190508181036000830152612e8c816129ec565b9050919050565b60006020820190508181036000830152612eac81612a0f565b9050919050565b6000602082019050612ec86000830184612a32565b92915050565b6000602082019050612ee36000830184612a41565b92915050565b600081519050919050565b600082825260208201905092915050565b600081905092915050565b6000612f1b82612fe2565b9150612f2683612fe2565b9250827fffffffffffffffffffffffffffffffffffffffffffffffffffffffffffffffff03821115612f5b57612f5a613068565b5b828201905092915050565b6000612f7182612fe2565b9150612f7c83612fe2565b925082821015612f8f57612f8e613068565b5b828203905092915050565b6000612fa582612fc2565b9050919050565b60008115159050919050565b6000819050919050565b600073ffffffffffffffffffffffffffffffffffffffff82169050919050565b6000819050919050565b600060ff82169050919050565b60005b83811015613017578082015181840152602081019050612ffc565b83811115613026576000848401525b50505050565b6000600282049050600182168061304457607f821691505b6020821081141561305857613057613097565b5b50919050565b6000819050919050565b7f4e487b7100000000000000000000000000000000000000000000000000000000600052601160045260246000fd5b7f4e487b7100000000000000000000000000000000000000000000000000000000600052602260045260246000fd5b6000601f19601f8301169050919050565b7f45434453413a20696e76616c6964207369676e61747572650000000000000000600082015250565b7f45524332303a207472616e7366657220746f20746865207a65726f206164647260008201527f6573730000000000000000000000000000000000000000000000000000000000602082015250565b7f5061757361626c653a206e6f7420706175736564000000000000000000000000600082015250565b7f45524332303a206275726e20616d6f756e7420657863656564732062616c616e60008201527f6365000000000000000000000000000000000000000000000000000000000000602082015250565b7f4f776e61626c653a206e6577206f776e657220697320746865207a65726f206160008201527f6464726573730000000000000000000000000000000000000000000000000000602082015250565b7f45524332303a20617070726f766520746f20746865207a65726f20616464726560008201527f7373000000000000000000000000000000000000000000000000000000000000602082015250565b7f1901000000000000000000000000000000000000000000000000000000000000600082015250565b7f49636f2063616e6e6f7420656e6420696e207468652070617374000000000000600082015250565b7f45524332305065726d69743a206578706972656420646561646c696e65000000600082015250565b7f45524332303a207472616e7366657220616d6f756e742065786365656473206260008201527f616c616e63650000000000000000000000000000000000000000000000000000602082015250565b7f45434453413a20696e76616c6964207369676e6174757265202773272076616c60008201527f7565000000000000000000000000000000000000000000000000000000000000602082015250565b7f5061757361626c653a2070617573656400000000000000000000000000000000600082015250565b7f45434453413a20696e76616c6964207369676e6174757265202776272076616c60008201527f7565000000000000000000000000000000000000000000000000000000000000602082015250565b7f45524332305065726d69743a20696e76616c6964207369676e61747572650000600082015250565b7f45524332303a207472616e7366657220616d6f756e742065786365656473206160008201527f6c6c6f77616e6365000000000000000000000000000000000000000000000000602082015250565b7f4f776e61626c653a2063616c6c6572206973206e6f7420746865206f776e6572600082015250565b7f45524332303a206275726e20616d6f756e74206578636565647320616c6c6f7760008201527f616e636500000000000000000000000000000000000000000000000000000000602082015250565b7f45524332303a206275726e2066726f6d20746865207a65726f2061646472657360008201527f7300000000000000000000000000000000000000000000000000000000000000602082015250565b7f45524332303a207472616e736665722066726f6d20746865207a65726f20616460008201527f6472657373000000000000000000000000000000000000000000000000000000602082015250565b7f45524332303a20617070726f76652066726f6d20746865207a65726f2061646460008201527f7265737300000000000000000000000000000000000000000000000000000000602082015250565b7f45524332303a2064656372656173656420616c6c6f77616e63652062656c6f7760008201527f207a65726f000000000000000000000000000000000000000000000000000000602082015250565b7f46756e6374696f6e20616c6c6f776564206f6e6c7920746f206f776e6572206160008201527f6e642063726f776473616c650000000000000000000000000000000000000000602082015250565b7f45524332303a206d696e7420746f20746865207a65726f206164647265737300600082015250565b6136a381612f9a565b81146136ae57600080fd5b50565b6136ba81612fb8565b81146136c557600080fd5b50565b6136d181612fe2565b81146136dc57600080fd5b50565b6136e881612fec565b81146136f357600080fd5b5056fea2646970667358221220cbf5b8b299919b7ede28e7b6ee2594219a24433903d2731ae520bbc223d6ae1464736f6c63430008010033",
  "immutableReferences": {
    "1681": [
      {
        "length": 32,
        "start": 4709
      }
    ],
    "2092": [
      {
        "length": 32,
        "start": 6181
      }
    ],
    "2094": [
      {
        "length": 32,
        "start": 6141
      }
    ],
    "2096": [
      {
        "length": 32,
        "start": 6257
      }
    ],
    "2098": [
      {
        "length": 32,
        "start": 6290
      }
    ],
    "2100": [
      {
        "length": 32,
        "start": 6224
      }
    ]
  },
  "source": "// SPDX-License-Identifier: MIT\npragma solidity ^0.8.0;\n\nimport \"@openzeppelin/contracts/token/ERC20/ERC20.sol\";\nimport \"@openzeppelin/contracts/token/ERC20/extensions/ERC20Burnable.sol\";\nimport \"@openzeppelin/contracts/security/Pausable.sol\";\nimport \"@openzeppelin/contracts/access/Ownable.sol\";\nimport \"@openzeppelin/contracts/token/ERC20/extensions/draft-ERC20Permit.sol\";\n\ncontract MyToken is ERC20, ERC20Burnable, Pausable, Ownable, ERC20Permit {\n    address public crowdsaleAddress;\n\tuint256 public ICOEndTime;\n\n\tmodifier onlyCrowdsale {\n\t\trequire(msg.sender == crowdsaleAddress);\n\t\t_;\n\t}\n\n\tmodifier afterCrowdsale {\n\t\trequire(block.timestamp > ICOEndTime || msg.sender == crowdsaleAddress);\n\t\t_;\n\t}\n\n    modifier onlyOwnerOrCrowdsale {\n        require(msg.sender == crowdsaleAddress || msg.sender == owner(), \"Function allowed only to owner and crowdsale\");\n        _;\n    }\n\n    constructor() ERC20(\"MyToken\", \"MTK\") ERC20Permit(\"MyToken\") {\n        _mint(msg.sender, 2e9 * 10 ** super.decimals());\n    }\n\n    function pause() public onlyOwner {\n        _pause();\n    }\n\n    function unpause() public onlyOwner {\n        _unpause();\n    }\n\n    function mint(address to, uint256 amount) public onlyOwnerOrCrowdsale {\n        _mint(to, amount);\n    }\n\n    function _beforeTokenTransfer(address from, address to, uint256 amount)\n        internal\n        whenNotPaused\n        override\n    {\n        super._beforeTokenTransfer(from, to, amount);\n    }\n\n    function setCrowdsale(address _crowdsaleAddress) public onlyOwner {\n\t\trequire(_crowdsaleAddress != address(0));\n\t\tcrowdsaleAddress = _crowdsaleAddress;\n\t}\n\n\tfunction buyTokens(address _receiver, uint256 _amount) public onlyCrowdsale {\n\t\trequire(_receiver != address(0));\n\t\trequire(_amount > 0);\n\t\ttransfer(_receiver, _amount);\n\t}\n\n    function setIcoEndTime(uint256 _time) public onlyOwner {\n        require(block.timestamp < _time, \"Ico cannot end in the past\");\n        ICOEndTime = _time;\n    }\n\n    function getBlockTime() public view returns(uint256 timestamp) {\n        return block.timestamp;\n    }\n\n    /// @notice Override the functions to not allow token transfers until the end of the ICO\n    function transfer(address _to, uint256 _value) override public afterCrowdsale returns(bool) {\n        return super.transfer(_to, _value);\n    }\n\n    /// @notice Override the functions to not allow token transfers until the end of the ICO\n    function transferFrom(address _from, address _to, uint256 _value) override public afterCrowdsale returns(bool) {\n        return super.transferFrom(_from, _to, _value);\n    }\n\n    /// @notice Override the functions to not allow token transfers until the end of the ICO\n    function approve(address _spender, uint256 _value) override public afterCrowdsale returns(bool) {\n        return super.approve(_spender, _value);\n    }\n\n    /// @notice Override the functions to not allow token transfers until the end of the ICO\n    function increaseApproval(address _spender, uint _addedValue) public afterCrowdsale returns(bool success) {\n        return super.increaseAllowance(_spender, _addedValue);\n    }\n\n    /// @notice Override the functions to not allow token transfers until the end of the ICO\n    function decreaseApproval(address _spender, uint _subtractedValue) public afterCrowdsale returns(bool success) {\n        return super.decreaseAllowance(_spender, _subtractedValue);\n    }\n\n    function emergencyExtract() external onlyOwner {\n        address payable _owner = payable(super.owner());\n        _owner.transfer(address(this).balance);\n    }\n}\n",
  "sourcePath": "/home/ebalo/Desktop/Projects/blockchain/block-chain/contracts/BEP20.sol",
  "compiler": {
    "name": "solc",
    "version": "0.8.1+commit.df193b15.Emscripten.clang"
  },
  "schemaVersion": "3.4.1",
  "updatedAt": "2021-05-13T17:04:51.523Z",
  "networkType": "ethereum",
  "devdoc": {
    "kind": "dev",
    "methods": {
      "DOMAIN_SEPARATOR()": {
        "details": "See {IERC20Permit-DOMAIN_SEPARATOR}."
      },
      "allowance(address,address)": {
        "details": "See {IERC20-allowance}."
      },
      "balanceOf(address)": {
        "details": "See {IERC20-balanceOf}."
      },
      "burn(uint256)": {
        "details": "Destroys `amount` tokens from the caller. See {ERC20-_burn}."
      },
      "burnFrom(address,uint256)": {
        "details": "Destroys `amount` tokens from `account`, deducting from the caller's allowance. See {ERC20-_burn} and {ERC20-allowance}. Requirements: - the caller must have allowance for ``accounts``'s tokens of at least `amount`."
      },
      "decimals()": {
        "details": "Returns the number of decimals used to get its user representation. For example, if `decimals` equals `2`, a balance of `505` tokens should be displayed to a user as `5,05` (`505 / 10 ** 2`). Tokens usually opt for a value of 18, imitating the relationship between Ether and Wei. This is the value {ERC20} uses, unless this function is overridden; NOTE: This information is only used for _display_ purposes: it in no way affects any of the arithmetic of the contract, including {IERC20-balanceOf} and {IERC20-transfer}."
      },
      "decreaseAllowance(address,uint256)": {
        "details": "Atomically decreases the allowance granted to `spender` by the caller. This is an alternative to {approve} that can be used as a mitigation for problems described in {IERC20-approve}. Emits an {Approval} event indicating the updated allowance. Requirements: - `spender` cannot be the zero address. - `spender` must have allowance for the caller of at least `subtractedValue`."
      },
      "increaseAllowance(address,uint256)": {
        "details": "Atomically increases the allowance granted to `spender` by the caller. This is an alternative to {approve} that can be used as a mitigation for problems described in {IERC20-approve}. Emits an {Approval} event indicating the updated allowance. Requirements: - `spender` cannot be the zero address."
      },
      "name()": {
        "details": "Returns the name of the token."
      },
      "nonces(address)": {
        "details": "See {IERC20Permit-nonces}."
      },
      "owner()": {
        "details": "Returns the address of the current owner."
      },
      "paused()": {
        "details": "Returns true if the contract is paused, and false otherwise."
      },
      "permit(address,address,uint256,uint256,uint8,bytes32,bytes32)": {
        "details": "See {IERC20Permit-permit}."
      },
      "renounceOwnership()": {
        "details": "Leaves the contract without owner. It will not be possible to call `onlyOwner` functions anymore. Can only be called by the current owner. NOTE: Renouncing ownership will leave the contract without an owner, thereby removing any functionality that is only available to the owner."
      },
      "symbol()": {
        "details": "Returns the symbol of the token, usually a shorter version of the name."
      },
      "totalSupply()": {
        "details": "See {IERC20-totalSupply}."
      },
      "transferOwnership(address)": {
        "details": "Transfers ownership of the contract to a new account (`newOwner`). Can only be called by the current owner."
      }
    },
    "version": 1
  },
  "userdoc": {
    "kind": "user",
    "methods": {
      "approve(address,uint256)": {
        "notice": "Override the functions to not allow token transfers until the end of the ICO"
      },
      "decreaseApproval(address,uint256)": {
        "notice": "Override the functions to not allow token transfers until the end of the ICO"
      },
      "increaseApproval(address,uint256)": {
        "notice": "Override the functions to not allow token transfers until the end of the ICO"
      },
      "transfer(address,uint256)": {
        "notice": "Override the functions to not allow token transfers until the end of the ICO"
      },
      "transferFrom(address,address,uint256)": {
        "notice": "Override the functions to not allow token transfers until the end of the ICO"
      }
    },
    "version": 1
  }
}