{
  "contractName": "PriceConsumer",
  "abi": [
    {
      "inputs": [
        {
          "internalType": "address",
          "name": "aggregator",
          "type": "address"
        }
      ],
      "stateMutability": "nonpayable",
      "type": "constructor"
    },
    {
      "inputs": [],
      "name": "getPrice",
      "outputs": [
        {
          "internalType": "int256",
          "name": "",
          "type": "int256"
        }
      ],
      "stateMutability": "view",
      "type": "function",
      "constant": true
    },
    {
      "inputs": [
        {
          "internalType": "uint256",
          "name": "fixed_value",
          "type": "uint256"
        }
      ],
      "name": "computeNumberOfToken",
      "outputs": [
        {
          "internalType": "uint256",
          "name": "",
          "type": "uint256"
        }
      ],
      "stateMutability": "view",
      "type": "function",
      "constant": true
    }
  ],
  "bytecode": "0x608060405234801561001057600080fd5b506040516104ec3803806104ec8339818101604052810190610032919061008d565b806000806101000a81548173ffffffffffffffffffffffffffffffffffffffff021916908373ffffffffffffffffffffffffffffffffffffffff160217905550506100ff565b600081519050610087816100e8565b92915050565b60006020828403121561009f57600080fd5b60006100ad84828501610078565b91505092915050565b60006100c1826100c8565b9050919050565b600073ffffffffffffffffffffffffffffffffffffffff82169050919050565b6100f1816100b6565b81146100fc57600080fd5b50565b6103de8061010e6000396000f3fe608060405234801561001057600080fd5b50600436106100365760003560e01c8063073b2b0e1461003b57806398d5fdca1461006b575b600080fd5b610055600480360381019061005091906101bc565b610089565b6040516100629190610295565b60405180910390f35b6100736100ba565b604051610080919061027a565b60405180910390f35b6000806100946100ba565b9050826402540be400826100a891906102b0565b6100b291906102b0565b915050919050565b60008060008054906101000a900473ffffffffffffffffffffffffffffffffffffffff1673ffffffffffffffffffffffffffffffffffffffff1663feaf968c6040518163ffffffff1660e01b815260040160a06040518083038186803b15801561012357600080fd5b505afa158015610137573d6000803e3d6000fd5b505050506040513d601f19601f8201168201806040525081019061015b91906101e5565b5050509150508091505090565b60008151905061017781610363565b92915050565b60008135905061018c8161037a565b92915050565b6000815190506101a18161037a565b92915050565b6000815190506101b681610391565b92915050565b6000602082840312156101ce57600080fd5b60006101dc8482850161017d565b91505092915050565b600080600080600060a086880312156101fd57600080fd5b600061020b888289016101a7565b955050602061021c88828901610168565b945050604061022d88828901610192565b935050606061023e88828901610192565b925050608061024f888289016101a7565b9150509295509295909350565b6102658161030a565b82525050565b61027481610314565b82525050565b600060208201905061028f600083018461025c565b92915050565b60006020820190506102aa600083018461026b565b92915050565b60006102bb82610314565b91506102c683610314565b9250817fffffffffffffffffffffffffffffffffffffffffffffffffffffffffffffffff04831182151516156102ff576102fe610334565b5b828202905092915050565b6000819050919050565b6000819050919050565b600069ffffffffffffffffffff82169050919050565b7f4e487b7100000000000000000000000000000000000000000000000000000000600052601160045260246000fd5b61036c8161030a565b811461037757600080fd5b50565b61038381610314565b811461038e57600080fd5b50565b61039a8161031e565b81146103a557600080fd5b5056fea2646970667358221220fcb984f5e87954a9a7c59d86c0a730d9e768cf2c14e26a766bd6b01f659682e664736f6c63430008010033",
  "immutableReferences": {},
  "source": "// SPDX-License-Identifier: MIT\npragma solidity ^0.8.0;\n\nimport \"@chainlink/contracts/src/v0.6/interfaces/AggregatorV3Interface.sol\";\n\ncontract PriceConsumer {\n\n    AggregatorV3Interface internal priceFeed;\n\n    /**\n     * Network: Testnet\n     * Aggregator: BNB / USD\n     * Address: 0x2514895c72f50D8bd4B4F9b1110F0D6bD2c97526\n\t *\n\t * Network: Mainnet\n     * Aggregator: BNB / USD\n     * Address: 0x0567F2323251f0Aab15c8dFb1967E4e8A7D42aeE\n     */\n    constructor(address aggregator) {\n        priceFeed = AggregatorV3Interface(aggregator);\n    }\n\n    /**\n     * Returns the latest price\n     */\n    function getPrice() public view returns (int) {\n        (, int price,,,) = priceFeed.latestRoundData();\n        return price;\n    }\n\n\t/**\n\t\tCompute the number of token to change given a fixed price, as float are not accepted\n\t\tthe value must be ported to integer.\n\t\texamples:\n\t\t\t0.01 $ / tkn => 100\n\t\t\t0.001 $ / tkn => 1000\n\t\t@param fixed_value The amount of dollar that a token is valued\n\t */\n\tfunction computeNumberOfToken(uint256 fixed_value) public view returns (uint256) {\n\t\tint price = getPrice();\n\t\treturn uint256(price) * 1e10 * fixed_value;\n\t}\n}",
  "sourcePath": "/home/ebalo/Desktop/Projects/blockchain/block-chain/contracts/PriceConsumer.sol",
  "compiler": {
    "name": "solc",
    "version": "0.8.1+commit.df193b15.Emscripten.clang"
  },
  "schemaVersion": "3.4.1",
  "updatedAt": "2021-05-13T17:02:39.797Z",
  "networkType": "ethereum",
  "devdoc": {
    "kind": "dev",
    "methods": {
      "computeNumberOfToken(uint256)": {
        "params": {
          "fixed_value": "The amount of dollar that a token is valued"
        }
      }
    },
    "version": 1
  },
  "userdoc": {
    "kind": "user",
    "methods": {
      "computeNumberOfToken(uint256)": {
        "notice": "Compute the number of token to change given a fixed price, as float are not accepted the value must be ported to integer. examples: 0.01 $ / tkn => 100 0.001 $ / tkn => 1000"
      },
      "constructor": {
        "notice": "Network: Testnet Aggregator: BNB / USD Address: 0x2514895c72f50D8bd4B4F9b1110F0D6bD2c97526 Network: Mainnet Aggregator: BNB / USD Address: 0x0567F2323251f0Aab15c8dFb1967E4e8A7D42aeE"
      },
      "getPrice()": {
        "notice": "Returns the latest price"
      }
    },
    "version": 1
  }
}