{
  "contractName": "SongElection",
  "abi": [
    {
      "inputs": [
        {
          "internalType": "uint256",
          "name": "_start",
          "type": "uint256"
        },
        {
          "internalType": "uint256",
          "name": "_end",
          "type": "uint256"
        },
        {
          "internalType": "contract Melody",
          "name": "_token",
          "type": "address"
        },
        {
          "internalType": "uint256",
          "name": "_song_registration_fee",
          "type": "uint256"
        },
        {
          "internalType": "uint256",
          "name": "_half_star_value",
          "type": "uint256"
        }
      ],
      "stateMutability": "nonpayable",
      "type": "constructor"
    },
    {
      "anonymous": false,
      "inputs": [
        {
          "indexed": true,
          "internalType": "address",
          "name": "previousOwner",
          "type": "address"
        },
        {
          "indexed": true,
          "internalType": "address",
          "name": "newOwner",
          "type": "address"
        }
      ],
      "name": "OwnershipTransferred",
      "type": "event"
    },
    {
      "inputs": [],
      "name": "completed",
      "outputs": [
        {
          "internalType": "bool",
          "name": "",
          "type": "bool"
        }
      ],
      "stateMutability": "view",
      "type": "function",
      "constant": true
    },
    {
      "inputs": [],
      "name": "end",
      "outputs": [
        {
          "internalType": "uint256",
          "name": "",
          "type": "uint256"
        }
      ],
      "stateMutability": "view",
      "type": "function",
      "constant": true
    },
    {
      "inputs": [],
      "name": "owner",
      "outputs": [
        {
          "internalType": "address",
          "name": "",
          "type": "address"
        }
      ],
      "stateMutability": "view",
      "type": "function",
      "constant": true
    },
    {
      "inputs": [
        {
          "internalType": "string",
          "name": "",
          "type": "string"
        }
      ],
      "name": "participants",
      "outputs": [
        {
          "internalType": "address",
          "name": "owner",
          "type": "address"
        },
        {
          "internalType": "uint256",
          "name": "votes",
          "type": "uint256"
        }
      ],
      "stateMutability": "view",
      "type": "function",
      "constant": true
    },
    {
      "inputs": [],
      "name": "renounceOwnership",
      "outputs": [],
      "stateMutability": "nonpayable",
      "type": "function"
    },
    {
      "inputs": [],
      "name": "start",
      "outputs": [
        {
          "internalType": "uint256",
          "name": "",
          "type": "uint256"
        }
      ],
      "stateMutability": "view",
      "type": "function",
      "constant": true
    },
    {
      "inputs": [
        {
          "internalType": "address",
          "name": "newOwner",
          "type": "address"
        }
      ],
      "name": "transferOwnership",
      "outputs": [],
      "stateMutability": "nonpayable",
      "type": "function"
    },
    {
      "inputs": [
        {
          "internalType": "string",
          "name": "song_hash",
          "type": "string"
        }
      ],
      "name": "registerSong",
      "outputs": [],
      "stateMutability": "payable",
      "type": "function",
      "payable": true
    },
    {
      "inputs": [
        {
          "internalType": "string",
          "name": "song_hash",
          "type": "string"
        },
        {
          "internalType": "uint256",
          "name": "half_stars",
          "type": "uint256"
        }
      ],
      "name": "vote",
      "outputs": [],
      "stateMutability": "payable",
      "type": "function",
      "payable": true
    }
  ],
  "bytecode": "0x60806040523480156200001157600080fd5b5060405162001136380380620011368339818101604052810190620000379190620001af565b6000620000496200017960201b60201c565b9050806000806101000a81548173ffffffffffffffffffffffffffffffffffffffff021916908373ffffffffffffffffffffffffffffffffffffffff1602179055508073ffffffffffffffffffffffffffffffffffffffff16600073ffffffffffffffffffffffffffffffffffffffff167f8be0079c531659141344cd1fd0a4f28419497f9722a3daafe3b4186f6b6457e060405160405180910390a35082600460006101000a81548173ffffffffffffffffffffffffffffffffffffffff021916908373ffffffffffffffffffffffffffffffffffffffff160217905550670de0b6b3a7640000826200013e919062000231565b600581905550670de0b6b3a7640000816200015a919062000231565b6006819055508460018190555083600281905550505050505062000347565b600033905090565b600081519050620001928162000313565b92915050565b600081519050620001a9816200032d565b92915050565b600080600080600060a08688031215620001c857600080fd5b6000620001d88882890162000198565b9550506020620001eb8882890162000198565b9450506040620001fe8882890162000181565b9350506060620002118882890162000198565b9250506080620002248882890162000198565b9150509295509295909350565b60006200023e82620002da565b91506200024b83620002da565b9250817fffffffffffffffffffffffffffffffffffffffffffffffffffffffffffffffff0483118215151615620002875762000286620002e4565b5b828202905092915050565b60006200029f82620002ba565b9050919050565b6000620002b38262000292565b9050919050565b600073ffffffffffffffffffffffffffffffffffffffff82169050919050565b6000819050919050565b7f4e487b7100000000000000000000000000000000000000000000000000000000600052601160045260246000fd5b6200031e81620002a6565b81146200032a57600080fd5b50565b6200033881620002da565b81146200034457600080fd5b50565b610ddf80620003576000396000f3fe6080604052600436106100865760003560e01c80639d9a7fe9116100595780639d9a7fe914610127578063a638580314610152578063be9a65551461016e578063efbe1c1c14610199578063f2fde38b146101c457610086565b80635b4b22ae1461008b578063715018a6146100c95780638da5cb5b146100e057806394336d301461010b575b600080fd5b34801561009757600080fd5b506100b260048036038101906100ad919061083c565b6101ed565b6040516100c09291906109ce565b60405180910390f35b3480156100d557600080fd5b506100de610247565b005b3480156100ec57600080fd5b506100f5610381565b60405161010291906109b3565b60405180910390f35b6101256004803603810190610120919061083c565b6103aa565b005b34801561013357600080fd5b5061013c61049c565b60405161014991906109f7565b60405180910390f35b61016c6004803603810190610167919061087d565b6104af565b005b34801561017a57600080fd5b506101836105af565b6040516101909190610a92565b60405180910390f35b3480156101a557600080fd5b506101ae6105b5565b6040516101bb9190610a92565b60405180910390f35b3480156101d057600080fd5b506101eb60048036038101906101e69190610813565b6105bb565b005b6003818051602081018201805184825260208301602085012081835280955050505050506000915090508060000160009054906101000a900473ffffffffffffffffffffffffffffffffffffffff16908060010154905082565b61024f610764565b73ffffffffffffffffffffffffffffffffffffffff1661026d610381565b73ffffffffffffffffffffffffffffffffffffffff16146102c3576040517f08c379a00000000000000000000000000000000000000000000000000000000081526004016102ba90610a52565b60405180910390fd5b600073ffffffffffffffffffffffffffffffffffffffff1660008054906101000a900473ffffffffffffffffffffffffffffffffffffffff1673ffffffffffffffffffffffffffffffffffffffff167f8be0079c531659141344cd1fd0a4f28419497f9722a3daafe3b4186f6b6457e060405160405180910390a360008060006101000a81548173ffffffffffffffffffffffffffffffffffffffff021916908373ffffffffffffffffffffffffffffffffffffffff160217905550565b60008060009054906101000a900473ffffffffffffffffffffffffffffffffffffffff16905090565b600554600460009054906101000a900473ffffffffffffffffffffffffffffffffffffffff1673ffffffffffffffffffffffffffffffffffffffff166370a08231336040518263ffffffff1660e01b815260040161040891906109b3565b60206040518083038186803b15801561042057600080fd5b505afa158015610434573d6000803e3d6000fd5b505050506040513d601f19601f8201168201806040525081019061045891906108d1565b1015610499576040517f08c379a000000000000000000000000000000000000000000000000000000000815260040161049090610a72565b60405180910390fd5b50565b600060149054906101000a900460ff1681565b80600654816104be9190610b14565b600460009054906101000a900473ffffffffffffffffffffffffffffffffffffffff1673ffffffffffffffffffffffffffffffffffffffff166370a08231336040518263ffffffff1660e01b815260040161051991906109b3565b60206040518083038186803b15801561053157600080fd5b505afa158015610545573d6000803e3d6000fd5b505050506040513d601f19601f8201168201806040525081019061056991906108d1565b10156105aa576040517f08c379a00000000000000000000000000000000000000000000000000000000081526004016105a190610a32565b60405180910390fd5b505050565b60015481565b60025481565b6105c3610764565b73ffffffffffffffffffffffffffffffffffffffff166105e1610381565b73ffffffffffffffffffffffffffffffffffffffff1614610637576040517f08c379a000000000000000000000000000000000000000000000000000000000815260040161062e90610a52565b60405180910390fd5b600073ffffffffffffffffffffffffffffffffffffffff168173ffffffffffffffffffffffffffffffffffffffff1614156106a7576040517f08c379a000000000000000000000000000000000000000000000000000000000815260040161069e90610a12565b60405180910390fd5b8073ffffffffffffffffffffffffffffffffffffffff1660008054906101000a900473ffffffffffffffffffffffffffffffffffffffff1673ffffffffffffffffffffffffffffffffffffffff167f8be0079c531659141344cd1fd0a4f28419497f9722a3daafe3b4186f6b6457e060405160405180910390a3806000806101000a81548173ffffffffffffffffffffffffffffffffffffffff021916908373ffffffffffffffffffffffffffffffffffffffff16021790555050565b600033905090565b600061077f61077a84610ad2565b610aad565b90508281526020810184848401111561079757600080fd5b6107a2848285610bb6565b509392505050565b6000813590506107b981610d7b565b92915050565b600082601f8301126107d057600080fd5b81356107e084826020860161076c565b91505092915050565b6000813590506107f881610d92565b92915050565b60008151905061080d81610d92565b92915050565b60006020828403121561082557600080fd5b6000610833848285016107aa565b91505092915050565b60006020828403121561084e57600080fd5b600082013567ffffffffffffffff81111561086857600080fd5b610874848285016107bf565b91505092915050565b6000806040838503121561089057600080fd5b600083013567ffffffffffffffff8111156108aa57600080fd5b6108b6858286016107bf565b92505060206108c7858286016107e9565b9150509250929050565b6000602082840312156108e357600080fd5b60006108f1848285016107fe565b91505092915050565b61090381610b6e565b82525050565b61091281610b80565b82525050565b6000610925602683610b03565b915061093082610c65565b604082019050919050565b6000610948602283610b03565b915061095382610cb4565b604082019050919050565b600061096b602083610b03565b915061097682610d03565b602082019050919050565b600061098e602383610b03565b915061099982610d2c565b604082019050919050565b6109ad81610bac565b82525050565b60006020820190506109c860008301846108fa565b92915050565b60006040820190506109e360008301856108fa565b6109f060208301846109a4565b9392505050565b6000602082019050610a0c6000830184610909565b92915050565b60006020820190508181036000830152610a2b81610918565b9050919050565b60006020820190508181036000830152610a4b8161093b565b9050919050565b60006020820190508181036000830152610a6b8161095e565b9050919050565b60006020820190508181036000830152610a8b81610981565b9050919050565b6000602082019050610aa760008301846109a4565b92915050565b6000610ab7610ac8565b9050610ac38282610bc5565b919050565b6000604051905090565b600067ffffffffffffffff821115610aed57610aec610c25565b5b610af682610c54565b9050602081019050919050565b600082825260208201905092915050565b6000610b1f82610bac565b9150610b2a83610bac565b9250817fffffffffffffffffffffffffffffffffffffffffffffffffffffffffffffffff0483118215151615610b6357610b62610bf6565b5b828202905092915050565b6000610b7982610b8c565b9050919050565b60008115159050919050565b600073ffffffffffffffffffffffffffffffffffffffff82169050919050565b6000819050919050565b82818337600083830152505050565b610bce82610c54565b810181811067ffffffffffffffff82111715610bed57610bec610c25565b5b80604052505050565b7f4e487b7100000000000000000000000000000000000000000000000000000000600052601160045260246000fd5b7f4e487b7100000000000000000000000000000000000000000000000000000000600052604160045260246000fd5b6000601f19601f8301169050919050565b7f4f776e61626c653a206e6577206f776e657220697320746865207a65726f206160008201527f6464726573730000000000000000000000000000000000000000000000000000602082015250565b7f4e6f7420656e6f7567682066756e647320746f2067697665207468697320766f60008201527f7465000000000000000000000000000000000000000000000000000000000000602082015250565b7f4f776e61626c653a2063616c6c6572206973206e6f7420746865206f776e6572600082015250565b7f4e6f7420656e6f7567682066756e647320746f2072656769737465722061207360008201527f6f6e670000000000000000000000000000000000000000000000000000000000602082015250565b610d8481610b6e565b8114610d8f57600080fd5b50565b610d9b81610bac565b8114610da657600080fd5b5056fea2646970667358221220b68a60e76aee8f9b95fa9a63022e09399f18877d49553faa30fb08156cdb456264736f6c63430008010033",
  "immutableReferences": {},
  "source": "// SPDX-License-Identifier: MIT\npragma solidity ^0.8.0;\n\nimport \"./Melody.sol\";\nimport \"./CommonModifier.sol\";\nimport \"@openzeppelin/contracts/utils/math/SafeMath.sol\";\nimport \"@openzeppelin/contracts/access/Ownable.sol\";\n\ncontract SongElection is Ownable, CommonModifier {\n    using SafeMath for uint256;\n\n\tstruct Song {\n\t\taddress owner;\n\t\tuint256 votes;\n\t}\n\n\tmapping(string => Song) public participants;\n\tMelody token;\n\tuint256 song_registration_fee;\n\tuint256 half_star_value;\n\n\tmodifier canRegisterSong() {\n\t\trequire(token.balanceOf(msg.sender) >= song_registration_fee, \"Not enough funds to register a song\");\n\t\t_;\n\t}\n\n\tmodifier canVote(uint256 half_stars) {\n\t\trequire(token.balanceOf(msg.sender) >= half_stars * half_star_value, \"Not enough funds to give this vote\");\n\t\t_;\n\t}\n\n\tconstructor(uint256 _start, uint256 _end, Melody _token, uint256 _song_registration_fee, uint256 _half_star_value) {\n\t\ttoken = _token;\n\t\tsong_registration_fee = _song_registration_fee * 1 ether;\n\t\thalf_star_value = _half_star_value * 1 ether;\n\t\tstart = _start;\n\t\tend = _end;\n\t}\n\n\tfunction registerSong(string memory song_hash) public canRegisterSong payable {\n\n\t}\n\n\tfunction vote(string memory song_hash, uint256 half_stars) public canVote(half_stars) payable {\n\n\t} \n}",
  "sourcePath": "/home/ebalo/Desktop/Projects/blockchain/block-chain/contracts/SongElection.sol",
  "compiler": {
    "name": "solc",
    "version": "0.8.1+commit.df193b15.Emscripten.clang"
  },
  "schemaVersion": "3.4.1",
  "updatedAt": "2021-05-15T10:11:22.673Z",
  "networkType": "ethereum",
  "devdoc": {
    "kind": "dev",
    "methods": {
      "owner()": {
        "details": "Returns the address of the current owner."
      },
      "renounceOwnership()": {
        "details": "Leaves the contract without owner. It will not be possible to call `onlyOwner` functions anymore. Can only be called by the current owner. NOTE: Renouncing ownership will leave the contract without an owner, thereby removing any functionality that is only available to the owner."
      },
      "transferOwnership(address)": {
        "details": "Transfers ownership of the contract to a new account (`newOwner`). Can only be called by the current owner."
      }
    },
    "version": 1
  },
  "userdoc": {
    "kind": "user",
    "methods": {},
    "version": 1
  }
}