{
  "contractName": "TrackElection",
  "abi": [
    {
      "inputs": [
        {
          "internalType": "uint256",
          "name": "_start",
          "type": "uint256"
        },
        {
          "internalType": "uint256",
          "name": "_end",
          "type": "uint256"
        },
        {
          "internalType": "contract Melody",
          "name": "_token",
          "type": "address"
        },
        {
          "internalType": "contract Track",
          "name": "_track",
          "type": "address"
        },
        {
          "internalType": "uint256",
          "name": "_participation_fee",
          "type": "uint256"
        }
      ],
      "stateMutability": "nonpayable",
      "type": "constructor"
    },
    {
      "anonymous": false,
      "inputs": [],
      "name": "AllPrizesDistributed",
      "type": "event"
    },
    {
      "anonymous": false,
      "inputs": [
        {
          "indexed": false,
          "internalType": "address",
          "name": "payer",
          "type": "address"
        },
        {
          "indexed": false,
          "internalType": "uint256",
          "name": "fee",
          "type": "uint256"
        }
      ],
      "name": "FeePayed",
      "type": "event"
    },
    {
      "anonymous": false,
      "inputs": [],
      "name": "Finalized",
      "type": "event"
    },
    {
      "anonymous": false,
      "inputs": [
        {
          "indexed": false,
          "internalType": "uint256",
          "name": "track_id",
          "type": "uint256"
        }
      ],
      "name": "NewParticipant",
      "type": "event"
    },
    {
      "anonymous": false,
      "inputs": [
        {
          "indexed": true,
          "internalType": "address",
          "name": "previousOwner",
          "type": "address"
        },
        {
          "indexed": true,
          "internalType": "address",
          "name": "newOwner",
          "type": "address"
        }
      ],
      "name": "OwnershipTransferred",
      "type": "event"
    },
    {
      "anonymous": false,
      "inputs": [
        {
          "indexed": false,
          "internalType": "address",
          "name": "investor",
          "type": "address"
        },
        {
          "indexed": false,
          "internalType": "uint256",
          "name": "prize",
          "type": "uint256"
        },
        {
          "indexed": false,
          "internalType": "uint8",
          "name": "position",
          "type": "uint8"
        }
      ],
      "name": "PrizeForInvestor",
      "type": "event"
    },
    {
      "anonymous": false,
      "inputs": [
        {
          "indexed": false,
          "internalType": "address",
          "name": "musician",
          "type": "address"
        },
        {
          "indexed": false,
          "internalType": "uint256",
          "name": "prize",
          "type": "uint256"
        },
        {
          "indexed": false,
          "internalType": "uint8",
          "name": "position",
          "type": "uint8"
        }
      ],
      "name": "PrizeForMusician",
      "type": "event"
    },
    {
      "anonymous": false,
      "inputs": [
        {
          "indexed": false,
          "internalType": "uint256",
          "name": "token_amount",
          "type": "uint256"
        },
        {
          "indexed": false,
          "internalType": "uint256",
          "name": "eth_amount",
          "type": "uint256"
        }
      ],
      "name": "Redeemed",
      "type": "event"
    },
    {
      "anonymous": false,
      "inputs": [
        {
          "indexed": false,
          "internalType": "address",
          "name": "voter",
          "type": "address"
        },
        {
          "indexed": false,
          "internalType": "uint256",
          "name": "track_id",
          "type": "uint256"
        },
        {
          "indexed": false,
          "internalType": "uint256",
          "name": "half_stars",
          "type": "uint256"
        }
      ],
      "name": "Voted",
      "type": "event"
    },
    {
      "inputs": [],
      "name": "completed",
      "outputs": [
        {
          "internalType": "bool",
          "name": "",
          "type": "bool"
        }
      ],
      "stateMutability": "view",
      "type": "function",
      "constant": true
    },
    {
      "inputs": [],
      "name": "end",
      "outputs": [
        {
          "internalType": "uint256",
          "name": "",
          "type": "uint256"
        }
      ],
      "stateMutability": "view",
      "type": "function",
      "constant": true
    },
    {
      "inputs": [],
      "name": "owner",
      "outputs": [
        {
          "internalType": "address",
          "name": "",
          "type": "address"
        }
      ],
      "stateMutability": "view",
      "type": "function",
      "constant": true
    },
    {
      "inputs": [],
      "name": "renounceOwnership",
      "outputs": [],
      "stateMutability": "nonpayable",
      "type": "function"
    },
    {
      "inputs": [],
      "name": "start",
      "outputs": [
        {
          "internalType": "uint256",
          "name": "",
          "type": "uint256"
        }
      ],
      "stateMutability": "view",
      "type": "function",
      "constant": true
    },
    {
      "inputs": [
        {
          "internalType": "address",
          "name": "newOwner",
          "type": "address"
        }
      ],
      "name": "transferOwnership",
      "outputs": [],
      "stateMutability": "nonpayable",
      "type": "function"
    },
    {
      "inputs": [],
      "name": "uniswapV2Pair",
      "outputs": [
        {
          "internalType": "address",
          "name": "",
          "type": "address"
        }
      ],
      "stateMutability": "view",
      "type": "function",
      "constant": true
    },
    {
      "inputs": [],
      "name": "uniswapV2Router",
      "outputs": [
        {
          "internalType": "contract IUniswapV2Router02",
          "name": "",
          "type": "address"
        }
      ],
      "stateMutability": "view",
      "type": "function",
      "constant": true
    },
    {
      "inputs": [
        {
          "internalType": "uint256",
          "name": "track_id",
          "type": "uint256"
        }
      ],
      "name": "participate",
      "outputs": [],
      "stateMutability": "nonpayable",
      "type": "function"
    },
    {
      "inputs": [
        {
          "internalType": "uint256",
          "name": "track_id",
          "type": "uint256"
        },
        {
          "internalType": "uint256",
          "name": "half_stars",
          "type": "uint256"
        }
      ],
      "name": "vote",
      "outputs": [],
      "stateMutability": "payable",
      "type": "function",
      "payable": true
    },
    {
      "inputs": [],
      "name": "getBalance",
      "outputs": [
        {
          "internalType": "uint256",
          "name": "",
          "type": "uint256"
        }
      ],
      "stateMutability": "view",
      "type": "function",
      "constant": true
    },
    {
      "inputs": [],
      "name": "getTokenBalance",
      "outputs": [
        {
          "internalType": "uint256",
          "name": "",
          "type": "uint256"
        }
      ],
      "stateMutability": "view",
      "type": "function",
      "constant": true
    },
    {
      "inputs": [],
      "name": "finalize",
      "outputs": [],
      "stateMutability": "nonpayable",
      "type": "function"
    },
    {
      "inputs": [],
      "name": "redeem",
      "outputs": [],
      "stateMutability": "nonpayable",
      "type": "function"
    }
  ],
  "bytecode": "0x60c06040523480156200001157600080fd5b50604051620033203803806200332083398181016040528101906200003791906200046c565b600062000049620003dc60201b60201c565b9050806000806101000a81548173ffffffffffffffffffffffffffffffffffffffff021916908373ffffffffffffffffffffffffffffffffffffffff1602179055508073ffffffffffffffffffffffffffffffffffffffff16600073ffffffffffffffffffffffffffffffffffffffff167f8be0079c531659141344cd1fd0a4f28419497f9722a3daafe3b4186f6b6457e060405160405180910390a35082600660006101000a81548173ffffffffffffffffffffffffffffffffffffffff021916908373ffffffffffffffffffffffffffffffffffffffff160217905550846001819055508360028190555081600760006101000a81548173ffffffffffffffffffffffffffffffffffffffff021916908373ffffffffffffffffffffffffffffffffffffffff160217905550670de0b6b3a7640000816200018d91906200052c565b600881905550600073d99d1c33f9fc3444f8101754abc46c52416550d190508073ffffffffffffffffffffffffffffffffffffffff1663c45a01556040518163ffffffff1660e01b815260040160206040518083038186803b158015620001f357600080fd5b505afa15801562000208573d6000803e3d6000fd5b505050506040513d601f19601f820116820180604052508101906200022e919062000440565b73ffffffffffffffffffffffffffffffffffffffff1663c9c65396600660009054906101000a900473ffffffffffffffffffffffffffffffffffffffff168373ffffffffffffffffffffffffffffffffffffffff1663ad5c46486040518163ffffffff1660e01b815260040160206040518083038186803b158015620002b357600080fd5b505afa158015620002c8573d6000803e3d6000fd5b505050506040513d601f19601f82011682018060405250810190620002ee919062000440565b6040518363ffffffff1660e01b81526004016200030d929190620004ff565b602060405180830381600087803b1580156200032857600080fd5b505af11580156200033d573d6000803e3d6000fd5b505050506040513d601f19601f8201168201806040525081019062000363919062000440565b73ffffffffffffffffffffffffffffffffffffffff1660a08173ffffffffffffffffffffffffffffffffffffffff1660601b815250508073ffffffffffffffffffffffffffffffffffffffff1660808173ffffffffffffffffffffffffffffffffffffffff1660601b815250505050505050506200069e565b600033905090565b600081519050620003f58162000636565b92915050565b6000815190506200040c8162000650565b92915050565b60008151905062000423816200066a565b92915050565b6000815190506200043a8162000684565b92915050565b6000602082840312156200045357600080fd5b60006200046384828501620003e4565b91505092915050565b600080600080600060a086880312156200048557600080fd5b6000620004958882890162000429565b9550506020620004a88882890162000429565b9450506040620004bb88828901620003fb565b9350506060620004ce8882890162000412565b9250506080620004e18882890162000429565b9150509295509295909350565b620004f9816200058d565b82525050565b6000604082019050620005166000830185620004ee565b620005256020830184620004ee565b9392505050565b60006200053982620005fd565b91506200054683620005fd565b9250817fffffffffffffffffffffffffffffffffffffffffffffffffffffffffffffffff048311821515161562000582576200058162000607565b5b828202905092915050565b60006200059a82620005dd565b9050919050565b6000620005ae82620005dd565b9050919050565b6000620005c282620005a1565b9050919050565b6000620005d6826200058d565b9050919050565b600073ffffffffffffffffffffffffffffffffffffffff82169050919050565b6000819050919050565b7f4e487b7100000000000000000000000000000000000000000000000000000000600052601160045260246000fd5b62000641816200058d565b81146200064d57600080fd5b50565b6200065b81620005b5565b81146200066757600080fd5b50565b6200067581620005c9565b81146200068157600080fd5b50565b6200068f81620005fd565b81146200069b57600080fd5b50565b60805160601c60a05160601c612c33620006ed600039600061031b0152600081816102f70152818161197801528181611ac901528181611b5c01528181611c330152611cc60152612c336000f3fe6080604052600436106100dd5760003560e01c80638da5cb5b1161007f578063be040fb011610059578063be040fb014610257578063be9a65551461026e578063efbe1c1c14610299578063f2fde38b146102c4576100dd565b80638da5cb5b146101e55780639d9a7fe914610210578063b384abef1461023b576100dd565b80634bb278f3116100bb5780634bb278f314610163578063715018a61461017a57806382b2e25714610191578063845c9306146101bc576100dd565b806312065fe0146100e25780631694505e1461010d57806349bd5a5e14610138575b600080fd5b3480156100ee57600080fd5b506100f76102ed565b60405161010491906125e2565b60405180910390f35b34801561011957600080fd5b506101226102f5565b60405161012f9190612467565b60405180910390f35b34801561014457600080fd5b5061014d610319565b60405161015a9190612302565b60405180910390f35b34801561016f57600080fd5b5061017861033d565b005b34801561018657600080fd5b5061018f6103ff565b005b34801561019d57600080fd5b506101a6610539565b6040516101b391906125e2565b60405180910390f35b3480156101c857600080fd5b506101e360048036038101906101de9190611fc5565b6105eb565b005b3480156101f157600080fd5b506101fa610a8e565b6040516102079190612302565b60405180910390f35b34801561021c57600080fd5b50610225610ab7565b604051610232919061244c565b60405180910390f35b61025560048036038101906102509190612017565b610aca565b005b34801561026357600080fd5b5061026c610d89565b005b34801561027a57600080fd5b50610283611018565b60405161029091906125e2565b60405180910390f35b3480156102a557600080fd5b506102ae61101e565b6040516102bb91906125e2565b60405180910390f35b3480156102d057600080fd5b506102eb60048036038101906102e69190611f4a565b611024565b005b600047905090565b7f000000000000000000000000000000000000000000000000000000000000000081565b7f000000000000000000000000000000000000000000000000000000000000000081565b6103456111cd565b73ffffffffffffffffffffffffffffffffffffffff16610363610a8e565b73ffffffffffffffffffffffffffffffffffffffff16146103b9576040517f08c379a00000000000000000000000000000000000000000000000000000000081526004016103b090612562565b60405180910390fd5b6103c16111d5565b6103c961121e565b7f3a1c562adcaaf034efbb5e822697a763f2f7d3943a4f41427d0ad2e5a240fed260405160405180910390a16103fd610d89565b565b6104076111cd565b73ffffffffffffffffffffffffffffffffffffffff16610425610a8e565b73ffffffffffffffffffffffffffffffffffffffff161461047b576040517f08c379a000000000000000000000000000000000000000000000000000000000815260040161047290612562565b60405180910390fd5b600073ffffffffffffffffffffffffffffffffffffffff1660008054906101000a900473ffffffffffffffffffffffffffffffffffffffff1673ffffffffffffffffffffffffffffffffffffffff167f8be0079c531659141344cd1fd0a4f28419497f9722a3daafe3b4186f6b6457e060405160405180910390a360008060006101000a81548173ffffffffffffffffffffffffffffffffffffffff021916908373ffffffffffffffffffffffffffffffffffffffff160217905550565b6000600660009054906101000a900473ffffffffffffffffffffffffffffffffffffffff1673ffffffffffffffffffffffffffffffffffffffff166370a08231306040518263ffffffff1660e01b81526004016105969190612302565b60206040518083038186803b1580156105ae57600080fd5b505afa1580156105c2573d6000803e3d6000fd5b505050506040513d601f19601f820116820180604052508101906105e69190611fee565b905090565b80600760009054906101000a900473ffffffffffffffffffffffffffffffffffffffff1673ffffffffffffffffffffffffffffffffffffffff16634f558e79826040518263ffffffff1660e01b815260040161064791906125e2565b60206040518083038186803b15801561065f57600080fd5b505afa158015610673573d6000803e3d6000fd5b505050506040513d601f19601f820116820180604052508101906106979190611f9c565b6106d6576040517f08c379a00000000000000000000000000000000000000000000000000000000081526004016106cd906125a2565b60405180910390fd5b6106ea8160046114e590919063ffffffff16565b1561072a576040517f08c379a0000000000000000000000000000000000000000000000000000000008152600401610721906124e2565b60405180910390fd5b600760009054906101000a900473ffffffffffffffffffffffffffffffffffffffff1673ffffffffffffffffffffffffffffffffffffffff16636352211e826040518263ffffffff1660e01b815260040161078591906125e2565b60206040518083038186803b15801561079d57600080fd5b505afa1580156107b1573d6000803e3d6000fd5b505050506040513d601f19601f820116820180604052508101906107d59190611f73565b73ffffffffffffffffffffffffffffffffffffffff163373ffffffffffffffffffffffffffffffffffffffff1614610842576040517f08c379a0000000000000000000000000000000000000000000000000000000008152600401610839906125c2565b60405180910390fd5b600854600660009054906101000a900473ffffffffffffffffffffffffffffffffffffffff1673ffffffffffffffffffffffffffffffffffffffff166370a08231336040518263ffffffff1660e01b81526004016108a09190612302565b60206040518083038186803b1580156108b857600080fd5b505afa1580156108cc573d6000803e3d6000fd5b505050506040513d601f19601f820116820180604052508101906108f09190611fee565b1015610931576040517f08c379a0000000000000000000000000000000000000000000000000000000008152600401610928906124c2565b60405180910390fd5b6109396114ff565b61094d8260046115f090919063ffffffff16565b506000600760009054906101000a900473ffffffffffffffffffffffffffffffffffffffff1673ffffffffffffffffffffffffffffffffffffffff16636352211e846040518263ffffffff1660e01b81526004016109ab91906125e2565b60206040518083038186803b1580156109c357600080fd5b505afa1580156109d7573d6000803e3d6000fd5b505050506040513d601f19601f820116820180604052508101906109fb9190611f73565b9050806003600085815260200190815260200160002060000160006101000a81548173ffffffffffffffffffffffffffffffffffffffff021916908373ffffffffffffffffffffffffffffffffffffffff1602179055507f66d0ee9ee580464eb06bb7adef164c593ad3173da5b9937511307bb4646d392e83604051610a8191906125e2565b60405180910390a1505050565b60008060009054906101000a900473ffffffffffffffffffffffffffffffffffffffff16905090565b600060149054906101000a900460ff1681565b6001544210158015610add575060025442105b610b1c576040517f08c379a0000000000000000000000000000000000000000000000000000000008152600401610b1390612502565b60405180910390fd5b8181610b328260046114e590919063ffffffff16565b610b71576040517f08c379a0000000000000000000000000000000000000000000000000000000008152600401610b6890612522565b60405180910390fd5b610b99336003600085815260200190815260200160002060020161160a90919063ffffffff16565b15610bd9576040517f08c379a0000000000000000000000000000000000000000000000000000000008152600401610bd090612542565b60405180910390fd5b600760009054906101000a900473ffffffffffffffffffffffffffffffffffffffff1673ffffffffffffffffffffffffffffffffffffffff16636352211e836040518263ffffffff1660e01b8152600401610c3491906125e2565b60206040518083038186803b158015610c4c57600080fd5b505afa158015610c60573d6000803e3d6000fd5b505050506040513d601f19601f82011682018060405250810190610c849190611f73565b73ffffffffffffffffffffffffffffffffffffffff163373ffffffffffffffffffffffffffffffffffffffff161415610cf2576040517f08c379a0000000000000000000000000000000000000000000000000000000008152600401610ce990612582565b60405180910390fd5b82600360008681526020019081526020016000206001016000828254610d1891906126ca565b92505081905550610d47336003600087815260200190815260200160002060020161163a90919063ffffffff16565b507fea66f58e474bc09f580000e81f31b334d171db387d0c6098ba47bd897741679b338585604051610d7b939291906123de565b60405180910390a150505050565b610d916111cd565b73ffffffffffffffffffffffffffffffffffffffff16610daf610a8e565b73ffffffffffffffffffffffffffffffffffffffff1614610e05576040517f08c379a0000000000000000000000000000000000000000000000000000000008152600401610dfc90612562565b60405180910390fd5b60003090506000600660009054906101000a900473ffffffffffffffffffffffffffffffffffffffff1673ffffffffffffffffffffffffffffffffffffffff166370a08231836040518263ffffffff1660e01b8152600401610e679190612302565b60206040518083038186803b158015610e7f57600080fd5b505afa158015610e93573d6000803e3d6000fd5b505050506040513d601f19601f82011682018060405250810190610eb79190611fee565b905060008273ffffffffffffffffffffffffffffffffffffffff16319050600660009054906101000a900473ffffffffffffffffffffffffffffffffffffffff1673ffffffffffffffffffffffffffffffffffffffff1663a9059cbb610f1b610a8e565b846040518363ffffffff1660e01b8152600401610f39929190612354565b602060405180830381600087803b158015610f5357600080fd5b505af1158015610f67573d6000803e3d6000fd5b505050506040513d601f19601f82011682018060405250810190610f8b9190611f9c565b50610f94610a8e565b73ffffffffffffffffffffffffffffffffffffffff166108fc829081150290604051600060405180830381858888f19350505050158015610fd9573d6000803e3d6000fd5b507f6f73b7b8d37df32ea60a45eadc8fc3d2d716d705ee099bd506817482ce847316828260405161100b929190612657565b60405180910390a1505050565b60015481565b60025481565b61102c6111cd565b73ffffffffffffffffffffffffffffffffffffffff1661104a610a8e565b73ffffffffffffffffffffffffffffffffffffffff16146110a0576040517f08c379a000000000000000000000000000000000000000000000000000000000815260040161109790612562565b60405180910390fd5b600073ffffffffffffffffffffffffffffffffffffffff168173ffffffffffffffffffffffffffffffffffffffff161415611110576040517f08c379a0000000000000000000000000000000000000000000000000000000008152600401611107906124a2565b60405180910390fd5b8073ffffffffffffffffffffffffffffffffffffffff1660008054906101000a900473ffffffffffffffffffffffffffffffffffffffff1673ffffffffffffffffffffffffffffffffffffffff167f8be0079c531659141344cd1fd0a4f28419497f9722a3daafe3b4186f6b6457e060405160405180910390a3806000806101000a81548173ffffffffffffffffffffffffffffffffffffffff021916908373ffffffffffffffffffffffffffffffffffffffff16021790555050565b600033905090565b6001600060146101000a81548160ff0219169083151502179055507f6823b073d48d6e3a7d385eeb601452d680e74bb46afe3255a7d778f3a9b1768160405160405180910390a1565b611226611ec7565b61122e611ec7565b611236611ec7565b61123e611ec7565b6000805b61124c600461166a565b8110156112da5761126781600461167f90919063ffffffff16565b915061129d6040518060400160405280848152602001600360008681526020019081526020016000206001015481525087611699565b80975081945050506112af8386611699565b80965081945050506112c18385611699565b90508094505080806112d29061286a565b915050611242565b5060003090506000600660009054906101000a900473ffffffffffffffffffffffffffffffffffffffff1673ffffffffffffffffffffffffffffffffffffffff166370a08231836040518263ffffffff1660e01b815260040161133d9190612302565b60206040518083038186803b15801561135557600080fd5b505afa158015611369573d6000803e3d6000fd5b505050506040513d601f19601f8201168201806040525081019061138d9190611fee565b905060008061139e60018a856116d2565b915091506000806113b160028b876116d2565b915091506000806113c460038c896116d2565b915091506113d98d6000015186886001611771565b6113ea8c6000015184866002611771565b6113fb8b6000015182846003611771565b600660009054906101000a900473ffffffffffffffffffffffffffffffffffffffff1673ffffffffffffffffffffffffffffffffffffffff166342966c68836040518263ffffffff1660e01b815260040161145691906125e2565b600060405180830381600087803b15801561147057600080fd5b505af1158015611484573d6000803e3d6000fd5b5050505060006002836114979190612720565b9050600047905060006002836114ad9190612720565b90506114b88161186b565b600082476114c691906127ab565b90506114d28282611bf2565b5050505050505050505050505050505050565b60006114f7836000018360001b611d89565b905092915050565b600660009054906101000a900473ffffffffffffffffffffffffffffffffffffffff1673ffffffffffffffffffffffffffffffffffffffff166323b872dd33306008546040518463ffffffff1660e01b81526004016115609392919061231d565b602060405180830381600087803b15801561157a57600080fd5b505af115801561158e573d6000803e3d6000fd5b505050506040513d601f19601f820116820180604052508101906115b29190611f9c565b507f2899dc8c12def1caa9accb64257cf2fd9f960f21bb27a560a757eae3c2ec43c1336008546040516115e6929190612354565b60405180910390a1565b6000611602836000018360001b611dac565b905092915050565b6000611632836000018373ffffffffffffffffffffffffffffffffffffffff1660001b611d89565b905092915050565b6000611662836000018373ffffffffffffffffffffffffffffffffffffffff1660001b611dac565b905092915050565b600061167882600001611e1c565b9050919050565b600061168e8360000183611e2d565b60001c905092915050565b6116a1611ec7565b6116a9611ec7565b8260200151846020015111156116c4578284915091506116cb565b8383915091505b9250929050565b60008060006103e860018760ff16146116ff5760028760ff16146116f75760016116fa565b60025b611702565b60035b60ff16607d866117129190612751565b61171c9190612751565b6117269190612720565b905080600360008760000151815260200190815260200160002060000160009054906101000a900473ffffffffffffffffffffffffffffffffffffffff169250925050935093915050565b6000841461186557600660009054906101000a900473ffffffffffffffffffffffffffffffffffffffff1673ffffffffffffffffffffffffffffffffffffffff1663a9059cbb84846040518363ffffffff1660e01b81526004016117d6929190612354565b602060405180830381600087803b1580156117f057600080fd5b505af1158015611804573d6000803e3d6000fd5b505050506040513d601f19601f820116820180604052508101906118289190611f9c565b507fb2621353d34e1ffdf580271ba22561cf19321217d27aed3a76d75a6bd58d58b583838360405161185c93929190612415565b60405180910390a15b50505050565b6000600267ffffffffffffffff8111156118ae577f4e487b7100000000000000000000000000000000000000000000000000000000600052604160045260246000fd5b6040519080825280602002602001820160405280156118dc5781602001602082028036833780820191505090505b509050600660009054906101000a900473ffffffffffffffffffffffffffffffffffffffff168160008151811061193c577f4e487b7100000000000000000000000000000000000000000000000000000000600052603260045260246000fd5b602002602001019073ffffffffffffffffffffffffffffffffffffffff16908173ffffffffffffffffffffffffffffffffffffffff16815250507f000000000000000000000000000000000000000000000000000000000000000073ffffffffffffffffffffffffffffffffffffffff1663ad5c46486040518163ffffffff1660e01b815260040160206040518083038186803b1580156119dc57600080fd5b505afa1580156119f0573d6000803e3d6000fd5b505050506040513d601f19601f82011682018060405250810190611a149190611f73565b81600181518110611a4e577f4e487b7100000000000000000000000000000000000000000000000000000000600052603260045260246000fd5b602002602001019073ffffffffffffffffffffffffffffffffffffffff16908173ffffffffffffffffffffffffffffffffffffffff1681525050600660009054906101000a900473ffffffffffffffffffffffffffffffffffffffff1673ffffffffffffffffffffffffffffffffffffffff166352ec8529307f0000000000000000000000000000000000000000000000000000000000000000856040518463ffffffff1660e01b8152600401611b079392919061231d565b602060405180830381600087803b158015611b2157600080fd5b505af1158015611b35573d6000803e3d6000fd5b505050506040513d601f19601f82011682018060405250810190611b599190611f9c565b507f000000000000000000000000000000000000000000000000000000000000000073ffffffffffffffffffffffffffffffffffffffff1663791ac9478360008430426040518663ffffffff1660e01b8152600401611bbc9594939291906125fd565b600060405180830381600087803b158015611bd657600080fd5b505af1158015611bea573d6000803e3d6000fd5b505050505050565b600660009054906101000a900473ffffffffffffffffffffffffffffffffffffffff1673ffffffffffffffffffffffffffffffffffffffff166352ec8529307f0000000000000000000000000000000000000000000000000000000000000000856040518463ffffffff1660e01b8152600401611c719392919061231d565b602060405180830381600087803b158015611c8b57600080fd5b505af1158015611c9f573d6000803e3d6000fd5b505050506040513d601f19601f82011682018060405250810190611cc39190611f9c565b507f000000000000000000000000000000000000000000000000000000000000000073ffffffffffffffffffffffffffffffffffffffff1663f305d719823085600080611d0e610a8e565b426040518863ffffffff1660e01b8152600401611d309695949392919061237d565b6060604051808303818588803b158015611d4957600080fd5b505af1158015611d5d573d6000803e3d6000fd5b50505050506040513d601f19601f82011682018060405250810190611d829190612053565b5050505050565b600080836001016000848152602001908152602001600020541415905092915050565b6000611db88383611d89565b611e11578260000182908060018154018082558091505060019003906000526020600020016000909190919091505582600001805490508360010160008481526020019081526020016000208190555060019050611e16565b600090505b92915050565b600081600001805490509050919050565b600081836000018054905011611e78576040517f08c379a0000000000000000000000000000000000000000000000000000000008152600401611e6f90612482565b60405180910390fd5b826000018281548110611eb4577f4e487b7100000000000000000000000000000000000000000000000000000000600052603260045260246000fd5b9060005260206000200154905092915050565b604051806040016040528060008152602001600081525090565b600081359050611ef081612bb8565b92915050565b600081519050611f0581612bb8565b92915050565b600081519050611f1a81612bcf565b92915050565b600081359050611f2f81612be6565b92915050565b600081519050611f4481612be6565b92915050565b600060208284031215611f5c57600080fd5b6000611f6a84828501611ee1565b91505092915050565b600060208284031215611f8557600080fd5b6000611f9384828501611ef6565b91505092915050565b600060208284031215611fae57600080fd5b6000611fbc84828501611f0b565b91505092915050565b600060208284031215611fd757600080fd5b6000611fe584828501611f20565b91505092915050565b60006020828403121561200057600080fd5b600061200e84828501611f35565b91505092915050565b6000806040838503121561202a57600080fd5b600061203885828601611f20565b925050602061204985828601611f20565b9150509250929050565b60008060006060848603121561206857600080fd5b600061207686828701611f35565b935050602061208786828701611f35565b925050604061209886828701611f35565b9150509250925092565b60006120ae83836120ba565b60208301905092915050565b6120c3816127df565b82525050565b6120d2816127df565b82525050565b60006120e382612690565b6120ed81856126a8565b93506120f883612680565b8060005b8381101561212957815161211088826120a2565b975061211b8361269b565b9250506001810190506120fc565b5085935050505092915050565b61213f816127f1565b82525050565b61214e81612834565b82525050565b61215d81612858565b82525050565b60006121706022836126b9565b915061217b82612911565b604082019050919050565b60006121936026836126b9565b915061219e82612960565b604082019050919050565b60006121b6602f836126b9565b91506121c1826129af565b604082019050919050565b60006121d96026836126b9565b91506121e4826129fe565b604082019050919050565b60006121fc6014836126b9565b915061220782612a4d565b602082019050919050565b600061221f602a836126b9565b915061222a82612a76565b604082019050919050565b60006122426013836126b9565b915061224d82612ac5565b602082019050919050565b60006122656020836126b9565b915061227082612aee565b602082019050919050565b6000612288601a836126b9565b915061229382612b17565b602082019050919050565b60006122ab6014836126b9565b91506122b682612b40565b602082019050919050565b60006122ce6021836126b9565b91506122d982612b69565b604082019050919050565b6122ed8161281d565b82525050565b6122fc81612827565b82525050565b600060208201905061231760008301846120c9565b92915050565b600060608201905061233260008301866120c9565b61233f60208301856120c9565b61234c60408301846122e4565b949350505050565b600060408201905061236960008301856120c9565b61237660208301846122e4565b9392505050565b600060c08201905061239260008301896120c9565b61239f60208301886122e4565b6123ac6040830187612154565b6123b96060830186612154565b6123c660808301856120c9565b6123d360a08301846122e4565b979650505050505050565b60006060820190506123f360008301866120c9565b61240060208301856122e4565b61240d60408301846122e4565b949350505050565b600060608201905061242a60008301866120c9565b61243760208301856122e4565b61244460408301846122f3565b949350505050565b60006020820190506124616000830184612136565b92915050565b600060208201905061247c6000830184612145565b92915050565b6000602082019050818103600083015261249b81612163565b9050919050565b600060208201905081810360008301526124bb81612186565b9050919050565b600060208201905081810360008301526124db816121a9565b9050919050565b600060208201905081810360008301526124fb816121cc565b9050919050565b6000602082019050818103600083015261251b816121ef565b9050919050565b6000602082019050818103600083015261253b81612212565b9050919050565b6000602082019050818103600083015261255b81612235565b9050919050565b6000602082019050818103600083015261257b81612258565b9050919050565b6000602082019050818103600083015261259b8161227b565b9050919050565b600060208201905081810360008301526125bb8161229e565b9050919050565b600060208201905081810360008301526125db816122c1565b9050919050565b60006020820190506125f760008301846122e4565b92915050565b600060a08201905061261260008301886122e4565b61261f6020830187612154565b818103604083015261263181866120d8565b905061264060608301856120c9565b61264d60808301846122e4565b9695505050505050565b600060408201905061266c60008301856122e4565b61267960208301846122e4565b9392505050565b6000819050602082019050919050565b600081519050919050565b6000602082019050919050565b600082825260208201905092915050565b600082825260208201905092915050565b60006126d58261281d565b91506126e08361281d565b9250827fffffffffffffffffffffffffffffffffffffffffffffffffffffffffffffffff03821115612715576127146128b3565b5b828201905092915050565b600061272b8261281d565b91506127368361281d565b925082612746576127456128e2565b5b828204905092915050565b600061275c8261281d565b91506127678361281d565b9250817fffffffffffffffffffffffffffffffffffffffffffffffffffffffffffffffff04831182151516156127a05761279f6128b3565b5b828202905092915050565b60006127b68261281d565b91506127c18361281d565b9250828210156127d4576127d36128b3565b5b828203905092915050565b60006127ea826127fd565b9050919050565b60008115159050919050565b600073ffffffffffffffffffffffffffffffffffffffff82169050919050565b6000819050919050565b600060ff82169050919050565b600061283f82612846565b9050919050565b6000612851826127fd565b9050919050565b60006128638261281d565b9050919050565b60006128758261281d565b91507fffffffffffffffffffffffffffffffffffffffffffffffffffffffffffffffff8214156128a8576128a76128b3565b5b600182019050919050565b7f4e487b7100000000000000000000000000000000000000000000000000000000600052601160045260246000fd5b7f4e487b7100000000000000000000000000000000000000000000000000000000600052601260045260246000fd5b7f456e756d657261626c655365743a20696e646578206f7574206f6620626f756e60008201527f6473000000000000000000000000000000000000000000000000000000000000602082015250565b7f4f776e61626c653a206e6577206f776e657220697320746865207a65726f206160008201527f6464726573730000000000000000000000000000000000000000000000000000602082015250565b7f4e6f7420656e6f7567682066756e647320746f2070617274696369706174652060008201527f77697468207468697320747261636b0000000000000000000000000000000000602082015250565b7f547261636b20616c7265616479206d61726b656420666f72207061727469636960008201527f706174696f6e0000000000000000000000000000000000000000000000000000602082015250565b7f436f6e7472616374206e6f742072756e6e696e67000000000000000000000000600082015250565b7f547261636b206973206e6f742070617274696369706174696e6720746f20746860008201527f6520656c656374696f6e00000000000000000000000000000000000000000000602082015250565b7f547261636b20616c726561647920766f74656400000000000000000000000000600082015250565b7f4f776e61626c653a2063616c6c6572206973206e6f7420746865206f776e6572600082015250565b7f43616e6e6f7420766f746520796f7572206f776e20747261636b000000000000600082015250565b7f547261636b20646f6573206e6f74206578697374000000000000000000000000600082015250565b7f596f752063616e207265676973746572206f6e6c7920796f757220747261636b60008201527f7300000000000000000000000000000000000000000000000000000000000000602082015250565b612bc1816127df565b8114612bcc57600080fd5b50565b612bd8816127f1565b8114612be357600080fd5b50565b612bef8161281d565b8114612bfa57600080fd5b5056fea2646970667358221220053d4d46eb5672bb1d2f8208fbe4429291ac7d69ab69866fde22804892f9d57d64736f6c63430008010033",
  "immutableReferences": {
    "1435": [
      {
        "length": 32,
        "start": 759
      },
      {
        "length": 32,
        "start": 6520
      },
      {
        "length": 32,
        "start": 6857
      },
      {
        "length": 32,
        "start": 7004
      },
      {
        "length": 32,
        "start": 7219
      },
      {
        "length": 32,
        "start": 7366
      }
    ],
    "1437": [
      {
        "length": 32,
        "start": 795
      }
    ]
  },
  "source": "// SPDX-License-Identifier: MIT\npragma solidity ^0.8.0;\n\nimport \"./Melody.sol\";\nimport \"./CommonModifier.sol\";\nimport \"./Track.sol\";\nimport \"@openzeppelin/contracts/utils/math/SafeMath.sol\";\nimport \"@openzeppelin/contracts/access/Ownable.sol\";\nimport \"@openzeppelin/contracts/utils/structs/EnumerableSet.sol\";\nimport \"./interfaces/IUniswapV2Factory.sol\";\nimport \"./interfaces/IUniswapV2Pair.sol\";\nimport \"./interfaces/IUniswapV2Router01.sol\";\nimport \"./interfaces/IUniswapV2Router02.sol\";\n\ncontract TrackElection is Ownable, CommonModifier {\n    using SafeMath for uint256;\n\tusing EnumerableSet for EnumerableSet.AddressSet;\n\tusing EnumerableSet for EnumerableSet.UintSet;\n\n\tevent Voted(address voter, uint256 track_id, uint256 half_stars);\n\tevent FeePayed(address payer, uint256 fee);\n\tevent Redeemed(uint256 token_amount, uint256 eth_amount);\n\tevent PrizeForMusician(address musician, uint256 prize, uint8 position);\n\tevent PrizeForInvestor(address investor, uint256 prize, uint8 position);\n\tevent AllPrizesDistributed();\n\tevent NewParticipant(uint256 track_id);\n\n\tstruct Song {\n\t\taddress owner;\n\t\tuint256 votes;\n\t\tEnumerableSet.AddressSet voters;\n\t}\n\n\tstruct Ranking {\n\t\tuint256 track_id;\n\t\tuint256 votes;\n\t}\n\n\t// track => { owner, votes, voters }\n\tmapping(uint256 => Song) internal participants;\n\tEnumerableSet.UintSet internal participating_tracks;\n\n\tMelody internal token;\n\tTrack internal track;\n\tuint256 internal participation_fee;\n\tIUniswapV2Router02 public immutable uniswapV2Router;\n    address public immutable uniswapV2Pair;\n\n\tmodifier canVote(uint256 track_id, uint256 half_stars) {\n\t\trequire(participating_tracks.contains(track_id), \"Track is not participating to the election\");\n\t\trequire(!participants[track_id].voters.contains(msg.sender), \"Track already voted\");\n\t\trequire(msg.sender != track.ownerOf(track_id), \"Cannot vote your own track\");\n\t\t_;\n\t}\n\n\tmodifier canParticipate(uint256 track_id) {\n\t\trequire(track.exists(track_id), \"Track does not exist\");\n\t\trequire(!participating_tracks.contains(track_id), \"Track already marked for participation\");\n\t\trequire(msg.sender == track.ownerOf(track_id), \"You can register only your tracks\");\n\t\trequire(token.balanceOf(msg.sender) >= participation_fee, \"Not enough funds to participate with this track\");\n\t\t_;\n\t}\n\n\tconstructor(\n\t\tuint256 _start, \n\t\tuint256 _end, \n\t\tMelody _token, \n\t\tTrack _track, \n\t\tuint256 _participation_fee\n\t) {\n\t\ttoken = _token;\n\t\tstart = _start;\n\t\tend = _end;\n\t\ttrack = _track;\n\t\tparticipation_fee = _participation_fee * 1 ether;\n\n\t\t// Swap and append to PancakeSwap LP\n\n\t\t// PancakeSwap TestNet router: 0xD99D1c33F9fC3444f8101754aBC46c52416550D1\n\t\t// PancakeSwap MainNet router: 0x05fF2B0DB69458A0750badebc4f9e13aDd608C7F\n\t\tIUniswapV2Router02 _uniswapV2Router = IUniswapV2Router02(0xD99D1c33F9fC3444f8101754aBC46c52416550D1);\n\n         // Create a uniswap pair for this new token\n        uniswapV2Pair = IUniswapV2Factory(_uniswapV2Router.factory())\n            .createPair(address(token), _uniswapV2Router.WETH());\n\n        // set the rest of the contract variables\n        uniswapV2Router = _uniswapV2Router;\n\t}\n\n\tfunction payVoteFee(uint256 vote_value) internal {}\n\n\tfunction payParticipationFee() internal {\n\t\ttoken.transferFrom(msg.sender, address(this), participation_fee);\n\n\t\temit FeePayed(msg.sender, participation_fee);\n\t}\n\n\tfunction participate(uint256 track_id) public canParticipate(track_id) {\n\t\tpayParticipationFee();\n\n\t\tparticipating_tracks.add(track_id);\n\n\t\t// Check if the track owner is changed or if it null and update it\n\t\taddress track_owner = track.ownerOf(track_id);\n\t\t// Avoid checking for difference to reduce gas fee\n\t\tparticipants[track_id].owner = track_owner;\n\n\t\temit NewParticipant(track_id);\n\t}\n\n\tfunction vote(uint256 track_id, uint256 half_stars) public whenRunning canVote(track_id, half_stars) payable {\t\n\t\tparticipants[track_id].votes += half_stars;\n\n\t\t// Add the address of the voter to the set of voters if not yet present\n\t\tparticipants[track_id].voters.add(msg.sender);\n\n\t\t// Addition of tokens is made always in the backend, here will be added 10 MELD\n\t\t// The logic for the song completion check will be done on the backend\n\t\t// and the tokens will be issued by a backend call, the backend will proxy this call only\n\t\t// if the song was listened completely, in that case msg.sender will receive 20 MELD \n\n\t\temit Voted(msg.sender, track_id, half_stars);\n\t} \n\n\tfunction getBalance() public view returns(uint256) { return address(this).balance; }\n\tfunction getTokenBalance() public view returns(uint256) { return token.balanceOf(address(this)); }\n\n\tfunction finalize() public onlyOwner /*whenClosed*/ {\n\t\t_finalize();\n\t\t_distribute();\n\n\t\temit AllPrizesDistributed();\n\n\t\tredeem();\n\t}\n\n\tfunction _swapTrack(Ranking memory new_ranking, Ranking memory old_ranking) internal pure returns(Ranking memory, Ranking memory) {\n\t\tif(new_ranking.votes > old_ranking.votes) {\n\t\t\treturn (old_ranking, new_ranking);\n\t\t}\n\t\treturn (new_ranking, old_ranking);\n\t}\n\n\tfunction _distribute() internal {       \n\t\tRanking memory first_place;\n\t\tRanking memory second_place;\n\t\tRanking memory third_place;\n\t\tRanking memory old;\n\n\t\tuint256 track_id;\n\n\t\tfor(uint256 i; i < participating_tracks.length(); i++) {\n\t\t\t// caches the current track_id\n\t\t\ttrack_id = participating_tracks.at(i);\n\n\t\t\t// Check if current track has more votes than the first one, in case swap them\n\t\t\t(old, first_place) = _swapTrack(\n\t\t\t\tRanking({\n\t\t\t\t\tvotes: participants[track_id].votes, \n\t\t\t\t\ttrack_id: track_id\n\t\t\t\t}), \n\t\t\t\tfirst_place\n\t\t\t);\n\n\t\t\t// Check if the track with less votes in the previous step has more votes than \n\t\t\t// the one marked as second, in case swap them\n\t\t\t(old, second_place) = _swapTrack(old, second_place);\n\n\t\t\t// Check if the track with less votes in the previous step has more votes than \n\t\t\t// the one marked as third, in case swap them, the one with less votes is simply\n\t\t\t// trashed\n\t\t\t(, third_place) = _swapTrack(old, third_place);\n\t\t}\n\n\t\taddress addr = address(this);\n\t\tuint256 balance = token.balanceOf(addr);\n\t\t(uint256 first_place_prize, address first_place_address) = _computeMusicianPrize(1, first_place, balance);\n\t\t(uint256 second_place_prize, address second_place_address) = _computeMusicianPrize(2, second_place, balance);\n\t\t(uint256 third_place_prize, address third_place_address) = _computeMusicianPrize(3, third_place, balance);\n\n\t\t// Send the prizes to the winners and investors\n\t\t_sendPrize(first_place.track_id, first_place_address, first_place_prize, 1);\n\t\t_sendPrize(second_place.track_id, second_place_address, second_place_prize, 2);\n\t\t_sendPrize(third_place.track_id, third_place_address, third_place_prize, 3);\n\n\t\t// burn 12.5% of the remaining prize (equal to the one of the 3rd classified)\n\t\ttoken.burn(third_place_prize);\n\t\t\n\t\t// 12.5% => 50% platform fee, 50% LP\n\t\tuint256 half = third_place_prize / 2;\n\t\t// NOTE: half is left on the contract as after the call to _distribute there is an automated call to\n\t\t// NOTE: redeem\n\n\t\t// TODO: Handle the transfer to the LP (PanckakeSwap)\n\t\tuint256 initialBalance = address(this).balance;\n\t\tuint256 change = half / 2;\n\t\t// Swap 50% of the left amount in ETH so that can be added to the LP\n\t\tswap(change);\n\t\tuint256 newBalance = address(this).balance - initialBalance;\n\t\taddToLP(change, newBalance);\n\t}\n\n\tfunction _computeMusicianPrize(uint8 position, Ranking memory ranking, uint256 balance) internal view returns(uint256, address) {\n\t\t// Compute the price for the chosen position\n\t\t// 1 --> 37.5%\n\t\t// 2 --> 25.0%\n\t\t// 3 --> 12.5%\n\t\tuint256 prize = (balance * 125 * (position == 1 ? 3 : (position == 2 ? 2 : 1))) / 1000;\n\n\t\treturn (prize, participants[ranking.track_id].owner);\n\t}\n\n\tfunction _sendPrize(\n\t\tuint256 track_id, \n\t\taddress addr, \n\t\tuint256 prize, \n\t\tuint8 position\n\t) internal {\n\t\t// Track id = 0 will never exist so if it is null the position is not filled\n\t\tif(track_id != 0) {\n\t\t\t// send prize to the winner\n\t\t\ttoken.transfer(addr, prize);\n\n\t\t\temit PrizeForMusician(addr, prize, position);\n\t\t}\n\t}\n\n\tfunction redeem() public onlyOwner /*whenClosed*/ {\n\t\taddress addr = address(this);\n\t\tuint256 token_amount = token.balanceOf(addr);\n\t\tuint256 eth_amount = addr.balance;\n\n\t\t// Transfer all the tokens (and ether if someone sent it) to the owner\n\t\ttoken.transfer(owner(), token_amount);\n\t\tpayable(owner()).transfer(eth_amount);\n\n\t\temit Redeemed(token_amount, eth_amount);\n\t}\n\n\tfunction swap(uint256 amount) internal {\n\t\t// generate the uniswap pair path of token -> weth\n        address[] memory path = new address[](2);\n        path[0] = address(token);\n        path[1] = uniswapV2Router.WETH();\n\n\t\t// approve token transfer to cover all possible scenarios\n\t\ttoken.approveFrom(address(this), address(uniswapV2Router), amount);\n\n\t\t// make the swap\n        uniswapV2Router.swapExactTokensForETHSupportingFeeOnTransferTokens(\n            amount,\n            0, // accept any amount of ETH\n            path,\n            address(this),\n            block.timestamp\n        );\n\t}\n\n\tfunction addToLP(uint256 tk_amount, uint256 eth_amount) internal {\n\t\t// approve token transfer to cover all possible scenarios\n\t\ttoken.approveFrom(address(this), address(uniswapV2Router), tk_amount);\n\n\t\t// add the liquidity\n        uniswapV2Router.addLiquidityETH{value: eth_amount}(\n            address(this),\n            tk_amount,\n            0, // slippage is unavoidable\n            0, // slippage is unavoidable\n            owner(),\n            block.timestamp\n        );\n\t}\n}",
  "sourcePath": "/home/ebalo/Desktop/Projects/blockchain/block-chain/contracts/TrackElection.sol",
  "compiler": {
    "name": "solc",
    "version": "0.8.1+commit.df193b15.Emscripten.clang"
  },
  "schemaVersion": "3.4.1",
  "updatedAt": "2021-05-18T07:52:13.509Z",
  "networkType": "ethereum",
  "devdoc": {
    "kind": "dev",
    "methods": {
      "owner()": {
        "details": "Returns the address of the current owner."
      },
      "renounceOwnership()": {
        "details": "Leaves the contract without owner. It will not be possible to call `onlyOwner` functions anymore. Can only be called by the current owner. NOTE: Renouncing ownership will leave the contract without an owner, thereby removing any functionality that is only available to the owner."
      },
      "transferOwnership(address)": {
        "details": "Transfers ownership of the contract to a new account (`newOwner`). Can only be called by the current owner."
      }
    },
    "version": 1
  },
  "userdoc": {
    "kind": "user",
    "methods": {},
    "version": 1
  }
}