{
  "contractName": "TrackElection",
  "abi": [
    {
      "inputs": [
        {
          "internalType": "uint256",
          "name": "_start",
          "type": "uint256"
        },
        {
          "internalType": "uint256",
          "name": "_end",
          "type": "uint256"
        },
        {
          "internalType": "contract Melody",
          "name": "_token",
          "type": "address"
        },
        {
          "internalType": "contract Track",
          "name": "_track",
          "type": "address"
        },
        {
          "internalType": "uint256",
          "name": "_half_star_value",
          "type": "uint256"
        },
        {
          "internalType": "uint256",
          "name": "_prize_fee",
          "type": "uint256"
        }
      ],
      "stateMutability": "nonpayable",
      "type": "constructor"
    },
    {
      "anonymous": false,
      "inputs": [],
      "name": "AllPrizesDistributed",
      "type": "event"
    },
    {
      "anonymous": false,
      "inputs": [
        {
          "indexed": false,
          "internalType": "address",
          "name": "payer",
          "type": "address"
        },
        {
          "indexed": false,
          "internalType": "uint256",
          "name": "fee",
          "type": "uint256"
        }
      ],
      "name": "FeePayed",
      "type": "event"
    },
    {
      "anonymous": false,
      "inputs": [],
      "name": "Finalized",
      "type": "event"
    },
    {
      "anonymous": false,
      "inputs": [
        {
          "indexed": true,
          "internalType": "address",
          "name": "previousOwner",
          "type": "address"
        },
        {
          "indexed": true,
          "internalType": "address",
          "name": "newOwner",
          "type": "address"
        }
      ],
      "name": "OwnershipTransferred",
      "type": "event"
    },
    {
      "anonymous": false,
      "inputs": [
        {
          "indexed": false,
          "internalType": "address",
          "name": "investor",
          "type": "address"
        },
        {
          "indexed": false,
          "internalType": "uint256",
          "name": "prize",
          "type": "uint256"
        },
        {
          "indexed": false,
          "internalType": "uint8",
          "name": "position",
          "type": "uint8"
        }
      ],
      "name": "PrizeForInvestor",
      "type": "event"
    },
    {
      "anonymous": false,
      "inputs": [
        {
          "indexed": false,
          "internalType": "address",
          "name": "musician",
          "type": "address"
        },
        {
          "indexed": false,
          "internalType": "uint256",
          "name": "prize",
          "type": "uint256"
        },
        {
          "indexed": false,
          "internalType": "uint8",
          "name": "position",
          "type": "uint8"
        }
      ],
      "name": "PrizeForMusician",
      "type": "event"
    },
    {
      "anonymous": false,
      "inputs": [
        {
          "indexed": false,
          "internalType": "uint256",
          "name": "token_amount",
          "type": "uint256"
        },
        {
          "indexed": false,
          "internalType": "uint256",
          "name": "eth_amount",
          "type": "uint256"
        }
      ],
      "name": "Redeemed",
      "type": "event"
    },
    {
      "anonymous": false,
      "inputs": [
        {
          "indexed": false,
          "internalType": "address",
          "name": "voter",
          "type": "address"
        },
        {
          "indexed": false,
          "internalType": "uint256",
          "name": "track_id",
          "type": "uint256"
        },
        {
          "indexed": false,
          "internalType": "uint256",
          "name": "half_stars",
          "type": "uint256"
        }
      ],
      "name": "Voted",
      "type": "event"
    },
    {
      "inputs": [],
      "name": "completed",
      "outputs": [
        {
          "internalType": "bool",
          "name": "",
          "type": "bool"
        }
      ],
      "stateMutability": "view",
      "type": "function",
      "constant": true
    },
    {
      "inputs": [],
      "name": "end",
      "outputs": [
        {
          "internalType": "uint256",
          "name": "",
          "type": "uint256"
        }
      ],
      "stateMutability": "view",
      "type": "function",
      "constant": true
    },
    {
      "inputs": [],
      "name": "owner",
      "outputs": [
        {
          "internalType": "address",
          "name": "",
          "type": "address"
        }
      ],
      "stateMutability": "view",
      "type": "function",
      "constant": true
    },
    {
      "inputs": [],
      "name": "renounceOwnership",
      "outputs": [],
      "stateMutability": "nonpayable",
      "type": "function"
    },
    {
      "inputs": [],
      "name": "start",
      "outputs": [
        {
          "internalType": "uint256",
          "name": "",
          "type": "uint256"
        }
      ],
      "stateMutability": "view",
      "type": "function",
      "constant": true
    },
    {
      "inputs": [
        {
          "internalType": "address",
          "name": "newOwner",
          "type": "address"
        }
      ],
      "name": "transferOwnership",
      "outputs": [],
      "stateMutability": "nonpayable",
      "type": "function"
    },
    {
      "inputs": [
        {
          "internalType": "uint256",
          "name": "track_id",
          "type": "uint256"
        },
        {
          "internalType": "uint256",
          "name": "half_stars",
          "type": "uint256"
        }
      ],
      "name": "vote",
      "outputs": [],
      "stateMutability": "payable",
      "type": "function",
      "payable": true
    },
    {
      "inputs": [],
      "name": "getBalance",
      "outputs": [
        {
          "internalType": "uint256",
          "name": "",
          "type": "uint256"
        }
      ],
      "stateMutability": "view",
      "type": "function",
      "constant": true
    },
    {
      "inputs": [],
      "name": "getTokenBalance",
      "outputs": [
        {
          "internalType": "uint256",
          "name": "",
          "type": "uint256"
        }
      ],
      "stateMutability": "view",
      "type": "function",
      "constant": true
    },
    {
      "inputs": [],
      "name": "finalize",
      "outputs": [],
      "stateMutability": "nonpayable",
      "type": "function"
    },
    {
      "inputs": [],
      "name": "redeem",
      "outputs": [],
      "stateMutability": "nonpayable",
      "type": "function"
    }
  ],
  "bytecode": "0x60806040523480156200001157600080fd5b5060405162002591380380620025918339818101604052810190620000379190620001f3565b600062000049620001a660201b60201c565b9050806000806101000a81548173ffffffffffffffffffffffffffffffffffffffff021916908373ffffffffffffffffffffffffffffffffffffffff1602179055508073ffffffffffffffffffffffffffffffffffffffff16600073ffffffffffffffffffffffffffffffffffffffff167f8be0079c531659141344cd1fd0a4f28419497f9722a3daafe3b4186f6b6457e060405160405180910390a35083600660006101000a81548173ffffffffffffffffffffffffffffffffffffffff021916908373ffffffffffffffffffffffffffffffffffffffff160217905550670de0b6b3a7640000826200013e919062000289565b600881905550856001819055508460028190555082600760006101000a81548173ffffffffffffffffffffffffffffffffffffffff021916908373ffffffffffffffffffffffffffffffffffffffff16021790555080600981905550505050505050620003cd565b600033905090565b600081519050620001bf816200037f565b92915050565b600081519050620001d68162000399565b92915050565b600081519050620001ed81620003b3565b92915050565b60008060008060008060c087890312156200020d57600080fd5b60006200021d89828a01620001dc565b96505060206200023089828a01620001dc565b95505060406200024389828a01620001ae565b94505060606200025689828a01620001c5565b93505060806200026989828a01620001dc565b92505060a06200027c89828a01620001dc565b9150509295509295509295565b6000620002968262000346565b9150620002a38362000346565b9250817fffffffffffffffffffffffffffffffffffffffffffffffffffffffffffffffff0483118215151615620002df57620002de62000350565b5b828202905092915050565b6000620002f78262000326565b9050919050565b60006200030b82620002ea565b9050919050565b60006200031f82620002ea565b9050919050565b600073ffffffffffffffffffffffffffffffffffffffff82169050919050565b6000819050919050565b7f4e487b7100000000000000000000000000000000000000000000000000000000600052601160045260246000fd5b6200038a81620002fe565b81146200039657600080fd5b50565b620003a48162000312565b8114620003b057600080fd5b50565b620003be8162000346565b8114620003ca57600080fd5b50565b6121b480620003dd6000396000f3fe60806040526004361061009c5760003560e01c80639d9a7fe9116100645780639d9a7fe914610150578063b384abef1461017b578063be040fb014610197578063be9a6555146101ae578063efbe1c1c146101d9578063f2fde38b146102045761009c565b806312065fe0146100a15780634bb278f3146100cc578063715018a6146100e357806382b2e257146100fa5780638da5cb5b14610125575b600080fd5b3480156100ad57600080fd5b506100b661022d565b6040516100c39190611cf3565b60405180910390f35b3480156100d857600080fd5b506100e1610235565b005b3480156100ef57600080fd5b506100f861033c565b005b34801561010657600080fd5b5061010f610476565b60405161011c9190611cf3565b60405180910390f35b34801561013157600080fd5b5061013a610528565b6040516101479190611aef565b60405180910390f35b34801561015c57600080fd5b50610165610551565b6040516101729190611bd8565b60405180910390f35b6101956004803603810190610190919061195f565b610564565b005b3480156101a357600080fd5b506101ac610a28565b005b3480156101ba57600080fd5b506101c3610c43565b6040516101d09190611cf3565b60405180910390f35b3480156101e557600080fd5b506101ee610c49565b6040516101fb9190611cf3565b60405180910390f35b34801561021057600080fd5b5061022b600480360381019061022691906118bb565b610c4f565b005b600047905090565b61023d610df8565b73ffffffffffffffffffffffffffffffffffffffff1661025b610528565b73ffffffffffffffffffffffffffffffffffffffff16146102b1576040517f08c379a00000000000000000000000000000000000000000000000000000000081526004016102a890611cb3565b60405180910390fd5b6002544210156102f6576040517f08c379a00000000000000000000000000000000000000000000000000000000081526004016102ed90611c13565b60405180910390fd5b6102fe610e00565b610306610e49565b7f3a1c562adcaaf034efbb5e822697a763f2f7d3943a4f41427d0ad2e5a240fed260405160405180910390a161033a610a28565b565b610344610df8565b73ffffffffffffffffffffffffffffffffffffffff16610362610528565b73ffffffffffffffffffffffffffffffffffffffff16146103b8576040517f08c379a00000000000000000000000000000000000000000000000000000000081526004016103af90611cb3565b60405180910390fd5b600073ffffffffffffffffffffffffffffffffffffffff1660008054906101000a900473ffffffffffffffffffffffffffffffffffffffff1673ffffffffffffffffffffffffffffffffffffffff167f8be0079c531659141344cd1fd0a4f28419497f9722a3daafe3b4186f6b6457e060405160405180910390a360008060006101000a81548173ffffffffffffffffffffffffffffffffffffffff021916908373ffffffffffffffffffffffffffffffffffffffff160217905550565b6000600660009054906101000a900473ffffffffffffffffffffffffffffffffffffffff1673ffffffffffffffffffffffffffffffffffffffff166370a08231306040518263ffffffff1660e01b81526004016104d39190611aef565b60206040518083038186803b1580156104eb57600080fd5b505afa1580156104ff573d6000803e3d6000fd5b505050506040513d601f19601f820116820180604052508101906105239190611936565b905090565b60008060009054906101000a900473ffffffffffffffffffffffffffffffffffffffff16905090565b600060149054906101000a900460ff1681565b6001544210158015610577575060025442105b6105b6576040517f08c379a00000000000000000000000000000000000000000000000000000000081526004016105ad90611c93565b60405180910390fd5b8181600760009054906101000a900473ffffffffffffffffffffffffffffffffffffffff1673ffffffffffffffffffffffffffffffffffffffff16634f558e79836040518263ffffffff1660e01b81526004016106139190611cf3565b60206040518083038186803b15801561062b57600080fd5b505afa15801561063f573d6000803e3d6000fd5b505050506040513d601f19601f82011682018060405250810190610663919061190d565b6106a2576040517f08c379a000000000000000000000000000000000000000000000000000000000815260040161069990611cd3565b60405180910390fd5b600854816106b09190611dcf565b600660009054906101000a900473ffffffffffffffffffffffffffffffffffffffff1673ffffffffffffffffffffffffffffffffffffffff166370a08231336040518263ffffffff1660e01b815260040161070b9190611aef565b60206040518083038186803b15801561072357600080fd5b505afa158015610737573d6000803e3d6000fd5b505050506040513d601f19601f8201168201806040525081019061075b9190611936565b101561079c576040517f08c379a000000000000000000000000000000000000000000000000000000000815260040161079390611c73565b60405180910390fd5b6107c4336003600085815260200190815260200160002060020161104490919063ffffffff16565b15610804576040517f08c379a00000000000000000000000000000000000000000000000000000000081526004016107fb90611c33565b60405180910390fd5b61080d83611074565b61082184600461122590919063ffffffff16565b50826003600086815260200190815260200160002060010160008282546108489190611d48565b925050819055506000600760009054906101000a900473ffffffffffffffffffffffffffffffffffffffff1673ffffffffffffffffffffffffffffffffffffffff16636352211e866040518263ffffffff1660e01b81526004016108ac9190611cf3565b60206040518083038186803b1580156108c457600080fd5b505afa1580156108d8573d6000803e3d6000fd5b505050506040513d601f19601f820116820180604052508101906108fc91906118e4565b90508073ffffffffffffffffffffffffffffffffffffffff166003600087815260200190815260200160002060000160009054906101000a900473ffffffffffffffffffffffffffffffffffffffff1673ffffffffffffffffffffffffffffffffffffffff16146109bd57806003600087815260200190815260200160002060000160006101000a81548173ffffffffffffffffffffffffffffffffffffffff021916908373ffffffffffffffffffffffffffffffffffffffff1602179055505b6109e5336003600088815260200190815260200160002060020161123f90919063ffffffff16565b507fea66f58e474bc09f580000e81f31b334d171db387d0c6098ba47bd897741679b338686604051610a1993929190611b6a565b60405180910390a15050505050565b610a30610df8565b73ffffffffffffffffffffffffffffffffffffffff16610a4e610528565b73ffffffffffffffffffffffffffffffffffffffff1614610aa4576040517f08c379a0000000000000000000000000000000000000000000000000000000008152600401610a9b90611cb3565b60405180910390fd5b600254421015610ae9576040517f08c379a0000000000000000000000000000000000000000000000000000000008152600401610ae090611c13565b60405180910390fd5b6000610af3610476565b90506000610aff61022d565b9050600660009054906101000a900473ffffffffffffffffffffffffffffffffffffffff1673ffffffffffffffffffffffffffffffffffffffff1663a9059cbb610b47610528565b846040518363ffffffff1660e01b8152600401610b65929190611b41565b602060405180830381600087803b158015610b7f57600080fd5b505af1158015610b93573d6000803e3d6000fd5b505050506040513d601f19601f82011682018060405250810190610bb7919061190d565b50610bc0610528565b73ffffffffffffffffffffffffffffffffffffffff166108fc829081150290604051600060405180830381858888f19350505050158015610c05573d6000803e3d6000fd5b507f6f73b7b8d37df32ea60a45eadc8fc3d2d716d705ee099bd506817482ce8473168282604051610c37929190611d0e565b60405180910390a15050565b60015481565b60025481565b610c57610df8565b73ffffffffffffffffffffffffffffffffffffffff16610c75610528565b73ffffffffffffffffffffffffffffffffffffffff1614610ccb576040517f08c379a0000000000000000000000000000000000000000000000000000000008152600401610cc290611cb3565b60405180910390fd5b600073ffffffffffffffffffffffffffffffffffffffff168173ffffffffffffffffffffffffffffffffffffffff161415610d3b576040517f08c379a0000000000000000000000000000000000000000000000000000000008152600401610d3290611c53565b60405180910390fd5b8073ffffffffffffffffffffffffffffffffffffffff1660008054906101000a900473ffffffffffffffffffffffffffffffffffffffff1673ffffffffffffffffffffffffffffffffffffffff167f8be0079c531659141344cd1fd0a4f28419497f9722a3daafe3b4186f6b6457e060405160405180910390a3806000806101000a81548173ffffffffffffffffffffffffffffffffffffffff021916908373ffffffffffffffffffffffffffffffffffffffff16021790555050565b600033905090565b6001600060146101000a81548160ff0219169083151502179055507f6823b073d48d6e3a7d385eeb601452d680e74bb46afe3255a7d778f3a9b1768160405160405180910390a1565b610e51611838565b610e59611838565b610e61611838565b610e69611838565b6000805b610e77600461126f565b811015610f0557610e9281600461128490919063ffffffff16565b9150610ec8604051806040016040528084815260200160036000868152602001908152602001600020600101548152508761129e565b8097508194505050610eda838661129e565b8096508194505050610eec838561129e565b9050809450508080610efd90611eb2565b915050610e6d565b50600080610f146001886112d7565b91509150600080610f266002896112d7565b91509150600080610f3860038a6112d7565b915091506000828588600660009054906101000a900473ffffffffffffffffffffffffffffffffffffffff1673ffffffffffffffffffffffffffffffffffffffff166370a08231306040518263ffffffff1660e01b8152600401610f9c9190611aef565b60206040518083038186803b158015610fb457600080fd5b505afa158015610fc8573d6000803e3d6000fd5b505050506040513d601f19601f82011682018060405250810190610fec9190611936565b610ff69190611e29565b6110009190611e29565b61100a9190611e29565b905061101a8c878960018561138d565b6110288b858760028561138d565b6110368a838560038561138d565b505050505050505050505050565b600061106c836000018373ffffffffffffffffffffffffffffffffffffffff1660001b6114be565b905092915050565b6000816008546110849190611dcf565b9050600660009054906101000a900473ffffffffffffffffffffffffffffffffffffffff1673ffffffffffffffffffffffffffffffffffffffff1663095ea7b330836040518363ffffffff1660e01b81526004016110e3929190611b41565b602060405180830381600087803b1580156110fd57600080fd5b505af1158015611111573d6000803e3d6000fd5b505050506040513d601f19601f82011682018060405250810190611135919061190d565b50600660009054906101000a900473ffffffffffffffffffffffffffffffffffffffff1673ffffffffffffffffffffffffffffffffffffffff166323b872dd3330846040518463ffffffff1660e01b815260040161119593929190611b0a565b602060405180830381600087803b1580156111af57600080fd5b505af11580156111c3573d6000803e3d6000fd5b505050506040513d601f19601f820116820180604052508101906111e7919061190d565b507f2899dc8c12def1caa9accb64257cf2fd9f960f21bb27a560a757eae3c2ec43c13382604051611219929190611b41565b60405180910390a15050565b6000611237836000018360001b6114e1565b905092915050565b6000611267836000018373ffffffffffffffffffffffffffffffffffffffff1660001b6114e1565b905092915050565b600061127d82600001611551565b9050919050565b60006112938360000183611562565b60001c905092915050565b6112a6611838565b6112ae611838565b8260200151846020015111156112c9578284915091506112d0565b8383915091505b9250929050565b6000806000606460085485602001516112f09190611dcf565b6112fa9190611dcf565b905060008560ff1660095460085487602001516113179190611dcf565b6113219190611dcf565b61132b9190611dcf565b90506064818361133b9190611e29565b6113459190611d9e565b600360008760000151815260200190815260200160002060000160009054906101000a900473ffffffffffffffffffffffffffffffffffffffff169350935050509250929050565b60008560000151146114b757600660009054906101000a900473ffffffffffffffffffffffffffffffffffffffff1673ffffffffffffffffffffffffffffffffffffffff1663a9059cbb85856040518363ffffffff1660e01b81526004016113f6929190611b41565b602060405180830381600087803b15801561141057600080fd5b505af1158015611424573d6000803e3d6000fd5b505050506040513d601f19601f82011682018060405250810190611448919061190d565b507fb2621353d34e1ffdf580271ba22561cf19321217d27aed3a76d75a6bd58d58b584848460405161147c93929190611ba1565b60405180910390a16000611492826001886115fc565b90506114b56003600088600001518152602001908152602001600020828561169d565b505b5050505050565b600080836001016000848152602001908152602001600020541415905092915050565b60006114ed83836114be565b61154657826000018290806001815401808255809150506001900390600052602060002001600090919091909150558260000180549050836001016000848152602001908152602001600020819055506001905061154b565b600090505b92915050565b600081600001805490509050919050565b6000818360000180549050116115ad576040517f08c379a00000000000000000000000000000000000000000000000000000000081526004016115a490611bf3565b60405180910390fd5b8260000182815481106115e9577f4e487b7100000000000000000000000000000000000000000000000000000000600052603260045260246000fd5b9060005260206000200154905092915050565b600080611608846117d2565b607d866116159190611dcf565b61161f9190611dcf565b905060008460ff166005836116349190611dcf565b61163e9190611dcf565b9050629896806116666003600087600001518152602001908152602001600020600201611809565b826064856116749190611dcf565b61167e9190611e29565b6116889190611d9e565b6116929190611d9e565b925050509392505050565b60005b6116ac84600201611809565b8110156117cc5760006116cb828660020161181e90919063ffffffff16565b9050600660009054906101000a900473ffffffffffffffffffffffffffffffffffffffff1673ffffffffffffffffffffffffffffffffffffffff1663a9059cbb82866040518363ffffffff1660e01b815260040161172a929190611b41565b602060405180830381600087803b15801561174457600080fd5b505af1158015611758573d6000803e3d6000fd5b505050506040513d601f19601f8201168201806040525081019061177c919061190d565b507f6b83b9f0ad4d0434d9c452b39701630f88eaadca4f2d34a1789348af96dce9ee8185856040516117b093929190611ba1565b60405180910390a15080806117c490611eb2565b9150506116a0565b50505050565b600060018260ff16146117fa5760028260ff16146117f157607d6117f5565b6101135b6117fe565b6101905b61ffff169050919050565b600061181782600001611551565b9050919050565b600061182d8360000183611562565b60001c905092915050565b604051806040016040528060008152602001600081525090565b60008135905061186181612139565b92915050565b60008151905061187681612139565b92915050565b60008151905061188b81612150565b92915050565b6000813590506118a081612167565b92915050565b6000815190506118b581612167565b92915050565b6000602082840312156118cd57600080fd5b60006118db84828501611852565b91505092915050565b6000602082840312156118f657600080fd5b600061190484828501611867565b91505092915050565b60006020828403121561191f57600080fd5b600061192d8482850161187c565b91505092915050565b60006020828403121561194857600080fd5b6000611956848285016118a6565b91505092915050565b6000806040838503121561197257600080fd5b600061198085828601611891565b925050602061199185828601611891565b9150509250929050565b6119a481611e5d565b82525050565b6119b381611e6f565b82525050565b60006119c6602283611d37565b91506119d182611f59565b604082019050919050565b60006119e9601783611d37565b91506119f482611fa8565b602082019050919050565b6000611a0c602183611d37565b9150611a1782611fd1565b604082019050919050565b6000611a2f602683611d37565b9150611a3a82612020565b604082019050919050565b6000611a52602283611d37565b9150611a5d8261206f565b604082019050919050565b6000611a75601483611d37565b9150611a80826120be565b602082019050919050565b6000611a98602083611d37565b9150611aa3826120e7565b602082019050919050565b6000611abb601483611d37565b9150611ac682612110565b602082019050919050565b611ada81611e9b565b82525050565b611ae981611ea5565b82525050565b6000602082019050611b04600083018461199b565b92915050565b6000606082019050611b1f600083018661199b565b611b2c602083018561199b565b611b396040830184611ad1565b949350505050565b6000604082019050611b56600083018561199b565b611b636020830184611ad1565b9392505050565b6000606082019050611b7f600083018661199b565b611b8c6020830185611ad1565b611b996040830184611ad1565b949350505050565b6000606082019050611bb6600083018661199b565b611bc36020830185611ad1565b611bd06040830184611ae0565b949350505050565b6000602082019050611bed60008301846119aa565b92915050565b60006020820190508181036000830152611c0c816119b9565b9050919050565b60006020820190508181036000830152611c2c816119dc565b9050919050565b60006020820190508181036000830152611c4c816119ff565b9050919050565b60006020820190508181036000830152611c6c81611a22565b9050919050565b60006020820190508181036000830152611c8c81611a45565b9050919050565b60006020820190508181036000830152611cac81611a68565b9050919050565b60006020820190508181036000830152611ccc81611a8b565b9050919050565b60006020820190508181036000830152611cec81611aae565b9050919050565b6000602082019050611d086000830184611ad1565b92915050565b6000604082019050611d236000830185611ad1565b611d306020830184611ad1565b9392505050565b600082825260208201905092915050565b6000611d5382611e9b565b9150611d5e83611e9b565b9250827fffffffffffffffffffffffffffffffffffffffffffffffffffffffffffffffff03821115611d9357611d92611efb565b5b828201905092915050565b6000611da982611e9b565b9150611db483611e9b565b925082611dc457611dc3611f2a565b5b828204905092915050565b6000611dda82611e9b565b9150611de583611e9b565b9250817fffffffffffffffffffffffffffffffffffffffffffffffffffffffffffffffff0483118215151615611e1e57611e1d611efb565b5b828202905092915050565b6000611e3482611e9b565b9150611e3f83611e9b565b925082821015611e5257611e51611efb565b5b828203905092915050565b6000611e6882611e7b565b9050919050565b60008115159050919050565b600073ffffffffffffffffffffffffffffffffffffffff82169050919050565b6000819050919050565b600060ff82169050919050565b6000611ebd82611e9b565b91507fffffffffffffffffffffffffffffffffffffffffffffffffffffffffffffffff821415611ef057611eef611efb565b5b600182019050919050565b7f4e487b7100000000000000000000000000000000000000000000000000000000600052601160045260246000fd5b7f4e487b7100000000000000000000000000000000000000000000000000000000600052601260045260246000fd5b7f456e756d657261626c655365743a20696e646578206f7574206f6620626f756e60008201527f6473000000000000000000000000000000000000000000000000000000000000602082015250565b7f436f6e7472616374206e6f742079657420636c6f736564000000000000000000600082015250565b7f596f75206861766520616c726561647920766f7465642074686973207472616360008201527f6b00000000000000000000000000000000000000000000000000000000000000602082015250565b7f4f776e61626c653a206e6577206f776e657220697320746865207a65726f206160008201527f6464726573730000000000000000000000000000000000000000000000000000602082015250565b7f4e6f7420656e6f7567682066756e647320746f2067697665207468697320766f60008201527f7465000000000000000000000000000000000000000000000000000000000000602082015250565b7f436f6e7472616374206e6f742072756e6e696e67000000000000000000000000600082015250565b7f4f776e61626c653a2063616c6c6572206973206e6f7420746865206f776e6572600082015250565b7f547261636b20646f6573206e6f74206578697374000000000000000000000000600082015250565b61214281611e5d565b811461214d57600080fd5b50565b61215981611e6f565b811461216457600080fd5b50565b61217081611e9b565b811461217b57600080fd5b5056fea264697066735822122057646554f2d3082e5af0ebb7f18924c36de06c1f30aa3d91d1ba77e1141cb8db64736f6c63430008010033",
  "immutableReferences": {},
  "source": "// SPDX-License-Identifier: MIT\npragma solidity ^0.8.0;\n\nimport \"./Melody.sol\";\nimport \"./CommonModifier.sol\";\nimport \"./Track.sol\";\nimport \"@openzeppelin/contracts/utils/math/SafeMath.sol\";\nimport \"@openzeppelin/contracts/access/Ownable.sol\";\nimport \"@openzeppelin/contracts/utils/structs/EnumerableSet.sol\";\n\ncontract TrackElection is Ownable, CommonModifier {\n    using SafeMath for uint256;\n\tusing EnumerableSet for EnumerableSet.AddressSet;\n\tusing EnumerableSet for EnumerableSet.UintSet;\n\n\tevent Voted(address voter, uint256 track_id, uint256 half_stars);\n\tevent FeePayed(address payer, uint256 fee);\n\tevent Redeemed(uint256 token_amount, uint256 eth_amount);\n\tevent PrizeForMusician(address musician, uint256 prize, uint8 position);\n\tevent PrizeForInvestor(address investor, uint256 prize, uint8 position);\n\tevent AllPrizesDistributed();\n\n\tstruct Song {\n\t\taddress owner;\n\t\tuint256 votes;\n\t\tEnumerableSet.AddressSet voters;\n\t}\n\n\tstruct Ranking {\n\t\tuint256 track_id;\n\t\tuint256 votes;\n\t}\n\n\t// track => { owner, votes, voters }\n\tmapping(uint256 => Song) participants;\n\tEnumerableSet.UintSet voted_songs;\n\n\tMelody token;\n\tTrack track;\n\tuint256 half_star_value;\n\tuint256 prize_fee;\n\n\tmodifier canVote(uint256 track_id, uint256 half_stars) {\n\t\trequire(track.exists(track_id), \"Track does not exist\");\n\t\trequire(token.balanceOf(msg.sender) >= half_stars * half_star_value, \"Not enough funds to give this vote\");\n\t\trequire(!participants[track_id].voters.contains(msg.sender), \"You have already voted this track\");\n\t\t_;\n\t}\n\n\tconstructor(\n\t\tuint256 _start, \n\t\tuint256 _end, \n\t\tMelody _token, \n\t\tTrack _track, \n\t\tuint256 _half_star_value,\n\t\tuint256 _prize_fee\n\t) {\n\t\ttoken = _token;\n\t\thalf_star_value = _half_star_value * 1 ether;\n\t\tstart = _start;\n\t\tend = _end;\n\t\ttrack = _track;\n\t\tprize_fee = _prize_fee;\n\t}\n\n\tfunction payVoteFee(uint256 half_star) internal {\n\t\tuint256 amount = half_star_value * half_star;\n\n\t\ttoken.approve(address(this), amount);\n\t\ttoken.transferFrom(msg.sender, address(this), amount);\n\n\t\temit FeePayed(msg.sender, amount);\n\t}\n\n\tfunction vote(uint256 track_id, uint256 half_stars) public whenRunning canVote(track_id, half_stars) payable {\n\t\tpayVoteFee(half_stars);\n\t\t\n\t\tvoted_songs.add(track_id);\n\t\tparticipants[track_id].votes += half_stars;\n\n\t\t// Check if the track owner is changed or if it null and update it\n\t\taddress track_owner = track.ownerOf(track_id);\n\t\tif(participants[track_id].owner != track_owner) {\n\t\t\tparticipants[track_id].owner = track_owner;\n\t\t}\n\n\t\t// Add the address of the voter to the set of voters if not yet present\n\t\tparticipants[track_id].voters.add(msg.sender);\n\n\t\temit Voted(msg.sender, track_id, half_stars);\n\t} \n\n\tfunction getBalance() public view returns(uint256) { return address(this).balance; }\n\tfunction getTokenBalance() public view returns(uint256) { return token.balanceOf(address(this)); }\n\n\tfunction finalize() public onlyOwner whenClosed {\n\t\t_finalize();\n\t\t_distribute();\n\n\t\temit AllPrizesDistributed();\n\t\tredeem();\n\t}\n\n\tfunction swapTrack(Ranking memory new_ranking, Ranking memory old_ranking) internal pure returns(Ranking memory, Ranking memory) {\n\t\tif(new_ranking.votes > old_ranking.votes) {\n\t\t\treturn (old_ranking, new_ranking);\n\t\t}\n\t\treturn (new_ranking, old_ranking);\n\t}\n\n\tfunction _distribute() internal {       \n\t\tRanking memory first_place;\n\t\tRanking memory second_place;\n\t\tRanking memory third_place;\n\t\tRanking memory old;\n\n\t\tuint256 track_id;\n\n\t\tfor(uint256 i; i < voted_songs.length(); i++) {\n\t\t\t// caches the current track_id\n\t\t\ttrack_id = voted_songs.at(i);\n\n\t\t\t// Check if current track has more votes than the first one, in case swap them\n\t\t\t(old, first_place) = swapTrack(\n\t\t\t\tRanking({\n\t\t\t\t\tvotes: participants[track_id].votes, \n\t\t\t\t\ttrack_id: track_id\n\t\t\t\t}), \n\t\t\t\tfirst_place\n\t\t\t);\n\n\t\t\t// Check if the track with less votes in the previous step has more votes than \n\t\t\t// the one marked as second, in case swap them\n\t\t\t(old, second_place) = swapTrack(old, second_place);\n\n\t\t\t// Check if the track with less votes in the previous step has more votes than \n\t\t\t// the one marked as third, in case swap them, the one with less votes is simply\n\t\t\t// trashed\n\t\t\t(, third_place) = swapTrack(old, third_place);\n\t\t}\n\n\t\t(uint256 first_place_prize, address first_place_address) = computeMusicianPrize(1, first_place);\n\t\t(uint256 second_place_prize, address second_place_address) = computeMusicianPrize(2, second_place);\n\t\t(uint256 third_place_prize, address third_place_address) = computeMusicianPrize(3, third_place);\n\n\t\tuint256 balance = token.balanceOf(address(this)) - first_place_prize - second_place_prize - third_place_prize;\n\n\t\t// Send the prizes to the winners and investors\n\t\tsendPrize(first_place, first_place_address, first_place_prize, 1, balance);\n\t\tsendPrize(second_place, second_place_address, second_place_prize, 2, balance);\n\t\tsendPrize(third_place, third_place_address, third_place_prize, 3, balance);\n\t}\n\n\tfunction computeMusicianPrize(uint8 position, Ranking memory ranking) internal view returns(uint256, address) {\n\t\tuint256 prize = ranking.votes * half_star_value * 100; // normalize fee percentage given as integer\n\t\tuint256 fee = ranking.votes * half_star_value * prize_fee * position;\n\n\t\treturn ((prize - fee) / 100, participants[ranking.track_id].owner);\n\t}\n\n\tfunction computeInverstorPrize(uint256 balance, uint8 position, Ranking memory ranking) internal view returns(uint256) {\n\t\t// the balance is divided in 8 chunks (125 is 0.125 of the total) each position receive the specified chunk\n\t\tuint256 prize = balance * 125 * fixedPercentage(position);\n\t\tuint256 fee = prize * 5 * position;\n\n\t\treturn (prize * 100 - fee) / participants[ranking.track_id].voters.length() / 1e7;\n\t}\n\n\tfunction fixedPercentage(uint8 position) internal pure returns(uint256) {\n\t\t// shifted right by 2; returns 4, 2.75 or 1.25 which are the shares of the total balance given to the investor of the classified\n\t\treturn position == 1 ? 400 : (position == 2 ? 275 : 125);\n\t}\n\n\tfunction sendPrizeToInvestor(Song storage song, uint256 prize, uint8 position) internal {\n\t\tfor(uint256 i; i < song.voters.length(); i++) {\n\t\t\taddress investor = song.voters.at(i);\n\n\t\t\ttoken.transfer(investor, prize);\n\t\t\temit PrizeForInvestor(investor, prize, position);\n\t\t}\n\t}\n\n\tfunction sendPrize(\n\t\tRanking memory rank, \n\t\taddress first_place_address, \n\t\tuint256 first_place_prize, \n\t\tuint8 position, \n\t\tuint256 balance\n\t) internal {\n\t\t// Track id = 0 will never exist so if it is null the position is not filled\n\t\tif(rank.track_id != 0) {\n\t\t\t// send prize to the winner\n\t\t\ttoken.transfer(first_place_address, first_place_prize);\n\t\t\temit PrizeForMusician(first_place_address, first_place_prize, position);\n\t\t\t\n\t\t\t// send prize to the investors\n\t\t\tuint256 investor_prize = computeInverstorPrize(balance, 1, rank);\n\t\t\tsendPrizeToInvestor(participants[rank.track_id], investor_prize, position);\n\t\t}\n\t}\n\n\tfunction redeem() public onlyOwner whenClosed {\n\t\tuint256 token_amount = getTokenBalance();\n\t\tuint256 eth_amount = getBalance();\n\n\t\t// Transfer all the tokens (and ether if someone sent it) to the owner\n\t\ttoken.transfer(owner(), token_amount);\n\t\tpayable(owner()).transfer(eth_amount);\n\n\t\temit Redeemed(token_amount, eth_amount);\n\t}\n}",
  "sourcePath": "/home/ebalo/Desktop/Projects/blockchain/block-chain/contracts/TrackElection.sol",
  "compiler": {
    "name": "solc",
    "version": "0.8.1+commit.df193b15.Emscripten.clang"
  },
  "schemaVersion": "3.4.1",
  "updatedAt": "2021-05-16T04:38:07.563Z",
  "networkType": "ethereum",
  "devdoc": {
    "kind": "dev",
    "methods": {
      "owner()": {
        "details": "Returns the address of the current owner."
      },
      "renounceOwnership()": {
        "details": "Leaves the contract without owner. It will not be possible to call `onlyOwner` functions anymore. Can only be called by the current owner. NOTE: Renouncing ownership will leave the contract without an owner, thereby removing any functionality that is only available to the owner."
      },
      "transferOwnership(address)": {
        "details": "Transfers ownership of the contract to a new account (`newOwner`). Can only be called by the current owner."
      }
    },
    "version": 1
  },
  "userdoc": {
    "kind": "user",
    "methods": {},
    "version": 1
  }
}