{
  "contractName": "TrackProxy",
  "abi": [
    {
      "inputs": [
        {
          "internalType": "contract Melody",
          "name": "_token",
          "type": "address"
        },
        {
          "internalType": "contract Track",
          "name": "_track",
          "type": "address"
        },
        {
          "internalType": "uint256",
          "name": "_registration_fee",
          "type": "uint256"
        }
      ],
      "stateMutability": "nonpayable",
      "type": "constructor"
    },
    {
      "anonymous": false,
      "inputs": [
        {
          "indexed": false,
          "internalType": "address",
          "name": "payer",
          "type": "address"
        },
        {
          "indexed": false,
          "internalType": "uint256",
          "name": "fee",
          "type": "uint256"
        }
      ],
      "name": "FeePayed",
      "type": "event"
    },
    {
      "anonymous": false,
      "inputs": [
        {
          "indexed": true,
          "internalType": "address",
          "name": "previousOwner",
          "type": "address"
        },
        {
          "indexed": true,
          "internalType": "address",
          "name": "newOwner",
          "type": "address"
        }
      ],
      "name": "OwnershipTransferred",
      "type": "event"
    },
    {
      "inputs": [],
      "name": "owner",
      "outputs": [
        {
          "internalType": "address",
          "name": "",
          "type": "address"
        }
      ],
      "stateMutability": "view",
      "type": "function"
    },
    {
      "inputs": [],
      "name": "renounceOwnership",
      "outputs": [],
      "stateMutability": "nonpayable",
      "type": "function"
    },
    {
      "inputs": [
        {
          "internalType": "address",
          "name": "newOwner",
          "type": "address"
        }
      ],
      "name": "transferOwnership",
      "outputs": [],
      "stateMutability": "nonpayable",
      "type": "function"
    },
    {
      "inputs": [
        {
          "internalType": "address",
          "name": "musician",
          "type": "address"
        },
        {
          "internalType": "string",
          "name": "tokenURI",
          "type": "string"
        }
      ],
      "name": "registerTrack",
      "outputs": [],
      "stateMutability": "nonpayable",
      "type": "function"
    },
    {
      "inputs": [],
      "name": "getBalance",
      "outputs": [
        {
          "internalType": "uint256",
          "name": "",
          "type": "uint256"
        }
      ],
      "stateMutability": "view",
      "type": "function"
    }
  ],
  "bytecode": "0x60806040523480156200001157600080fd5b5060405162001158380380620011588339818101604052810190620000379190620001db565b6000620000496200018e60201b60201c565b9050806000806101000a81548173ffffffffffffffffffffffffffffffffffffffff021916908373ffffffffffffffffffffffffffffffffffffffff1602179055508073ffffffffffffffffffffffffffffffffffffffff16600073ffffffffffffffffffffffffffffffffffffffff167f8be0079c531659141344cd1fd0a4f28419497f9722a3daafe3b4186f6b6457e060405160405180910390a35082600160006101000a81548173ffffffffffffffffffffffffffffffffffffffff021916908373ffffffffffffffffffffffffffffffffffffffff16021790555081600260006101000a81548173ffffffffffffffffffffffffffffffffffffffff021916908373ffffffffffffffffffffffffffffffffffffffff160217905550670de0b6b3a7640000816200017f919062000231565b60038190555050505062000375565b600033905090565b600081519050620001a78162000327565b92915050565b600081519050620001be8162000341565b92915050565b600081519050620001d5816200035b565b92915050565b600080600060608486031215620001f157600080fd5b6000620002018682870162000196565b93505060206200021486828701620001ad565b92505060406200022786828701620001c4565b9150509250925092565b60006200023e82620002ee565b91506200024b83620002ee565b9250817fffffffffffffffffffffffffffffffffffffffffffffffffffffffffffffffff0483118215151615620002875762000286620002f8565b5b828202905092915050565b60006200029f82620002ce565b9050919050565b6000620002b38262000292565b9050919050565b6000620002c78262000292565b9050919050565b600073ffffffffffffffffffffffffffffffffffffffff82169050919050565b6000819050919050565b7f4e487b7100000000000000000000000000000000000000000000000000000000600052601160045260246000fd5b6200033281620002a6565b81146200033e57600080fd5b50565b6200034c81620002ba565b81146200035857600080fd5b50565b6200036681620002ee565b81146200037257600080fd5b50565b610dd380620003856000396000f3fe608060405234801561001057600080fd5b50600436106100575760003560e01c806312065fe01461005c5780631fb085a11461007a578063715018a6146100965780638da5cb5b146100a0578063f2fde38b146100be575b600080fd5b6100646100da565b6040516100719190610ae0565b60405180910390f35b610094600480360381019061008f919061082c565b61018c565b005b61009e610316565b005b6100a8610450565b6040516100b591906109b5565b60405180910390f35b6100d860048036038101906100d39190610803565b610479565b005b6000600160009054906101000a900473ffffffffffffffffffffffffffffffffffffffff1673ffffffffffffffffffffffffffffffffffffffff166370a08231306040518263ffffffff1660e01b815260040161013791906109b5565b60206040518083038186803b15801561014f57600080fd5b505afa158015610163573d6000803e3d6000fd5b505050506040513d601f19601f8201168201806040525081019061018791906108a9565b905090565b600354600160009054906101000a900473ffffffffffffffffffffffffffffffffffffffff1673ffffffffffffffffffffffffffffffffffffffff166370a08231336040518263ffffffff1660e01b81526004016101ea91906109b5565b60206040518083038186803b15801561020257600080fd5b505afa158015610216573d6000803e3d6000fd5b505050506040513d601f19601f8201168201806040525081019061023a91906108a9565b101561027b576040517f08c379a000000000000000000000000000000000000000000000000000000000815260040161027290610ac0565b60405180910390fd5b610283610622565b600260009054906101000a900473ffffffffffffffffffffffffffffffffffffffff1673ffffffffffffffffffffffffffffffffffffffff16631fb085a183836040518363ffffffff1660e01b81526004016102e0929190610a07565b600060405180830381600087803b1580156102fa57600080fd5b505af115801561030e573d6000803e3d6000fd5b505050505050565b61031e610754565b73ffffffffffffffffffffffffffffffffffffffff1661033c610450565b73ffffffffffffffffffffffffffffffffffffffff1614610392576040517f08c379a000000000000000000000000000000000000000000000000000000000815260040161038990610aa0565b60405180910390fd5b600073ffffffffffffffffffffffffffffffffffffffff1660008054906101000a900473ffffffffffffffffffffffffffffffffffffffff1673ffffffffffffffffffffffffffffffffffffffff167f8be0079c531659141344cd1fd0a4f28419497f9722a3daafe3b4186f6b6457e060405160405180910390a360008060006101000a81548173ffffffffffffffffffffffffffffffffffffffff021916908373ffffffffffffffffffffffffffffffffffffffff160217905550565b60008060009054906101000a900473ffffffffffffffffffffffffffffffffffffffff16905090565b610481610754565b73ffffffffffffffffffffffffffffffffffffffff1661049f610450565b73ffffffffffffffffffffffffffffffffffffffff16146104f5576040517f08c379a00000000000000000000000000000000000000000000000000000000081526004016104ec90610aa0565b60405180910390fd5b600073ffffffffffffffffffffffffffffffffffffffff168173ffffffffffffffffffffffffffffffffffffffff161415610565576040517f08c379a000000000000000000000000000000000000000000000000000000000815260040161055c90610a60565b60405180910390fd5b8073ffffffffffffffffffffffffffffffffffffffff1660008054906101000a900473ffffffffffffffffffffffffffffffffffffffff1673ffffffffffffffffffffffffffffffffffffffff167f8be0079c531659141344cd1fd0a4f28419497f9722a3daafe3b4186f6b6457e060405160405180910390a3806000806101000a81548173ffffffffffffffffffffffffffffffffffffffff021916908373ffffffffffffffffffffffffffffffffffffffff16021790555050565b600160009054906101000a900473ffffffffffffffffffffffffffffffffffffffff1673ffffffffffffffffffffffffffffffffffffffff166323b872dd33306003546040518463ffffffff1660e01b8152600401610683939291906109d0565b602060405180830381600087803b15801561069d57600080fd5b505af11580156106b1573d6000803e3d6000fd5b505050506040513d601f19601f820116820180604052508101906106d59190610880565b506000610717576040517f08c379a000000000000000000000000000000000000000000000000000000000815260040161070e90610a80565b60405180910390fd5b7f2899dc8c12def1caa9accb64257cf2fd9f960f21bb27a560a757eae3c2ec43c13360035460405161074a929190610a37565b60405180910390a1565b600033905090565b600061076f61076a84610b20565b610afb565b90508281526020810184848401111561078757600080fd5b610792848285610bb5565b509392505050565b6000813590506107a981610d58565b92915050565b6000815190506107be81610d6f565b92915050565b600082601f8301126107d557600080fd5b81356107e584826020860161075c565b91505092915050565b6000815190506107fd81610d86565b92915050565b60006020828403121561081557600080fd5b60006108238482850161079a565b91505092915050565b6000806040838503121561083f57600080fd5b600061084d8582860161079a565b925050602083013567ffffffffffffffff81111561086a57600080fd5b610876858286016107c4565b9150509250929050565b60006020828403121561089257600080fd5b60006108a0848285016107af565b91505092915050565b6000602082840312156108bb57600080fd5b60006108c9848285016107ee565b91505092915050565b6108db81610b6d565b82525050565b60006108ec82610b51565b6108f68185610b5c565b9350610906818560208601610bc4565b61090f81610c57565b840191505092915050565b6000610927602683610b5c565b915061093282610c68565b604082019050919050565b600061094a601683610b5c565b915061095582610cb7565b602082019050919050565b600061096d602083610b5c565b915061097882610ce0565b602082019050919050565b6000610990602383610b5c565b915061099b82610d09565b604082019050919050565b6109af81610bab565b82525050565b60006020820190506109ca60008301846108d2565b92915050565b60006060820190506109e560008301866108d2565b6109f260208301856108d2565b6109ff60408301846109a6565b949350505050565b6000604082019050610a1c60008301856108d2565b8181036020830152610a2e81846108e1565b90509392505050565b6000604082019050610a4c60008301856108d2565b610a5960208301846109a6565b9392505050565b60006020820190508181036000830152610a798161091a565b9050919050565b60006020820190508181036000830152610a998161093d565b9050919050565b60006020820190508181036000830152610ab981610960565b9050919050565b60006020820190508181036000830152610ad981610983565b9050919050565b6000602082019050610af560008301846109a6565b92915050565b6000610b05610b16565b9050610b118282610bf7565b919050565b6000604051905090565b600067ffffffffffffffff821115610b3b57610b3a610c28565b5b610b4482610c57565b9050602081019050919050565b600081519050919050565b600082825260208201905092915050565b6000610b7882610b8b565b9050919050565b60008115159050919050565b600073ffffffffffffffffffffffffffffffffffffffff82169050919050565b6000819050919050565b82818337600083830152505050565b60005b83811015610be2578082015181840152602081019050610bc7565b83811115610bf1576000848401525b50505050565b610c0082610c57565b810181811067ffffffffffffffff82111715610c1f57610c1e610c28565b5b80604052505050565b7f4e487b7100000000000000000000000000000000000000000000000000000000600052604160045260246000fd5b6000601f19601f8301169050919050565b7f4f776e61626c653a206e6577206f776e657220697320746865207a65726f206160008201527f6464726573730000000000000000000000000000000000000000000000000000602082015250565b7f66756e6473206d6f76696e6720636f6d706c6574656400000000000000000000600082015250565b7f4f776e61626c653a2063616c6c6572206973206e6f7420746865206f776e6572600082015250565b7f4e6f7420656e6f7567682066756e647320746f2072656769737465722061207360008201527f6f6e670000000000000000000000000000000000000000000000000000000000602082015250565b610d6181610b6d565b8114610d6c57600080fd5b50565b610d7881610b7f565b8114610d8357600080fd5b50565b610d8f81610bab565b8114610d9a57600080fd5b5056fea264697066735822122070a077a709db2f0b5aaf29a474d3e70bc54037c3129f3ac72f4e55c606ef65d064736f6c63430008010033",
  "immutableReferences": {},
  "source": "// SPDX-License-Identifier: MIT\npragma solidity ^0.8.0;\n\nimport \"./Melody.sol\";\nimport \"./Track.sol\";\nimport \"@openzeppelin/contracts/access/Ownable.sol\";\n\ncontract TrackProxy is Ownable {\n\tMelody token;\n\tTrack track;\n\tuint256 registration_fee;\n\n\tevent FeePayed(address payer, uint256 fee);\n\n\tmodifier canRegisterSong() {\n\t\trequire(token.balanceOf(msg.sender) >= registration_fee, \"Not enough funds to register a song\");\n\t\t_;\n\t}\n\n\tconstructor(Melody _token, Track _track, uint256 _registration_fee) {\n\t\ttoken = _token;\n\t\ttrack = _track;\n\t\tregistration_fee = _registration_fee * 1 ether;\n\t}\n\n\tfunction uint2str(uint _i) internal pure returns (string memory _uintAsString) {\n        if (_i == 0) {\n            return \"0\";\n        }\n        uint j = _i;\n        uint len;\n        while (j != 0) {\n            len++;\n            j /= 10;\n        }\n        bytes memory bstr = new bytes(len);\n        uint k = len;\n        while (_i != 0) {\n            k = k-1;\n            uint8 temp = (48 + uint8(_i - _i / 10 * 10));\n            bytes1 b1 = bytes1(temp);\n            bstr[k] = b1;\n            _i /= 10;\n        }\n        return string(bstr);\n    }\n\n\tfunction payRegistrationFee() internal {\n\t\t//token.approve(address(this), registration_fee);\n\t\t//token.increaseAllowance(address(this), song_registration_fee);\n\t\ttoken.transferFrom(msg.sender, address(this), registration_fee);\n\t\trequire(false, \"funds moving completed\");\n\t\temit FeePayed(msg.sender, registration_fee);\n\t}\n\n\tfunction registerTrack(address musician, string memory tokenURI) public canRegisterSong {\n\t\tpayRegistrationFee();\n\t\ttrack.registerTrack(musician, tokenURI);\n\t}\n\n\tfunction getBalance() public view returns(uint256) {\n\t\treturn token.balanceOf(address(this));\n\t}\n}",
  "sourcePath": "/home/ebalo/Desktop/Projects/blockchain/block-chain/contracts/TrackProxy.sol",
  "compiler": {
    "name": "solc",
    "version": "0.8.1+commit.df193b15.Emscripten.clang"
  },
  "schemaVersion": "3.4.1",
  "updatedAt": "2021-05-16T06:51:02.901Z",
  "networkType": "ethereum",
  "devdoc": {
    "kind": "dev",
    "methods": {
      "owner()": {
        "details": "Returns the address of the current owner."
      },
      "renounceOwnership()": {
        "details": "Leaves the contract without owner. It will not be possible to call `onlyOwner` functions anymore. Can only be called by the current owner. NOTE: Renouncing ownership will leave the contract without an owner, thereby removing any functionality that is only available to the owner."
      },
      "transferOwnership(address)": {
        "details": "Transfers ownership of the contract to a new account (`newOwner`). Can only be called by the current owner."
      }
    },
    "version": 1
  },
  "userdoc": {
    "kind": "user",
    "methods": {},
    "version": 1
  }
}