{
  "contractName": "TrackElection",
  "abi": [
    {
      "inputs": [
        {
          "internalType": "uint256",
          "name": "_start",
          "type": "uint256"
        },
        {
          "internalType": "uint256",
          "name": "_end",
          "type": "uint256"
        },
        {
          "internalType": "contract Melody",
          "name": "_token",
          "type": "address"
        },
        {
          "internalType": "contract Track",
          "name": "_track",
          "type": "address"
        },
        {
          "internalType": "uint256",
          "name": "_half_star_value",
          "type": "uint256"
        },
        {
          "internalType": "uint256",
          "name": "_prize_fee",
          "type": "uint256"
        }
      ],
      "stateMutability": "nonpayable",
      "type": "constructor"
    },
    {
      "anonymous": false,
      "inputs": [],
      "name": "AllPrizesDistributed",
      "type": "event"
    },
    {
      "anonymous": false,
      "inputs": [
        {
          "indexed": false,
          "internalType": "address",
          "name": "payer",
          "type": "address"
        },
        {
          "indexed": false,
          "internalType": "uint256",
          "name": "fee",
          "type": "uint256"
        }
      ],
      "name": "FeePayed",
      "type": "event"
    },
    {
      "anonymous": false,
      "inputs": [],
      "name": "Finalized",
      "type": "event"
    },
    {
      "anonymous": false,
      "inputs": [
        {
          "indexed": true,
          "internalType": "address",
          "name": "previousOwner",
          "type": "address"
        },
        {
          "indexed": true,
          "internalType": "address",
          "name": "newOwner",
          "type": "address"
        }
      ],
      "name": "OwnershipTransferred",
      "type": "event"
    },
    {
      "anonymous": false,
      "inputs": [
        {
          "indexed": false,
          "internalType": "address",
          "name": "investor",
          "type": "address"
        },
        {
          "indexed": false,
          "internalType": "uint256",
          "name": "prize",
          "type": "uint256"
        },
        {
          "indexed": false,
          "internalType": "uint8",
          "name": "position",
          "type": "uint8"
        }
      ],
      "name": "PrizeForInvestor",
      "type": "event"
    },
    {
      "anonymous": false,
      "inputs": [
        {
          "indexed": false,
          "internalType": "address",
          "name": "musician",
          "type": "address"
        },
        {
          "indexed": false,
          "internalType": "uint256",
          "name": "prize",
          "type": "uint256"
        },
        {
          "indexed": false,
          "internalType": "uint8",
          "name": "position",
          "type": "uint8"
        }
      ],
      "name": "PrizeForMusician",
      "type": "event"
    },
    {
      "anonymous": false,
      "inputs": [
        {
          "indexed": false,
          "internalType": "uint256",
          "name": "token_amount",
          "type": "uint256"
        },
        {
          "indexed": false,
          "internalType": "uint256",
          "name": "eth_amount",
          "type": "uint256"
        }
      ],
      "name": "Redeemed",
      "type": "event"
    },
    {
      "anonymous": false,
      "inputs": [
        {
          "indexed": false,
          "internalType": "address",
          "name": "voter",
          "type": "address"
        },
        {
          "indexed": false,
          "internalType": "uint256",
          "name": "track_id",
          "type": "uint256"
        },
        {
          "indexed": false,
          "internalType": "uint256",
          "name": "half_stars",
          "type": "uint256"
        }
      ],
      "name": "Voted",
      "type": "event"
    },
    {
      "inputs": [],
      "name": "completed",
      "outputs": [
        {
          "internalType": "bool",
          "name": "",
          "type": "bool"
        }
      ],
      "stateMutability": "view",
      "type": "function"
    },
    {
      "inputs": [],
      "name": "end",
      "outputs": [
        {
          "internalType": "uint256",
          "name": "",
          "type": "uint256"
        }
      ],
      "stateMutability": "view",
      "type": "function"
    },
    {
      "inputs": [],
      "name": "owner",
      "outputs": [
        {
          "internalType": "address",
          "name": "",
          "type": "address"
        }
      ],
      "stateMutability": "view",
      "type": "function"
    },
    {
      "inputs": [],
      "name": "renounceOwnership",
      "outputs": [],
      "stateMutability": "nonpayable",
      "type": "function"
    },
    {
      "inputs": [],
      "name": "start",
      "outputs": [
        {
          "internalType": "uint256",
          "name": "",
          "type": "uint256"
        }
      ],
      "stateMutability": "view",
      "type": "function"
    },
    {
      "inputs": [
        {
          "internalType": "address",
          "name": "newOwner",
          "type": "address"
        }
      ],
      "name": "transferOwnership",
      "outputs": [],
      "stateMutability": "nonpayable",
      "type": "function"
    },
    {
      "inputs": [
        {
          "internalType": "uint256",
          "name": "track_id",
          "type": "uint256"
        },
        {
          "internalType": "uint256",
          "name": "half_stars",
          "type": "uint256"
        }
      ],
      "name": "vote",
      "outputs": [],
      "stateMutability": "payable",
      "type": "function"
    },
    {
      "inputs": [],
      "name": "getBalance",
      "outputs": [
        {
          "internalType": "uint256",
          "name": "",
          "type": "uint256"
        }
      ],
      "stateMutability": "view",
      "type": "function"
    },
    {
      "inputs": [],
      "name": "getTokenBalance",
      "outputs": [
        {
          "internalType": "uint256",
          "name": "",
          "type": "uint256"
        }
      ],
      "stateMutability": "view",
      "type": "function"
    },
    {
      "inputs": [],
      "name": "finalize",
      "outputs": [],
      "stateMutability": "nonpayable",
      "type": "function"
    },
    {
      "inputs": [],
      "name": "redeem",
      "outputs": [],
      "stateMutability": "nonpayable",
      "type": "function"
    }
  ],
  "bytecode": "0x60806040523480156200001157600080fd5b5060405162002672380380620026728339818101604052810190620000379190620001f3565b600062000049620001a660201b60201c565b9050806000806101000a81548173ffffffffffffffffffffffffffffffffffffffff021916908373ffffffffffffffffffffffffffffffffffffffff1602179055508073ffffffffffffffffffffffffffffffffffffffff16600073ffffffffffffffffffffffffffffffffffffffff167f8be0079c531659141344cd1fd0a4f28419497f9722a3daafe3b4186f6b6457e060405160405180910390a35083600660006101000a81548173ffffffffffffffffffffffffffffffffffffffff021916908373ffffffffffffffffffffffffffffffffffffffff160217905550670de0b6b3a7640000826200013e919062000289565b600881905550856001819055508460028190555082600760006101000a81548173ffffffffffffffffffffffffffffffffffffffff021916908373ffffffffffffffffffffffffffffffffffffffff16021790555080600981905550505050505050620003cd565b600033905090565b600081519050620001bf816200037f565b92915050565b600081519050620001d68162000399565b92915050565b600081519050620001ed81620003b3565b92915050565b60008060008060008060c087890312156200020d57600080fd5b60006200021d89828a01620001dc565b96505060206200023089828a01620001dc565b95505060406200024389828a01620001ae565b94505060606200025689828a01620001c5565b93505060806200026989828a01620001dc565b92505060a06200027c89828a01620001dc565b9150509295509295509295565b6000620002968262000346565b9150620002a38362000346565b9250817fffffffffffffffffffffffffffffffffffffffffffffffffffffffffffffffff0483118215151615620002df57620002de62000350565b5b828202905092915050565b6000620002f78262000326565b9050919050565b60006200030b82620002ea565b9050919050565b60006200031f82620002ea565b9050919050565b600073ffffffffffffffffffffffffffffffffffffffff82169050919050565b6000819050919050565b7f4e487b7100000000000000000000000000000000000000000000000000000000600052601160045260246000fd5b6200038a81620002fe565b81146200039657600080fd5b50565b620003a48162000312565b8114620003b057600080fd5b50565b620003be8162000346565b8114620003ca57600080fd5b50565b61229580620003dd6000396000f3fe60806040526004361061009c5760003560e01c80639d9a7fe9116100645780639d9a7fe914610150578063b384abef1461017b578063be040fb014610197578063be9a6555146101ae578063efbe1c1c146101d9578063f2fde38b146102045761009c565b806312065fe0146100a15780634bb278f3146100cc578063715018a6146100e357806382b2e257146100fa5780638da5cb5b14610125575b600080fd5b3480156100ad57600080fd5b506100b661022d565b6040516100c39190611dd1565b60405180910390f35b3480156100d857600080fd5b506100e1610235565b005b3480156100ef57600080fd5b506100f861033c565b005b34801561010657600080fd5b5061010f610476565b60405161011c9190611dd1565b60405180910390f35b34801561013157600080fd5b5061013a610528565b6040516101479190611bad565b60405180910390f35b34801561015c57600080fd5b50610165610551565b6040516101729190611c96565b60405180910390f35b610195600480360381019061019091906119fa565b610564565b005b3480156101a357600080fd5b506101ac610add565b005b3480156101ba57600080fd5b506101c3610db3565b6040516101d09190611dd1565b60405180910390f35b3480156101e557600080fd5b506101ee610db9565b6040516101fb9190611dd1565b60405180910390f35b34801561021057600080fd5b5061022b60048036038101906102269190611956565b610dbf565b005b600047905090565b61023d610f68565b73ffffffffffffffffffffffffffffffffffffffff1661025b610528565b73ffffffffffffffffffffffffffffffffffffffff16146102b1576040517f08c379a00000000000000000000000000000000000000000000000000000000081526004016102a890611d71565b60405180910390fd5b6002544210156102f6576040517f08c379a00000000000000000000000000000000000000000000000000000000081526004016102ed90611cd1565b60405180910390fd5b6102fe610f70565b610306610fb9565b7f3a1c562adcaaf034efbb5e822697a763f2f7d3943a4f41427d0ad2e5a240fed260405160405180910390a161033a610add565b565b610344610f68565b73ffffffffffffffffffffffffffffffffffffffff16610362610528565b73ffffffffffffffffffffffffffffffffffffffff16146103b8576040517f08c379a00000000000000000000000000000000000000000000000000000000081526004016103af90611d71565b60405180910390fd5b600073ffffffffffffffffffffffffffffffffffffffff1660008054906101000a900473ffffffffffffffffffffffffffffffffffffffff1673ffffffffffffffffffffffffffffffffffffffff167f8be0079c531659141344cd1fd0a4f28419497f9722a3daafe3b4186f6b6457e060405160405180910390a360008060006101000a81548173ffffffffffffffffffffffffffffffffffffffff021916908373ffffffffffffffffffffffffffffffffffffffff160217905550565b6000600660009054906101000a900473ffffffffffffffffffffffffffffffffffffffff1673ffffffffffffffffffffffffffffffffffffffff166370a08231306040518263ffffffff1660e01b81526004016104d39190611bad565b60206040518083038186803b1580156104eb57600080fd5b505afa1580156104ff573d6000803e3d6000fd5b505050506040513d601f19601f8201168201806040525081019061052391906119d1565b905090565b60008060009054906101000a900473ffffffffffffffffffffffffffffffffffffffff16905090565b600060149054906101000a900460ff1681565b6001544210158015610577575060025442105b6105b6576040517f08c379a00000000000000000000000000000000000000000000000000000000081526004016105ad90611d31565b60405180910390fd5b8181600760009054906101000a900473ffffffffffffffffffffffffffffffffffffffff1673ffffffffffffffffffffffffffffffffffffffff16634f558e79836040518263ffffffff1660e01b81526004016106139190611dd1565b60206040518083038186803b15801561062b57600080fd5b505afa15801561063f573d6000803e3d6000fd5b505050506040513d601f19601f8201168201806040525081019061066391906119a8565b6106a2576040517f08c379a000000000000000000000000000000000000000000000000000000000815260040161069990611db1565b60405180910390fd5b6106ca33600360008581526020019081526020016000206002016111b490919063ffffffff16565b1561070a576040517f08c379a000000000000000000000000000000000000000000000000000000000815260040161070190611d51565b60405180910390fd5b600760009054906101000a900473ffffffffffffffffffffffffffffffffffffffff1673ffffffffffffffffffffffffffffffffffffffff16636352211e836040518263ffffffff1660e01b81526004016107659190611dd1565b60206040518083038186803b15801561077d57600080fd5b505afa158015610791573d6000803e3d6000fd5b505050506040513d601f19601f820116820180604052508101906107b5919061197f565b73ffffffffffffffffffffffffffffffffffffffff163373ffffffffffffffffffffffffffffffffffffffff161415610823576040517f08c379a000000000000000000000000000000000000000000000000000000000815260040161081a90611d91565b60405180910390fd5b6000836008546108339190611ead565b905080600660009054906101000a900473ffffffffffffffffffffffffffffffffffffffff1673ffffffffffffffffffffffffffffffffffffffff166370a08231336040518263ffffffff1660e01b81526004016108919190611bad565b60206040518083038186803b1580156108a957600080fd5b505afa1580156108bd573d6000803e3d6000fd5b505050506040513d601f19601f820116820180604052508101906108e191906119d1565b1015610922576040517f08c379a000000000000000000000000000000000000000000000000000000000815260040161091990611d11565b60405180910390fd5b61092b816111e4565b61093f8560046112d290919063ffffffff16565b50836003600087815260200190815260200160002060010160008282546109669190611e26565b925050819055506000600760009054906101000a900473ffffffffffffffffffffffffffffffffffffffff1673ffffffffffffffffffffffffffffffffffffffff16636352211e876040518263ffffffff1660e01b81526004016109ca9190611dd1565b60206040518083038186803b1580156109e257600080fd5b505afa1580156109f6573d6000803e3d6000fd5b505050506040513d601f19601f82011682018060405250810190610a1a919061197f565b9050806003600088815260200190815260200160002060000160006101000a81548173ffffffffffffffffffffffffffffffffffffffff021916908373ffffffffffffffffffffffffffffffffffffffff160217905550610a9933600360008981526020019081526020016000206002016112ec90919063ffffffff16565b507fea66f58e474bc09f580000e81f31b334d171db387d0c6098ba47bd897741679b338787604051610acd93929190611c28565b60405180910390a1505050505050565b610ae5610f68565b73ffffffffffffffffffffffffffffffffffffffff16610b03610528565b73ffffffffffffffffffffffffffffffffffffffff1614610b59576040517f08c379a0000000000000000000000000000000000000000000000000000000008152600401610b5090611d71565b60405180910390fd5b600254421015610b9e576040517f08c379a0000000000000000000000000000000000000000000000000000000008152600401610b9590611cd1565b60405180910390fd5b60003090506000600660009054906101000a900473ffffffffffffffffffffffffffffffffffffffff1673ffffffffffffffffffffffffffffffffffffffff166370a08231836040518263ffffffff1660e01b8152600401610c009190611bad565b60206040518083038186803b158015610c1857600080fd5b505afa158015610c2c573d6000803e3d6000fd5b505050506040513d601f19601f82011682018060405250810190610c5091906119d1565b905060008273ffffffffffffffffffffffffffffffffffffffff16319050600660009054906101000a900473ffffffffffffffffffffffffffffffffffffffff1673ffffffffffffffffffffffffffffffffffffffff166323b872dd84610cb5610528565b856040518463ffffffff1660e01b8152600401610cd493929190611bc8565b602060405180830381600087803b158015610cee57600080fd5b505af1158015610d02573d6000803e3d6000fd5b505050506040513d601f19601f82011682018060405250810190610d2691906119a8565b50610d2f610528565b73ffffffffffffffffffffffffffffffffffffffff166108fc829081150290604051600060405180830381858888f19350505050158015610d74573d6000803e3d6000fd5b507f6f73b7b8d37df32ea60a45eadc8fc3d2d716d705ee099bd506817482ce8473168282604051610da6929190611dec565b60405180910390a1505050565b60015481565b60025481565b610dc7610f68565b73ffffffffffffffffffffffffffffffffffffffff16610de5610528565b73ffffffffffffffffffffffffffffffffffffffff1614610e3b576040517f08c379a0000000000000000000000000000000000000000000000000000000008152600401610e3290611d71565b60405180910390fd5b600073ffffffffffffffffffffffffffffffffffffffff168173ffffffffffffffffffffffffffffffffffffffff161415610eab576040517f08c379a0000000000000000000000000000000000000000000000000000000008152600401610ea290611cf1565b60405180910390fd5b8073ffffffffffffffffffffffffffffffffffffffff1660008054906101000a900473ffffffffffffffffffffffffffffffffffffffff1673ffffffffffffffffffffffffffffffffffffffff167f8be0079c531659141344cd1fd0a4f28419497f9722a3daafe3b4186f6b6457e060405160405180910390a3806000806101000a81548173ffffffffffffffffffffffffffffffffffffffff021916908373ffffffffffffffffffffffffffffffffffffffff16021790555050565b600033905090565b6001600060146101000a81548160ff0219169083151502179055507f6823b073d48d6e3a7d385eeb601452d680e74bb46afe3255a7d778f3a9b1768160405160405180910390a1565b610fc16118d3565b610fc96118d3565b610fd16118d3565b610fd96118d3565b6000805b610fe7600461131c565b8110156110755761100281600461133190919063ffffffff16565b9150611038604051806040016040528084815260200160036000868152602001908152602001600020600101548152508761134b565b809750819450505061104a838661134b565b809650819450505061105c838561134b565b905080945050808061106d90611f90565b915050610fdd565b50600080611084600188611384565b91509150600080611096600289611384565b915091506000806110a860038a611384565b915091506000828588600660009054906101000a900473ffffffffffffffffffffffffffffffffffffffff1673ffffffffffffffffffffffffffffffffffffffff166370a08231306040518263ffffffff1660e01b815260040161110c9190611bad565b60206040518083038186803b15801561112457600080fd5b505afa158015611138573d6000803e3d6000fd5b505050506040513d601f19601f8201168201806040525081019061115c91906119d1565b6111669190611f07565b6111709190611f07565b61117a9190611f07565b905061118a8c878960018561143a565b6111988b858760028561143a565b6111a68a838560038561143a565b505050505050505050505050565b60006111dc836000018373ffffffffffffffffffffffffffffffffffffffff1660001b61156b565b905092915050565b600660009054906101000a900473ffffffffffffffffffffffffffffffffffffffff1673ffffffffffffffffffffffffffffffffffffffff166323b872dd3330846040518463ffffffff1660e01b815260040161124393929190611bc8565b602060405180830381600087803b15801561125d57600080fd5b505af1158015611271573d6000803e3d6000fd5b505050506040513d601f19601f8201168201806040525081019061129591906119a8565b507f2899dc8c12def1caa9accb64257cf2fd9f960f21bb27a560a757eae3c2ec43c133826040516112c7929190611bff565b60405180910390a150565b60006112e4836000018360001b61158e565b905092915050565b6000611314836000018373ffffffffffffffffffffffffffffffffffffffff1660001b61158e565b905092915050565b600061132a826000016115fe565b9050919050565b6000611340836000018361160f565b60001c905092915050565b6113536118d3565b61135b6118d3565b8260200151846020015111156113765782849150915061137d565b8383915091505b9250929050565b60008060006064600854856020015161139d9190611ead565b6113a79190611ead565b905060008560ff1660095460085487602001516113c49190611ead565b6113ce9190611ead565b6113d89190611ead565b9050606481836113e89190611f07565b6113f29190611e7c565b600360008760000151815260200190815260200160002060000160009054906101000a900473ffffffffffffffffffffffffffffffffffffffff169350935050509250929050565b600085600001511461156457600660009054906101000a900473ffffffffffffffffffffffffffffffffffffffff1673ffffffffffffffffffffffffffffffffffffffff1663a9059cbb85856040518363ffffffff1660e01b81526004016114a3929190611bff565b602060405180830381600087803b1580156114bd57600080fd5b505af11580156114d1573d6000803e3d6000fd5b505050506040513d601f19601f820116820180604052508101906114f591906119a8565b507fb2621353d34e1ffdf580271ba22561cf19321217d27aed3a76d75a6bd58d58b584848460405161152993929190611c5f565b60405180910390a1600061153f826001886116a9565b90506115626003600088600001518152602001908152602001600020828561176f565b505b5050505050565b600080836001016000848152602001908152602001600020541415905092915050565b600061159a838361156b565b6115f35782600001829080600181540180825580915050600190039060005260206000200160009091909190915055826000018054905083600101600084815260200190815260200160002081905550600190506115f8565b600090505b92915050565b600081600001805490509050919050565b60008183600001805490501161165a576040517f08c379a000000000000000000000000000000000000000000000000000000000815260040161165190611cb1565b60405180910390fd5b826000018281548110611696577f4e487b7100000000000000000000000000000000000000000000000000000000600052603260045260246000fd5b9060005260206000200154905092915050565b60008060018460ff16146116d25760028460ff16146116c957607d6116cd565b6101135b6116d6565b6101905b61ffff16607d866116e79190611ead565b6116f19190611ead565b905060008460ff166005836117069190611ead565b6117109190611ead565b90506298968061173860036000876000015181526020019081526020016000206002016118a4565b826064856117469190611ead565b6117509190611f07565b61175a9190611e7c565b6117649190611e7c565b925050509392505050565b60005b61177e846002016118a4565b81101561189e57600061179d82866002016118b990919063ffffffff16565b9050600660009054906101000a900473ffffffffffffffffffffffffffffffffffffffff1673ffffffffffffffffffffffffffffffffffffffff1663a9059cbb82866040518363ffffffff1660e01b81526004016117fc929190611bff565b602060405180830381600087803b15801561181657600080fd5b505af115801561182a573d6000803e3d6000fd5b505050506040513d601f19601f8201168201806040525081019061184e91906119a8565b507f6b83b9f0ad4d0434d9c452b39701630f88eaadca4f2d34a1789348af96dce9ee81858560405161188293929190611c5f565b60405180910390a150808061189690611f90565b915050611772565b50505050565b60006118b2826000016115fe565b9050919050565b60006118c8836000018361160f565b60001c905092915050565b604051806040016040528060008152602001600081525090565b6000813590506118fc8161221a565b92915050565b6000815190506119118161221a565b92915050565b60008151905061192681612231565b92915050565b60008135905061193b81612248565b92915050565b60008151905061195081612248565b92915050565b60006020828403121561196857600080fd5b6000611976848285016118ed565b91505092915050565b60006020828403121561199157600080fd5b600061199f84828501611902565b91505092915050565b6000602082840312156119ba57600080fd5b60006119c884828501611917565b91505092915050565b6000602082840312156119e357600080fd5b60006119f184828501611941565b91505092915050565b60008060408385031215611a0d57600080fd5b6000611a1b8582860161192c565b9250506020611a2c8582860161192c565b9150509250929050565b611a3f81611f3b565b82525050565b611a4e81611f4d565b82525050565b6000611a61602283611e15565b9150611a6c82612037565b604082019050919050565b6000611a84601783611e15565b9150611a8f82612086565b602082019050919050565b6000611aa7602683611e15565b9150611ab2826120af565b604082019050919050565b6000611aca602283611e15565b9150611ad5826120fe565b604082019050919050565b6000611aed601483611e15565b9150611af88261214d565b602082019050919050565b6000611b10601383611e15565b9150611b1b82612176565b602082019050919050565b6000611b33602083611e15565b9150611b3e8261219f565b602082019050919050565b6000611b56601a83611e15565b9150611b61826121c8565b602082019050919050565b6000611b79601483611e15565b9150611b84826121f1565b602082019050919050565b611b9881611f79565b82525050565b611ba781611f83565b82525050565b6000602082019050611bc26000830184611a36565b92915050565b6000606082019050611bdd6000830186611a36565b611bea6020830185611a36565b611bf76040830184611b8f565b949350505050565b6000604082019050611c146000830185611a36565b611c216020830184611b8f565b9392505050565b6000606082019050611c3d6000830186611a36565b611c4a6020830185611b8f565b611c576040830184611b8f565b949350505050565b6000606082019050611c746000830186611a36565b611c816020830185611b8f565b611c8e6040830184611b9e565b949350505050565b6000602082019050611cab6000830184611a45565b92915050565b60006020820190508181036000830152611cca81611a54565b9050919050565b60006020820190508181036000830152611cea81611a77565b9050919050565b60006020820190508181036000830152611d0a81611a9a565b9050919050565b60006020820190508181036000830152611d2a81611abd565b9050919050565b60006020820190508181036000830152611d4a81611ae0565b9050919050565b60006020820190508181036000830152611d6a81611b03565b9050919050565b60006020820190508181036000830152611d8a81611b26565b9050919050565b60006020820190508181036000830152611daa81611b49565b9050919050565b60006020820190508181036000830152611dca81611b6c565b9050919050565b6000602082019050611de66000830184611b8f565b92915050565b6000604082019050611e016000830185611b8f565b611e0e6020830184611b8f565b9392505050565b600082825260208201905092915050565b6000611e3182611f79565b9150611e3c83611f79565b9250827fffffffffffffffffffffffffffffffffffffffffffffffffffffffffffffffff03821115611e7157611e70611fd9565b5b828201905092915050565b6000611e8782611f79565b9150611e9283611f79565b925082611ea257611ea1612008565b5b828204905092915050565b6000611eb882611f79565b9150611ec383611f79565b9250817fffffffffffffffffffffffffffffffffffffffffffffffffffffffffffffffff0483118215151615611efc57611efb611fd9565b5b828202905092915050565b6000611f1282611f79565b9150611f1d83611f79565b925082821015611f3057611f2f611fd9565b5b828203905092915050565b6000611f4682611f59565b9050919050565b60008115159050919050565b600073ffffffffffffffffffffffffffffffffffffffff82169050919050565b6000819050919050565b600060ff82169050919050565b6000611f9b82611f79565b91507fffffffffffffffffffffffffffffffffffffffffffffffffffffffffffffffff821415611fce57611fcd611fd9565b5b600182019050919050565b7f4e487b7100000000000000000000000000000000000000000000000000000000600052601160045260246000fd5b7f4e487b7100000000000000000000000000000000000000000000000000000000600052601260045260246000fd5b7f456e756d657261626c655365743a20696e646578206f7574206f6620626f756e60008201527f6473000000000000000000000000000000000000000000000000000000000000602082015250565b7f436f6e7472616374206e6f742079657420636c6f736564000000000000000000600082015250565b7f4f776e61626c653a206e6577206f776e657220697320746865207a65726f206160008201527f6464726573730000000000000000000000000000000000000000000000000000602082015250565b7f4e6f7420656e6f7567682066756e647320746f2067697665207468697320766f60008201527f7465000000000000000000000000000000000000000000000000000000000000602082015250565b7f436f6e7472616374206e6f742072756e6e696e67000000000000000000000000600082015250565b7f547261636b20616c726561647920766f74656400000000000000000000000000600082015250565b7f4f776e61626c653a2063616c6c6572206973206e6f7420746865206f776e6572600082015250565b7f43616e6e6f7420766f746520796f7572206f776e20747261636b000000000000600082015250565b7f547261636b20646f6573206e6f74206578697374000000000000000000000000600082015250565b61222381611f3b565b811461222e57600080fd5b50565b61223a81611f4d565b811461224557600080fd5b50565b61225181611f79565b811461225c57600080fd5b5056fea2646970667358221220e7d6bbeb3239629fb06f2fc6aef0868fb945e662b2ae7e8fb08d0891a686e40964736f6c63430008010033",
  "immutableReferences": {},
  "source": "// SPDX-License-Identifier: MIT\npragma solidity ^0.8.0;\n\nimport \"./Melody.sol\";\nimport \"./CommonModifier.sol\";\nimport \"./Track.sol\";\nimport \"@openzeppelin/contracts/utils/math/SafeMath.sol\";\nimport \"@openzeppelin/contracts/access/Ownable.sol\";\nimport \"@openzeppelin/contracts/utils/structs/EnumerableSet.sol\";\n\ncontract TrackElection is Ownable, CommonModifier {\n    using SafeMath for uint256;\n\tusing EnumerableSet for EnumerableSet.AddressSet;\n\tusing EnumerableSet for EnumerableSet.UintSet;\n\n\tevent Voted(address voter, uint256 track_id, uint256 half_stars);\n\tevent FeePayed(address payer, uint256 fee);\n\tevent Redeemed(uint256 token_amount, uint256 eth_amount);\n\tevent PrizeForMusician(address musician, uint256 prize, uint8 position);\n\tevent PrizeForInvestor(address investor, uint256 prize, uint8 position);\n\tevent AllPrizesDistributed();\n\n\tstruct Song {\n\t\taddress owner;\n\t\tuint256 votes;\n\t\tEnumerableSet.AddressSet voters;\n\t}\n\n\tstruct Ranking {\n\t\tuint256 track_id;\n\t\tuint256 votes;\n\t}\n\n\t// track => { owner, votes, voters }\n\tmapping(uint256 => Song) participants;\n\tEnumerableSet.UintSet voted_songs;\n\n\tMelody token;\n\tTrack track;\n\tuint256 half_star_value;\n\tuint256 prize_fee;\n\n\tmodifier canVote(uint256 track_id, uint256 half_stars) {\n\t\trequire(track.exists(track_id), \"Track does not exist\");\n\t\trequire(!participants[track_id].voters.contains(msg.sender), \"Track already voted\");\n\t\trequire(msg.sender != track.ownerOf(track_id), \"Cannot vote your own track\");\n\t\t_;\n\t}\n\n\tconstructor(\n\t\tuint256 _start, \n\t\tuint256 _end, \n\t\tMelody _token, \n\t\tTrack _track, \n\t\tuint256 _half_star_value,\n\t\tuint256 _prize_fee\n\t) {\n\t\ttoken = _token;\n\t\thalf_star_value = _half_star_value * 1 ether;\n\t\tstart = _start;\n\t\tend = _end;\n\t\ttrack = _track;\n\t\tprize_fee = _prize_fee;\n\t}\n\n\tfunction payVoteFee(uint256 vote_value) internal {\n\t\ttoken.transferFrom(msg.sender, address(this), vote_value);\n\n\t\temit FeePayed(msg.sender, vote_value);\n\t}\n\n\tfunction vote(uint256 track_id, uint256 half_stars) public whenRunning canVote(track_id, half_stars) payable {\n\t\tuint256 vote_value = half_star_value * half_stars;\n\n\t\trequire(token.balanceOf(msg.sender) >= vote_value, \"Not enough funds to give this vote\");\n\t\tpayVoteFee(vote_value);\n\t\t\n\t\tvoted_songs.add(track_id);\n\t\tparticipants[track_id].votes += half_stars;\n\n\t\t// Check if the track owner is changed or if it null and update it\n\t\taddress track_owner = track.ownerOf(track_id);\n\t\t// Avoid checking for difference to reduce gas fee\n\t\tparticipants[track_id].owner = track_owner;\n\n\t\t// Add the address of the voter to the set of voters if not yet present\n\t\tparticipants[track_id].voters.add(msg.sender);\n\n\t\temit Voted(msg.sender, track_id, half_stars);\n\t} \n\n\tfunction getBalance() public view returns(uint256) { return address(this).balance; }\n\tfunction getTokenBalance() public view returns(uint256) { return token.balanceOf(address(this)); }\n\n\tfunction finalize() public onlyOwner whenClosed {\n\t\t_finalize();\n\t\t_distribute();\n\n\t\temit AllPrizesDistributed();\n\n\t\tredeem();\n\t}\n\n\tfunction _swapTrack(Ranking memory new_ranking, Ranking memory old_ranking) internal pure returns(Ranking memory, Ranking memory) {\n\t\tif(new_ranking.votes > old_ranking.votes) {\n\t\t\treturn (old_ranking, new_ranking);\n\t\t}\n\t\treturn (new_ranking, old_ranking);\n\t}\n\n\tfunction _distribute() internal {       \n\t\tRanking memory first_place;\n\t\tRanking memory second_place;\n\t\tRanking memory third_place;\n\t\tRanking memory old;\n\n\t\tuint256 track_id;\n\n\t\tfor(uint256 i; i < voted_songs.length(); i++) {\n\t\t\t// caches the current track_id\n\t\t\ttrack_id = voted_songs.at(i);\n\n\t\t\t// Check if current track has more votes than the first one, in case swap them\n\t\t\t(old, first_place) = _swapTrack(\n\t\t\t\tRanking({\n\t\t\t\t\tvotes: participants[track_id].votes, \n\t\t\t\t\ttrack_id: track_id\n\t\t\t\t}), \n\t\t\t\tfirst_place\n\t\t\t);\n\n\t\t\t// Check if the track with less votes in the previous step has more votes than \n\t\t\t// the one marked as second, in case swap them\n\t\t\t(old, second_place) = _swapTrack(old, second_place);\n\n\t\t\t// Check if the track with less votes in the previous step has more votes than \n\t\t\t// the one marked as third, in case swap them, the one with less votes is simply\n\t\t\t// trashed\n\t\t\t(, third_place) = _swapTrack(old, third_place);\n\t\t}\n\n\t\t(uint256 first_place_prize, address first_place_address) = _computeMusicianPrize(1, first_place);\n\t\t(uint256 second_place_prize, address second_place_address) = _computeMusicianPrize(2, second_place);\n\t\t(uint256 third_place_prize, address third_place_address) = _computeMusicianPrize(3, third_place);\n\n\t\tuint256 balance = token.balanceOf(address(this)) - first_place_prize - second_place_prize - third_place_prize;\n\n\t\t// Send the prizes to the winners and investors\n\t\t_sendPrize(first_place, first_place_address, first_place_prize, 1, balance);\n\t\t_sendPrize(second_place, second_place_address, second_place_prize, 2, balance);\n\t\t_sendPrize(third_place, third_place_address, third_place_prize, 3, balance);\n\t}\n\n\tfunction _computeMusicianPrize(uint8 position, Ranking memory ranking) internal view returns(uint256, address) {\n\t\tuint256 prize = ranking.votes * half_star_value * 100; // normalize fee percentage given as integer\n\t\tuint256 fee = ranking.votes * half_star_value * prize_fee * position;\n\n\t\treturn ((prize - fee) / 100, participants[ranking.track_id].owner);\n\t}\n\n\tfunction _computeInverstorPrize(uint256 balance, uint8 position, Ranking memory ranking) internal view returns(uint256) {\n\t\t// the balance is divided in 8 chunks (125 is 0.125 of the total) each position receive the specified chunk\n\t\t// shifted right by 2; returns 4, 2.75 or 1.25 which are the shares of the total balance given to the investor of the classified\n\t\tuint256 prize = balance * 125 * (position == 1 ? 400 : (position == 2 ? 275 : 125));\n\t\tuint256 fee = prize * 5 * position;\n\n\t\treturn (prize * 100 - fee) / participants[ranking.track_id].voters.length() / 1e7;\n\t}\n\n\tfunction _sendPrizeToInvestor(Song storage song, uint256 prize, uint8 position) internal {\n\t\tfor(uint256 i; i < song.voters.length(); i++) {\n\t\t\taddress investor = song.voters.at(i);\n\n\t\t\ttoken.transfer(investor, prize);\n\n\t\t\temit PrizeForInvestor(investor, prize, position);\n\t\t}\n\t}\n\n\tfunction _sendPrize(\n\t\tRanking memory rank, \n\t\taddress first_place_address, \n\t\tuint256 first_place_prize, \n\t\tuint8 position, \n\t\tuint256 balance\n\t) internal {\n\t\t// Track id = 0 will never exist so if it is null the position is not filled\n\t\tif(rank.track_id != 0) {\n\t\t\t// send prize to the winner\n\t\t\ttoken.transfer(first_place_address, first_place_prize);\n\n\t\t\temit PrizeForMusician(first_place_address, first_place_prize, position);\n\t\t\t\n\t\t\t// send prize to the investors\n\t\t\tuint256 investor_prize = _computeInverstorPrize(balance, 1, rank);\n\t\t\t_sendPrizeToInvestor(participants[rank.track_id], investor_prize, position);\n\t\t}\n\t}\n\n\tfunction redeem() public onlyOwner whenClosed {\n\t\taddress addr = address(this);\n\t\tuint256 token_amount = token.balanceOf(addr);\n\t\tuint256 eth_amount = addr.balance;\n\n\t\t// Transfer all the tokens (and ether if someone sent it) to the owner\n\t\ttoken.transferFrom(addr, owner(), token_amount);\n\t\tpayable(owner()).transfer(eth_amount);\n\n\t\temit Redeemed(token_amount, eth_amount);\n\t}\n}",
  "sourcePath": "/home/ebalo/Desktop/Projects/blockchain/block-chain/contracts/TrackElection.sol",
  "compiler": {
    "name": "solc",
    "version": "0.8.1+commit.df193b15.Emscripten.clang"
  },
  "schemaVersion": "3.4.1",
  "updatedAt": "2021-05-16T08:39:00.968Z",
  "devdoc": {
    "kind": "dev",
    "methods": {
      "owner()": {
        "details": "Returns the address of the current owner."
      },
      "renounceOwnership()": {
        "details": "Leaves the contract without owner. It will not be possible to call `onlyOwner` functions anymore. Can only be called by the current owner. NOTE: Renouncing ownership will leave the contract without an owner, thereby removing any functionality that is only available to the owner."
      },
      "transferOwnership(address)": {
        "details": "Transfers ownership of the contract to a new account (`newOwner`). Can only be called by the current owner."
      }
    },
    "version": 1
  },
  "userdoc": {
    "kind": "user",
    "methods": {},
    "version": 1
  }
}